:020000040800F2
:1000000028160020B5010008AB540008654C000814
:10001000A9540008751A0008416800080000000093
:10002000000000000000000000000000D161000896
:100030005B1C00080000000025590008ED61000865
:10004000CF010008CF010008CF010008F5590008D2
:10005000CF010008CF010008CF010008CF01000840
:10006000CF010008CF010008CF010008CF01000830
:10007000011C00080D1C0008191C0008251C0008A4
:10008000CF010008CF010008CF010008CF01000810
:100090008D670008CF010008CF0100088321000808
:1000A000CF010008CF010008CF010008CF010008F0
:1000B000CF010008CF010008CF010008CF010008E0
:1000C000CF010008CF010008CF010008CF010008D0
:1000D000CF010008516700086967000875670008CC
:1000E0005D210008CF010008CF01000800F002F8F0
:1000F00000F051F80AA090E8000C82448344AAF171
:100100000107DA4501D100F046F8AFF2090EBAE86E
:100110000F0013F0010F18BFFB1A43F0010318473B
:10012000047D0000247D0000103A24BF78C878C107
:10013000FAD8520724BF30C830C144BF04680C60ED
:10014000704700000023002400250026103A28BF35
:1001500078C1FBD8520728BF30C148BF0B60704739
:10016000662907F06E81642900F0BC80782900F0D0
:10017000F580002070471FB59DE8030000F040FAAD
:1001800000F038FD04000020002106F077FCE0605C
:100190001FBD10B510BD00F04FFE1146FFF7EBFF7D
:1001A00006F0E2FB00F06DFE03B4FFF7F2FF03BCC4
:1001B00006F0B1FB0948804709480047FEE7FEE723
:1001C000FEE7FEE7FEE7FEE7FEE7FEE7FEE7FEE707
:1001D00004480549054A064B70470000276300089C
:1001E000ED0000082806002028160020280E002018
:1001F000280E002070B5064600F0E6F9056806F105
:100200000B0020F00704B4429CBF002070BD2B46B9
:100210006A68BAB11068A04210D304F1080188429C
:100220003CBF5068586007D351681019416011688D
:10023000091B016058601460101D70BD13465268A0
:10024000002AE7D12146284600F0C6F90028DED171
:1002500070BD00000FB4044910B503AA029800F065
:10026000B3FC10BC5DF814FB480000200FB41CB5B3
:10027000074B06AA7B4469460090059800F08BFC6A
:100280000020694600F09AFC1CBC5DF814FB0000DD
:100290004509000070B5044685690068C10601D5AE
:1002A000302600E02026C00707D070BDD4E9012128
:1002B00030469047206A401C20626D1EF6D570BD06
:1002C00070B5044685690078C00707D170BDD4E9D0
:1002D000012120209047206A401C20626D1EF6D527
:1002E00070BD00002DE9F041064600241068752914
:1002F000314616A510D0AFF30080002802DA404244
:1003000013A507E031688A0701D512A502E0490765
:1003100004D511A5012401E0AFF3008000210A22D9
:1003200006F1240709E0B0FBF2FCB0FBF2F302FB9C
:100330001C00303078541846491C0028F3D123465D
:100340002A463046BDE8F04100F0B7B90000000091
:100350002D0000002B0000002000000070B50446B6
:100360000D4621461068AFF300802188090502D5AB
:100370000F4A7A4402E00E4A7A440E32002104F118
:10038000240305E000F00F060009965D5E54491C49
:100390000028F7D120780023000704D5702D02D063
:1003A00009B1022311322046BDE8704000F085B942
:1003B000E07900002DE9F05F894604464FF0000A1D
:1003C000DFF824B1FB44C0F820A02046E16888474C
:1003D00000287DD0252806D0D4E901219047206A45
:1003E000401C2062F1E700255F462046E16888470F
:1003F0002028064607DB312E05D2B81910F8200C4C
:1004000008B10543F1E7A80701D525F00405C4F8B4
:100410001CA00027C4F818A02A2E09D0304606F0E8
:1004200073FA38B304EB8708303EC8F8186019E057
:1004300059F8041B204604EB87029161E168884764
:10044000012F064618D1E069002820DA25F02005A2
:100450001DE0D8F8180000EB800006EB40003038B3
:10046000C8F818002046E1688847064606F04CFAAE
:100470000028EED1012F0AD02E2E08D12046E168A7
:1004800088477F1C0646022F45F02005C4DBA06983
:10049000002803DA404245F00105A061E80701D0D9
:1004A00025F01005A6B1A6F14100192802D8203682
:1004B00045F400654A463146204625604D46FFF723
:1004C0004FFE60B1012807D0ED1D25F0070000E0C8
:1004D00007E000F1080978E705F1040975E73046FF
:1004E0007AE7206ABDE8F09FB679000040EA010390
:1004F000024630B59B0710D14FF0013400E008C22E
:1005000008C91D1B9D4315EAC41FF8D013F0FF0155
:1005100002F8011B0DD01B0AF8E711F8013B002B74
:1005200002F8013B05D011F8013B002B02F8013B1A
:10053000F3D130BD10B5431C02E010F8011B71B1BE
:100540008107FAD14FF0013202C88C1A8C4314EAA9
:10055000C211F9D0C01A0A0603D0C01E10BDC01ABD
:1005600010BD0A0401D0801E10BD0902FCD0401E3F
:1005700010BD4FF0000200B5134694469646203950
:1005800022BFA0E80C50A0E80C50B1F12001BFF44C
:10059000F7AF090728BFA0E80C5048BF0CC05DF8B2
:1005A00004EB890028BF40F8042B08BF704748BF00
:1005B00020F8022B11F0804F18BF00F8012B704774
:1005C000704770477047000000487047CC05002016
:1005D000704770477047704738B504460A46002098
:1005E0006946AFF30080002808BF38BD0246009975
:1005F000204600F003FB012038BD012000F014BCB0
:10060000F8B5AFF30080054600200C46102000BF6F
:100610000646A819A0420DD9324669460020AFF31C
:100620000080070008BF00F0FFFB0098A04218BF41
:100630000546C419FFF7C8FF05600746F01D20F006
:1006400007004619284600F00AF8B44208BFF8BD72
:10065000A21B31463868BDE8F84000F0CFBA00214F
:100660000160C0E9011070471020704770B5044662
:10067000051FFFF7A9FF0068002C14BF446870BD78
:10068000002C18BFAC423CBF20466468F8D3016818
:100690000A18AA4218BF456003D12A6805461144CA
:1006A000016028684119A1421CBF6C6070BD61687F
:1006B000696021680844286070BD2DE9F0470D4647
:1006C00099469246044600F124080168880604D53C
:1006D000E06921F01001216000E00120A84201DD65
:1006E000471B00E00027A1697A1902EB0900081AEC
:1006F000A0612078C00602D42046FFF7CBFD00267B
:1007000008E0D4E901211AF806009047206A401C4D
:10071000761C20624E45F4DB2078C0060AD52046C0
:10072000FFF7B8FD06E0D4E9012130209047206AA8
:10073000401C2062381EA7F10107F4DC07E0D4E971
:10074000012118F805009047206A401C2062281EED
:10075000A5F10105F3DC2046FFF7B2FD2078000685
:1007600002D50220BDE8F0870120FBE770472DE9A4
:10077000FF4F0C461E464FF0FF378BB0D2E9000109
:10078000DDF860800A908A46C1F30A5505B93D46F6
:10079000002108464FF00000BAF1000F00F44000BD
:1007A00005DA00EB80004FF4400101EA50004FEA07
:1007B0009059B9F1010F00DDB9460A9850EA4A0094
:1007C0000ED044F61050A5F2FF3545432F14B8F172
:1007D000000F1ED07542291E1EDDC9F100021CE06B
:1007E000B8F1010F4FF0000001D0302103E0F243D7
:1007F00005E02154401CB042FBDB304600220021C2
:1008000021540B99C1F80880C1E900200FB0BDE860
:10081000F08FBD1B6D1CDEE74A4600DA694206A870
:1008200000F08CFA06AB93E8070003AB83E80700FF
:1008300050460A9900F0BCFB8DE80700A0F5005077
:100840001F3800900398002D0ADD42F21F014A462E
:100850000844002303A90390684600F025FE09E040
:10086000A0F500504A461F38002303A903906846AC
:1008700000F02FFE8DE807000004000C03D04FF0BD
:10088000FF30410800E01046B8F1000F03D000220D
:10089000009215461EE0751E05D400F0C9F93032ED
:1008A00062556D1EF9D5B3460122084302D00022DD
:1008B0007F1C04E02078302801D100227F1E002A0E
:1008C000099784D01DE0112D07DA00F0B1F930321C
:1008D00062556D1C50EA0102F5D1084302D0009820
:1008E000C8B10EE00021681E05E0235C625C635421
:1008F0002254401E491C8142F7DBAB46A81B401E18
:100900000990002004F80B000B98099AC0F80880A1
:10091000C0E9002B7AE711264FF0000857E72DE9D0
:10092000F04F88460446D21D22F0070191B0D1E96C
:100930000001CDE90A0105F0C3FF02460B98C00F84
:1009400001D02D2007E02068810701D52B2002E08F
:10095000202101EAC000032A099001D0072A05DB03
:1009600003464146204600F0A9F90BE120788006B5
:1009700001D5E06900E00620B8F1650F814606D098
:10098000B8F1660F18D0B8F1670F70D131E00020D0
:10099000B9F1110F009001DB112301E009F101030E
:1009A0000AAA01A90CA8FFF7E2FEDDE90C700026F7
:1009B00009F10105834647E001204B4600904FF0C6
:1009C00000470AAA01A90CA8FFF7D1FEDDE90DB086
:1009D0000C995D46002610B909F101000D18B9EB1C
:1009E000050003D4C0F1FF3609F10105A5EB0900AC
:1009F0002BE0B9F1010F01DA4FF001090020B9F144
:100A0000110F0090484601DD112300E003460AAAB9
:100A100001A90CA8FFF7ABFEDDE90C704D460026DE
:100A20008346207800070AD4AB4500DA5D4601A86A
:100A3000012D04DD411911F8011C302907D04F4563
:100A400002DA17F1040F04DA012082460FE06D1E6E
:100A5000EEE7002F02DCED1B3E4403E0781CA842C9
:100A600000DD7D1CB81B00F1010A4FF00047207823
:100A7000000703D4AA4501DB4FF0FF3A0021B7F18C
:100A8000004F0DF143088DF8431024D002202B2392
:100A9000002F01DA7F422D230A21021EA0F101005E
:100AA00000DC5FB197FBF1FC97FBF1F201FB1C7CD2
:100AB00017460CF1300C08F801CDEEE7A8F1010063
:100AC00003702188090501D5452100E06521A0F1C9
:100AD000010800F8011C09980FA9A1EB0807FF1DE8
:100AE00000B10120411901EBEA70A1693844081AEC
:100AF000401EA0612078C00602D42046FFF7CAFB42
:100B0000099828B1D4E901219047206A401C20624D
:100B10002078C00622D52046FFF7BCFB1EE0002E41
:100B200004DBB34502DD01A8805D00E03020D4E99C
:100B300001219047206A401C2062761CAAF1010026
:100B40005FEA000A0AD100F055F8C0680168405C0D
:100B5000D4E901219047206A401C2062281EA5F19B
:100B60000105DCDC07E0D4E9012118F8010B90470E
:100B7000206A401C2062381EA7F10107F3DC2046E2
:100B8000FFF79EFB032011B041E6000001694A1CFB
:100B900002610878704700B58FB0CDE901310021BE
:100BA000059105497944CDE9031011466846FFF7E0
:100BB00001FC0FB000BD0000E5FFFFFF0A6802F86E
:100BC000010B0A6070470000074B70B50D467B446F
:100BD000FFF7E1FF0446284600F022F910B14FF07C
:100BE000FF3070BD204670BD7F5D0000004870473B
:100BF000C405002000487047E40500200346406813
:100C00008C46002818BF88423CBF03464068F8D392
:100C100018681844884207D00CF1030020F0070040
:100C2000001D411A521A0146081D0A60FFF71EBD39
:100C300030B5B0F10A024FEA900E71F100034EEAAE
:100C4000817EB0EB0E0061EB91014FEA101E4EEA7F
:100C5000017E10EB0E0041EB11114FEA102E4EEA0F
:100C6000016E10EB0E0041EB11214FEA104E4EEADF
:100C7000014E10EB0E0041EB1141401841F1000113
:100C80004FEAD00040EA41704FEAD10110EB8005F5
:100C90004FEA810444EA907444EB01046D1944EB7B
:100CA0000404521BA3414FF0000348BF0A3200D591
:100CB00030BD401C41F1000130BD00002DE9F04184
:100CC0001F46044603260168072A01F4006004DB7E
:100CD00008B116A505E016A503E008B115A500E0CA
:100CE00015A521F010002060A069C01EA0610FB101
:100CF000401EA0612046FFF7CDFA4FB1D4E9012193
:100D000038469047206A401C2062C01C206206E0E2
:100D1000206AFAE7D4E9012115F8010B9047761E05
:100D2000F8D22046FFF7CCFABDE8F0814E414E00E4
:100D30006E616E00494E4600696E66002DE9F0470F
:100D4000814616468AB0354878440DC88DE80D00B6
:100D500032487844801C03AC0DC884E80D0041F68D
:100D60009B300844372190FBF1F290FBF1F5A5F19F
:100D7000800501FB12041B3C02D56442012000E007
:100D80000020DFF898A080460027FA44AAF1BE0AA6
:100D90000EE0E0070AD03246684607EB4701012320
:100DA0000AEB810100F095FB8DE8070064107F1CC1
:100DB000002CEED1194F7F44AE3F19E0E80715D063
:100DC00007EB04100DF1180A90E80E008AE80E00F7
:100DD000C068F04201D1981908903246012306A953
:100DE00003A800F076FB03AB83E807006D10641CDA
:100DF000002DE3D14FF0010332466946B8F1000FF0
:100E000003A802D000F050FB01E000F062FBC9E94A
:100E10000001C9F808200AB0BDE8F087C0700000E2
:100E2000007B00F08000704710B500F039F8BDE895
:100E3000104000F02FB870477546FFF7D7FEAE465A
:100E400005006946534620F00700854618B020B5D6
:100E5000FFF7BEF9BDE820404FF000064FF0000755
:100E60004FF000084FF0000B21F00701AC46ACE852
:100E7000C009ACE8C009ACE8C009ACE8C0098D46BF
:100E8000704710B50446AFF300802046BDE810401F
:100E9000FFF78AB9002801D005F03DBD704700007A
:100EA00010B5012805D0002103A000F061F8012051
:100EB00010BD09A1F8E7000053494752544D454D74
:100EC0003A204F7574206F662068656170206D65EB
:100ED0006D6F7279000000003A2048656170206DE6
:100EE000656D6F727920636F7272757074656400DE
:100EF0004FF0013C50F8042B51F8043B9A4221D1A9
:100F0000A2EB0C03934313EACC1317D150F8042B34
:100F100051F8043B9A4215D1A2EB0C03934313EA18
:100F2000CC130BD150F8042B51F8043B9A4209D151
:100F3000A2EB0C03934313EACC13DBD04FF0000079
:100F4000704700BFD01A01BAB1FA81F101F018015F
:100F500022FA01F0CB40C1F12001DBB2C0B2C01ACD
:100F60002CFA01F3D11A914311EAC311E6D170476B
:100F700070B505460C460A2000E06D1C00F011F823
:100F800035B128780028F8D102E0641C00F009F897
:100F900014B120780028F8D1BDE870400A20AFF3E2
:100FA000008008B569468DF800000320ABBE08BD7F
:100FB0005FEA400C08BF91F0000F4FEA8C234FEA24
:100FC000C12243EA51514FEA1C5018BF00F5F040CE
:100FD0004FEA300018BF41F000415FEA6C5C00F05E
:100FE0002980BCF1FF3F08BF40F080407047130CE0
:100FF00006BF12044FF0100C4FF0000C130E04BF8C
:1010000012020CF1080C130F04BF12010CF1040CB6
:10101000930F04BF92000CF1020CD30F04BF5200D7
:101020000CF1010C11464FF00002A0F11F00A0EBE3
:101030000C00704711F0004F08BF704731F00041BD
:101040003FF4D5AF0B0C06BF09044FF0100C4FF066
:10105000000C0B0E04BF09020CF1080C0B0F04BFAF
:1010600009010CF1040C8B0F04BF89000CF1020C78
:10107000CB0F04BF49000CF1010CCCF12003A0EB15
:101080000C0022FA03F302FA0CF241EA030100F128
:101090000100704720F07F4C80EA030023F07F4777
:1010A000ACEB070303F57C5300F0004003F1FF03B2
:1010B0002DE980494FEA154B09B44FEA144325EA5C
:1010C0000B4E24EA03480FF2042606EB13274908C7
:1010D0003E785FEA320203FB0667C7F5000707FBAD
:1010E00006F64FEA54374FEAD64606F1020607FBEA
:1010F000066CCCF1005C4FEA1C472CEA074C07FB5E
:1011000006F40CFB06F504EB15464FEA961634BFC1
:1011100000204FF000404FEAD13706FB07FC4FEAB2
:101120001C4C0CFB0BF7D21B03FB0CF761EB07010C
:101130000CFB0EF7B0EB074072EB17420CFB08F705
:1011400034BFA2EB0742B2EB074261EB17414FEA13
:101150000C444FEA910706FB07FC4FEA1C4C0CFBC2
:101160000BF7B0EBC74072EB573203FB0CF734BF01
:10117000A2EBC742B2EBC74261EB57310CFB0EF753
:10118000B0EBC70072EB57720CFB08F734BFA2EB51
:10119000C702B2EBC70261EB5771039F4FEA81614F
:1011A00041EA921104EBCC044FEAD1374FEA826254
:1011B00006FB07FC42EA90124FEA80604FEA1C4CA3
:1011C0000CFB0BF7D21B03FB0CF761EB07010CFBCD
:1011D0000EF7B0EB074072EB17420CFB08F734BF79
:1011E000A2EB0742B2EB074261EB17414FEA8C5585
:1011F0004FEA910704EB9C2406FB07FC4FEA1C4CCA
:101200000CFB0BF7B0EBC74072EB573203FB0CF74C
:1012100034BFA2EBC742B2EBC74261EB57310CFBC4
:101220000EF7B0EBC70072EB57720CFB08F734BF38
:10123000A2EBC702B2EBC70261EB577115EB4C256D
:101240004FEA816141EA92114FEA82624FEAD13757
:1012500042EA901206FB07FC44F100044FEA80606A
:101260004FEA1C4C0CFB0BF7D21B03FB0CF761EB9A
:1012700007010CFB0EF7B0EB074072EB17420CFBBB
:1012800008F734BFA2EB0742B2EB074261EB17410C
:1012900015EB1C154FEA813141EA92414FEA823247
:1012A00042EA90424FEA80304FEA0C7644F1000463
:1012B00048EA03434EEA0B484FF0000EB2EB080C2D
:1012C00071EB030724BF624639464EEB0E0E4FF01A
:1012D000000B0018524149414BEB0B0BB2EB080CD1
:1012E00071EB03077BF1000B24BF624639464EEBDE
:1012F0000E0E4FF0000B0018524149414BEB0B0B07
:10130000B2EB080C71EB03077BF1000B24BF6246C4
:1013100039464EEB0E0E51EA020718BF46F00106A1
:1013200016EB0E7655F1000254F1000103D5BDE82D
:101330008901BDE80088BDE88901BDE80048B6190B
:10134000524141EB0101A3F10103704780807F7E90
:101350007D7C7B7A7978777676757473727171702B
:101360006F6E6E6D6C6C6B6A6A69686867666665DD
:101370006464636362616160605F5F5E5E5D5D5C6B
:101380005C5B5B5A5A5959585857575656555555DC
:101390005454535352525251515050504F4F4F4E3C
:1013A0004E4D4D4D4C4C4C4B4B4B4A4A4A4949498A
:1013B00048484847474747464646454545444444CC
:1013C000444343434342424242414141002B9C46F5
:1013D00030D477002BD01CB54FEA370703B44FF059
:1013E00010004FF01001BAF1000F06D0BCF1000F51
:1013F000DCBF40F0080040F008014FF000000FBCD7
:10140000BDE810400BF1010BBBF1010F08BF5FEA13
:10141000170722BF12F1010211F101014FF0004143
:1014200043F1000300F0004043EA00007047F9D3A5
:101430005708D0E746EA064613F1400F4FEA164632
:101440001FDD13F1200FDFBF16430A4600212033B2
:101450005B42BED0C3F1200746EA064602FA07F710
:101460004FEA164646EA0706C3F1200722FA03F2BE
:1014700001FA07F721FA03F14FF0000342EA0702ED
:10148000A7E746EA020646EA06464FEA164646EA55
:101490000106BCBF46EA0646360C4FF000034FF08B
:1014A00000024FF0000194E72DE9804C9A469346E4
:1014B00070B491E8380007C831EA400C48BF34EAFC
:1014C000430C03D5FFF7E6FDFFF780FFF0BCBDE856
:1014D000008C2DE9804C9A46934670B491E8380010
:1014E00007C810F0804F08BF13F0804F03D100F001
:1014F00005F8FFF76BFFF0BCBDE8008C20F07F47DC
:1015000080EA030023F07F4C07EB0C03A3F57C5328
:1015100000F00040A3F1FE0392F0000F00F0B38052
:1015200095F0000F00F077802DE901494FEA114056
:101530004FEA144621EA004800FB06FC24EA06476D
:1015400008FB06F607FB08F800FB07F718EB064850
:101550004CEB164C4FEA124B18EB07484FEA154676
:101560004CEB174022EA0B4E0BFB06FC25EA064724
:101570000EFB06F607FB0EFE0BFB07F71EEB064EF7
:101580004CEB164C4FF000061EEB074E4CEB174B86
:1015900018EB0B0840F1000018EB0E0B58EB00089D
:1015A00040F100008F1A4FF000013CBFC943661B99
:1015B00014BFB5EB040C00213CBFC943F61B4FEA36
:1015C00017444EEA8E0E27EA04454FEA1C4704FBF7
:1015D00007622CEA074C05FB07F70CFB05F604FB3A
:1015E0000CFC16EB074642EB174216EB0C4642EB9F
:1015F0001C421BEB060658EB0202414146EA9E06DE
:1016000001D5BDE80189B619524141EB0101A3F1B1
:101610000103BDE801894FEA14454FEA114724EA66
:10162000054621EA074C05FB07F406FB07F70CFB10
:1016300006F105FB0CFC11EB074144EB17444FEAA4
:10164000124711EB0C4144EB1C4422EA074C05FB0A
:1016500007F206FB07F70CFB06F605FB0CFC16EB86
:10166000074642EB174216EB0C4642EB1C456A1844
:1016700054F1000148BF7047B619524141EB0101D6
:10168000A3F10103704795F0000F37D04FEA1142E4
:101690004FEA144721EA024624EA074C02FB07F10D
:1016A00006FB07F70CFB06F402FB0CFC14EB0744EB
:1016B00041EB17414FEA154714EB0C4441EB1C4139
:1016C00025EA074C02FB07F506FB07F70CFB06F6BD
:1016D00002FB0CFC16EB074645EB174516EB0C46D8
:1016E00045EB1C42121951F1000148BF7047B61971
:1016F000524141EB0101A3F1010370474FEA144548
:101700004FEA114724EA054621EA074C05FB07F199
:1017100006FB07F70CFB06F24FF0000605FB0CFC7E
:1017200012EB074241EB174112EB0C4251EB1C410B
:1017300048BF7047921841EB0101A3F101037047C4
:1017400070B5044600688168C943C90717D181682C
:1017500021F00101816001F0B1FC05460AE000BF03
:1017600001F0ACFC401B022804D920688068C0430B
:10177000C00706D020688068C043C007F0D00020B2
:1017800070BDA06A40F01000A062E06A40F0010065
:10179000E062012070BD0000F8B500260446009606
:1017A00000688168C943C9072DD0816841F00101F3
:1017B0008160164816490068B0FBF1F000E0401E59
:1017C00000900028FBD101F079FC054616E000BF2F
:1017D00001F074FC401B022810D920688068C043C7
:1017E000C0070BD0A06A40F01000A062E06A40F091
:1017F0000100E06284F824600120F8BD2068806860
:10180000C043C007E4D10020F8BD000068000020FC
:1018100040420F0010B5012000F022F8072000F030
:101820001FF8102000F01CF8BDE81040822001F0E5
:101830000BBB00001CB5002001904FF47A700090A3
:10184000022301AA4621054801F002FD9DF805008A
:101850009DF8041000EB012080B21CBDC4020020E2
:1018600001B582B04FF47A700090012302AA46219C
:10187000014801F00FFE0EBDC402002070B500F05B
:10188000CBF8054600F092F82D4C06466089218978
:10189000281A4843B4F91210B4F91420C013C9022D
:1018A000024491FBF2F1451805F10800001105F022
:1018B0002DFBC4E90601A5F57A65B4F90E0005FB18
:1018C00005F1B4F902204843C0156A4300EBE22059
:1018D000B4F90020B4F90C3000EB8200801C8210B7
:1018E000B4F90400091368434013594300EB214045
:1018F000801C8010E18800F500404143B01A4CF292
:101900005032C90B5043B0F1004F03D24000B0FB3E
:10191000F1F002E0B0FBF1F040000112494340F663
:10192000DE3251430A140749414302EB214101F6DB
:10193000CF6100EB211005F0E9FAC4E9080170BDA0
:101940000000002043E3FFFF10B5AA2004F0E4FFED
:10195000154C2080AC2004F0DFFF6080AE2004F046
:10196000DBFFA080B02004F0D7FFE080B22004F0BD
:10197000D3FF2081B42004F0CFFF6081B62004F0B3
:10198000CBFFA081B82004F0C7FFE081BA2004F0AB
:10199000C3FF2082BC2004F0BFFF6082BE2004F0A1
:1019A000BBFFA08210BD0000000000207CB5002518
:1019B000F42001958DF8040034208DF805004FF4D3
:1019C0007A74022301AAEE211248009401F062FD0C
:1019D0001E2001F039FAF6208DF80400012301AA37
:1019E000EE210C48009401F055FD022301AAEE21DE
:1019F0000848CDE9004501F02BFC9DF804009DF856
:101A00000510000440EA01209DF806100843000A72
:101A10007CBD0000C40200207CB50025F4200195A7
:101A20008DF804002E208DF805004FF47A740223FF
:101A300001AAEE210E48009401F02CFD0A2001F0CD
:101A400003FAF6208DF80400012301AAEE210848CC
:101A5000009401F01FFD022301AAEE210448CDE904
:101A6000004501F0F5FBBDF8040040BA7CBD000064
:101A7000C4020020FEE770B50C46054604F02AF8C3
:101A800020EA04012846BDE8704004F0FFBE10B50E
:101A90004FF40270FEF7AEFB044640F2FF10C4F8AC
:101AA0000402411CC4F800022046FEF762FD2046F5
:101AB00010BD00001FB50020019003901020009081
:101AC000012002906946024801F0FEF91FBD0000A6
:101AD000000801401FB510200090012001900290E5
:101AE000032003906946024801F0EEF91FBD000093
:101AF0000008014010B50D4C1021204601F0D4FA29
:101B00000028F9D0282000F0A9F81021204601F083
:101B1000CBFA012801D0002010BD1021204601F091
:101B2000C3FA0128F9D0012010BD000000080140CF
:101B300070B5002004464FF6FF7500BF05EA400669
:101B4000FFF7D8FF641C3043A4B2082CF6D370BD55
:101B500070B5044600F034F8142000F07FF800F06F
:101B600049F848BB00F046F80028FBD000F042F8E6
:101B70000128FBD05FF00005FFF7DAFF60556D1C10
:101B8000ADB2052DF8D300BF00F034F80028FBD02B
:101B9000FFF7A0FF01221021084801F08AFA2078FF
:101BA0006178E2780844A178114408442179C0B2F0
:101BB000814201D1012070BD002070BD00080140AC
:101BC00010B5FFF787FF0A4C00221021204601F0D4
:101BD00070FA132001F038F901221021204601F09B
:101BE00068FA1E2000F03AF8BDE81040FFF762BF27
:101BF000000801401021014801F056BA00080140D8
:101C0000014801F011B8000064050020014801F00E
:101C10000BB8000020050020014801F005B80000C5
:101C200098040020014800F0FFBF0000DC04002001
:101C300030B590F840500124AC40C56B6C6004682E
:101C400063604368102B036803D099600068C2602A
:101C500030BD9A600068C16030BD704770B54FF606
:101C6000FA75094E281A84B230684462304602F090
:101C700049FC306801E0416A8CB2AC42FBD3BDE85C
:101C80007040014802F066BC8403002010B50C4689
:101C9000034603F048FE10B14FF0FF3010BDD3F8FB
:101CA0000022521CD01702EBD0506FF30800101A1C
:101CB000C3F80002185C2070002010BD70B542F21D
:101CC0001075074C05E028466D1E08D3012001F071
:101CD000BBF820680028F6D000202060012070BDED
:101CE0003000002010B59AB064216846FEF741FC30
:101CF00003F0DCFB02234CA20021102003F064FC63
:101D00004DA16846FEF7F2FB6846FEF713FC82B26F
:101D10004FF47A7423466946494802F049FF02238A
:101D200048A21946102003F04FFCFFF7C7FF002818
:101D300078D0022344A20421102003F045FC43A1E3
:101D40006846FEF7D3FB6846FEF7F4FB82B22346F3
:101D500069463B4802F02CFF022340A2194610209E
:101D600003F032FCFFF7AAFF00285BD0022336A263
:101D70000421102003F028FC3BA16846FEF7B6FBC7
:101D80006846FEF7D7FB82B2234669462C4802F02C
:101D90000FFF022338A21946102003F015FCFFF7AD
:101DA0008DFF00283ED0022327A20421102003F03B
:101DB0000BFC35A16846FEF799FB6846FEF7BAFBB7
:101DC00082B2234669461E4802F0F2FE022339A27F
:101DD0001946102003F0F8FBFFF770FF002821D010
:101DE000022319A20421102003F0EEFB34A168465F
:101DF000FEF77CFB6846FEF79DFB82B223466946F0
:101E00000F4802F0D5FE022331A21946102003F03C
:101E1000DBFB022331A20421102003F0D5FB324961
:101E2000012088601AB010BD455350383236362034
:101E3000546573740000000041540D0A0000000056
:101E400054040020415400004F4B000041542B43E8
:101E500049504D55583D300D0A00000041542B4368
:101E600049504D555800000041542B4349504D4FA7
:101E700044453D310D0A000041542B4349504D4F1C
:101E800044453D310000000041542B434950535418
:101E90004152543D22544350222C223139322E31AA
:101EA00036382E3135322E323034222C3830303024
:101EB0000D0A000041542B434950535441525400E1
:101EC00041542B43495053454E440D0A0000000035
:101ED00041542B43495053454E440000546F7543C1
:101EE0006875616E2E2E2E003000002010B59AB05D
:101EF00064216846FEF73DFB03F0D8FA022322A2D4
:101F00000021102003F060FB23A16846FEF7EEFAE3
:101F10006846FEF70FFB401C82B24FF47A742346EA
:101F20006946254802F044FE022324A219461020E7
:101F300003F04AFBFFF7C2FE002823D0022322A2AF
:101F40000421102003F040FB20A16846FEF7CEFAE2
:101F50006846FEF7EFFA401C82B2234669461648EF
:101F600002F026FE02231CA21946102003F02CFBCF
:101F7000FFF7A4FE002805D0022313A2042110209D
:101F800003F022FB1AB010BD4553503832363620CC
:101F9000546573740000000041542B43574A41506C
:101FA0003D225265646D69222C223132333435363C
:101FB000373839220D0A00005404002041542B43C5
:101FC000574A4150000000004F4B000041542B4342
:101FD000494653520D0A000041542B43494653527F
:101FE0000000000010B59AB064216846FEF7C1FAFF
:101FF0001FA16846FEF77AFA6846FEF79BFA82B29E
:102000004FF47A74234669461A4802F0D1FD022340
:1020100019A21946102003F0D7FA02231AA20421AC
:10202000102003F0D1FA1CA0FEF714F91EA1684697
:10203000FEF75CFA6846FEF77DFA82B223466946EF
:102040000C4802F0B5FD02231BA21946102003F034
:10205000BBFAFFF733FE002808D0022319A204219F
:10206000102003F0B1FA1B49002088601AB010BD9F
:102070002B2B2B00540400202B2B2B202020202046
:1020800020202020000000004578697420546F75DE
:10209000436875616E0000004578697420546F755F
:1020A000436875616E0A000041542B434950434C0C
:1020B0004F53450D0A00000041542B434950434CF7
:1020C0004F53450054435020446973636F6E6E65EF
:1020D000637400003000002070B5114E114C0120D7
:1020E000706020780025052804D001280AD0062831
:1020F0000ED013E00CA0FEF7ADF8B06868B9FFF79A
:10210000F1FD0AE00CA0FEF7A5F8FFF7EFFE04E0F2
:102110000DA0FEF79FF8FFF765FF2570756070BD95
:10212000300000204C0000204B4559204F4B2050E0
:102130007265737365640A004B45592055502050F1
:102140007265737365640A004B45592045534320FB
:10215000507265737365640A0000000010B54FF497
:10216000805000F0A5FE4FF4005000F0A1FE4FF4A7
:10217000804000F09DFEBDE810404FF4004000F0AC
:1021800097BE10B5202000F093FEBDE810404FF43C
:10219000807000F08DBE10B50C46034603F0CBFBFB
:1021A00010B14FF0FF3010BDD3F80422521CD017ED
:1021B00002EBD0506FF30800101AC3F804021C544D
:1021C000002010BDF0B516460D46074600240AE073
:1021D00029783846FFF7DFFF002802DA4FF0FF309A
:1021E000F0BD641C6D1CB442F2D30020F0BD72B689
:1021F000FEE70000F8B50024009490F8242025465E
:10220000012A12D0012280F824204A681F23072ABD
:102210000DD20668776B521E02EB820293409F43F9
:102220000B6893401F43776319E00220F8BD0668EE
:102230000D2A0AD2376BD21F02EB820293409F43D2
:102240000B6893401F43376309E0F76A0D3A02EBCE
:10225000820293409F430B6893401F43F7620A68D2
:10226000072306680A2A0AD3F7680A3A02EB4202F1
:1022700093409F438B6893401F43F76008E03769A2
:1022800002EB420293409F438B6893401F433761A8
:102290000A68102A01D0112A20D1124B02689A42F2
:1022A00017D193681B0219D4936843F40003936019
:1022B0000968102912D10C490C4A0968B1FBF2F1E6
:1022C00001EB8101490000E0491E00910029FBD18A
:1022D00004E0816A41F020018162012480F82450E9
:1022E0002046F8BD002401406800002040420F0055
:1022F0000068C06C704700002DE9F0414FF0000706
:1023000004003D467ED0A06A002628B9E66284F823
:102310002460204600F07EF82046FFF711FAA16AFB
:10232000C90600D420B1A06A40F01000A06269E0A4
:10233000A16A21F4885141F00201A1626268E16959
:10234000237B0A4347EA43010A43A1684FF480779D
:10235000B94209D0012907D05FF0000194F814C0F8
:10236000BCF1010F02D00AE03946F7E7F3B1A36AE6
:1023700043F02003A362E36A43F00103E3622368AE
:10238000D3F804C02CF4694C4CEA010CC3F804C027
:1023900021688B68DFF870C003EA0C0313438B607D
:1023A000A168B9420BD0012909D00CE0DFF85CC06C
:1023B000A3690CEB43330B4343F40061DFE7218A4D
:1023C0000D05A5F580152168CB6A23F470032B4316
:1023D000CB62216889680E4B1940914208D1E662B0
:1023E000A16A21F0020141F00101A162BDE8F08182
:1023F000A06A20F0020040F01000A062E06A40F005
:102400000100E0620120F1E7FDF7E1FF00E0FFFFDE
:10241000FE0E1FFF00B585B00021009101910291D1
:10242000039100680E49884217D10E48816941F432
:1024300000718161816901F400710491816941F049
:10244000040181618069694600F004000490032062
:1024500000900190044800F037FD05B000BD000079
:102460000024014000100240000801402DE9F8431B
:1024700000270D460446009700F020FE80462068A5
:102480008168C90508D5A06A40F02000A06284F8E0
:1024900024700120BDE8F8834168C90503D4C06AEF
:1024A00010F4700F2AD0022001F04EF93B49096860
:1024B000B1FBF0F62068036939490B424FEA61012C
:1024C0004FEAA1121FD1C3684FEA611C13EA0C0F37
:1024D00019D103690B4225D1C068104222D11420C2
:1024E00023E0681C0AD02DB100F0E8FDA0EB080045
:1024F000A84203D920680068800725D520680068B5
:102500008007EED52DE003690B4202D1C16811426C
:1025100006D0026923490A4206D1C068084203D1A5
:10252000542002E0292000E0FC204643009816E0F9
:10253000681C11D02DB100F0C1FDA0EB0800A8422D
:102540000AD90098B04207D2A06A40F00400A06205
:1025500084F8247003209DE70098401C0090B0424E
:10256000E6D321686FF012000860A06A40F40070A2
:10257000A06220688068C0F3424007280CD1207B0D
:1025800050B9A06A20F48070A062A06AC00403D48D
:10259000A06A40F00100A06200207BE768000020F4
:1025A000244992244992240070B5044690F82400EE
:1025B00001280DD0012084F824002046FFF7ECF814
:1025C00002004FF0000005D084F82400104670BDD2
:1025D000022070BDA16A40F20123994341F4807149
:1025E000A1621F4D23681F49AB4218D10E6816F433
:1025F000702F14D0A66A46F48016A6620E6876057F
:1026000005D5A66A26F4005646F48056A662A66A48
:10261000F6040AD5E66A26F00606E66206E0A66A31
:1026200026F48016A6625E68E9E7E06284F824007A
:102630006FF00200186020688368C3F34243072BE1
:1026400005D1A84208D1096811F4702F04D081681F
:1026500041F480118160B9E7816841F4A001F9E794
:102660000028014004240140704730B590F8204014
:10267000012C05D0022C03D0416A41F480215DE099
:102680000468002955D02469A40754D04FF4D874A5
:10269000056804EB01142D5915F0040595600568D3
:1026A0002D594ED0ED08556005682C5904F00204F0
:1026B000D4604FF4DA74056804EB01142D5905F069
:1026C0000F05156105682D59C5F307259561056846
:1026D0002C59240C54614FF4DC72046802EB011293
:1026E000A4581C700468A458240A5C700468A45898
:1026F000240C9C700468A258120EDA704FF4DE723B
:10270000046802EB0112A4581C710468A458240A3E
:102710005C710468A458240C9C710468A258120EC1
:10272000DA71006881B1016941F020010161002086
:1027300030BDE468A8E7416A41F40011416201201C
:1027400030BD6D0D1560AFE7C16841F02001C1607B
:10275000EDE72DE9F05F0546006800244669D0F8F2
:1027600004908768D0F80CB0D0F810A0D0F818808A
:10277000F10748D0F90714D001218160B80703D5CB
:10278000284600F0DBF90CE0780702D54FF400642E
:1027900007E0380702D54FF4805402E0284600F0E5
:1027A000CCF9F80516D529684FF480708860B80513
:1027B00003D5284600F0C4F90CE0780502D544F4AE
:1027C000005407E0380502D544F4804402E028466E
:1027D00000F0B5F9F80316D529684FF48030886009
:1027E000B80303D5284600F0ADF90CE0780302D514
:1027F00044F4004407E0380302D544F4803402E096
:10280000284600F09EF9300707D55FEACB6004D573
:102810002968102044F40074C86070074FF008075E
:1028200007D55FEA0B7004D52868C760284600F01A
:1028300059F9B00706D52868C068800702D0284635
:1028400000F051F9700607D55FEACA6004D529681F
:10285000102044F480640861B00607D55FEA0A706E
:1028600004D528680761284600F03EF9F00606D531
:1028700028680069800702D0284600F037F9B003C5
:1028800008D55FEAC96005D5296810204860284648
:1028900000F052F9F00307D55FEA097004D5286803
:1028A0004760284600F04FF9300446D55FEA49708A
:1028B00040D5F00504D55FEAC87001D044F00104AA
:1028C000B00504D55FEA887001D544F002047005B4
:1028D00004D55FEA487001D544F00404300529D5D9
:1028E00018F0700F26D008F07000402815D006DCD4
:1028F000102809D020280AD0302816D10AE0502804
:102900000ED0602811D10EE044F008040DE044F030
:1029100010040AE044F0200407E044F0400404E01E
:1029200044F0800401E044F480742868816921F057
:1029300070018161296804204860002C05D0686A14
:10294000204368622846FFF78FFEBDE8F09F70B510
:10295000040003D094F8200010B104E0012070BD01
:10296000204600F081F82068016841F00101016013
:1029700000F0A4FB0546052604E000F09FFB401B89
:102980000A2811D820684068C007F6D0206801687E
:1029900021F00201016000F091FB05460BE000F020
:1029A0008DFB401B0A2806D9606A40F40030606243
:1029B00084F82060D2E7206840688007EFD4207E4A
:1029C0000128206801683DD021F080010160607E0F
:1029D00001282068016838D021F040010160A07E04
:1029E00001282068016833D021F020010160E07ED9
:1029F0000128206801682ED041F010010160207F7D
:102A000001282068016829D021F008010160607F59
:102A100001282068016824D021F004010160D4E974
:102A200002010843D4E90412114308436168491EB6
:102A300008432168C86100206062012084F82000FA
:102A4000002070BD41F08001C0E741F04001C5E7C2
:102A500041F02001CAE721F01001CFE741F0080161
:102A6000D4E741F00401D9E710B586B00021009108
:102A70000191029103910068174988422AD11748B1
:102A8000C16941F00071C161C16901F00071049137
:102A9000816941F0040181618069114C00F00400FA
:102AA00004904FF4006000906946204600F00CFA54
:102AB000A014009002200190032003906946204654
:102AC00000F002FA00221146142000F005FE142046
:102AD00000F0F4FD06B010BD00640040001002409C
:102AE00000080140704770477047000070B50A4AFF
:102AF000016891420FD1094B094A0021FFF7B5FD4A
:102B0000064D002421462A5D06A0FDF7A3FB641CA8
:102B1000E4B2082CF6D370BD0064004054000020DD
:102B2000A805002052585F4D6573736167655B258A
:102B3000645D3A25640A000070477047704770472B
:102B4000704770477047704710B590F82110002209
:102B5000022905D00421816380F82020012010BDC6
:102B600001680B6823F00E030B6001680B6823F00B
:102B700001030B6090F84030C46B012101FA03F3AC
:102B8000636080F8211080F82020104610BD0000FE
:102B900010B590F821100024022903D0042181638C
:102BA00001243DE001680A6822F00E020A60016813
:102BB0000A6822F001020A601A4A0168914201D1B2
:102BC000012121E0174A1432914201D110211BE06A
:102BD000144A2832914201D1891515E0114A3C323C
:102BE000914201D189140FE00E4A5032914202D134
:102BF0004FF4803108E00B4A6432914202D14FF425
:102C0000801101E04FF08071064A083A51600121BD
:102C100080F82110002180F82010416B01B1884715
:102C2000204610BD080002402DE9F05FC16B0C6822
:102C300001680B68D0F840C0042202FA0CF2494D3A
:102C4000DFF824A1494E4A4FDFF828B1DFF828E128
:102C500022422CD05A072AD50A68920603D40A6861
:102C600022F004020A600168A94201D1042219E09D
:102C7000514501D1402215E0B14202D14FF48062AA
:102C800010E0B94202D14FF480420BE0594502D125
:102C90004FF4802206E0714502D14FF4800201E03A
:102CA0004FF080622F4908394A60C16A3BE04FF01B
:102CB000020808FA0CF818EA040F4FF000094FF068
:102CC000010235D05FEA837832D50B689B0605D4C4
:102CD0000B6823F00A030B6080F821200168A942E9
:102CE00001D1022219E0514501D1202215E0B14263
:102CF00002D14FF4007210E0B94202D14FF40052F9
:102D00000BE0594502D14FF4003206E0714502D183
:102D10004FF4001201E04FF00072124908394A6086
:102D200080F82090816A00291AD0BDE8F05F08473A
:102D3000082505FA0CF5254212D01B0710D50B68A3
:102D400023F00E030B6090F84010C36B02FA01F100
:102D50005960826380F8212080F82090016BE2E7BF
:102D6000BDE8F09F080002401C0002403000024015
:102D700044000240580002406C00024030B528B3C5
:102D800008C8134914221944B1FBF2F18900C16348
:102D900010498163022141771A6843F6F0718A4332
:102DA000D0E900142143D0E902452C4321430469B2
:102DB000214344692143846921431143196000215F
:102DC0004163012242770177084630BD012030BDC2
:102DD000F8FFFDBF0000024070B5044690F82000E7
:102DE000002501280CD0012084F8200094F82160EF
:102DF0000020012E06D084F820000225284670BD50
:102E0000022070BD022684F82160A0632068066855
:102E100026F0010606602046FEF70AFFE06A002859
:102E20002068016802D041F00E0106E021F00401A3
:102E300001602068016841F00A01016020680168B2
:102E400041F001010160D9E770B5044600F036F9A0
:102E50000546601C02D004480078044400F02EF9B6
:102E6000401BA042FAD370BD5C0000200F49B0F5B2
:102E7000005F10D0B0F5804F0FD020280FD0B0F5F4
:102E8000004F0ED0B0F5805F0DD0B0F5807F01D13E
:102E90000620087070470120FBE70220F9E70320B5
:102EA000F7E70420F5E70520F3E700004C000020D9
:102EB000044910B50A68024202D00860FFF7D6FF45
:102EC00010BD0000140401402DE9F84FDFF8B8915F
:102ED000002409F1040A0AF1040B23460F270BF121
:102EE000040EC9E00125A5402A40AA427DD1674EC3
:102EF000D1F804C0ACEB0608B44532D014DCBCF108
:102F0000030F3AD009DCBCF1000F2AD0BCF1010F4D
:102F10001CD0BCF1020F31D11DE0BCF1110F17D054
:102F2000BCF1120F2AD119E0B8F5881F19D006DCC0
:102F3000B8F5803F15D0B8F5801F1FD111E0B8F566
:102F4000001F0ED0B8F5041F18D10AE0CB6815E0B9
:102F5000CB681B1D12E0CB6808330FE0CB680C3345
:102F60000CE08B682BB1012B4FF0080303D04561B7
:102F700004E0042302E0056100E00023FF2A01D8F9
:102F8000064601E000F104064FEA840501D9A5F1E7
:102F90002005D6F8008007FA05FC28EA0C0803FA99
:102FA00005F548EA0508C6F800804D68ED0062D5D1
:102FB000374DAE6946F00106AE61AD6924F00306F7
:102FC00005F001050095334D06EB050CDCF80850C3
:102FD000A607360F07FA06F825EA0805DFF8B880D5
:102FE000404503D14FF0000817E044E0DFF8AC8023
:102FF000404502D14FF001080FE0DFF8A4804045C2
:1030000002D14FF0020808E0DFF89880404502D175
:103010004FF0030801E04FF0040808FA06F848EA08
:103020000508CCF808804D68D9F80060ED034D46DE
:1030300001D5164300E096432E604D68DAF8006033
:10304000AD03554601D5164300E096432E604D680A
:10305000DBF80060ED025D4601D5164300E09643C3
:103060002E604D68DEF80060AD02754601D516434E
:1030700000E096432E60641C0D682A46E5407FF40C
:1030800031AFBDE8F88F00000004014000001110CE
:10309000001002400000014000080140000C014007
:1030A00000100140001401408068084000D0012059
:1030B00070470AB1016170470904FBE70148806865
:1030C000704700005C00002070B5040025D094F823
:1030D0003D00002520B984F83C50204600F070FAED
:1030E000242084F83D002068016821F0010101607E
:1030F0002068016841F4004101602068016821F402
:103100000041016000F090FC4D4A6168914201D895
:103110004C4900E04C49884201D2012070BD4B4926
:103120002368B0FBF1F15E6826F03F060E435E6057
:103130006368934206D94FF4967359434FF47A73F8
:10314000B1FBF3F12368491C1E6A26F03F063143A8
:1031500019626168914210D84900401EB0FBF1F23B
:10316000521CC2F30B02042A01D2042022E0B0FB5D
:10317000F1F0401CC0F30B001CE0A268F2B301EBBD
:10318000C10303EB0116431EB3FBF6F35B1C43F4D0
:1031900080431B0549D092B301EBC10202EB011140
:1031A000401EB0FBF1F0401CC0F30B0040F4804027
:1031B00040F400402168CA694CF6FF739A431043FB
:1031C000C861D4E9071001432068026822F0C002F8
:1031D00011430160D4E9030101432068826848F289
:1031E000FF339A4311438160D4E905010843216804
:1031F000CA6822F0FF021043C86001E00EE016E04A
:103200002068016841F0010101602564202084F8F4
:103210003D00256384F83E50002070BD01EB41065F
:10322000431EB3FBF6F35B1CB3E70120C2E701EBDF
:103230004101401EB0FBF1F0401CC0F30B00B7E7AA
:10324000A086010080841E0000093D0040420F005E
:103250002DE9F84F0025DDF82890984617468A4654
:1032600004460095FFF72AFF064694F83D00202803
:103270007AD11923012283492046009601F0F4FDFA
:103280000028F5D194F83C0001286DD0012084F885
:103290003C0020680168C90703D1016841F00101C1
:1032A00001602068016821F400610160222084F837
:1032B0003D00102084F83E0025646762A4F82A804F
:1032C000608D20857048E06233464A46514620466C
:1032D00001F0E0FC00287DD1208DDFF8B0812027AF
:1032E00068B1012814D00228206801681ED041F47A
:1032F000806101602068416980690090B5E02068C4
:10330000416981690091016841F400710160ACE09C
:103310002068016821F48061016072B6206841690B
:1033200081690091016841F400710AE041F4006193
:10333000016072B62068416981690091016821F4D9
:103340008061016062B690E0032868D801280CD043
:1033500002284B464FF000024146204600960FD00F
:1033600001F082FDB0BB10E08AE0324649462046BB
:1033700001F0F9FD70BB20680069616A08706BE0BC
:1033800001F072FD30BB72B634E02068016821F4B0
:103390008061016072B620680069616A0870606AC5
:1033A000401C6062208D401E2085608D401E60851F
:1033B000374846F2A8110068B0FBF1F0C0EBC0003E
:1033C00000EB80000090401E009008D0206840690B
:1033D000C04300E029E040070CD50098F3E744F82B
:1033E000305F6773A573206940F02000206162B6EA
:1033F00025731AE02068016841F4007101602068BB
:103400000069616A0870606A401C6062218D491E13
:103410002185618D491E618562B621681AE03246B8
:103420004946204601F09FFD10B10120BDE8F88F0C
:1034300020680069616A0870606A401C6062218DC2
:10344000491E2185618D491E618521684A69D243E3
:1034500052070AD409690170606A401C6062208DBD
:10346000401E2085608D401E6085208D00287FF4E1
:103470006BAF84F83D7084F83E5084F83C50D5E73B
:103480000220D3E7020010000000FFFF040001004B
:10349000680000202DE9F84F1F4690468A460446F2
:1034A000DDF82890FFF70AFE054694F83D00202835
:1034B0007FD11923012240492046009501F0D4FC18
:1034C000002876D194F83C00012872D0012084F8BD
:1034D0003C0020680168C90703D1016841F001017F
:1034E00001602068016821F400610160212084F8F6
:1034F0003D00102084F83E0000262664C4F8248095
:103500006785608D20852D48E0622B464A465146EE
:10351000204601F035FC90B920684169806900902F
:1035200036E02A464946204601F050FD50B1206C55
:10353000042804D12068016841F400710160012071
:10354000BDE8F88F606A216800780861606A401CF5
:103550006062618D491E6185218D491E89B2218578
:1035600022685369DB435B070BD451B100781061CB
:10357000606A401C6062608D401E6085208D401E28
:1035800020852A464946204601F048FC0028CED135
:10359000208D0028C5D154F83D0B016841F400711D
:1035A0000160202004F81E09E67766770020C7E74F
:1035B000FFE70220C4E70000020010000000FFFF48
:1035C00010B586B00021009101910291039100682D
:1035D0000F4988421AD10F4CA06940F00800A06141
:1035E000A069694600F008000490C02000901220F5
:1035F0000190032003900848FFF766FCE06940F45F
:103600000010E061E06900F40010049006B010BD05
:103610000054004000100240000C01400248816844
:1036200002781144816070475C000020074810B5A3
:10363000016841F010010160032000F06DF80F20D7
:1036400000F006F800F024F8002010BD0020024031
:1036500070B50D4D04464FF47A712878B1FBF0F047
:103660000A490968B1FBF0F000F0C1FE48B9102C1E
:1036700007D200222146501E00F02EF800206C6078
:1036800070BD012070BD00005C00002068000020BB
:10369000094808B5816941F001018161816901F042
:1036A00001010091C16941F08051C161C06900F020
:1036B0008050009008BD000000100240002809DB87
:1036C00000F01F02012191404009800000F1E0203C
:1036D000C0F8001170470000F0B40E4B1B680C4698
:1036E000C3F30223C3F10705042D00D90425191DD6
:1036F000072901D2002300E0DB1E012606FA05F1AE
:10370000491E214099409E40761E16403143F0BC30
:1037100003F0EAB80CED00E0064900F00702086883
:103720004FF6FF03184040EA0220034A10430860A6
:10373000704700000CED00E00000FA05014901208F
:103740000862704700000E4210B529A401461DCC46
:1037500086B08DE81D002AA02A4C00680490002045
:10376000012923D002293AD010291DD1616822688D
:10377000D20119D5C1F38342C9031DF8020009D54E
:10378000616804AAC1F34041515C1F4AB2FBF1F1E8
:10379000484301E01D4948436168490204D44000A0
:1037A0005FF00301B0FBF1F006B010BD226AC2F376
:1037B0000121012903D1920701D5C803F4E70229A9
:1037C00005D1626A920702D549F64040ECE7032929
:1037D000EAD121688903E7D54FF22440E4E700F0FD
:1037E00033F96168C1F38131491C4900DAE700000F
:1037F00002030405060708090A0B0C0D0E0F101032
:10380000010200000010024000127A0000093D0091
:103810002DE9F84305460078354CC00754D0E069DF
:103820000026C00008D4E06940F08050E061E06903
:10383000012600F0805000902E480168C90512D47E
:103840000168804641F480710160FFF737FC07464C
:1038500005E000BFFFF732FCC01B642823D8D8F86E
:103860000000C005F6D5206A10F4407021D0A98868
:1038700001F4407181421CD0206A1F49012220F4CA
:1038800040700A6000220A602062C00711D0FFF772
:1038900015FC074641F2883808E000BFFFF70EFC30
:1038A000C11B414502D90320BDE8F883206A800787
:1038B000F4D5206A696820F44070084320621EB184
:1038C000E06920F08050E0612878800705D56068C5
:1038D000A96820F44040084360602878C00605D5F8
:1038E0006068E96820F48000084360600020DBE73E
:1038F0000010024000700040400442422DE9F047B1
:103900000F46050061D0434E306800F00700B84212
:1039100009D2306820F0070038433060306800F08A
:103920000700B84251D128683B4C810712D54007A7
:1039300003D5606840F4E06060602878000703D534
:10394000606840F4605060606068A96820F0F00032
:10395000084360602878C00728D06868012810D024
:103960002168022810D0890700292EDA616821F029
:10397000030101436160FFF7A1FB804641F28839F2
:103980000DE021688903EFE78901EDE7FFF796FB7A
:10399000A0EB0801494502D90320BDE8F087606823
:1039A000696800F00C00B0EB810FEFD1306800F0D7
:1039B0000700B8420BD9306820F007003843306068
:1039C000306800F00700B84201D00120E5E7287810
:1039D000400705D56068E96820F4E060084360604E
:1039E0002878000706D56068296920F4605040EA0D
:1039F000C100606000F038F86168084AC1F3031143
:103A0000515CC8400649086006480068FFF720FE80
:103A10000020C2E700200240001002403E7D000866
:103A200068000020600000200448054900684968DB
:103A3000044AC1F30221515CC8407047680000206D
:103A4000001002404E7D000804480549006849689E
:103A5000044AC1F3C221515CC8407047680000208D
:103A6000001002404E7D000812A185B00FC98DE8FC
:103A70000F0014A0144A006804905168134801F024
:103A80000C03042B10D0082B0ED1C1F38343C903C0
:103A90001DF803000AD5516804AAC1F34041515CE6
:103AA0000A4A5043B0FBF1F005B07047084948435B
:103AB000FAE7000002030405060708090A0B0C0DCB
:103AC0000E0F1010010200000010024000127A00D8
:103AD00000093D002DE9F84F040070D02078C04D5A
:103AE000C00749D06868C0F38100012807D0686822
:103AF000C0F38100022809D16868C00306D5286890
:103B0000800339D560680028E7D035E06068B0F5FB
:103B1000803F0BD010B1B0F5A02F11D0286820F451
:103B200080302860286820F4802002E0286840F473
:103B300080302860606890B1FFF7C0FA06460AE05E
:103B4000286840F480202860F0E700BFFFF7B6FA4D
:103B5000801B642873D828688003F7D50CE0FFF732
:103B6000ADFA064605E000BFFFF7A8FA801B6428FF
:103B7000F0D828688003F7D420789A4E80074FF059
:103B800001094FF0000839D5686810F00C0F07D014
:103B90006868C0F38100022809D16868C00306D4B0
:103BA0002868800714D52069012808D110E0206911
:103BB000B0B1C6F80090FFF781FA074605E00AE1C8
:103BC000FFF77CFAC01B0228C4D828688007F7D505
:103BD0002868616920F0F80040EAC10028600DE023
:103BE000C6F80080FFF76AFA074604E0FFF766FAB6
:103BF000C01B022823D828688007F7D42078000744
:103C00002CD57948A169D9B1C0F80090FFF756FAD0
:103C1000074604E0FFF752FAC01B02280FD8686A73
:103C20008007F7D571484FF4FA510068B0FBF1F006
:103C3000009000BF0098411E0091FAD20EE080E093
:103C4000C0F80080FFF73AFA074604E0FFF736FABB
:103C5000C01B022875D8686A8007F7D4207840070F
:103C600060D5E8690027C00008D4E86940F08050BA
:103C7000E861E869012700F0805000905C48016825
:103C8000C90513D40168834641F480710160FFF7D0
:103C900015FA824606E000BFFFF710FAA0EB0A0013
:103CA00064284ED8DBF80000C005F5D5E06801288F
:103CB0000AD008B1052813D0286A20F00100286234
:103CC000286A20F0040002E0286A40F0010028621F
:103CD000E06841F2883B98B1FFF7F0F982460BE0CB
:103CE000286A40F004002862EEE700BFFFF7E6F91B
:103CF000A0EB0A0159455AD8286A8007F6D50CE08E
:103D0000FFF7DCF9824605E0FFF7D8F9A0EB0A01DE
:103D100059454CD8286A8007F6D41FB1E86920F0CD
:103D20008050E861E06988B36968C1F381010229C4
:103D300044D00228C6F8608004D0FFF7BFF90446DB
:103D400038E034E0FFF7BAF9074604E0FFF7B6F9C8
:103D5000C01B02282BD828688001F7D4206AB0F550
:103D6000803F05D16868A16820F40030084368608E
:103D7000D4E908010843696821F4741108436860B4
:103D8000C6F86090FFF79AF9044606E025E000BF08
:103D9000FFF794F9001B022809D828688001F7D59D
:103DA0001BE000BFFFF78AF9001B022802D903209D
:103DB000BDE8F88F28688001F4D40EE00128F7D020
:103DC0006868226A00F48031914204D1616A00F48B
:103DD0007010884201D00120EAE70020E8E70000E7
:103DE000001002400000424280044242680000206D
:103DF00000700040024850F8210080B27047000077
:103E0000006C0040024800EB810091B201607047F5
:103E1000006C00407047704710B5044600680168A8
:103E2000C90717D04168C90714D040684007204629
:103E300007D5FFF7F0FF21686FF004004860042009
:103E400002E0FFF7E7FF012060742068416821F07D
:103E50000101416010BD000070B5040003D0607C1A
:103E6000002610B105E0012070BD2674204600F048
:103E700043F802206074204600F01AF9042578BB4C
:103E8000204601F081FD58BB2068416821F0070100
:103E90004160A06820B11748016821F0010101606C
:103EA0001448001F0168A26821F460711143016089
:103EB0006068411C04D10120FFF746FC80B1401E20
:103EC00021688A6822F00F0242EA10428A60216863
:103ED000CA6860F30F02CA60204601F06FFD08B1A6
:103EE0006574C0E7E67301206073A07360740020FE
:103EF00070BD0000306C004008B500680D49884274
:103F000017D1FFF71BFC0C48C16941F00061C1618A
:103F1000C0690A4900F0006000900120086000229A
:103F200011460320FFF7D8FBBDE808400320FFF748
:103F3000C5BB08BD00280040001002403C044242BE
:103F40002DE9F0410D4604003BD0C5B3207C01288B
:103F50003AD04FF0010884F8108002206074E878AD
:103F600072B301F008FDE073687801F004FD60733E
:103F7000A87801F000FDA073C2B2617BE07B01F084
:103F800056FD20732870204601F041FD4FF4616119
:103F9000B0FBF1F1002518292DD91822B1FBF2F15F
:103FA000A1EB011101EB4101C1EB011100EBC116C5
:103FB0003146204601F07AFD0427C8B90BE000E045
:103FC00004E00120BDE8F0810220FBE7E07368789F
:103FD0006073A878CFE7204601F012FD411C0AD09B
:103FE000B04208D206490144204601F04BFD10B111
:103FF00067742574E5E784F8118025740020E1E7F3
:10400000805101002DE9F0410D46040024D01DB37C
:10401000207C012823D04FF0010884F81080022072
:1040200060742878EAB101F0A6FC4FF4616100FBEE
:1040300001F6687801F09FFCC0EB001006EB8006EB
:10404000A87801F098FC35182946204601F02EFD8D
:104050000026042710BB0FE00120BDE8F0810220FC
:10406000FBE74FF4616148436978C1EB011100EB54
:104070008100A9784518E7E72068416821F005012B
:104080004160204601F0BCFC411C0AD0A84208D285
:1040900006490144204601F0F5FC10B1677426740E
:1040A000DAE784F8118026740020D6E780510100F9
:1040B00070B504000AD02068416821F00801416011
:1040C000FEF7FCFF05464FF47A7608E0012070BD4C
:1040D000FEF7F4FF401BB04201D9032070BD2068F9
:1040E00040680007F4D5002070BD70B5040009D009
:1040F000606A002540B125616561A56294F85100B0
:1041000040B10CE0012070BD6068B0F5827FF4D052
:10411000E561F2E784F85050204600F03FF80220B5
:1041200084F851002068016821F040010160A088F6
:10413000218900F4827001F404410843A18901F44B
:1041400000610843217C01F002010843217D01F058
:1041500001010843218B01F400710843217F01F024
:104160003801084394F8201001F080010843218DA4
:1041700001F40051084321680860A069042101EAA4
:104180001040216848602068C16921F40061C16164
:104190006565012084F85100002070BD30B585B000
:1041A0000024009401940294039400681449884206
:1041B00023D11448816941F480518161816901F4FE
:1041C00080510491816941F00401816180690E4D43
:1041D00000F004000490A020009002200190032031
:1041E000039069462846FEF76FFE4020CDE90004A3
:1041F000694628460294FEF767FE05B030BD000010
:104200000030014000100240000801402DE9F84F45
:10421000044690F8500000270A9E1D4692468B46A1
:104220004FF0010901280ED0012084F85000FEF75C
:1042300045FF804694F85100616801280CD0B1F523
:10424000827F07D102E00220BDE8F88FA16809B99A
:10425000042801D00227C2E0BBF1000F27D0BAF139
:10426000000F24D01DB394F85100042802D005207B
:1042700084F8510000206065C4F838A0E587A58760
:10428000C4F830B0E586A5862064606420680168C3
:10429000490603D4016841F040010160E068B0F5CF
:1042A000006F606805D0E8B3012D46D07FE001279C
:1042B00095E008B1012D39D1206B21680088C860D4
:1042C000206B801C2063E08E401EE0862EE020687C
:1042D000816889070FD5E18E69B1B9F1010F0AD163
:1042E000216B0988C160206B801C2063E08E401E1A
:1042F000E0864FF0000920688168C9070CD0E18F83
:1043000051B1C068A16B0880A06B801CA063E08FD6
:10431000401EE0874FF00109FEF7D0FEA0EB080039
:10432000B04200E009E001D3701C50D1E08E0028BB
:10433000CDD1E08F0028CAD13FE0206B2168007802
:104340000873206B401C2063E08E401EE0862EE048
:104350002068816889070FD5E18E69B1B9F1010F35
:104360000AD1216B09780173206B401C2063E08E19
:10437000401EE0864FF0000920688168C9070CD014
:10438000E18F51B1C068A16B0870A06B401CA063A5
:10439000E08F401EE0874FF00109FEF78FFEA0EB93
:1043A0000800B04202D3701C01D010E07EB1E08E54
:1043B0000028CDD1E08F0028CAD1424631462046A0
:1043C00001F0B4FB28B101272020606507E0032736
:1043D00005E0A06818B92068C168806800900120D5
:1043E00084F85100002084F8500038462CE710B5BE
:1043F000401EB0F1807F01D3012010BD4FF0E024BA
:1044000060610F21601702F06FFA0020A0610720A1
:104410002061002010BD000070B590F83C20012AFA
:1044200026D0012480F83C40022280F83D20036819
:104430005A689D6822F070060A6832435A600D4B34
:1044400002689A4208D0B2F1804F05D00A4B9A42D6
:1044500002D00A4B9A4204D1496825F080031943DF
:10446000916080F83D40002180F83C10084670BD06
:10447000022070BD002C01400004004000080040F4
:1044800010B5040003D094F83D0010B107E00120FE
:1044900010BD002084F83C00204600F01FF80220E8
:1044A00084F83D00211D206801F03EFF012084F8C2
:1044B000460084F83E0084F83F0084F8400084F809
:1044C000410084F8420084F8430084F8440084F8F2
:1044D000450084F83D00002010BD000008B50068CC
:1044E0000649884208D10648C16941F00201C1610C
:1044F000C06900F00200009008BD00000004004008
:104500000010024090F83D10012901D001207047B1
:10451000022180F83D1000680B49884208D0B0F1B4
:10452000804F05D00949884202D00949884204D108
:10453000816801F00701062903D0016841F00101FB
:104540000160002070470000002C01400004004082
:104550000008004001680A6A41F211131A4207D1AB
:104560000A6A9B101A4203D10A6822F001020A600B
:10457000012180F83D100020704770B5044690F886
:104580003C00012817D0012584F83C50022084F813
:104590003D002068826822F0770222F47F42826028
:1045A0000868502830D00DDC20284DD005DC98B3A9
:1045B00010283BD148E0022070BD302844D040286C
:1045C00034D139E0602828D0702806D0B0F5805F5B
:1045D0002CD0B0F5005F29D10AE0CB68D1E90121E8
:1045E000206801F0D7FE2068816841F0770109E07A
:1045F000CB68D1E90121206801F0CCFE20688168F8
:1046000041F48041816011E0CA684968206801F086
:10461000D3FE5021206807E016E0CA684968206888
:1046200001F0DBFE6021206801F0BEFE84F83D5001
:10463000002084F83C0070BDCA684968206801F019
:10464000BBFE40212068EFE7226801461046EBE7F9
:1046500070477047F8B5026804461068D16853691E
:1046600010F00F0F4FF0000553D003F0010601F4D6
:10467000907737435FD0C20705D0CA0503D5226CB7
:1046800042F001022264420705D5DA0703D0226C0A
:1046900042F002022264820705D5DA0703D0226CB9
:1046A00042F004022264020707D501F020023243DF
:1046B00003D0226C42F008022264226C002A34D01B
:1046C000800604D5880602D5204601F020FF206828
:1046D0004069216CC0F38010090700D430B3204634
:1046E00001F0F4FE2068416949061BD5416921F0BB
:1046F00040014161A06BA8B158494163A06BFEF72E
:1047000047FA002811D0A06B416B01B0BDE8F04022
:10471000084783060FD58B060DD52046BDE8F84027
:1047200001F0F5BE2046FFF794FFF8BD2046FFF7E5
:1047300090FF2564F8BD266B2023012E52D1C606BA
:1047400050D5CE064ED5106850680090506940068E
:104750002AD5A16B086840680004000CEAD0A68D39
:104760008642E7D9E0858869202818D0D06820F4EF
:104770008070D0602068416921F0010141612068AA
:10478000416921F04001416184F83E302563206891
:10479000C16821F01001C160A06BFEF7D5F9A08DB2
:1047A000E18D401A81B219E0A08DE18D401A81B2ED
:1047B000E08D0028BED00029BCD0D06820F49070D5
:1047C000D0602068426922F00102426184F83E30E4
:1047D00025632068C26822F01002C2602046FFF7FD
:1047E00037FFF8BD05062BD50D0629D594F83D00F9
:1047F0002128F6D1A068B0F5805F01D12069B0B161
:10480000206A411C2162216800784860E08C401ECB
:104810000004000CE084E4D12068C16821F080012C
:10482000C1602068C16841F04001C160F8BD206AE4
:104830000088C0F308005060206A801C2062E5E711
:104840004006F3D54806F1D5D168204621F0400155
:10485000D16084F83D3000F004FAF8BDFF63000831
:1048600070B5040004D094F83D00002510B106E0B6
:10487000012070BD84F83C50204600F023F824202D
:1048800084F83D002068C16821F40051C1602046D1
:1048900001F098FE2068016921F4904101612068CF
:1048A000416921F02A0141612068C16841F4005149
:1048B000C1602564202084F83D0084F83E0000207B
:1048C00070BD00002DE9F04786B0002500950195E8
:1048D00002950395044603687048DFF8BCC10221C5
:1048E0000322DFF8BC81071580264FF010094FF036
:1048F000200A63454ED1836943F480438361836911
:1049000003F480430493836943F004038361806963
:10491000039200F0040004900802CDE9000169460A
:104920004046FEF7D1FACDE900756946404602954A
:10493000FEF7CAFA5C4F5B484FF48058C7E902564D
:104940003D617D61C7E90009C7E906583846FEF7B1
:1049500015FA08B1FDF74BFC67637C62524F514872
:1049600044371430C7E90005C7E90256C7F81C8070
:104970003D61C7E9055A3846FEF700FA08B1FDF770
:1049800036FCA7630022114625207C62FEF7A4FEB8
:10499000252029E0DFF814C163452AD1C36943F417
:1049A0000033C361C36903F400330493836943F0A4
:1049B000040383618069039200F0040004900420E2
:1049C000CDE9000169464046FEF77EFA0820CDE9B0
:1049D0000005694640460295FEF776FA0022114628
:1049E0002620FEF779FE2620FEF768FE06B0BDE819
:1049F000F087DFF8BCC06345F8D1C36943F4802376
:104A0000C361C36903F480230493836943F00803FB
:104A100083618069CDE9007100F00800CDE90320D1
:104A2000244F69463846FEF74FFAF814CDE90005E1
:104A3000694638460295FEF747FA1B4F19488837F2
:104A40001438C7E90005C7E902563D61C7E9055AB0
:104A50003846FD61FEF792F908B1FDF7C8FBA76380
:104A60007C62114F0F48CC372838C7E902563D61A8
:104A70007D61BD61FD61C7E900093846FEF77EF939
:104A800008B1FDF7B4FB67630022114627207C6262
:104A9000FEF722FE2720A7E7003801400010024061
:104AA00000080140440002409804002000440040F7
:104AB00000480040000C014090F83E30202B0ED101
:104AC00059B152B190F83C30012B08D0012380F845
:104AD0003C300023036301F0D1BD01207047022068
:104AE0007047000070B500680F490025884208D162
:104AF0000E4C20782178C0F580720D4801440D4895
:104B00000DE00D4988420ED00C4988420BD10C4C67
:104B100020782178C0F580720A4801440A4800686C
:104B2000FDF750FB257070BD0038014044000020A7
:104B30006C0000203C000020004400400048004081
:104B4000450000206C0100204000002070B5006886
:104B50000F49884209D10F4C20782178C0F1800597
:104B60000D482A4601440D480BE00D4988420ED1FC
:104B70000C4C20782178C0F180050B482A4601446E
:104B80000A480068FDF71EFB20782844207070BD9D
:104B900000380140440000206C0000203C00002050
:104BA00000480040450000206C010020400000202B
:104BB0002DE9F843044690F83D001F4616460D4681
:104BC00020284CD1C5B1BEB194F83C00012846D094
:104BD000012084F83C004FF00008C4F840802120F8
:104BE00084F83D00FEF76AFAA6848146E684A06850
:104BF000B0F5805F03D004E00120BDE8F8832069B0
:104C000028B12E465FF0000584F83C800EE00026B7
:104C1000FAE78021204601F069FDA0B9AEB116F88F
:104C2000010B21684860E08C401EE084E08C4B461C
:104C30004FF0000200970028EBD14FF040012046D2
:104C400001F054FD30B10320D7E735F8020BC0F373
:104C50000800E6E7202084F83D000020CDE7022090
:104C6000CBE77047FEE701684A69D24352050FD48B
:104C70006FF480624A61002140F8301F20224273A5
:104C80008173026942F004020261017301207047DE
:104C9000002070472DE9F84F0446C06A1E4693462F
:104CA0000D4621680A6842F480620A60082807D02D
:104CB000012805D010F5803F02D0206B112804D1C7
:104CC0002068016841F4807101604FF001195B4672
:104CD000002249462046009600F0C6F84FF40078BE
:104CE00040B120680068C00501D5C4F840800320A9
:104CF000BDE8F88F2069DFF884A0B0F5804F0FD0B1
:104D00000620216800EAD51747F0F0000861334615
:104D10005A460AF10601204600F0DAF858BB03E0D3
:104D2000E8B240F001001CE02168E8B208613346B7
:104D30005A465146204600F0CBF8E0B92068416958
:104D400081690091016841F4807101605B46002235
:104D500049462046009600F087F80028C1D147F068
:104D6000F1002168086133465A465146204600F05A
:104D7000AFF80028BCD00120BAE700000200010013
:104D8000F8B50446C06A1E460D461746082807D0E7
:104D9000012805D010F5803F02D0206B122804D1E5
:104DA0002068016841F480710160134600224FF0D1
:104DB00001112046009600F057F840B120680068C5
:104DC000C00502D54FF4007020640320F8BD2069AF
:104DD000B0F5804F0ED00620216800EAD51040F0D3
:104DE000F000086133463A460B49204600F070F85F
:104DF00078B902E005F0FE0000E0E8B22168086141
:104E0000054933463A46891F204600F061F80028DC
:104E1000DCD00120F8BD00000800010070B5164686
:104E20000D4604460DE02046FFF71DFF08B10120A6
:104E300070BD681C05D0FEF741F9801BA84207D859
:104E400035B120684069C0434007ECD4002070BDF4
:104E5000002044F8300F20216173A073216941F0D4
:104E6000200121612073E2E72DE9F0471E469046BC
:104E70000D460446C1F30747DDF8209008E0701C9A
:104E800006D0FEF71BF9A0EB0900B0420FD876B1AF
:104E90002068012F18D0806925EA00000004000C6A
:104EA00014D000214145EAD00020BDE8F087002061
:104EB00044F8300F20216173A073216941F0200173
:104EC000216120730120F0E74069E5E70121E9E76E
:104ED0002DE9F0479A4691460E46044600254FF0CC
:104EE0002008C1F3074725E020684069C04340051A
:104EF00014D42068016841F40071016021686FF4E6
:104F000080604861256384F83D8084F83E50206CC1
:104F100040F00400206484F83C501FE0B9F1FF3FEA
:104F200008D0FEF7CBF8A0EB0A0149450CD8B9F13F
:104F3000000F09D02068012F13D0806926EA0000F5
:104F40000004000C0BD0CFE744F8305F84F80D80EC
:104F5000A573206940F02000206125730120BDE881
:104F6000F0874069EAE72DE9F041002590460E46BA
:104F70000446202717E04069C043C0060CD454F80B
:104F8000301B6FF01000486144F810596777A5771F
:104F9000206A2062257717E0FEF790F8A0EB080062
:104FA000B04208D83EB120684169C9434906E2D4FD
:104FB0000020BDE8F08144F8305F6773A573206975
:104FC00040F02000206125730120F2E770B51646FD
:104FD0000D4604460DE02046FFF745FE08B10120CE
:104FE00070BD681C05D0FEF769F8801BA84207D881
:104FF00035B120684069C0430006ECD4002070BD84
:10500000002044F8300F20216173A073216941F022
:10501000200121612073E2E710B5412801D0012071
:1050200010BD08210846FCF726FD3D21112001F0A6
:105030002DFC8621172001F029FC7F21262001F07C
:1050400025FC1E212D2001F021FC00212C2001F047
:105050001DFC8D212A2001F019FC3E212B2001F09E
:1050600015FC0120FDF7F0FE00F01EFB002010BD36
:105070003EB500211148009101910F4A0291026052
:1050800081600173017501244FF460220461C261E3
:105090004160FDF731F908B1FDF7A9F81020CDE91D
:1050A00000040720029069460448FDF7A3F8002891
:1050B00001D0FDF79CF83EBD002401406C020020A9
:1050C000104810B50E4901600921416089078160CF
:1050D00000214FF48022C0E9031292004261017660
:1050E000012242768276C17601774177FDF72FFC67
:1050F000002803D0BDE81040FDF779B810BD0000CE
:10510000006400409C020020154808B5416941F048
:10511000010141614069002200F001000090114648
:105120000C20FEF7D9FA0C20FEF7C8FA002211462F
:105130000D20FEF7D1FA0D20FEF7C0FA002211462D
:105140000E20FEF7C9FA0E20FEF7B8FA002211462B
:105150000F20FEF7C1FABDE808400F20FEF7AEBAF7
:10516000001002402DE9F04186B000244048009430
:10517000019402940394816941F010018161816975
:1051800001F010010491816941F020018161816980
:1051900001F020010491816941F00401816181697C
:1051A00001F004010491816941F008018161806985
:1051B000304F00F008004FF40055049000222946BB
:1051C0003846FDF776FFDFF8B080012240F201316A
:1051D0004046FDF76EFF002204214046FDF769FFBF
:1051E0000095022601250396CDE90154694638460B
:1051F000FDF76AFE10208DE83100204F69463846E1
:10520000FDF762FE40F20530CDE90005CDE902462A
:1052100069464046FDF758FE0096194ECDE90164F7
:1052200069464046FDF750FE4FF22000CDE90006EA
:10523000694602954046FDF747FE2802CDE9000683
:10524000694602953846FDF73FFE002211461720B9
:10525000FEF742FA1720FEF731FA00221146282005
:10526000FEF73AFA2820FEF729FA06B0BDE8F081E9
:105270000010024000100140000C014000080140F5
:10528000000021100D4810B50B4901600C49416028
:1052900000214FF480428160C0E9031241618161C5
:1052A000C1610162FDF710FF002803D0BDE8104086
:1052B000FCF79DBF10BD000000540040C402002058
:1052C000A08601007CB50020204901901E4A009074
:1052D0000A60421EC1E901200846FEF7BDFD08B183
:1052E000FCF785FF01211948FEF784FD41F23422C5
:1052F000904227D001211548FEF784FD09248DF83E
:1053000004400F258DF805500A208DF80600002274
:1053100001A90E48FEF776FE08B1FCF768FF0420ED
:105320008DF800008DF801408DF8025016208DF8A0
:105330000300002269460548FEF702FE002801D05E
:10534000FCF755FF7CBD000000280040180300203A
:10535000104810B50E4901604FF482714160002180
:105360008160C1604FF400720161C0E90512202222
:10537000C0E90721416281620A21C162FEF7B5FEE0
:10538000002803D0BDE81040FCF731BF10BD00007D
:10539000003001402C03002010B586B000241748CF
:1053A00000940194029403940494134905940160B9
:1053B0004721C0E901144FF6FF71C0E9031484616D
:1053C000FFF75EF808B1FCF712FF4FF48050009031
:1053D00069460A48FFF7D1F808B1FCF708FF0494C2
:1053E00004A906480594FFF717F8002801D0FCF738
:1053F000FEFE06B010BD0000000400408403002043
:105400000C4810B50A4901604FF4E13141600021B8
:1054100081600C22C160C0E904128161C161FFF7A3
:105420001FFA002803D0BDE81040FCF7E0BE10BD15
:1054300000380140CC0300200C4810B50A49016037
:105440004FF4E1314160002181600C22C160C0E96C
:1054500004128161C161FFF703FA002803D0BDE89F
:105460001040FCF7C4BE10BD0044004010040020F2
:105470000C4810B50A4901604FF4E1314160002148
:1054800081600C22C160C0E904128161C161FFF733
:10549000E7F9002803D0BDE81040FCF7A8BE10BD16
:1054A0000048004054040020FEE7FEE7002000F022
:1054B00001B8000070B506465FF0000404F1B000CA
:1054C000C0B201F0BFF9002001F0BCF9102001F0DA
:1054D000B9F90025304601F0C7F96D1CEDB2802DF9
:1054E000F8D3641CE4B2082CE8D370BD10B50120D9
:1054F000FDF7AAFCAE2001F0A5F9202001F0A2F9E9
:10550000102001F09FF9B02001F09CF9C82001F0B3
:1055100099F9002001F096F9102001F093F940204C
:1055200001F090F9812001F08DF9FF2001F08AF956
:10553000A12001F087F9A62001F084F9A82001F04C
:1055400081F93F2001F07EF9A42001F07BF9D320FE
:1055500001F078F9002001F075F9D52001F072F919
:10556000F02001F06FF9D92001F06CF9222001F050
:1055700069F9DA2001F066F9122001F063F9DB2005
:1055800001F060F9202001F05DF98D2001F05AF959
:10559000142001F057F9BDE81040AF2001F052B9D6
:1055A00010B50446B031C8B201F04CF9102040EA01
:1055B000141001F047F904F00F00BDE8104040F06E
:1055C000010001F03FB900002DE9F04700259146A8
:1055D0008A460446012B22D0DFF8BC80022B24D15E
:1055E00055E02038C7B27E2C04D90AF1010000240E
:1055F00000F0FF0A51462046FFF7D2FF07EB4700B5
:10560000002608EB4007B85D01F02EF9761CF6B2D3
:10561000062EF8D3A41D6D1CE4B2EDB201E0DFF854
:105620007C8019F805000028DBD1BDE8F087203820
:10563000C7B2782C04D90AF10100002400F0FF0A57
:1056400051462046FFF7ACFF5FF0000606EB07115E
:1056500018F8010001F008F9761CF6B2082EF5D30F
:105660000AF10100C1B22046FFF79AFF5FF0000681
:1056700006EB071101EB0800007A01F0F5F8761C43
:10568000F6B2082EF4D308346D1CE4B2EDB219F86A
:1056900005000028CBD1C8E74E7700082675000822
:1056A00003211420FCF7E7B910B5142000F012FA1A
:1056B000800705D10321BDE81040142000F089BD0A
:1056C00010BD70B50646082188B000240846FCF7D6
:1056D000D2F900210D2001F0D9F880210E20FCF72D
:1056E000CAF993208DF8040020208DF8050006A843
:1056F00001AB0090022219460C2000F017F80500BB
:105700000DD1002101A8425C7254425C491C5440F6
:10571000C9B20429F7D3405CA04200D00225802101
:105720000E2000F056FD08B0284670BD2DE9FF5F41
:1057300000270226DDF838A015468B468146B8467C
:105740000C2805D0B9F10E0F05D11227102001E069
:1057500077273020804647F08001022001F096F83C
:1057600080210420FCF787F90021012001F08EF848
:1057700080210A2000F02DFD002406E01BF8041013
:10578000092001F083F8641CA4B2AC42F6D3494668
:10579000012001F07BF8B9F10C0F03D180210D201D
:1057A00000F017FD4FF4FA65042000F093F96D1E28
:1057B0002D0404462D0C04D0E00702D114EA080F92
:1057C000F2D080210D20FCF756F935B1062000F00B
:1057D00081F910F01B0F0CD0022680210C2000F064
:1057E000F8FC0021012001F051F804B03046BDE87A
:1057F000F09F00263C40E00700D00126B9F10C0FD5
:10580000EBD10A2000F066F904460C2000F062F9A2
:1058100010F0070003D0E1000839084400E0E00080
:105820008AF8000024B1122C04D91224002503E0C8
:105830000124FBE7002506E0092000F04BF903995D
:1058400048556D1CADB2A542F6D3C6E730B50C463F
:105850000546082187B00846FCF70DF907210D2001
:1058600001F014F80321142000F0B3FC06A801ABEA
:1058700000908DF80450012219460C20FFF756FFC6
:1058800018B99DF81810102902D0022007B030BDB9
:105890009DF8041021709DF805106170F6E7000076
:1058A00010B51F4C012202212046FDF702FC012009
:1058B000FDF7CAFA002202212046FDF7FAFB01207B
:1058C000FDF7C2FA012202212046FDF7F2FB01207A
:1058D000FDF7BAFA0F21012000F0D8FF0F210120B7
:1058E00000F0D4FF0120FDF7AFFA3D21112000F0B8
:1058F000CDFF1E212D2000F0C9FF00212C2000F03B
:10590000C5FF8D212A2000F0C1FF3E212B2000F091
:10591000BDFF4021152000F0B9FF002010BD0000A0
:10592000000C01407047D0E98010814201D1012074
:10593000704700207047D0F80412D0F80002491CCC
:10594000CA1701EBD2526FF30802891A814201D1C2
:10595000012070470020704710B5FFF7A1FFFFF747
:105960009FFE0220FDF770FAFFF79EFEBDE8104093
:105970004120FFF751BB010901EB810100F00F004D
:1059800000EB4100C0B2704770B50446FDF796FBCE
:1059900005464FF47A7606E0FDF790FB401BB042D7
:1059A00001D9032070BD206840688006F4D52068C6
:1059B000416841F010014160002070BD70B504469F
:1059C0000068416821F010014160FDF777FB054652
:1059D0004FF47A7607E000BFFDF770FB401BB04242
:1059E00001D9032070BD206840688006F4D50020EE
:1059F00070BD00000148FEF70FBA00001803002038
:105A00000168086A496A89B241EA00407047006843
:105A100081698AB2C1698BB2816989B28A4203D035
:105A2000C06961F31F40704743EA02407047F0B518
:105A30006424C1EBC1030927A500072603EB01136A
:105A40000329B3FBF7F100F5FA60114401440AD2CF
:105A5000401EB0FBF4F201EB9001B0FBF5F0891AA7
:105A60000844001D08E0B0FBF4F201EB9001B0FB2C
:105A7000F5F0891A0844801CB0FBF6F106FB110012
:105A8000C0B2F0BD70B50D4606460024FFF77CFF9E
:105A900048B93168280C08623168A8B248623046BB
:105AA000FFF78CFF00B10124204670BD70B50D4694
:105AB00006460024FFF768FF48B93168280C886162
:105AC0003168A8B2C8613046FFF778FF00B1012401
:105AD000204670BD70B50C4D0446002201212846B9
:105AE000FDF7E7FA7E2000EA440040F0800000F075
:105AF0000DF8002000F00AF804460122114628465D
:105B0000FDF7D7FA204670BD000C014001B582B008
:105B10004FF47A700090012301AA02A90248FEF70F
:105B200075FB9DF804000EBD2C03002038B50B4614
:105B3000009204460022802100F008F8002804D0DA
:105B4000606D40F020006065032038BD2DE9F8430A
:105B50001E46914688460446089DFDF7AFFA401B55
:105B6000351AFDF7ABFA074625480068C0F3CB307D
:105B7000684338E0701C37D0FDF7A0FAC01BA8427C
:105B800003D215B1009860B32CE02068416821F081
:105B9000E00141606068B0F5827F0BD1A068B0F58C
:105BA000004F02D0B0F5806F04D12068016821F069
:105BB00040010160A06AB0F5005F09D1206801686A
:105BC00021F4005101602068016841F40051016036
:105BD000012084F85100002084F850000320BDE823
:105BE000F8830025401E00902068816838EA010093
:105BF00004D000214945BDD10020F0E70121F9E79B
:105C0000680000202DE9F34F93B000268DF83C602A
:105C1000342102A8FAF7ADFC4FF4007B01254FF0C8
:105C2000070A4FF00A084FF6FF79BEE20FA9139852
:105C3000FCF72CF89DF83C006128F6D10FA91398C9
:105C4000FCF724F89DF83C0031381428EDD2DFE849
:105C500000F00A1B2C3E4F6072A9FEFDFDFDFDFD0C
:105C6000FDFDFCFBFAF90FA91398FCF70FF89DF85E
:105C70003C00622801D0FDA166E000225946FD48A3
:105C8000FDF717FAFCA15FE00FA91398FBF7FEFFE1
:105C90009DF83C00622801D0F9A155E00122594647
:105CA000F448FDF706FAF8A14EE00FA91398FBF7A8
:105CB000EDFF9DF83C00622801D0F5A144E00022F0
:105CC0004FF48071EB48FDF7F4F9F3A13CE00FA924
:105CD0001398FBF7DBFF9DF83C00622801D0F0A190
:105CE00032E001221102E348FDF7E3F9EEA12BE0D7
:105CF0000FA91398FBF7CAFF9DF83C00622801D05A
:105D0000EBA121E001225103EB48FDF7D2F9EBA111
:105D10001AE00FA91398FBF7B9FF9DF83C00622821
:105D200001D0E8A110E000224FF40051E248FDF755
:105D3000C0F9E6A108E00FA91398FBF7A7FF9DF8AB
:105D40003C00622804D0E3A102A8FAF7CFFB23E2CB
:105D500000273C46E148FCF727FC6421DF48FCF7BC
:105D600085FB18B9DD48FCF7C3FA0744641CE4B2AC
:105D70000A2CEFD3B7FBF8F001F0DFF84FF06632F2
:105D8000D74B01F0EDF80022D64B00F067FF00F092
:105D90008BFE012101F089FB01F0D6FA0B46024689
:105DA000D1A1C3E00FA91398FBF770FF9DF83C0049
:105DB000622817D0CEA102A8FAF758FA02A8FAF77B
:105DC000B9FB82B24C464B4602A91498FEF7F0FE8E
:105DD000C9A102A8FAF74AFA02A8FAF7ABFB82B205
:105DE0002346DEE10096002401966846FBF7B0FEEC
:105DF000012807D06420FDF727F8641C0A2CF4DB87
:105E0000642077E09DF8010001F097F80022BC4B78
:105E100000F024FF04460F469DF8000001F08DF8C5
:105E200022463B4600F072FE00F03EFE10909DF8C8
:105E3000030001F082F80022B14B00F00FFF04468E
:105E40000F4605E0F8E0B0E074E056E0ADE12EE08A
:105E50009DF8020001F071F83B46224600F056FE24
:105E600000F022FE01F070FA02460B46A5A102A83E
:105E7000FAF7FCF902A8FAF75DFB82B24C464B46F2
:105E800002A91498FEF794FE109801F05DFA0246FC
:105E90000B469EA102A8FAF7E9F902A8FAF74AFB15
:105EA00082B2234602A91498FEF782FEA8E70FA942
:105EB0001398FBF7EBFE9DF83C00622801D095A1FA
:105EC00024E0FBF7B7FC01F038F84FF03332934B86
:105ED00000F0C4FE02460B4691A102A8FAF7C6F9EB
:105EE00002A8FAF727FB82B24B4602A91498FEF7E4
:105EF0005FFE8220FCF7A8FF57E10FA91398FBF77C
:105F0000C5FE9DF83C00622804D087A102A8FAF7DC
:105F1000ADF941E1FBF7B2FC86490022844BD1E99F
:105F2000000100F09BFE0B46024683A102A8FAF78F
:105F30009DF931E10FA91398FBF7A8FE9DF83C00ED
:105F4000622801D07EA1E1E71095CDE9115A002722
:105F500010A96248FCF74EF908B1FCF748F9002493
:105F60005E48FCF721FB64215C48FCF77FFA18B916
:105F70005A48FCF7BDF90744641CE4B20A2CEFD37D
:105F8000B7FBF8F000F0D9FF4FF06632544B00F049
:105F9000E7FF0022534B00F061FE00F085FD01F0A9
:105FA000D3F90B46024668A1C0E70FA91398FBF787
:105FB0006DFE9DF83C00622801D065A1A6E710A9FE
:105FC000102081E8210400274448FCF713F908B1A8
:105FD000FCF70DF900244148FCF7E6FA64213F483C
:105FE000FCF744FA18B93D48FCF782F90744641CF1
:105FF000E4B20A2CEFD3B7FBF8F000F09EFF4FF0AD
:106000006632374B00F0ACFF0022364B00F026FE24
:10601000514A524B01F0A2F8514A524B00F01EFE79
:106020000022514B00F072FD00F03EFD01F08CF9B2
:106030000B4602464DA179E70FA91398FBF726FE00
:106040009DF83C00622801D04AA15FE7002411A915
:106050005220641CFFF7FAFB18B910A8FFF731FBB8
:1060600010B1052CF3D3A0E088E000006331666432
:1060700000000000000C0140633173640000000068
:106080006332666400000000633273640000000045
:106090006333666400000000633373640000000033
:1060A0006334666400000000633473640000000021
:1060B00063356664000000000010014063357364BE
:1060C00000000000633666640000000063367364FD
:1060D0000000000063416664000000006C020020C4
:1060E00066660A4000FEAF406341252E32666400BA
:1060F00063426664000000006343666400000000C1
:10610000000024406342252E316664006343252E3F
:106110003166640063446664000000003333F33F7B
:106120006344252E30666400634566640000000009
:1061300000408F40200000206345252E316664001A
:1061400063466664000000006346252E32666400E4
:106150006347666400000000E17A14AE47E1F63F51
:1061600022FDF675E09C713F000039406347252E03
:106170003166640063486664000000009DF84310C7
:106180009DF84200CDE900019DF841309DF8402086
:106190000AA102A8FAF76AF802A8FAF7CBF982B2C4
:1061A0004B4602A91498FEF703FD1398FFF7BBFBBB
:1061B00000283FF43BAD15B0BDE8F08F63482530B3
:1061C0003258253032582530325825303258640044
:1061D000704770B50C460546FFF77CFC40EA0401A9
:1061E0002846BDE8704000F051BB00002DE9FC419D
:1061F000FDF714FA2048006801283BD11F48416888
:10620000491C4160322935D31D4C00214160206872
:106210004FF47A7500282DD01A4F01262068FFF719
:1062200082FB002826D169462068FBF72FFD2B460C
:10623000012269461448FEF7BBFC9DF800004F2878
:10624000ECD12068FFF76FFB0028E7D101A9206897
:10625000FBF71CFD2B46012201A90B48FEF7A8FC09
:106260009DF804004B28D9D1314608A03E60F9F7CB
:10627000F1FFD3E7BDE8FC81340000204C00002092
:106280004000002030000020CC030020455350384F
:106290003236365F4F4B5F466C61673D25640A00BE
:1062A00030B593B028216846FAF763F914210AA89B
:1062B000FAF75FF9002401210F941194052012943C
:1062C0000090CDE9024110944FF4803001900225F6
:1062D0000491CDE907504FF4E01009906846FDF7AE
:1062E000F9FB08B172B6FEE70F20CDE90A054FF4BD
:1062F0008060CDE90C4002210AA80E94FDF7FEFA59
:1063000008B172B6FEE703200F904FF48070109032
:10631000C00111900FA8FDF77BFA002801D072B6DA
:10632000FEE713B030BD7047F0B50268164B174C4E
:10633000174D4FF08047984205D0B84203D0A04295
:1063400001D0A84203D122F070064A683243984235
:1063500005D0B84203D0A04201D0A84203D122F414
:106360004074CA6822434C6922F0800222430260D2
:106370008A68C2620A688262984201D1096901632F
:1063800001214161F0BD0000002C014000040040EB
:106390000008004010B5846842EA032224F47F44D8
:1063A0000A432243826010BD826822F070020A43D1
:1063B00042F007018160704710B5036A046A24F057
:1063C00001040462846924F0F00444EA021423F016
:1063D0000A020A438461026210BD10B5036A23F009
:1063E000100303628369046A23F4704343EA0232B0
:1063F00024F0A00343EA01118261016210BD10B5CF
:10640000406A0021C185C184FEF723F910BD70B533
:10641000446A2068406994F83D10C0F3C01000251C
:10642000212904D118B1E584204600F067F82068DE
:10643000406994F83E10C0F38010222904D118B1AD
:10644000E585204600F042F8206C40F01000206402
:106450002046FEF7FEF870BD10B50146406A096897
:10646000096889061BD40021C1850168CA6822F425
:106470008072CA6001684A6922F001024A610168BB
:106480004A6922F040024A61202180F83E10016BE7
:10649000012904D10168CA6822F01002CA60016BA8
:1064A000012902D0FEF71EFB10BD818DFEF7D0F84A
:1064B00010BD10B5406A016B012902D0FEF746FB02
:1064C00010BD818D4908FEF7C3F810BD0168CA6888
:1064D00022F49072CA6001684A6922F001024A619E
:1064E000016B012904D10168CA6822F01002CA6058
:1064F000202180F83E100021016370470168CA68BE
:1065000022F0C002CA60202180F83D10704708B513
:1065100090F83E10222901D0022008BD82684FF475
:1065200080539A4201D1016921B1816A9A421BD0FC
:106530004AB10AE00268816A5268C2F308020A801E
:10654000816A891C08E0026972B10268526802F02F
:106550007F020A70816A491C8162C18D491E09044B
:10656000090CC18503D019E002685268F1E701689F
:10657000CA6822F02002CA600168CA6822F48072E8
:10658000CA6001684A6922F001024A61202180F84C
:106590003E10016B012903D0FEF7A4FA002008BDCC
:1065A000002101630168CA6822F01002CA60016814
:1065B0000A68D20602D50A6849680091818DFEF703
:1065C00047F8EBE770B5044600680169E26821F41A
:1065D0004051114301612169A06808436169084382
:1065E0002168CA6841F20C639A430243CA6020687A
:1065F0004169A26921F44071114341611E4920683B
:10660000884202D1FDF720FA01E0FDF70DFA00EB18
:10661000C00101EB0012606864218000B2FBF0F35E
:10662000B3FBF1F36FF018067343B2FBF0F5B2FB66
:10663000F0F605EB8305322303EB0515B5FBF1F509
:10664000B6FBF1F605F0F00505EB0615B2FBF0F62A
:10665000B2FBF0F0B0FBF1F06FF01802504306EB24
:10666000800003EB0010B0FBF1F0216800F00F0098
:106670002844886070BD00000038014038B5816250
:1066800082850025134604460564222084F83E00D6
:10669000A26B13489062A26B1248D062A26B1248A0
:1066A0001063A06B0A4645632168A06B091DFCF7C7
:1066B00093FB206801684168009184F83C50C168F0
:1066C00041F48071C1602068416941F0010141617C
:1066D0002068416941F040014161002038BD00005F
:1066E00059640008B36400080F6400082DE9F04104
:1066F000984617460E460446069D1DE0681C1BD0B2
:106700002DB1FCF7DBFCA0EB0800A84214D92068EF
:10671000C16821F4D071C1602068416921F0010194
:106720004161202084F83D0084F83E00002084F878
:106730003C000320BDE8F0812068006836EA0000D4
:1067400004D00020B842D9D00020F3E70120F9E7B7
:1067500010B50448FDF77EFFBDE81040014800F089
:106760001BB80000CC0300200148FDF773BF0000F8
:106770001004002010B50448FDF76CFFBDE8104080
:10678000014800F009B80000540400200148FBF75C
:10679000E0BF00009C02002038B500681C49884218
:1067A00016D11C4800680168C943C9062FD4016886
:1067B00040680090184800684068184CC0F5807028
:1067C0002178451A164821782A460144154818E0D0
:1067D000154988421BD1154800680168C943C9069C
:1067E00015D4016840680090114800684068114C59
:1067F000C0F580702178451A0F4821782A46014457
:106800000E480068FBF7DEFC20782844207038BD75
:1068100000380140CC030020DC04002044000020AC
:106820006C0000203C000020004800405404002080
:1068300020050020450000206C01002040000020C1
:10684000FEE700001CB500218DF804108DF805004E
:106850004FF47A700090022301AA78210148FCF7D6
:1068600019FE1CBDC40200201CB540218DF8041087
:106870008DF805004FF47A700090022301AA782168
:106880000148FCF707FE1CBDC402002070B50B4D8B
:106890000E460446002201212846FCF70AFC7E2011
:1068A00000EA4400FFF732F93046FFF72FF9284697
:1068B000BDE8704001221146FCF7FBBB000C014013
:1068C000490050EAC12018BF04204A0D18BF40F00B
:1068D000010040F2FF72B2EB515F08BF40F00200CE
:1068E000012808BF052070470907090E002804DBAE
:1068F00000F1E02080F80014704700F00F0000F174
:10690000E02080F8141D704730380A2801D2012099
:10691000704700207047704711B583B000204FF4D6
:106920007A74CDE90040012303AAEE210748FCF761
:10693000B1FD022301AAEE2104480094FCF788FC73
:10694000BDF8040004B040BA10BD0000C40200202D
:1069500013B54FF6FF73012269460248FEF728F986
:1069600000981CBDCC030020FCF760FEFFF798FCEC
:10697000FEF7F8FBFEF7C8FBFEF742FDFEF782FCD0
:10698000FEF7A0FCFEF774FBFEF7E2FCFEF798FBB7
:10699000FEF752FDFEF76CFDFEF7FEFC23A0F9F7B3
:1069A00059FC27A0F9F756FCFEF7A0FDFEF77EFD87
:1069B000022327A200211020FEF706FEFAF7C4FFEB
:1069C000FAF728FFFEF7C8FFFBF761F8244D2860AF
:1069D000FBF75DF8234C206023480068C16841F054
:1069E0001001C1604FF48076324620491E48FEF700
:1069F00063F81F480068C16841F01001C160324669
:106A00001C491B48FEF758F81B4E17492868FFF72A
:106A1000F9F8306818B916492068FFF7F3F8FBF762
:106A20005BFB3220FCF710FAEFE70000556172744F
:106A30003120696E6974206973206F6B0A00000051
:106A400053544D333220436F6E74726F6C0A0000E2
:106A500053544D333220436F6E74726F6C000000DC
:106A60003C00002040000020CC0300206C000020EF
:106A7000540400206C0100203400002010B50029CF
:106A80000AD00878002807D005487844FAF730FA89
:106A9000002801D0002010BD0248784410BD00003D
:106AA000BA130000B213000021F00042A2F16052BC
:106AB000B2F5801F01F0004328BFD2F17F6C0BD9E3
:106AC0005FEA001C43EAC20242EB507018BF7047F5
:106AD00028BF20F001007047B2F5801FBCBF1846E8
:106AE00070474FEA410C1CF5001F02D2084600F027
:106AF000A3BC70B500F0DEFA00000089FFF7F6BF16
:106B00004FF00040A0F580007047000010B591EAFA
:106B1000030F48BF83F0004300F13483841A71EB04
:106B2000030C05D2121943EB0C03001B61EB0C01A3
:106B3000DFF824E14FEA1154A4EB135C1EEA430F83
:106B400018BF9EEA445F73D023EA0E03DCF1200EE7
:106B500021EA045143F4801332D322FA0CFE10EBE5
:106B60000E0023FA0CFE41EB0E01CCF1200E03FACD
:106B70000EFE10EB0E0051F10001B1F5801FCCF1BB
:106B8000200E32D201EB045112FA0EF2BDE8104091
:106B900058BF7047401C38BF5FEA420218BF7047B9
:106BA000002814BF20F0010041F100014FEA410329
:106BB00013F5001F38BF7047A1F1C04100F0C8BAFB
:106BC000012A43EB0302ACF1200CDCF11F0E32BFB3
:106BD0004FF0000E23FA0CF310EB030041EB0451CD
:106BE000B4EB115FD0D0A1EB045101F5801149083D
:106BF0005FEA300001EB04510ED350F1000038BFC2
:106C000012FA0EFE08D1BDE81040C9E7401C38BF9B
:106C10005FEA4202CAD1C3E7BDE810404FEA410330
:106C200013F5001F38BF7047A1F1C04100F090BAC2
:106C30009EEA445F08D011EA5E0FBDE8104004BF31
:106C400001F0004100207047BDE8104070B500F031
:106C500031FA00BF64FBBE3E0000E0FF2DE9C041F9
:106C600030B4DFF8A0C23CEA111418BF3CEA131498
:106C700000F0EC8081EA03051CEA111444EAD574A3
:106C800018BF1CEA131500F0C780A4EB05044FF0F1
:106C9000004545EAC12145EAC32341EA505143EA90
:106CA000525304F17F74994204F500344FEAC02036
:106CB0004FEAC22208BF904200F09C804FEA136561
:106CC0000FF24016765D4FEA134506FB05F7C7F154
:106CD000807706FB07F74FEAD737A7FB03687642B2
:106CE000C8F58038A7FB06CE38BFA8F1010807FB1E
:106CF00008E64FF0000EA6FB028CE6FB03CEDCF1AB
:106D0000000CCEF1004E38BFAEF1010EA6FB0C58C0
:106D10004FF000074FF00005E6FB0E87A1FB08C609
:106D2000A0FB07CE16EB0E0645F10005E1FB07655B
:106D300015F1E04E7EBFA4F580345FEA46066D4152
:106D400016F1800745F100054FEA17274FEA06665E
:106D500047EA0567A6F1DE46B6F1805F4FEA1525E2
:106D60001FD9384624F0010C05EBC471BCF1FE6F4D
:106D700001EB0C1102D8F0BCBDE8008124425CBFDD
:106D800001F5801E9EEAC47F02D4F0BCBDE80081FC
:106D9000244238D4F0BCA1F1C041BDE8004100F06C
:106DA000D7B94FEAD22242EA43524FEAD323A7FB94
:106DB00002864FEAD02040EA415007FB03661EEAF4
:106DC0000E0F4FEAD12105FB026658BFA6EB005615
:106DD000B6EB00564FEA520E4EEAC37E18EB0E0E8B
:106DE00056EB530EBDD518EB02085E417F1C55F1E2
:106DF0000005B6E74FF480154FF000074FF000068E
:106E00004FF00008ADE7F0BC4FF0000001F1C041C9
:106E100001F00041BDE8008111EA0C1F0CEA1315D6
:106E200000D00CE013EA0C1F00F025804FF00000AA
:106E3000F0BC81EA030101F00041BDE80081F0BC33
:106E4000BDE8004181EA030100F082B9F0BCBDE871
:106E5000004170B500F02EF9097EFC3E00F007B845
:106E600081EA03014FF0000001F00041704781EA20
:106E7000030100F06DB9F0BCBDE800414FF0000027
:106E800021497047FFFDFBF9F7F5F4F2F0EEEDEB69
:106E9000E9E8E6E4E3E1E0DEDDDBDAD8D7D5D4D318
:106EA000D1D0CFCDCCCBCAC8C7C6C5C4C2C1C0BF64
:106EB000BEBDBCBBBAB9B8B7B6B5B4B3B2B1B0AF6A
:106EC000AEADACABAAA9A8A8A7A6A5A4A3A3A2A14E
:106ED000A09F9F9E9D9C9C9B9A9999989797969509
:106EE00095949393929191908F8F8E8E8D8C8C8BA5
:106EF0008B8A89898888878786858584848383822D
:106F0000828181800000FF070000F87F10F00042BE
:106F100048BF4042B0FA80F310FA03F10AD0C3F13F
:106F20001D0303F580634FEA415002EB035202EB6D
:106F3000D12170474FF000007047B0FA80F310FA8B
:106F400003F10AD0C3F11D0303F580634FEA4150FA
:106F50004FEA035202EBD12170474FF00000704717
:106F6000DFF848C170B51CEA111E1EBF1CEA1315DC
:106F70009EEA0C0F95EA0C0F00F06F8081EA030483
:106F800023EA4C134EEAD47E21EA4C1141F48011DD
:106F900043F48013AE44A1FB024CA0FB0365AEF1A9
:106FA0007F7E361955EB0C05A1FB034C4CF1000319
:106FB000A0FB021C16EB0C06654153F100030942CD
:106FC00018BF46F0010613F4007F0BD14FEA0331DE
:106FD0004FEA0530340341EA155140EA16506FF08C
:106FE00003020AE04FEAC3214FEAC520F40241EA56
:106FF000555140EA56506FF0020202EB2E4201EB6F
:10700000025585EACE710AD05FEA440C18BF24F01D
:10701000004450F1000041F1000120EAD47040F238
:10702000FE7C624500D270BDA84214BF4FF0804480
:107030004FF04044002E08BF0024BEF1806FA8BF6F
:10704000A1F1C041BDE8704080F282804FF00000A5
:1070500001F1C04101F0004170479EEA0C0F0CEABB
:10706000131518BF95EA0C0F06D04FF0000081EA07
:10707000030E0EF0004170BD00F01CF88900013EC7
:1070800000F007B800F009B84FEA430C5FEA5C5C17
:1070900008D081EA030100F05BB84FEA410C5FEAD7
:1070A0005C5CF6D14FF00000014970470000FF071B
:1070B0000000F87F0EF1020E2EF0030E5EF8046B56
:1070C000364205D4012A43EB030515F5001F12D8FB
:1070D000012841EB010C1CF5001F0CD80ED14FEA22
:1070E000D17C15F5001F0CEB4C0C0CF1020C08BF09
:1070F0004CEBD37C04E04FF0080C01E04FEAD37C6A
:107100000CEB4C0526FA05F606F00706B6F1040C62
:1071100006D20EEB860CBDE870404CF0010C6047C7
:10712000DFE80CF0090B02024FF000414FF00000C5
:10713000A1F5002170BD19461046012851EB01044C
:1071400018BFD4F5001484BF002001F0004170BDC9
:107150000808A0F500114FEA3101704791EA030FCA
:1071600010B581F000413FF5D9AC83F0004300F049
:1071700009B8000010B591EA030F48BF83F000433F
:107180003FF5CCAC841A71EB030C07D212198CF0CA
:10719000004C43EB0C03001B61EB0C01DFF8A4E196
:1071A0004FEA1154A4EB135C1EEA430F18BF9EEA8A
:1071B000445F00F0B08023EA6E03524221EA04519A
:1071C000C3EB6E0338BF5B1EDCF1200E25D322FA21
:1071D0000CFE10EB0E0043FA0CFE41EB0E01CCF15D
:1071E000200E03FA0EFE10EB0E0051F10001CCF15F
:1071F000200E29D412FA0EF201EB0451BDE8104022
:1072000058BF7047401C1CBFB2F1004F70470028A8
:107210000CBF491C20F00100704712EB020E43EB3B
:10722000030218BF4FF0010E4EEA4202ACF1200CEF
:10723000DCF11E0E54D943FA0CFE10EB0E0051F196
:10724000FF31CCF11E0ED5D50EF1010E12FA0EFE55
:10725000404141EB010101EB445C5FEA5C5C10D909
:1072600010EBDE7001EB045138BFBEF1004FBDE8FA
:10727000104018BF704700280CBF491C20F00100C7
:10728000704730D24FEAD42C11F5001124F4006479
:107290001BD0B1FA81F20B3AA41AA41ED2F120033A
:1072A000914030FA03F31943904001EBCC71002C6C
:1072B00001EB0451BDE81040A8BF704701F1C04187
:1072C0004FF0000001F000417047B0FA80F310FA6F
:1072D00003F100D110BDE41A173C4805C90AE4E7E0
:1072E00001EB045110BD491001EB0451BDE8104001
:1072F0004FEA300002E04FF0000170474A0008BF3B
:107300000042F8D0B2F5001F28BF704701F00041DD
:107310004FF0000070479EEA445F07D011EA5E0F0D
:10732000BDE8104004BF002100207047BDE81040B8
:1073300070B5FFF7BFFE00BF40DFF63E83F00041AF
:10734000104670470000E0FF43004FEAD30C4FEABD
:107350003C0C43401FBF40070CF1605113F0FE4F3F
:1073600070471CF0006F03D100200CF00041704703
:107370000CF0004343EA507010B540EACC0000F036
:1073800015F800BF000000924FEA0001FFF7E0BED1
:107390004FF000414FF00000A1F5002170470000C0
:1073A000014800F050B800BF0000C07F0EF1020E8F
:1073B0002EF0030E5EF8044B244204D44FEA41023F
:1073C000B2F17F4F11D84FEA4003B3F17F4F0CD891
:1073D0000ED14FEAD07CB2F17F4F0CEB4C0C0CF18C
:1073E000020C08BF4CEBD17C04E04FF0080C01E02C
:1073F0004FEAD17C0CEB4C0324FA03F404F00704AD
:10740000B4F1040C06D20EEB840CBDE810404CF035
:10741000010C6047DFE80CF0070802024FF0004063
:10742000A0F5800010BD0846420018BFD2F180725E
:1074300088BF00F0004010BDFF2141EAD050C005D8
:107440007047F9F76CBA0CF00F03092B08BF08203E
:1074500000F051800A2B0BD0082B18BF704708BFD3
:107460001CF0400F0AD04FF000004FF000017047B1
:107470001CF0400F18BF4FF0004070471CF0100F79
:1074800008D020F0704300F07F4242EAD3014FEA77
:107490004370704700F0604021F07F4242EA0002F2
:1074A00001F07F4040EA727070474FF0FF0212EA2D
:1074B000D0521CBF92F0FF038B42C2BFD14200EBFF
:1074C000C1507047002A0AD0002B0BD0002900F0D1
:1074D0000040A4BF40F0FE4040F40000704700F0C0
:1074E0000040704743024FF00B0C18BF4CF0806C0B
:1074F0007FF456AF70471CF4801F11D01CF4E02FAE
:1075000003D06FEACC31490070474FF04050EFF3A1
:10751000008222F0704242EA000282F30088704743
:107520004FF0000070470000000000000000002F36
:10753000000000000700070000147F147F140024DF
:107540002A7F2A120062640813230036495522500C
:1075500000000503000000001C2241000000412241
:107560001C000014083E08140008083E080800002B
:1075700000A0600000080808080800006060000023
:10758000002010080402003E5149453E0000427FA1
:107590004000004261514946002141454B310018ED
:1075A00014127F10002745454539003C4A494930AF
:1075B0000001710905030036494949360006494969
:1075C000291E000036360000000056360000000874
:1075D0001422410000141414141400004122140851
:1075E00000020151090600324959513E007C121136
:1075F000127C007F49494936003E41414122007FCB
:107600004141221C007F49494941007F0909090184
:10761000003E4149497A007F0808087F0000417F09
:107620004100002040413F01007F08142241007FBB
:1076300040404040007F020C027F007F0408107F22
:10764000003E4141413E007F09090906003E41518B
:10765000215E007F09192946004649494931000148
:10766000017F0101003F4040403F001F2040201F9C
:10767000003F4038403F006314081463000708705F
:10768000080700615149454300007F414100005512
:107690002A552A55000041417F00000402010204DE
:1076A00000404040404000000102040000205454CB
:1076B0005478007F4844443800384444442000381B
:1076C0004444487F00385454541800087E0901028D
:1076D0000018A4A4A47C007F080404780000447D62
:1076E0004000004080847D00007F1028440000009E
:1076F000417F4000007C04180478007C0804047872
:1077000000384444443800FC24242418001824245D
:1077100018FC007C08040408004854545420000459
:107720003F444020003C4040207C001C2040201C66
:10773000003C4030403C004428102844001CA0A0DD
:10774000A07C004464544C44141414141414000019
:107750000000000000000000000000000000000029
:1077600000F80000000000000033300000000010AE
:107770000C06100C0600000000000000000040C0D5
:107780007840C0784000043F04043F0404000070C7
:1077900088FC08300000001820FF211E0000F008BF
:1077A000F000E018000000211C031E211E0000F064
:1077B0000888700000001E212324192721101016AC
:1077C0000E000000000000000000000000000000AB
:1077D00000E018040200000000071820400000022A
:1077E0000418E0000000004020180700000040409E
:1077F00080F0804040000202010F01020200000000
:1078000000F0000000000101011F01010100000063
:1078100000000000000080B07000000000000000C8
:107820000000000000000001010101010101000051
:1078300000000000000000303000000000000000E8
:10784000000080601804006018060100000000E0DD
:1078500010080810E000000F102020100F0000108A
:1078600010F8000000000020203F202000000070E1
:1078700008080888700000302824222130000030D9
:107880000888884830000018202020110E000000D1
:10789000C02010F8000000070424243F240000F852
:1078A0000888880808000019212020110E0000E037
:1078B000108888180000000F112020110E000038D9
:1078C0000808C83808000000003F000000000070F1
:1078D000880808887000001C222121221C0000E07A
:1078E00010080810E0000000312222110F000000F3
:1078F00000C0C000000000000030300000000000A8
:107900000080000000000000806000000000000017
:1079100080402010080000010204081020004040B0
:1079200040404040400004040404040404000008F3
:1079300010204080000000201008040201000070A8
:1079400048080808F0000000003036010000C03090
:10795000C828E810E0000718272423140B000000B3
:10796000C038E0000000203C23020227382008F83D
:10797000888888700000203F202020110E00C03031
:10798000080808083800071820202010080008F808
:1079900008080810E000203F202020100F0008F801
:1079A0008888E8081000203F20202320180008F8CD
:1079B0008888E8081000203F200003000000C03045
:1079C00008080838000007182020221E020008F8C6
:1079D00008000008F808203F210101213F2000088D
:1079E00008F8080800000020203F202000000000C8
:1079F0000808F8080800C08080807F00000008F8B0
:107A000088C028180800203F20012638200008F8E8
:107A1000080000000000203F20202020300008F84F
:107A2000F800F8F80800203F003F003F200008F869
:107A300030C00008F808203F200007183F00E01081
:107A400008080810E0000F10202020100F0008F890
:107A500008080808F000203F210101010000E010A3
:107A600008080810E0000F18242438504F0008F8C8
:107A7000888888887000203F2000030C3020007028
:107A80008808080838000038202121221C00180826
:107A900008F8080818000000203F2000000008F83F
:107AA00008000008F808001F202020201F00087888
:107AB000880000C83808000007380E010000F808E8
:107AC00000F80008F800033C0700073C0300081812
:107AD00068808068180820302C03032C3020083878
:107AE000C800C83808000000203F2000000010082F
:107AF0000808C83808002038262120201800000077
:107B000000FE020202000000007F40404000000C26
:107B100030C000000000000000010638C000000274
:107B20000202FE000000004040407F000000000014
:107B30000402020204000000000000000000000037
:107B40000000000000008080808080808080000233
:107B5000020400000000000000000000000000001F
:107B60008080808000000019242222223F2008F813
:107B7000008080000000003F112020110E00000056
:107B8000008080800000000E1120202011000000E5
:107B900000808088F800000E112020103F20000097
:107BA000808080800000001F22222222130000809B
:107BB00080F0888888180020203F202000000000E6
:107BC000808080808000006B94949493600008F81B
:107BD000008080800000203F210000203F200080A6
:107BE0009898000000000020203F202000000000A6
:107BF00000809898000000C08080807F000008F816
:107C0000000080808000203F24022D3020000008EA
:107C100008F8000000000020203F202000008080A5
:107C2000808080808000203F20003F20003F8080B7
:107C3000008080800000203F210000203F200000C5
:107C4000808080800000001F202020201F00808076
:107C500000808000000080FFA12020110E000000A5
:107C6000008080808000000E112020A0FF80808096
:107C700080008080800020203F2120000100000043
:107C80008080808080000033242424241900008018
:107C900080E0808000000000001F20200000808025
:107CA000000000808000001F202020103F208080E6
:107CB00080000080808000010E3008060100808076
:107CC0000080008080800F300C030C300F0000809B
:107CD0008000808080000020312E0E3120008080C6
:107CE00080000080808080818E70180601000080F6
:107CF0008080808080000021302C22213000000014
:107D00000000807C020200000000003F40400000B4
:107D10000000FF00000000000000FF000000000263
:107D2000027C800000000040403F00000000000690
:107D30000101020204040000000000000000000035
:107D4000000000000000010203040607080900000B
:107D5000000001020304303132333435363738390C
:107D60004142434445464030580030313233343587
:107D700036373839616263646566403078000400E4
:107D800000080000000000000002000100001000D8
:107D900002400000000000A00000000005400000BC
:107DA000000000C8000000000C4000000000409CE3
:107DB00000000000194000000020BCBE00000000D0
:107DC00034400000BFC91B8E00000004B540000015
:107DD000504BCFD06607E2CF010000006C4100009D
:107DE0003E8251AADFEEA73401000000D942000014
:107DF000DCB5A0E23A301F97FFFFFFFFB44500005B
:107E0000FD25A0C8E9A3C14FFFFFFFFFFF3F000012
:107E10000000008000000000FF3F00000000008024
:107E200000000000607E0008000000206C000000E0
:107E300028010008CC7E00086C000020BC15000062
:107E4000440100081C00000043000000F8FFFFFF91
:107E50000C0000000E0000000F0000002E000000CB
:107E60000000000000000000000000000000000012
:107E70000000000000000000000000000000000002
:107E800000000000000000000000000000000000F2
:107E900000000000000000000000000000000000E2
:107EA00000000000000000000000000000000000D2
:107EB00000000000000000000000000001000000C1
:0C7EC00010000000000000000024F4008E
:04000005080000ED02
:00000001FF
