:020000040800F2
:10000000A015002099010008C736000891300008AB
:10001000C5360008BB0800081140000800000000B9
:10002000000000000000000000000000513A00083D
:100030003B09000800000000BD380008553A0008E0
:10004000B3010008B3010008B301000871390008CA
:10005000B3010008B3010008B3010008B3010008B0
:10006000B3010008B3010008B3010008B3010008A0
:10007000E1080008ED080008F90800080509000873
:10008000B3010008B3010008B3010008B301000880
:10009000A93F0008B3010008B3010008B70D00082C
:1000A000B3010008B3010008B3010008B301000860
:1000B000B3010008B3010008B3010008B301000850
:1000C000B3010008B3010008B3010008B301000840
:1000D000B3010008113F0008853F0008913F000868
:1000E000910D0008B3010008B301000800F002F808
:1000F00000F043F80AA090E8000C82448344AAF17F
:100100000107DA4501D100F038F8AFF2090EBAE87C
:100110000F0013F0010F18BFFB1A43F0010318473B
:10012000A0480000C0480000103A24BF78C878C139
:10013000FAD8520724BF30C830C144BF04680C60ED
:10014000704700000023002400250026103A28BF35
:1001500078C1FBD8520728BF30C148BF0B60704739
:10016000642900F07580002070471FB59DE80300EA
:1001700000F0F2F91FBD10B510BD00F0F7FA1146FE
:10018000FFF7F3FF03F08EFF00F015FB03B4FFF75A
:10019000F2FF03BC03F079FF094880470948004794
:1001A000FEE7FEE7FEE7FEE7FEE7FEE7FEE7FEE727
:1001B000FEE7FEE704480549054A064B7047000084
:1001C000833B0008ED000008A0050020A0150020DA
:1001D000A00D0020A00D002070B5064600F0A0F98B
:1001E000056806F10B0020F00704B4429CBF002014
:1001F00070BD2B466A68BAB11068A04210D304F1F2
:10020000080188423CBF5068586007D351681019F4
:1002100041601168091B016058601460101D70BDB9
:1002200013465268002AE7D12146284600F080F99B
:100230000028DED170BD00000FB4044910B503AA38
:10024000029800F057FA10BC5DF814FB0C00002077
:100250002DE9F0410646002410687529314616A59F
:1002600010D0AFF30080002802DA404213A507E067
:1002700031688A0701D512A502E0490704D511A506
:10028000012401E0AFF3008000210A2206F12407D7
:1002900009E0B0FBF2FCB0FBF2F302FB1C003030D3
:1002A00078541846491C0028F3D123462A46304684
:1002B000BDE8F04100F0ADB9000000002D000000E5
:1002C0002B000000200000002DE9F05F8946044665
:1002D0004FF0000ADFF824B1FB44C0F820A020460C
:1002E000E168884700287DD0252806D0D4E901217F
:1002F0009047206A401C2062F1E700255F462046B7
:10030000E16888472028064607DB312E05D2B81958
:1003100010F8200C08B10543F1E7A80701D525F036
:100320000405C4F81CA00027C4F818A02A2E09D080
:10033000304603F0A3FE38B304EB8708303EC8F81C
:10034000186019E059F8041B204604EB87029161FC
:10035000E1688847012F064618D1E069002820DAB5
:1003600025F020051DE0D8F8180000EB800006EB12
:1003700040003038C8F818002046E1688847064633
:1003800003F07CFE0028EED1012F0AD02E2E08D1DA
:100390002046E16888477F1C0646022F45F020056D
:1003A000C4DBA069002803DA404245F00105A061E2
:1003B000E80701D025F01005A6B1A6F141001928E3
:1003C00002D8203645F400654A463146204625606D
:1003D0004D46FFF7C5FE60B1012807D0ED1D25F0A1
:1003E000070000E007E000F1080978E705F10409DB
:1003F00075E730467AE7206ABDE8F09FD0460000F6
:1004000040EA0103024630B59B0710D14FF001349A
:1004100000E008C208C91D1B9D4315EAC41FF8D09F
:1004200013F0FF0102F8011B0DD01B0AF8E711F8C9
:10043000013B002B02F8013B05D011F8013B002BDA
:1004400002F8013BF3D130BD10B5431C02E010F8B7
:10045000011B71B18107FAD14FF0013202C88C1A29
:100460008C4314EAC211F9D0C01A0A0603D0C01E88
:1004700010BDC01A10BD0A0401D0801E10BD0902B3
:10048000FCD0401E10BD4FF000020429C0F01280C5
:1004900010F0030C00F01B80CCF1040CBCF1020F37
:1004A00018BF00F8012BA8BF20F8022BA1EB0C010C
:1004B00000F00DB85FEAC17C24BF00F8012B00F802
:1004C000012B48BF00F8012B70474FF0000200B528
:1004D000134694469646203922BFA0E80C50A0E867
:1004E0000C50B1F12001BFF4F7AF090728BFA0E815
:1004F0000C5048BF0CC05DF804EB890028BF40F8E1
:10050000042B08BF704748BF20F8022B11F0804F22
:1005100018BF00F8012B7047704770477047000004
:100520000048704748050020704770477047704783
:1005300038B504460A4600206946AFF3008000281B
:1005400008BF38BD02460099204600F0E9F80120B6
:1005500038BD012000F002B9F8B5AFF300800546C0
:1005600000200C46102000BF0646A819A0420DD955
:10057000324669460020AFF30080070008BF00F054
:10058000EDF80098A04218BF0546C419FFF7C8FF50
:1005900005600746F01D20F007004619284600F0C8
:1005A0000AF8B44208BFF8BDA21B31463868BDE85E
:1005B000F84000F0B5B800210160C0E901107047B3
:1005C0001020704770B50446051FFFF7A9FF0068AB
:1005D000002C14BF446870BD002C18BFAC423CBF57
:1005E00020466468F8D301680A18AA4218BF45601B
:1005F00003D12A6805461144016028684119A142C7
:100600001CBF6C6070BD6168696021680844286027
:1006100070BD2DE9F0470D4699469246044600F11B
:1006200024080168880604D5E06921F010012160E2
:1006300000E00120A84201DD471B00E00027A1697E
:100640007A1902EB0900081AA0612078C00602D4CA
:100650002046AFF30080002608E0D4E901211AF813
:1006600006009047206A401C761C20624E45F4DB51
:100670002078C0060AD52046AFF3008006E0D4E912
:10068000012130209047206A401C2062381EA7F1CB
:100690000107F4DC07E0D4E9012118F805009047D0
:1006A000206A401C2062281EA5F10105F3DC2046CB
:1006B000AFF300802078000602D50220BDE8F08765
:1006C0000120FBE701694A1C02610878704700B508
:1006D0008FB0CDE901310021059105497944CDE97B
:1006E000031011466846FFF7EFFD0FB000BD000094
:1006F000E5FFFFFF074B70B50D467B44FFF7E7FFB3
:100700000446284600F026F810B14FF0FF3070BDC7
:10071000204670BD8F39000000487047400500201A
:10072000034640688C46002818BF88423CBF0346F9
:100730004068F8D318681844884207D00CF10300C9
:1007400020F00700001D411A521A0146081D0A60D8
:10075000FFF738BF007B00F08000704710B500F055
:1007600039F8BDE8104000F02FB870477546FFF724
:10077000D3FFAE4605006946534620F00700854684
:1007800018B020B5FFF716FDBDE820404FF0000679
:100790004FF000074FF000084FF0000B21F0070169
:1007A000AC46ACE8C009ACE8C009ACE8C009ACE8AC
:1007B000C0098D46704710B50446AFF3008020464F
:1007C000BDE81040FFF7E2BC002801D003F05DBC9B
:1007D0007047000010B5012805D0002103A000F0EB
:1007E00021F8012010BD09A1F8E700005349475244
:1007F000544D454D3A204F7574206F6620686561F1
:1008000070206D656D6F7279000000003A204865B8
:100810006170206D656D6F727920636F7272757093
:100820007465640070B505460C460A2000E06D1C36
:1008300000F011F835B128780028F8D102E0641CE6
:1008400000F009F814B120780028F8D1BDE8704014
:100850000A20AFF3008008B569468DF80000032038
:10086000ABBE08BD70B5044600688168C943C907BE
:1008700017D1816821F00101816001F01BF9054663
:100880000AE000BF01F016F9401B022804D92068D5
:100890008068C043C00706D020688068C043C00796
:1008A000F0D0002070BDA06A40F01000A062E06AA5
:1008B00040F00100E062012070BDFEE710B54FF48A
:1008C0000270FFF789FC044640F2FF10C4F80402EE
:1008D000411CC4F800022046FFF7F7FD204610BD7A
:1008E000014800F0A1BE0000E0040020014800F033
:1008F0009BBE00009C040020014800F095BE000053
:1009000014040020014800F08FBE000058040020AD
:1009100030B590F840500124AC40C56B6C60046861
:1009200063604368102B036803D099600068C2605D
:1009300030BD9A600068C16030BD704710B50C468C
:10094000034602F0BCFF10B14FF0FF3010BDD3F8EA
:100950000022521CD01702EBD0506FF30800101A7F
:10096000C3F80002185C2070002010BD70B542F280
:100970001075074C05E028466D1E08D3012000F0D5
:1009800063FF20680028F6D000202060012070BDA1
:100990000000002010B59AB064216846FFF795FD6D
:1009A00002F092FE02234BA20021102002F01AFF57
:1009B0004CA16846FFF724FD6846FFF745FD82B26B
:1009C0004FF47A7423466946484802F0C5FA022378
:1009D00047A21946102002F005FFFFF7C7FF0028C5
:1009E00075D0022343A20421102002F0FBFE42A195
:1009F0006846FFF705FD6846FFF726FD82B22346ED
:100A000069463A4802F0A8FA02233FA2194610208C
:100A100002F0E8FEFFF7AAFF002858D0022335A213
:100A20000421102002F0DEFE3AA16846FFF7E8FC40
:100A30006846FFF709FD82B2234669462B4802F05B
:100A40008BFA022337A21946102002F0CBFEFFF7E3
:100A50008DFF00283BD0022326A20421102002F0A3
:100A6000C1FE34A16846FFF7CBFC6846FFF7ECFCFB
:100A700082B2234669461D4802F06EFA022338A26C
:100A80001946102002F0AEFEFFF770FF00281ED0BE
:100A9000022318A20421102002F0A4FE33A168460C
:100AA000FFF7AEFC6846FFF7CFFC82B223466946EB
:100AB0000E4802F051FA022330A21946102002F02B
:100AC00091FE022330A20421102002F08BFE1AB006
:100AD00010BD0000455350383236362054657374CB
:100AE0000000000041540D0A00000000D003002067
:100AF000415400004F4B000041542B4349504D5589
:100B0000583D300D0A00000041542B4349504D55CB
:100B10005800000041542B4349504D4F44453D314E
:100B20000D0A000041542B4349504D4F44453D317F
:100B30000000000041542B43495053544152543D4E
:100B400022544350222C223139322E3136382E3164
:100B500035322E323034222C383030300D0A00003D
:100B600041542B43495053544152540041542B4358
:100B7000495053454E440D0A0000000041542B4398
:100B8000495053454E440000546F75436875616E7B
:100B90002E2E2E0010B59AB064216846FFF795FC02
:100BA00002F092FD022322A20021102002F01AFE80
:100BB00023A16846FFF724FC6846FFF745FC401C6C
:100BC00082B24FF47A7423466946254802F0C4F98C
:100BD000022324A21946102002F004FEFFF7C6FEED
:100BE000002823D0022322A20421102002F0FAFDC3
:100BF00020A16846FFF704FC6846FFF725FC401C6F
:100C000082B223466946164802F0A6F902231CA2C6
:100C10001946102002F0E6FDFFF7A8FE002805D0D7
:100C2000022313A20421102002F0DCFD1AB010BD33
:100C30004553503832363620546573740000000036
:100C400041542B43574A41503D225265646D6922FD
:100C50002C22313233343536373839220D0A000030
:100C6000D003002041542B43574A4150000000005C
:100C70004F4B000041542B43494653520D0A00008C
:100C800041542B43494653520000000000B599B02F
:100C900064216846FFF719FC0FA16846FFF7B0FB17
:100CA0006846FFF7D1FB82B24FF47A7369460B486E
:100CB00002F052F902230AA21946102002F092FD16
:100CC00002230BA20421102002F08CFD0CA0FFF7E0
:100CD000B3FA19B000BD00002B2B2B00D00300206D
:100CE0002B2B2B2020202020202020200000000063
:100CF0004578697420546F75436875616E00000013
:100D00004578697420546F75436875616E0A0000F8
:100D1000114A10B51078002105280BD0012811D0F8
:100D2000062817D111700DA0FFF786FABDE8104014
:100D3000FFF7ACBF11700EA0FFF77EFABDE81040C0
:100D4000FFF728BE11700EA0FFF776FABDE810403D
:100D5000FFF720BF10BD0000100000204B455920B8
:100D600045534320507265737365640A00000000A8
:100D70004B4559204F4B20507265737365640A00D0
:100D80004B455920555020507265737365640A00B5
:100D900010B54FF4805000F08BFD4FF4005000F080
:100DA00087FD4FF4804000F083FDBDE810404FF414
:100DB000004000F07DBD10B5202000F079FDBDE8B9
:100DC00010404FF4807000F073BD10B50C46034620
:100DD00002F07DFD10B14FF0FF3010BDD3F80422BA
:100DE000521CD01702EBD0506FF30800101AC3F852
:100DF00004021C54002010BDF0B516460D460746EF
:100E000000240AE029783846FFF7DFFF002802DADD
:100E10004FF0FF30F0BD641C6D1CB442F2D30020D3
:100E2000F0BD72B6FEE70000F8B50024009490F81B
:100E300024202546012A12D0012280F824204A6865
:100E40001F23072A0DD20668776B521E02EB82021F
:100E500093409F430B6893401F43776319E0022040
:100E6000F8BD06680D2A0AD2376BD21F02EB820248
:100E700093409F430B6893401F43376309E0F76A31
:100E80000D3A02EB820293409F430B6893401F434D
:100E9000F7620A68072306680A2A0AD3F7680A3A3B
:100EA00002EB420293409F438B6893401F43F760DD
:100EB00008E0376902EB420293409F438B689340FE
:100EC0001F4337610A68102A01D0112A20D1124B22
:100ED00002689A4217D193681B0219D4936843F4AD
:100EE000000393600968102912D10C490C4A096863
:100EF000B1FBF2F101EB8101490000E0491E0091D4
:100F00000029FBD104E0816A41F0200181620124C3
:100F100080F824502046F8BD002401402C00002019
:100F200040420F002DE9F0414FF0000704003D461C
:100F30007ED0A06A002628B9E66284F824602046A4
:100F400000F07EF82046FFF78DFCA16AC90600D4A8
:100F500020B1A06A40F01000A06269E0A16A21F40B
:100F6000885141F00201A1626268E169237B0A4372
:100F700047EA43010A43A1684FF48077B94209D098
:100F8000012907D05FF0000194F814C0BCF1010FF3
:100F900002D00AE03946F7E7F3B1A36A43F0200331
:100FA000A362E36A43F00103E3622368D3F804C059
:100FB0002CF4694C4CEA010CC3F804C021688B681E
:100FC000DFF870C003EA0C0313438B60A168B942D9
:100FD0000BD0012909D00CE0DFF85CC0A3690CEB51
:100FE00043330B4343F40061DFE7218A0D05A5F588
:100FF00080152168CB6A23F470032B43CB622168F0
:1010000089680E4B1940914208D1E662A16A21F02D
:10101000020141F00101A162BDE8F081A06A20F067
:10102000020040F01000A062E06A40F00100E062BF
:101030000120F1E7FDF7E1FF00E0FFFFFE0E1FFFDB
:1010400008B500680649884208D10648816941F41C
:1010500000718161806900F40070009008BD00009B
:101060000024014000100240704730B590F8204045
:10107000012C05D0022C03D0416A41F480215DE0AF
:101080000468002955D02469A40754D04FF4D874BB
:10109000056804EB01142D5915F0040595600568E9
:1010A0002D594ED0ED08556005682C5904F0020406
:1010B000D4604FF4DA74056804EB01142D5905F07F
:1010C0000F05156105682D59C5F30725956105685C
:1010D0002C59240C54614FF4DC72046802EB0112A9
:1010E000A4581C700468A458240A5C700468A458AE
:1010F000240C9C700468A258120EDA704FF4DE7251
:10110000046802EB0112A4581C710468A458240A54
:101110005C710468A458240C9C710468A258120ED7
:10112000DA71006881B1016941F02001016100209C
:1011300030BDE468A8E7416A41F400114162012032
:1011400030BD6D0D1560AFE7C16841F02001C16091
:10115000EDE72DE9F05F0546006800244669D0F808
:1011600004908768D0F80CB0D0F810A0D0F81880A0
:10117000F10748D0F90714D001218160B80703D5E1
:10118000284600F0DBF90CE0780702D54FF4006444
:1011900007E0380702D54FF4805402E0284600F0FB
:1011A000CCF9F80516D529684FF480708860B80529
:1011B00003D5284600F0C4F90CE0780502D544F4C4
:1011C000005407E0380502D544F4804402E0284684
:1011D00000F0B5F9F80316D529684FF4803088601F
:1011E000B80303D5284600F0ADF90CE0780302D52A
:1011F00044F4004407E0380302D544F4803402E0AC
:10120000284600F09EF9300707D55FEACB6004D589
:101210002968102044F40074C86070074FF0080774
:1012200007D55FEA0B7004D52868C760284600F030
:1012300059F9B00706D52868C068800702D028464B
:1012400000F051F9700607D55FEACA6004D5296835
:10125000102044F480640861B00607D55FEA0A7084
:1012600004D528680761284600F03EF9F00606D547
:1012700028680069800702D0284600F037F9B003DB
:1012800008D55FEAC96005D529681020486028465E
:1012900000F052F9F00307D55FEA097004D5286819
:1012A0004760284600F04FF9300446D55FEA4970A0
:1012B00040D5F00504D55FEAC87001D044F00104C0
:1012C000B00504D55FEA887001D544F002047005CA
:1012D00004D55FEA487001D544F00404300529D5EF
:1012E00018F0700F26D008F07000402815D006DCEA
:1012F000102809D020280AD0302816D10AE050281A
:101300000ED0602811D10EE044F008040DE044F046
:1013100010040AE044F0200407E044F0400404E034
:1013200044F0800401E044F480742868816921F06D
:1013300070018161296804204860002C05D0686A2A
:10134000204368622846FFF78FFEBDE8F09F70B526
:10135000040003D094F8200010B104E0012070BD17
:10136000204600F081F82068016841F00101016029
:1013700000F0A0FB0546052604E000F09BFB401BA7
:101380000A2811D820684068C007F6D02068016894
:1013900021F00201016000F08DFB05460BE000F03A
:1013A00089FB401B0A2806D9606A40F4003060625D
:1013B00084F82060D2E7206840688007EFD4207E60
:1013C0000128206801683DD021F080010160607E25
:1013D00001282068016838D021F040010160A07E1A
:1013E00001282068016833D021F020010160E07EEF
:1013F0000128206801682ED041F010010160207F93
:1014000001282068016829D021F008010160607F6F
:1014100001282068016824D021F004010160D4E98A
:1014200002010843D4E90412114308436168491ECC
:1014300008432168C86100206062012084F8200010
:10144000002070BD41F08001C0E741F04001C5E7D8
:1014500041F02001CAE721F01001CFE741F0080177
:10146000D4E741F00401D9E710B586B0002100911E
:101470000191029103910068174988422AD11748C7
:10148000C16941F00071C161C16901F0007104914D
:10149000816941F0040181618069114C00F0040010
:1014A00004904FF4006000906946204600F00CFA6A
:1014B000A01400900220019003200390694620466A
:1014C00000F002FA00221146142000F0DFFC142084
:1014D00000F0CEFC06B010BD0064004000100240D9
:1014E00000080140704770477047000070B50A4A15
:1014F000016891420FD1094B094A0021FFF7B5FD60
:10150000064D002421462A5D06A0FEF795FE641CC8
:10151000E4B2082CF6D370BD00640040180000202F
:101520002405002052585F4D6573736167655B2524
:10153000645D3A25640A0000704770477047704741
:10154000704770477047704710B590F8211000221F
:10155000022905D00421816380F82020012010BDDC
:1015600001680B6823F00E030B6001680B6823F021
:1015700001030B6090F84030C46B012101FA03F3C2
:10158000636080F8211080F82020104610BD000014
:1015900010B590F821100024022903D004218163A2
:1015A00001243DE001680A6822F00E020A60016829
:1015B0000A6822F001020A601A4A0168914201D1C8
:1015C000012121E0174A1432914201D110211BE080
:1015D000144A2832914201D1891515E0114A3C3252
:1015E000914201D189140FE00E4A5032914202D14A
:1015F0004FF4803108E00B4A6432914202D14FF43B
:10160000801101E04FF08071064A083A51600121D3
:1016100080F82110002180F82010416B01B188472B
:10162000204610BD080002402DE9F05FC16B0C6838
:1016300001680B68D0F840C0042202FA0CF2494D50
:10164000DFF824A1494E4A4FDFF828B1DFF828E13E
:1016500022422CD05A072AD50A68920603D40A6877
:1016600022F004020A600168A94201D1042219E0B3
:10167000514501D1402215E0B14202D14FF48062C0
:1016800010E0B94202D14FF480420BE0594502D13B
:101690004FF4802206E0714502D14FF4800201E050
:1016A0004FF080622F4908394A60C16A3BE04FF031
:1016B000020808FA0CF818EA040F4FF000094FF07E
:1016C000010235D05FEA837832D50B689B0605D4DA
:1016D0000B6823F00A030B6080F821200168A942FF
:1016E00001D1022219E0514501D1202215E0B14279
:1016F00002D14FF4007210E0B94202D14FF400520F
:101700000BE0594502D14FF4003206E0714502D199
:101710004FF4001201E04FF00072124908394A609C
:1017200080F82090816A00291AD0BDE8F05F084750
:10173000082505FA0CF5254212D01B0710D50B68B9
:1017400023F00E030B6090F84010C36B02FA01F116
:101750005960826380F8212080F82090016BE2E7D5
:10176000BDE8F09F080002401C000240300002402B
:1017700044000240580002406C00024030B528B3DB
:1017800008C8134914221944B1FBF2F18900C1635E
:1017900010498163022141771A6843F6F0718A4348
:1017A000D0E900142143D0E902452C4321430469C8
:1017B0002143446921438469214311431960002175
:1017C0004163012242770177084630BD012030BDD8
:1017D000F8FFFDBF0000024070B5044690F82000FD
:1017E000002501280CD0012084F8200094F8216005
:1017F0000020012E06D084F820000225284670BD66
:10180000022070BD022684F82160A063206806686B
:1018100026F0010606602046FFF77AF8E06A002805
:101820002068016802D041F00E0106E021F00401B9
:1018300001602068016841F00A01016020680168C8
:1018400041F001010160D9E770B5044600F032F9BA
:101850000546601C02D004480078044400F02AF9D0
:10186000401BA042FAD370BD200000200F49B0F504
:10187000005F10D0B0F5804F0FD020280FD0B0F50A
:10188000004F0ED0B0F5805F0DD0B0F5807F01D154
:101890000620087070470120FBE70220F9E70320CB
:1018A000F7E70420F5E70520F3E70000100000202B
:1018B000044910B50A68024202D00860FFF7D6FF5B
:1018C00010BD0000140401402DE9F84FDFF8B89175
:1018D000002409F1040A0AF1040B23460F270BF137
:1018E000040EC9E00125A5402A40AA427DD1674ED9
:1018F000D1F804C0ACEB0608B44532D014DCBCF11E
:10190000030F3AD009DCBCF1000F2AD0BCF1010F63
:101910001CD0BCF1020F31D11DE0BCF1110F17D06A
:10192000BCF1120F2AD119E0B8F5881F19D006DCD6
:10193000B8F5803F15D0B8F5801F1FD111E0B8F57C
:10194000001F0ED0B8F5041F18D10AE0CB6815E0CF
:10195000CB681B1D12E0CB6808330FE0CB680C335B
:101960000CE08B682BB1012B4FF0080303D04561CD
:1019700004E0042302E0056100E00023FF2A01D80F
:10198000064601E000F104064FEA840501D9A5F1FD
:101990002005D6F8008007FA05FC28EA0C0803FAAF
:1019A00005F548EA0508C6F800804D68ED0062D5E7
:1019B000374DAE6946F00106AE61AD6924F003060D
:1019C00005F001050095334D06EB050CDCF80850D9
:1019D000A607360F07FA06F825EA0805DFF8B880EB
:1019E000404503D14FF0000817E044E0DFF8AC8039
:1019F000404502D14FF001080FE0DFF8A4804045D8
:101A000002D14FF0020808E0DFF89880404502D18B
:101A10004FF0030801E04FF0040808FA06F848EA1E
:101A20000508CCF808804D68D9F80060ED034D46F4
:101A300001D5164300E096432E604D68DAF8006049
:101A4000AD03554601D5164300E096432E604D6820
:101A5000DBF80060ED025D4601D5164300E09643D9
:101A60002E604D68DEF80060AD02754601D5164364
:101A700000E096432E60641C0D682A46E5407FF422
:101A800031AFBDE8F88F00000004014000001110E4
:101A9000001002400000014000080140000C01401D
:101AA00000100140001401400AB1016170470904AF
:101AB000FBE700000148806870470000200000201C
:101AC00070B5040025D094F83D00002520B984F8B5
:101AD0003C50204600F04EF9242084F83D00206858
:101AE000016821F0010101602068016841F40041B2
:101AF00001602068016821F40041016000F06EFB84
:101B00004D4A6168914201D84C4900E04C498842F5
:101B100001D2012070BD4B492368B0FBF1F15E6832
:101B200026F03F060E435E606368934206D94FF489
:101B3000967359434FF47A73B1FBF3F12368491C50
:101B40001E6A26F03F06314319626168914210D83F
:101B50004900401EB0FBF1F2521CC2F30B02042AF2
:101B600001D2042022E0B0FBF1F0401CC0F30B00D6
:101B70001CE0A268F2B301EBC10303EB0116431EA4
:101B8000B3FBF6F35B1C43F480431B0549D092B3CF
:101B900001EBC10202EB0111401EB0FBF1F0401C51
:101BA000C0F30B0040F4804040F400402168CA6953
:101BB0004CF6FF739A431043C861D4E90710014300
:101BC0002068026822F0C00211430160D4E90301D9
:101BD00001432068826848F2FF339A4311438160D1
:101BE000D4E9050108432168CA6822F0FF021043C6
:101BF000C86001E00EE016E02068016841F00101D4
:101C000001602564202084F83D00256384F83E505F
:101C1000002070BD01EB4106431EB3FBF6F35B1CD5
:101C2000B3E70120C2E701EB4101401EB0FBF1F038
:101C3000401CC0F30B00B7E7A086010080841E00A3
:101C400000093D0040420F002DE9F84F1F46904625
:101C50008A460446DDF82890FFF72CFF054694F8E5
:101C60003D0020287FD119230122404920460095BC
:101C700001F09AFA002876D194F83C00012872D03D
:101C8000012084F83C0020680168C90703D101687D
:101C900041F0010101602068016821F400610160E8
:101CA000212084F83D00102084F83E0000262664A0
:101CB000C4F824806785608D20852D48E0622B461E
:101CC0004A465146204601F0FBF990B92068416927
:101CD0008069009036E02A464946204601F0E3FA42
:101CE00050B1206C042804D12068016841F40071CF
:101CF00001600120BDE8F88F606A21680078086102
:101D0000606A401C6062618D491E6185218D491E9B
:101D100089B2218522685369DB435B070BD451B13B
:101D200000781061606A401C6062608D401E6085B2
:101D3000208D401E20852A464946204601F00EFA95
:101D40000028CED1208D0028C5D154F83D0B016864
:101D500041F400710160202004F81E09E6776677DF
:101D60000020C7E7FFE70220C4E7000002001000E0
:101D70000000FFFF10B586B0002100910191029193
:101D8000039100680F4988421AD10F4CA06940F0B6
:101D90000800A061A069694600F008000490C02016
:101DA000009012200190032003900848FFF78CFD5B
:101DB000E06940F40010E061E06900F40010049074
:101DC00006B010BD0054004000100240000C01405D
:101DD0000248816802781144816070472000002029
:101DE000074810B5016841F010010160032000F0C0
:101DF0006DF80F2000F006F800F024F8002010BD68
:101E00000020024070B50D4D04464FF47A712878D9
:101E1000B1FBF0F00A490968B1FBF0F000F0D0FD29
:101E200048B9102C07D200222146501E00F02EF88F
:101E300000206C6070BD012070BD000020000020FB
:101E40002C000020094808B5816941F00101816139
:101E5000816901F001010091C16941F08051C161C6
:101E6000C06900F08050009008BD000000100240E2
:101E7000002809DB00F01F02012191404009800089
:101E800000F1E020C0F8001170470000F0B40E4BE4
:101E90001B680C46C3F30223C3F10705042D00D9C8
:101EA0000425191D072901D2002300E0DB1E0126AD
:101EB00006FA05F1491E214099409E40761E1640C3
:101EC0003143F0BC02F0CAB80CED00E0064900F066
:101ED000070208684FF6FF03184040EA0220034A51
:101EE00010430860704700000CED00E00000FA05A8
:101EF000014901200862704700000E4210B529A474
:101F000001461DCC86B08DE81D002AA02A4C006831
:101F100004900020012923D002293AD010291DD194
:101F200061682268D20119D5C1F38342C9031DF843
:101F3000020009D5616804AAC1F34041515C1F4AFF
:101F4000B2FBF1F1484301E01D4948436168490291
:101F500004D440005FF00301B0FBF1F006B010BD07
:101F6000226AC2F30121012903D1920701D5C803D6
:101F7000F4E7022905D1626A920702D549F640408A
:101F8000ECE70329EAD121688903E7D54FF2244021
:101F9000E4E700F033F96168C1F38131491C49007D
:101FA000DAE7000002030405060708090A0B0C0D16
:101FB0000E0F1010010200000010024000127A0003
:101FC00000093D002DE9F84305460078354CC0076F
:101FD00054D0E0690026C00008D4E06940F0805089
:101FE000E061E069012600F0805000902E48016811
:101FF000C90512D40168804641F480710160FFF781
:1020000059FD074605E000BFFFF754FDC01B6428DB
:1020100023D8D8F80000C005F6D5206A10F4407027
:1020200021D0A98801F4407181421CD0206A1F4947
:10203000012220F440700A6000220A602062C0077A
:1020400011D0FFF737FD074641F2883808E000BF9E
:10205000FFF730FDC11B414502D90320BDE8F883DD
:10206000206A8007F4D5206A696820F4407008432C
:1020700020621EB1E06920F08050E061287880077E
:1020800005D56068A96820F440400843606028785E
:10209000C00605D56068E96820F4800008436060E8
:1020A0000020DBE700100240007000404004424284
:1020B0002DE9F0470F46050061D0434E306800F02F
:1020C0000700B84209D2306820F00700384330607A
:1020D000306800F00700B84251D128683B4C8107B6
:1020E00012D5400703D5606840F4E060606028784E
:1020F000000703D5606840F4605060606068A968BC
:1021000020F0F000084360602878C00728D0686895
:10211000012810D02168022810D0890700292EDA62
:10212000616821F0030101436160FFF7C3FC804651
:1021300041F288390DE021688903EFE78901EDE775
:10214000FFF7B8FCA0EB0801494502D90320BDE820
:10215000F0876068696800F00C00B0EB810FEFD188
:10216000306800F00700B8420BD9306820F0070053
:1021700038433060306800F00700B84201D00120D9
:10218000E5E72878400705D56068E96820F4E06055
:10219000084360602878000706D56068296920F444
:1021A000605040EAC100606000F038F86168084A99
:1021B000C1F30311515CC840064908600648006835
:1021C000FFF720FE0020C2E700200240001002407E
:1021D000944900082C0000202400002004480549F0
:1021E00000684968044AC1F30221515CC840704745
:1021F0002C00002000100240A449000804480549B2
:1022000000684968044AC1F3C221515CC840704764
:102210002C00002000100240A449000812A185B043
:102220000FC98DE80F0014A0144A0068049051688B
:10223000134801F00C03042B10D0082B0ED1C1F36E
:102240008343C9031DF803000AD5516804AAC1F3EA
:102250004041515C0A4A5043B0FBF1F005B0704771
:1022600008494843FAE70000020304050607080985
:102270000A0B0C0D0E0F101001020000001002409E
:1022800000127A0000093D002DE9F84F040070D0DB
:102290002078C04DC00749D06868C0F3810001288C
:1022A00007D06868C0F38100022809D16868C003BC
:1022B00006D52868800339D560680028E7D035E066
:1022C0006068B0F5803F0BD010B1B0F5A02F11D0F1
:1022D000286820F480302860286820F4802002E0FC
:1022E000286840F480302860606890B1FFF7E2FB16
:1022F00006460AE0286840F480202860F0E700BF26
:10230000FFF7D8FB801B642873D828688003F7D5B3
:102310000CE0FFF7CFFB064605E000BFFFF7CAFB66
:10232000801B6428F0D828688003F7D420789A4E60
:1023300080074FF001094FF0000839D5686810F0A8
:102340000C0F07D06868C0F38100022809D16868C3
:10235000C00306D42868800714D52069012808D155
:1023600010E02069B0B1C6F80090FFF7A3FB074664
:1023700005E00AE1FFF79EFBC01B0228C4D82868CD
:102380008007F7D52868616920F0F80040EAC100AD
:1023900028600DE0C6F80080FFF78CFB074604E0DC
:1023A000FFF788FBC01B022823D828688007F7D4D2
:1023B000207800072CD57948A169D9B1C0F80090E0
:1023C000FFF778FB074604E0FFF774FBC01B022809
:1023D0000FD8686A8007F7D571484FF4FA51006842
:1023E000B0FBF1F0009000BF0098411E0091FAD2BE
:1023F0000EE080E0C0F80080FFF75CFB074604E0D9
:10240000FFF758FBC01B022875D8686A8007F7D40D
:102410002078400760D5E8690027C00008D4E86943
:1024200040F08050E861E869012700F0805000909A
:102430005C480168C90513D40168834641F4807182
:102440000160FFF737FB824606E000BFFFF732FB73
:10245000A0EB0A0064284ED8DBF80000C005F5D5D3
:10246000E06801280AD008B1052813D0286A20F0B6
:1024700001002862286A20F0040002E0286A40F087
:1024800001002862E06841F2883B98B1FFF712FB37
:1024900082460BE0286A40F004002862EEE700BFA5
:1024A000FFF708FBA0EB0A0159455AD8286A8007B4
:1024B000F6D50CE0FFF7FEFA824605E0FFF7FAFAE0
:1024C000A0EB0A0159454CD8286A8007F6D41FB101
:1024D000E86920F08050E861E06988B36968C1F379
:1024E0008101022944D00228C6F8608004D0FFF799
:1024F000E1FA044638E034E0FFF7DCFA074604E08E
:10250000FFF7D8FAC01B02282BD828688001F7D41F
:10251000206AB0F5803F05D16868A16820F40030DA
:1025200008436860D4E908010843696821F474111C
:1025300008436860C6F86090FFF7BCFA044606E0FE
:1025400025E000BFFFF7B6FA001B022809D828686B
:102550008001F7D51BE000BFFFF7ACFA001B022893
:1025600002D90320BDE8F88F28688001F4D40EE07A
:102570000128F7D06868226A00F48031914204D1C2
:10258000616A00F47010884201D00120EAE700205F
:10259000E8E700000010024000004242800442428E
:1025A0002C00002000700040024850F8210080B24A
:1025B00070470000006C0040024800EB810091B2BF
:1025C00001607047006C00407047704710B50446CA
:1025D00000680168C90717D04168C90714D040686E
:1025E0004007204607D5FFF7F0FF21686FF0040091
:1025F0004860042002E0FFF7E7FF012060742068D4
:10260000416821F00101416010BD000070B5040077
:1026100003D0607C002610B105E0012070BD267457
:10262000204600F043F802206074204600F01AF9BA
:10263000042578BB204601F064F958BB2068416846
:1026400021F007014160A06820B11748016821F01E
:10265000010101601448001F0168A26821F4607143
:10266000114301606068411C04D10120FFF746FC62
:1026700080B1401E21688A6822F00F0242EA1042AF
:102680008A602168CA6860F30F02CA60204601F0C0
:1026900053F908B16574C0E7E67301206073A07355
:1026A0006074002070BD0000306C004008B5006808
:1026B0000D49884217D1FFF71BFC0C48C16941F056
:1026C0000061C161C0690A4900F00060009001200A
:1026D0000860002211460320FFF7D8FBBDE8084040
:1026E0000320FFF7C5BB08BD0028004000100240D2
:1026F0003C0442422DE9F0410D4604003BD0C5B3F5
:10270000207C01283AD04FF0010884F81080022084
:102710006074E87872B301F0EBF8E073687801F068
:10272000E7F86073A87801F0E3F8A073C2B2617BA8
:10273000E07B01F03AF920732870204601F025F97A
:102740004FF46161B0FBF1F1002518292DD9182251
:10275000B1FBF2F1A1EB011101EB4101C1EB011160
:1027600000EBC1163146204601F05EF90427C8B9D6
:102770000BE000E004E00120BDE8F0810220FBE76F
:10278000E07368786073A878CFE7204601F0F6F828
:10279000411C0AD0B04208D206490144204601F04B
:1027A0002FF910B167742574E5E784F8118025745A
:1027B0000020E1E7805101002DE9F0410D460400C1
:1027C00024D01DB3207C012823D04FF0010884F8C9
:1027D0001080022060742878EAB101F089F84FF483
:1027E000616100FB01F6687801F082F8C0EB00102F
:1027F00006EB8006A87801F07BF8351829462046BC
:1028000001F012F90026042710BB0FE00120BDE8FB
:10281000F0810220FBE74FF4616148436978C1EB26
:10282000011100EB8100A9784518E7E720684168AD
:1028300021F005014160204601F0A0F8411C0AD0BA
:10284000A84208D206490144204601F0D9F810B147
:1028500067742674DAE784F8118026740020D6E7BE
:102860008051010070B504000AD02068416821F051
:1028700008014160FFF71EF905464FF47A7608E03B
:10288000012070BDFFF716F9401BB04201D90320AB
:1028900070BD206840680007F4D5002070BD70B599
:1028A000040009D0606A002540B125616561A56218
:1028B00094F8510040B10CE0012070BD6068B0F5A3
:1028C000827FF4D0E561F2E784F85050204600F0B2
:1028D0003FF8022084F851002068016821F040018F
:1028E0000160A088218900F4827001F4044108434A
:1028F000A18901F400610843217C01F00201084331
:10290000217D01F001010843218B01F4007108438E
:10291000217F01F03801084394F8201001F0800174
:102920000843218D01F40051084321680860A06923
:10293000042101EA1040216848602068C16921F43F
:102940000061C1616565012084F85100002070BDFF
:1029500030B585B00024009401940294039400687B
:102960001449884223D11448816941F4805181611E
:10297000816901F480510491816941F00401816110
:1029800080690E4D00F004000490A0200090022009
:1029900001900320039069462846FEF795FF4020EA
:1029A000CDE90004694628460294FEF78DFF05B084
:1029B00030BD00000030014000100240000801401E
:1029C00010B5401EB0F1807F01D3012010BD4FF043
:1029D000E02460610F21601701F040FB0020A0613E
:1029E00007202061002010BD704710B50446006824
:1029F000416994F83D20C1F3C011212A0BD151B196
:102A0000416921F080014161606B08B1FEF79CFDD6
:102A1000204601F052F92068416994F83E20C1F344
:102A20008011222A0BD151B1416921F0400141614D
:102A3000A06B08B1FEF788FD204601F026F90020C2
:102A400010BD7047F8B5026804461068D168536934
:102A500010F00F0F4FF0000553D003F0010601F402
:102A6000907737435FD0C20705D0CA0503D5226CE3
:102A700042F001022264420705D5DA0703D0226C36
:102A800042F002022264820705D5DA0703D0226CE5
:102A900042F004022264020707D501F0200232430B
:102AA00003D0226C42F008022264226C002A34D047
:102AB000800604D5880602D5204601F007F9206873
:102AC0004069216CC0F38010090700D430B3204660
:102AD00001F0DBF82068416949061BD5416921F006
:102AE00040014161A06BA8B158494163A06BFEF75A
:102AF0004FFD002811D0A06B416B01B0BDE8F04044
:102B0000084783060FD58B060DD52046BDE8F84053
:102B100001F0DCB82046FFF794FFF8BD2046FFF730
:102B200090FF2564F8BD266B2023012E52D1C606E6
:102B300050D5CE064ED510685068009050694006BA
:102B40002AD5A16B086840680004000CEAD0A68D65
:102B50008642E7D9E0858869202818D0D06820F41B
:102B60008070D0602068416921F0010141612068D6
:102B7000416921F04001416184F83E3025632068BD
:102B8000C16821F01001C160A06BFEF7DDFCA08DD3
:102B9000E18D401A81B219E0A08DE18D401A81B219
:102BA000E08D0028BED00029BCD0D06820F4907001
:102BB000D0602068426922F00102426184F83E3010
:102BC00025632068C26822F01002C2602046FFF729
:102BD0000BFFF8BD05062BD50D0629D594F83D0051
:102BE0002128F6D1A068B0F5805F01D12069B0B18D
:102BF000206A411C2162216800784860E08C401EF8
:102C00000004000CE084E4D12068C16821F0800158
:102C1000C1602068C16841F04001C160F8BD206A10
:102C20000088C0F308005060206A801C2062E5E73D
:102C30004006F3D54806F1D5D168204621F0400181
:102C4000D16084F83D3000F021FAF8BD853B0008E2
:102C500070B5040004D094F83D00002510B106E0E2
:102C6000012070BD84F83C50204600F023F8242059
:102C700084F83D002068C16821F40051C1602046FD
:102C800001F080F82068016921F490410161206819
:102C9000416921F02A0141612068C16841F4005175
:102CA000C1602564202084F83D0084F83E000020A7
:102CB00070BD00002DE9F04385B000250095019519
:102CC00002950395044603686F48DFF8B8C10221F6
:102CD0000322DFF8B881071580264FF010096345FD
:102CE0004DD1836943F480438361836903F4804356
:102CF0000493836943F0040383618069039200F0C5
:102D0000040004900802CDE9000169464046FEF740
:102D1000DBFDCDE90075694640460295FEF7D4FD1E
:102D20005C4F5B484FF48058C7E902563D617D61B6
:102D3000C7E90009C7E906583846FEF71FFD08B184
:102D4000FEF76FF867637C62524F51484437143086
:102D5000C7E90005C7E902563D617D61C7E906582C
:102D60003846FEF70BFD08B1FEF75BF8A7630022BB
:102D7000114625207C62FFF789F8252029E0DFF83D
:102D800018C163452AD1C36943F40033C361C369E1
:102D900003F400330493836943F00403836180697F
:102DA000039200F0040004900420CDE9000169467C
:102DB0004046FEF789FD0820CDE9000569464046FA
:102DC0000295FEF781FD002211462620FFF75EF8EE
:102DD0002620FFF74DF805B0BDE8F083DFF8BCC052
:102DE0006345F8D1C36943F48023C361C36903F425
:102DF00080230493836943F0080383618069CDE9EC
:102E0000007100F00800CDE90320254F69463846DF
:102E1000FEF75AFDF814CDE90005694638460295DB
:102E2000FEF752FD1B4F1A4888371438C7E90005D2
:102E3000C7E9025620203D61C7E905503846FD61CB
:102E4000FEF79CFC08B1FDF7ECFFA7637C62114F15
:102E50000F48CC372838C7E902563D617D61BD6116
:102E6000FD61C7E900093846FEF788FC08B1FDF7A7
:102E7000D8FF67630022114627207C62FFF706F81F
:102E80002720A6E70038014000100240000801405A
:102E90004400024014040020004400400048004068
:102EA000000C014090F83E30202B0ED159B152B1A8
:102EB00090F83C30012B08D0012380F83C300023EF
:102EC000036300F0BBBF0120704702207047000081
:102ED00010B500680B49884212D00B4988420FD0C8
:102EE0000A4988420CD10A4C20782178C0F58072BA
:102EF0000848014408480068FDF77EFF0020207064
:102F000010BD00000038014000440040004800406F
:102F10000A000020300100200400002070B5006885
:102F2000094988420ED1094C20782178C0F18005EA
:102F300007482A46014407480068FDF75DFF2078EE
:102F40002844207070BD0000004800400A000020A6
:102F500030010020040000202DE9F843044690F8D9
:102F60003D001F4616460D4620284CD1C5B1BEB1C6
:102F700094F83C00012846D0012084F83C004FF032
:102F80000008C4F84080212084F83D00FEF792FD3F
:102F9000A6848146E684A068B0F5805F03D004E093
:102FA0000120BDE8F883206928B12E465FF00005B6
:102FB00084F83C800EE00026FAE78021204600F0ED
:102FC00075FFA0B9AEB116F8010B21684860E08C1E
:102FD000401EE084E08C4B464FF000020097002832
:102FE000EBD14FF04001204600F060FF30B10320EC
:102FF000D7E735F8020BC0F30800E6E7202084F895
:103000003D000020CDE70220CBE7000070B504466C
:1030100090F83D00202830D169B362B394F83C00A9
:1030200001282AD0012084F83C002162A284E28495
:1030300000252564212084F83D00636B10489862C8
:10304000636B1048D862636B0F481863606B13465C
:1030500045632668606B321DFEF7BEFB21686FF08A
:103060004000086084F83C502068416941F08001CC
:103070004161002070BD012070BD022070BD0000C4
:10308000533C0008813C0008953B0008704770479E
:10309000FEE701684A69D24352050FD46FF480629B
:1030A0004A61002140F8301F202242738173026977
:1030B00042F0040202610173012070470020704752
:1030C000F8B50446C06A1E460D461746082807D0C4
:1030D000012805D010F5803F02D0206B122804D1C2
:1030E0002068016841F480710160134600224FF0AE
:1030F00001112046009600F057F840B120680068A2
:10310000C00502D54FF4007020640320F8BD20698B
:10311000B0F5804F0ED00620216800EAD51040F0AF
:10312000F000086133463A460B49204600F070F83B
:1031300078B902E005F0FE0000E0E8B2216808611D
:10314000054933463A46891F204600F061F80028B9
:10315000DCD00120F8BD00000800010070B5164663
:103160000D4604460DE02046FFF793FF08B101200D
:1031700070BD681C05D0FEF79DFC801BA84207D8D7
:1031800035B120684069C0434007ECD4002070BDD1
:10319000002044F8300F20216173A073216941F0B1
:1031A000200121612073E2E72DE9F0471E46904699
:1031B0000D460446C1F30747DDF8209008E0701C77
:1031C00006D0FEF777FCA0EB0900B0420FD876B12D
:1031D0002068012F18D0806925EA00000004000C47
:1031E00014D000214145EAD00020BDE8F08700203E
:1031F00044F8300F20216173A073216941F0200150
:10320000216120730120F0E74069E5E70121E9E74A
:103210002DE9F0479A4691460E46044600254FF0A8
:103220002008C1F3074725E020684069C0434005F6
:1032300014D42068016841F40071016021686FF4C2
:1032400080604861256384F83D8084F83E50206C9E
:1032500040F00400206484F83C501FE0B9F1FF3FC7
:1032600008D0FEF727FCA0EB0A0149450CD8B9F1BC
:10327000000F09D02068012F13D0806926EA0000D2
:103280000004000C0BD0CFE744F8305F84F80D80C9
:10329000A573206940F02000206125730120BDE85E
:1032A000F0874069EAE770B516460D4604460DE022
:1032B0002046FFF7EEFE08B1012070BD681C05D066
:1032C000FEF7F8FB801BA84207D835B1206840699B
:1032D000C0430006ECD4002070BD002044F8300F3D
:1032E00020216173A073216941F0200121612073C5
:1032F000E2E700003EB500211148009101910F4A1C
:103300000291026081600173017501244FF4602213
:103310000461C2614160FDF705FE08B1FDF781FD62
:103320001020CDE900040720029069460448FDF70B
:103330007BFD002801D0FDF774FD3EBD0024014057
:1033400030020020104810B50E490160092141608B
:103350008907816000214FF48022C0E903129200A6
:1033600042610176012242768276C1760177417709
:10337000FDF7EDFF002803D0BDE81040FDF751BD7B
:1033800010BD00000064004060020020154808B530
:10339000416941F0010141614069002200F00100F2
:1033A000009011460C20FEF771FD0C20FEF760FD29
:1033B000002211460D20FEF769FD0D20FEF758FD95
:1033C000002211460E20FEF761FD0E20FEF750FD93
:1033D000002211460F20FEF759FDBDE808400F20DE
:1033E000FEF746BD001002402DE9F04186B00024F2
:1033F00040480094019402940394816941F01001C3
:103400008161816901F010010491816941F020011D
:103410008161816901F020010491816941F0040119
:103420008161816901F004010491816941F0080121
:1034300081618069304F00F008004FF4005504901E
:10344000002229463846FEF72FFBDFF8B080012224
:1034500040F201314046FEF727FB0022042140469E
:10346000FEF722FB0095022601250396CDE90154C3
:1034700069463846FEF728FA10208DE83100204FC3
:1034800069463846FEF720FA40F20530CDE90005DE
:10349000CDE9024669464046FEF716FA0096194EF7
:1034A000CDE9016469464046FEF70EFA4FF220006E
:1034B000CDE90006694602954046FEF705FA280266
:1034C000CDE90006694602953846FEF7FDF900226F
:1034D00011461720FEF7DAFC1720FEF7C9FC002280
:1034E00011462820FEF7D2FC2820FEF7C1FC06B0CA
:1034F000BDE8F0810010024000100140000C0140C6
:1035000000080140000021100D4810B50B49016072
:103510000C49416000214FF480428160C0E90312F0
:1035200041618161C1610162FEF7CAFA002803D0DE
:10353000BDE81040FDF775BC10BD00000054004010
:1035400088020020A08601007CB50020204901905F
:103550001E4A00900A60421EC1E901200846FFF79A
:1035600055F808B1FDF75DFC01211948FFF71CF87B
:1035700041F23422904227D001211548FFF71CF870
:1035800009248DF804400F258DF805500A208DF888
:103590000600002201A90E48FFF70EF908B1FDF759
:1035A00040FC04208DF800008DF801408DF8025099
:1035B00016208DF80300002269460548FFF79AF8A7
:1035C000002801D0FDF72DFC7CBD00000028004044
:1035D000DC020020104810B50E4901604FF48271E2
:1035E000416000218160C1604FF400720161C0E957
:1035F00005122022C0E90721416281620A21C162CD
:10360000FFF74DF9002803D0BDE81040FDF709BCD5
:1036100010BD000000300140F00200200C4810B541
:103620000A4901604FF4E1314160002181600C22C0
:10363000C160C0E904128161C161FFF709FB002884
:1036400003D0BDE81040FDF7ECBB10BD00380140D1
:10365000480300200C4810B50A4901604FF4E131DD
:103660004160002181600C22C160C0E904128161C7
:10367000C161FFF7EDFA002803D0BDE81040FDF767
:10368000D0BB10BD004400408C0300200C4810B596
:103690000A4901604FF4E1314160002181600C2250
:1036A000C160C0E904128161C161FFF7D1FA00284D
:1036B00003D0BDE81040FDF7B4BB10BD004800408A
:1036C000D0030020FEE7FEE7002000F001B8000074
:1036D00070B506465FF0000404F1B000C0B200F01F
:1036E00099FC002000F096FC102000F093FC0025CF
:1036F000304600F0A1FC6D1CEDB2802DF8D3641CA7
:10370000E4B2082CE8D370BD10B50120FEF79CF898
:10371000AE2000F07FFC202000F07CFC102000F0A8
:1037200079FCB02000F076FCC82000F073FC00208B
:1037300000F070FC102000F06DFC402000F06AFCEE
:10374000812000F067FCFF2000F064FCA12000F065
:1037500061FCA62000F05EFCA82000F05BFC3F208E
:1037600000F058FCA42000F055FCD32000F052FCDF
:10377000002000F04FFCD52000F04CFCF02000F0C1
:1037800049FCD92000F046FC222000F043FCDA205E
:1037900000F040FC122000F03DFCDB2000F03AFC81
:1037A000202000F037FC8D2000F034FC142000F0C5
:1037B00031FCBDE81040AF2000F02CBC10B5044631
:1037C000B031C8B200F026FC102040EA141000F01E
:1037D00021FC04F00F00BDE8104040F0010000F0B3
:1037E00019BC00002DE9F047002591468A460446A1
:1037F000012B22D0DFF8BC80022B24D155E02038E9
:10380000C7B27E2C04D90AF10100002400F0FF0A9F
:1038100051462046FFF7D2FF07EB4700002608EB92
:103820004007B85D00F008FC761CF6B2062EF8D30F
:10383000A41D6D1CE4B2EDB201E0DFF87C8019F844
:1038400005000028DBD1BDE8F0872038C7B2782C0E
:1038500004D90AF10100002400F0FF0A5146204675
:10386000FFF7ACFF5FF0000606EB071118F8010048
:1038700000F0E2FB761CF6B2082EF5D30AF1010047
:10388000C1B22046FFF79AFF5FF0000606EB071172
:1038900001EB0800007A00F0CFFB761CF6B2082E90
:1038A000F4D308346D1CE4B2EDB219F80500002819
:1038B000CBD1C8E7A44300087C4100087047D0E999
:1038C0008010814201D10120704700207047D0F85C
:1038D0000412D0F80002491CCA1701EBD2526FF350
:1038E0000802891A814201D10120704700207047E7
:1038F000010901EB810100F00F0000EB4100C0B2B3
:10390000704770B50446FEF7D5F805464FF47A7651
:1039100006E0FEF7CFF8401BB04201D9032070BD8E
:10392000206840688006F4D52068416841F01001A5
:103930004160002070BD000070B504460068416819
:1039400021F010014160FEF7B5F805464FF47A7694
:1039500007E000BFFEF7AEF8401BB04201D90320DC
:1039600070BD206840688006F4D5002070BD00005E
:103970000148FEF72BBE0000DC0200200168086A47
:10398000496A89B241EA00407047006881698AB299
:10399000C1698BB2816989B28A4203D0C06961F37F
:1039A0001F40704743EA02407047F0B56424C1EB02
:1039B000C1030927A500072603EB01130329B3FB65
:1039C000F7F100F5FA60114401440AD2401EB0FB41
:1039D000F4F201EB9001B0FBF5F0891A0844001DE8
:1039E00008E0B0FBF4F201EB9001B0FBF5F0891AAE
:1039F0000844801CB0FBF6F106FB1100C0B2F0BD1C
:103A000070B50D4606460024FFF77BFF48B93168C4
:103A1000280C08623168A8B248623046FFF78CFF74
:103A200000B10124204670BD70B50D460646002445
:103A3000FFF767FF48B93168280C88613168A8B280
:103A4000C8613046FFF778FF00B10124204670BD01
:103A5000704700002DE9FC41FEF7BAF91E484168A5
:103A6000491C4160322935D31C4C0021416020683B
:103A70004FF47A7500282DD0194F01262068FFF7E2
:103A80001EFF002826D169462068FCF757FF2B4609
:103A9000012269461348FFF75FFA9DF800004F289E
:103AA000ECD12068FFF70BFF0028E7D101A92068BF
:103AB000FCF744FF2B46012201A90A48FFF74CFA04
:103AC0009DF804004B28D9D1314607A03E60FCF791
:103AD000B3FBD3E7BDE8FC81100000200400002008
:103AE0000000002048030020455350383236365F2E
:103AF0004F4B5F466C61673D25640A0030B593B05B
:103B000028216846FCF7E1FC14210AA8FCF7DDFC3B
:103B1000002401210F941194052012940090CDE906
:103B2000024110944FF48030019002250491CDE9B8
:103B300007504FF4E01009906846FEF7A5FB08B166
:103B400072B6FEE70F20CDE90A054FF48060CDE99B
:103B50000C4002210AA80E94FEF7AAFA08B172B628
:103B6000FEE703200F904FF480701090C001119079
:103B70000FA8FEF727FA002801D072B6FEE713B0AF
:103B800030BD704710B5406A0021C185C184FEF781
:103B900058FF10BD70B5446A2068406994F83D1024
:103BA000C0F3C0100025212904D118B1E5842046B6
:103BB00000F083F82068406994F83E10C0F380104C
:103BC000222904D118B1E585204600F05EF8206C6A
:103BD00040F0100020642046FEF733FF70BD10B5A2
:103BE0000146406A0968096889061BD40021C1851D
:103BF0000168CA6822F48072CA6001684A6922F0CA
:103C000001024A6101684A6922F040024A612021AA
:103C100080F83E10016B012904D10168CA6822F0C6
:103C20001002CA60016B012902D0FFF751F910BDE3
:103C3000818DFEF7D9FE10BD10B5406A016B0129D8
:103C400002D0FFF76BF910BD818D4908FEF7CCFE5D
:103C500010BD10B50146406A0968096889060CD490
:103C60000021C18401684A6922F080024A6100682B
:103C7000C16841F04001C16010BDFFF707FA10BDF7
:103C800010B5406AFFF703FA10BD0168CA6822F454
:103C90009072CA6001684A6922F001024A61016BB0
:103CA000012904D10168CA6822F01002CA602021EB
:103CB00080F83E100021016370470168CA6822F055
:103CC000C002CA60202180F83D10704708B590F806
:103CD0003E10222901D0022008BD82684FF4805393
:103CE0009A4201D1016921B1816A9A421BD04AB13D
:103CF0000AE00268816A5268C2F308020A80816A97
:103D0000891C08E0026972B10268526802F07F0201
:103D10000A70816A491C8162C18D491E0904090C1F
:103D2000C18503D019E002685268F1E70168CA68EA
:103D300022F02002CA600168CA6822F48072CA6058
:103D400001684A6922F001024A61202180F83E1090
:103D5000016B012903D0FFF7BBF8002008BD00214B
:103D600001630168CA6822F01002CA6001680A682B
:103D7000D20602D50A6849680091818DFEF734FEAB
:103D8000EBE7000070B5044600680169E26821F4C1
:103D90004051114301612169A068084361690843EA
:103DA0002168CA6841F20C639A430243CA602068E2
:103DB0004169A26921F44071114341611E492068A3
:103DC000884202D1FEF71AFA01E0FEF707FA00EB8B
:103DD000C00101EB0012606864218000B2FBF0F3C7
:103DE000B3FBF1F36FF018067343B2FBF0F5B2FBCF
:103DF000F0F605EB8305322303EB0515B5FBF1F572
:103E0000B6FBF1F605F0F00505EB0615B2FBF0F692
:103E1000B2FBF0F0B0FBF1F06FF01802504306EB8C
:103E2000800003EB0010B0FBF1F0216800F00F0000
:103E30002844886070BD00000038014038B58162B8
:103E400082850025134604460564222084F83E003E
:103E5000A26B13489062A26B1248D062A26B124808
:103E60001063A06B0A4645632168A06B091DFDF72E
:103E7000B3FC206801684168009184F83C50C16837
:103E800041F48071C1602068416941F001014161E4
:103E90002068416941F040014161002038BD0000C7
:103EA000DF3B0008393C0008953B00082DE9F04154
:103EB000984617460E460446069D1DE0681C1BD01A
:103EC0002DB1FDF7F7FDA0EB0800A84214D920683A
:103ED000C16821F4D071C1602068416921F00101FD
:103EE0004161202084F83D0084F83E00002084F8E1
:103EF0003C000320BDE8F0812068006836EA00003D
:103F000004D00020B842D9D00020F3E70120F9E71F
:103F1000F8B5164800680168C1F3001101B30168E3
:103F20000025406800901148FEF75FFD10480068CA
:103F30004068104C404220700F4E012030702278B3
:103F40000E490F48FFF762F82570357021780B484D
:103F5000FCF799FA4FF4807208490448FEF7A2FF73
:103F6000BDE8F8400148FEF76DBD000048030020A1
:103F70005804002008000020090000203000002024
:103F8000D00300200148FEF75DBD00008C03002037
:103F900010B50448FEF756FDBDE81040014800F09A
:103FA00009B80000D00300200148FDF7D2B8000096
:103FB0006002002038B500680F4988421BD10F48C5
:103FC00000680168C943C90615D4016840680090BB
:103FD0000B48006840680B4CC0F580702178451A8A
:103FE000094821782A46014408480068FCF704FF84
:103FF00020782844207038BD00480040D0030020BD
:104000009C0400200A000020300100200400002051
:10401000FEE700001CB500218DF804108DF80500A6
:104020004FF47A700090022301AA78210148FDF72D
:104030000BFE1CBD880200201CB540218DF8041029
:104040008DF805004FF47A700090022301AA7821C0
:104050000148FDF7F9FD1CBD880200200907090E83
:10406000002804DB00F1E02080F80014704700F025
:104070000F0000F1E02080F8141D704730380A2846
:1040800001D20120704700207047704713B54FF6EA
:10409000FF73012269460248FEF75EFF00981CBDCF
:1040A00048030020FDF79CFEFFF728FDFFF79CF971
:1040B000FFF76CF9FFF7B2FAFFF726FAFFF744FAB9
:1040C000FFF718F9FFF786FAFFF73CF9FFF7C2FA96
:1040D000FFF7DCFA17A0FCF7AFF81BA0FCF7ACF871
:1040E000FFF712FBFFF7F0FA02231BA200211020BA
:1040F000FFF778FBFCF7E2FB1B4908601B480068F0
:10410000C16841F01001C1604FF480742246184923
:104110001648FEF7C7FE17480068C16841F0100155
:10412000C160224614491348FEF7BCFEFCF7F0FDBF
:10413000FCE70000556172743120696E6974206972
:1041400073206F6B0A00000045535038323636201A
:10415000546573740A0000004553503832363620D7
:104160005465737400000000040000204803002020
:1041700030000020D00300203001002000000000AB
:1041800000000000002F00000000070007000014DE
:104190007F147F1400242A7F2A12006264081323EC
:1041A00000364955225000000503000000001C2283
:1041B0004100000041221C000014083E08140008C1
:1041C000083E0808000000A0600000080808080871
:1041D000000060600000002010080402003E514909
:1041E000453E0000427F40000042615149460021A7
:1041F00041454B31001814127F10002745454539C1
:10420000003C4A494930000171090503003649491B
:10421000493600064949291E0000363600000000D4
:10422000563600000008142241000014141414141F
:1042300000004122140800020151090600324959C8
:10424000513E007C1211127C007F49494936003EE4
:1042500041414122007F4141221C007F494949419F
:10426000007F09090901003E4149497A007F080899
:10427000087F0000417F4100002040413F01007F56
:1042800008142241007F40404040007F020C027F22
:10429000007F0408107F003E4141413E007F090934
:1042A0000906003E4151215E007F0919294600465A
:1042B000494949310001017F0101003F4040403F31
:1042C000001F2040201F003F4038403F006314087B
:1042D0001463000708700807006151494543000056
:1042E0007F41410000552A552A55000041417F0079
:1042F000000402010204004040404040000001026E
:104300000400002054545478007F48444438003856
:104310004444442000384444487F003854545418DE
:1043200000087E0901020018A4A4A47C007F0804F0
:1043300004780000447D4000004080847D00007FC0
:10434000102844000000417F4000007C04180478DD
:10435000007C0804047800384444443800FC2424D9
:1043600024180018242418FC007C080404080048C1
:104370005454542000043F444020003C4040207CE2
:10438000001C2040201C003C4030403C00442810D1
:104390002844001CA0A0A07C004464544C44141485
:1043A00014141414000000000000000000000000BD
:1043B00000000000000000F80000000000000033D2
:1043C0003000000000100C06100C06000000000079
:1043D0000000000040C07840C0784000043F040462
:1043E0003F040400007088FC08300000001820FF23
:1043F000211E0000F008F000E018000000211C035E
:104400001E211E0000F00888700000001E212324D9
:104410001927211010160E000000000000000000F7
:1044200000000000000000E0180402000000000787
:104430001820400000020418E0000000004020188E
:1044400007000000404080F0804040000202010F61
:1044500001020200000000F0000000000101011F45
:1044600001010100000000000000000080B07000A9
:104470000000000000000000000000000001010139
:1044800001010101000000000000000000303000C8
:1044900000000000000000008060180400601806A2
:1044A0000100000000E010080810E000000F1020DC
:1044B00020100F00001010F8000000000020203F26
:1044C00020200000007008080888700000302824B0
:1044D0002221300000300888884830000018202051
:1044E00020110E000000C02010F800000007042476
:1044F000243F240000F808888808080000192120BB
:1045000020110E0000E0108888180000000F112014
:1045100020110E0000380808C83808000000003FCD
:10452000000000000070880808887000001C22212C
:1045300021221C0000E010080810E00000003122D9
:1045400022110F00000000C0C00000000000003079
:1045500030000000000000800000000000008060CB
:10456000000000000000804020100800000102044C
:104570000810200040404040404040000404040433
:1045800004040400000810204080000000201008EF
:1045900004020100007048080808F0000000003024
:1045A00036010000C030C828E810E00007182724B2
:1045B00023140B000000C038E0000000203C230260
:1045C0000227382008F8888888700000203F2020C3
:1045D00020110E00C03008080808380007182020F5
:1045E0002010080008F808080810E000203F2020EC
:1045F00020100F0008F88888E8081000203F2020CD
:104600002320180008F88888E8081000203F2000C0
:1046100003000000C03008080838000007182020F8
:10462000221E020008F808000008F808203F2101B7
:1046300001213F20000808F8080800000020203F62
:104640002020000000000808F8080800C0808080D2
:104650007F00000008F888C028180800203F2001CB
:104660002638200008F8080000000000203F202025
:104670002020300008F8F800F8F80800203F003F3C
:10468000003F200008F830C00008F808203F200054
:1046900007183F00E01008080810E0000F10202065
:1046A00020100F0008F808080808F000203F21013A
:1046B00001010000E01008080810E0000F18242491
:1046C00038504F0008F8888888887000203F200004
:1046D000030C3020007088080808380000382021BA
:1046E00021221C00180808F8080818000000203FC4
:1046F0002000000008F808000008F808001F20202B
:1047000020201F000878880000C8380800000738FB
:104710000E010000F80800F80008F800033C07004C
:10472000073C0300081868808068180820302C03B4
:10473000032C30200838C800C83808000000203F8B
:104740002000000010080808C8380800203826217A
:1047500020201800000000FE020202000000007F7E
:1047600040404000000C30C000000000000000018C
:104770000638C00000020202FE0000000040404077
:104780007F0000000000040202020400000000009C
:104790000000000000000000000000008080808019
:1047A0008080808000020204000000000000000001
:1047B000000000000000808080800000001924229A
:1047C00022223F2008F8008080000000003F1120D6
:1047D00020110E000000008080800000000E1120DB
:1047E00020201100000000808088F800000E1120B9
:1047F00020103F200000808080800000001F2222C7
:1048000022221300008080F0888888180020203F32
:10481000202000000000808080808000006B949445
:104820009493600008F8008080800000203F210001
:1048300000203F2000809898000000000020203FCA
:1048400020200000000000809898000000C08080B8
:10485000807F000008F8000080808000203F240254
:104860002D302000000808F8000000000020203F44
:10487000202000008080808080808000203F2000F9
:104880003F20003F8080008080800000203F21008A
:1048900000203F200000808080800000001F20203A
:1048A00020201F00808000808000000080FFA12069
:1048B00020110E000000008080808000000E11207A
:1048C00020A0FF80808080008080800020203F2109
:1048D00020000100000080808080800000332424BC
:1048E00024241900008080E0808000000000001F68
:1048F000202000008080000000808000001F202019
:1049000020103F20808080000080808000010E30D9
:104910000806010080800080008080800F300C033A
:104920000C300F0000808000808080000020312E3D
:104930000E312000808080000080808080818E7019
:104940001806010000808080808080000021302CCB
:104950002221300000000000807C020200000000E4
:10496000003F404000000000FF0000000000000089
:10497000FF0000000002027C800000000040403F79
:104980000000000000060101020204040000000013
:10499000000000000000000000000000010203040D
:1049A00006070809000000000102030404000008D3
:1049B00000000000000000020001000010000000E4
:1049C000E049000800000020300000002801000835
:1049D000104A000830000020701500004401000853
:1049E00000000000000000000000000000000000C7
:1049F00000000000000000000000000000000000B7
:104A00000100000010000000000000000024F4007D
:04000005080000ED02
:00000001FF
