:020000040800F2
:10000000E007002091010008CF220008A11C000891
:10001000CD220008950400087127000800000000A8
:10002000000000000000000000000000D3220008D3
:10003000B104000800000000D1220008D522000809
:10004000AB010008AB010008AB010008AB010008E0
:10005000AB010008AB010008AB010008AB010008D0
:10006000AB010008AB010008AB010008AB010008C0
:10007000AB010008AB01000899040008A5040008C2
:10008000AB010008AB010008AB010008AB010008A0
:10009000AB010008AB010008AB010008D90400085F
:1000A000AB010008AB010008AB010008AB01000880
:1000B000AB010008AB010008AB010008AB01000870
:1000C000AB010008AB010008AB010008AB01000860
:1000D000AB01000865270008AB010008AB01000870
:1000E000B3040008AB010008AB01000800F002F8FF
:1000F00000F03FF80AA090E8000C82448344AAF183
:100100000107DA4501D100F034F8AFF2090EBAE880
:100110000F0013F0010F18BFFB1A43F0010318473B
:10012000B4270000D4270000103A24BF78C878C153
:10013000FAD8520724BF30C830C144BF04680C60ED
:10014000704700000023002400250026103A28BF35
:1001500078C1FBD8520728BF30C148BF0B60704739
:10016000642900F07780002070471FB51FBD10B5CF
:1001700010BD00F05DF91146FFF7F7FF02F080FBBC
:1001800000F07BF903B4FFF7F2FF03BC02F001FBC0
:100190000948804709480047FEE7FEE7FEE7FEE71B
:1001A000FEE7FEE7FEE7FEE7FEE7FEE70448054957
:1001B000054A064B7047000037230008ED00000891
:1001C000E0010020E0070020E0030020E003002021
:1001D000704700000FB4044910B503AA029800F05C
:1001E000F9F810BC5DF814FB000000202DE9F04187
:1001F0000E460446002020622046E168884730B35E
:10020000252805D0D4E901219047206A401CF2E757
:10021000E168204600278847050018D0A5F1410075
:10022000192802D820354FF4006732462946204667
:100230002760FFF795FF40B1012804D0F61D26F096
:1002400007060836D8E7361DD6E72846DAE7206ADB
:10025000BDE8F0812DE9F0410646002410687529BB
:10026000314616A510D0AFF30080002802DA4042D4
:1002700013A507E031688A0701D512A502E04907F6
:1002800004D511A5012401E0AFF3008000210A226A
:1002900006F1240709E0B0FBF2FCB0FBF2F302FB2D
:1002A0001C00303078541846491C0028F3D12346EE
:1002B0002A463046BDE8F04100F033B800000000A7
:1002C0002D0000002B000000200000004FF0000275
:1002D00000B5134694469646203922BFA0E80C503C
:1002E000A0E80C50B1F12001BFF4F7AF090728BF17
:1002F000A0E80C5048BF0CC05DF804EB890028BF93
:1003000040F8042B08BF704748BF20F8022B11F0BB
:10031000804F18BF00F8012B704770477047704737
:1003200070472DE9F0470D4699469246044600F184
:1003300024080168880604D5E06921F010012160D5
:1003400000E00120A84201DD471B00E00027A16971
:100350007A1902EB0900081AA0612078C00602D4BD
:100360002046AFF30080002608E0D4E901211AF806
:1003700006009047206A401C761C20624E45F4DB44
:100380002078C0060AD52046AFF3008006E0D4E905
:10039000012130209047206A401C2062381EA7F1BE
:1003A0000107F4DC07E0D4E9012118F805009047C3
:1003B000206A401C2062281EA5F10105F3DC2046BE
:1003C000AFF300802078000602D50220BDE8F08758
:1003D0000120FBE7074B70B50D467B4400F011F898
:1003E0000446284600F020F810B14FF0FF3070BDF1
:1003F000204670BD8B24000001694A1C0261087808
:10040000704700B58FB0CDE9013100210591054954
:100410007944CDE9031011466846FFF7E7FE0FB0B7
:1004200000BD0000E5FFFFFF007B00F0800070478B
:10043000754600F02BF8AE4605006946534620F09D
:100440000700854618B020B5FFF7B0FEBDE8204094
:100450004FF000064FF000074FF000084FF0000B80
:1004600021F00701AC46ACE8C009ACE8C009ACE833
:10047000C009ACE8C0098D46704710B50446AFF31B
:1004800000802046BDE81040FFF77CBE0048704762
:100490007C010020FEE70000014800F099B8000050
:1004A000F4000020014800F093B80000380100205B
:1004B000704710B54FF4805000F076F94FF40050BB
:1004C00000F072F94FF4804000F06EF9BDE8104082
:1004D0004FF4004000F068B910B5202000F064F936
:1004E000BDE810404FF4807000F05EB972B6FEE7D0
:1004F00010B590F821100022022905D00421816353
:1005000080F82020012010BD01680B6823F00E0345
:100510000B6001680B6823F001030B6090F840301A
:10052000C46B012101FA03F3636080F8211080F8A5
:100530002020104610BD000010B590F821100024B6
:10054000022903D00421816301243DE001680A6887
:1005500022F00E020A6001680A6822F001020A60B5
:100560001A4A0168914201D1012121E0174A14324F
:10057000914201D110211BE0144A2832914201D14D
:10058000891515E0114A3C32914201D189140FE0DE
:100590000E4A5032914202D14FF4803108E00B4AAA
:1005A0006432914202D14FF4801101E04FF080712A
:1005B000064A083A5160012180F82110002180F894
:1005C0002010416B01B18847204610BD0800024051
:1005D0002DE9F05FC16B0C6801680B68D0F840C072
:1005E000042202FA0CF2494DDFF824A1494E4A4F89
:1005F000DFF828B1DFF828E122422CD05A072AD5AB
:100600000A68920603D40A6822F004020A600168AC
:10061000A94201D1042219E0514501D1402215E03F
:10062000B14202D14FF4806210E0B94202D14FF4DE
:1006300080420BE0594502D14FF4802206E071451B
:1006400002D14FF4800201E04FF080622F49083957
:100650004A60C16A3BE04FF0020808FA0CF818EA59
:10066000040F4FF000094FF0010235D05FEA8378A4
:1006700032D50B689B0605D40B6823F00A030B6088
:1006800080F821200168A94201D1022219E05145D8
:1006900001D1202215E0B14202D14FF4007210E0E6
:1006A000B94202D14FF400520BE0594502D14FF448
:1006B000003206E0714502D14FF4001201E04FF024
:1006C0000072124908394A6080F82090816A002936
:1006D0001AD0BDE8F05F0847082505FA0CF5254259
:1006E00012D01B0710D50B6823F00E030B6090F897
:1006F0004010C36B02FA01F15960826380F8212037
:1007000080F82090016BE2E7BDE8F09F080002400E
:100710001C000240300002404400024058000240E9
:100720006C00024030B528B308C81349142219449C
:10073000B1FBF2F18900C163104981630221417765
:100740001A6843F6F0718A43D0E900142143D0E9D6
:1007500002452C43214304692143446921438469B0
:10076000214311431960002141630122427701773F
:10077000084630BD012030BDF8FFFDBF000002403B
:1007800070B5044600F012F90546601C02D004481A
:100790000078044400F00AF9401BA042FAD370BD6F
:1007A0000400002070470000044910B50A680242A6
:1007B00002D00860FFF7F6FF10BD000014040140EE
:1007C0002DE9F84FDFF8B891002409F1040A0AF185
:1007D000040B23460F270BF1040EC9E00125A540A9
:1007E0002A40AA427DD1674ED1F804C0ACEB06087E
:1007F000B44532D014DCBCF1030F3AD009DCBCF1B3
:10080000000F2AD0BCF1010F1CD0BCF1020F31D176
:100810001DE0BCF1110F17D0BCF1120F2AD119E065
:10082000B8F5881F19D006DCB8F5803F15D0B8F5AB
:10083000801F1FD111E0B8F5001F0ED0B8F5041FBE
:1008400018D10AE0CB6815E0CB681B1D12E0CB681D
:1008500008330FE0CB680C330CE08B682BB1012B15
:100860004FF0080303D0456104E0042302E0056172
:1008700000E00023FF2A01D8064601E000F104064B
:100880004FEA840501D9A5F12005D6F8008007FAC2
:1008900005FC28EA0C0803FA05F548EA0508C6F83D
:1008A00000804D68ED0062D5374DAE6946F0010617
:1008B000AE61AD6924F0030605F001050095334DE6
:1008C00006EB050CDCF80850A607360F07FA06F809
:1008D00025EA0805DFF8B880404503D14FF000084D
:1008E00017E044E0DFF8AC80404502D14FF001084A
:1008F0000FE0DFF8A480404502D14FF0020808E085
:10090000DFF89880404502D14FF0030801E04FF036
:10091000040808FA06F848EA0508CCF808804D688B
:10092000D9F80060ED034D4601D5164300E096432B
:100930002E604D68DAF80060AD03554601D51643C8
:1009400000E096432E604D68DBF80060ED025D46E6
:1009500001D5164300E096432E604D68DEF8006036
:10096000AD02754601D5164300E096432E60641C27
:100970000D682A46E5407FF431AFBDE8F88F0000EE
:10098000000401400000111000100240000001406E
:1009900000080140000C014000100140001401401B
:1009A0000AB1016170470904FBE700000148806853
:1009B000704700000400002070B5040025D094F8B2
:1009C0003D00002520B984F83C50204600F078FA1C
:1009D000242084F83D002068016821F001010160B5
:1009E0002068016841F4004101602068016821F439
:1009F0000041016000F0B8FB4D4A6168914201D8A6
:100A00004C4900E04C49884201D2012070BD4B495D
:100A10002368B0FBF1F15E6826F03F060E435E608E
:100A20006368934206D94FF4967359434FF47A732F
:100A3000B1FBF3F12368491C1E6A26F03F063143DF
:100A400019626168914210D84900401EB0FBF1F272
:100A5000521CC2F30B02042A01D2042022E0B0FB94
:100A6000F1F0401CC0F30B001CE0A268F2B301EBF4
:100A7000C10303EB0116431EB3FBF6F35B1C43F407
:100A800080431B0549D092B301EBC10202EB011177
:100A9000401EB0FBF1F0401CC0F30B0040F480405E
:100AA00040F400402168CA694CF6FF739A43104332
:100AB000C861D4E9071001432068026822F0C0022F
:100AC00011430160D4E9030101432068826848F2C0
:100AD000FF339A4311438160D4E90501084321683B
:100AE000CA6822F0FF021043C86001E00EE016E081
:100AF0002068016841F0010101602564202084F82C
:100B00003D00256384F83E50002070BD01EB410696
:100B1000431EB3FBF6F35B1CB3E70120C2E701EB16
:100B20004101401EB0FBF1F0401CC0F30B00B7E7E1
:100B3000A086010080841E0000093D0040420F0095
:100B40002DE9FF4F83B00025DDE910799A469346E1
:100B50000446DDF848800095FFF728FF064694F824
:100B60003D0020287CD1192301228549204600968A
:100B700001F0A6F90028F5D194F83C0001286FD0C7
:100B8000012084F83C0020680168C90703D101688E
:100B900041F0010101602068016821F400610160F9
:100BA000222084F83D00402084F83E0025646762DE
:100BB000A4F82A90608D20857248E062CDE9008615
:100BC00053465A462046049901F082F800287DD108
:100BD000208DDFF8B491202768B1012814D00228B5
:100BE000206801681ED041F480610160206841697D
:100BF00080690090B6E020684169816900910168D0
:100C000041F400710160ADE02068016821F4806169
:100C1000016072B62068416981690091016841F400
:100C200000710AE041F40061016072B62068416918
:100C300081690091016821F48061016062B691E0F0
:100C4000032868D801280CD0022843464FF0000240
:100C50004946204600960FD001F032F9B0BB10E0B3
:100C60008BE032464146204601F0A9F970BB20686E
:100C70000069616A08706CE001F022F930BB72B65D
:100C800034E02068016821F48061016072B6206858
:100C90000069616A0870606A401C6062208D401EB5
:100CA0002085608D401E6085384846F2A811006896
:100CB000B0FBF1F0C0EBC00000EB80000090401EE4
:100CC000009008D020684069C04300E029E0400758
:100CD0000CD50098F3E744F8305F6773A57320697B
:100CE00040F02000206162B625731AE02068016898
:100CF00041F40071016020680069616A0870606AEF
:100D0000401C6062218D491E2185618D491E6185CF
:100D100062B621681BE032464146204601F04FF999
:100D200018B1012007B0BDE8F08F20680069616A42
:100D30000870606A401C6062218D491E2185618DAA
:100D4000491E618521684A69D24352070AD409695C
:100D50000170606A401C6062208D401E2085608D9D
:100D6000401E6085208D00287FF46AAF84F83D70B6
:100D700084F83E5084F83C50D4E70220D2E70000CB
:100D8000020010000000FFFF04000100100000201E
:100D90002DE9FF4F83B09A46DDE91197934604464B
:100DA000DDF84080FFF702FE054694F83D0020285C
:100DB0007FD11923012240492046009501F080F897
:100DC000002876D194F83C00012872D0012084F8E4
:100DD0003C0020680168C90703D1016841F00101A6
:100DE00001602068016821F400610160212084F81D
:100DF0003D00402084F83E0000262664C4F824808C
:100E0000A4F82A90608D20852C48E062CDE9007519
:100E100053465A462046049900F0D8FF70B930E096
:100E20002A463946204601F0FDF858B1206C0428C6
:100E300004D12068016841F400710160012007B00D
:100E4000BDE8F08F606A216800780861606A401C24
:100E50006062218D491E89B22185628D521E628594
:100E600022685369DB435B070BD469B100781061DA
:100E7000606A401C6062208D401E2085608D401E8F
:100E80006085208D0028CBD12A463946204600F0C7
:100E9000F1FF0028CAD154F83D0B016841F40071FC
:100EA0000160202004F81E09E67766770020C6E777
:100EB000FFE70220C3E70000020010000000FFFF70
:100EC00010B586B000210091019102910391006854
:100ED0000F4988421AD10F4CA06940F00800A06168
:100EE000A069694600F008000490C020009012201C
:100EF0000190032003900848FFF762FCE06940F48A
:100F00000010E061E06900F40010049006B010BD2C
:100F10000054004000100240000C0140024881686B
:100F2000027811448160704704000020074810B522
:100F3000016841F010010160032000F06DF80F20FE
:100F400000F006F800F024F8002010BD0020024058
:100F500070B50D4D04464FF47A712878B1FBF0F06E
:100F60000A490968B1FBF0F000F0E4FA48B9102C26
:100F700007D200222146501E00F02EF800206C609F
:100F800070BD012070BD0000040000201000002092
:100F9000094808B5816941F001018161816901F069
:100FA00001010091C16941F08051C161C06900F047
:100FB0008050009008BD000000100240002809DBAE
:100FC00000F01F02012191404009800000F1E02063
:100FD000C0F8001170470000F0B40E4B1B680C46BF
:100FE000C3F30223C3F10705042D00D90425191DFD
:100FF000072901D2002300E0DB1E012606FA05F1D5
:10100000491E214099409E40761E16403143F0BC57
:1010100001F0AFBB0CED00E0064900F007020868E4
:101020004FF6FF03184040EA0220034A10430860CD
:10103000704700000CED00E00000FA052DE9F047D4
:101040000F46050061D0434E306800F00700B842FB
:1010500009D2306820F0070038433060306800F073
:101060000700B84251D128683B4C810712D5400790
:1010700003D5606840F4E06060602878000703D51D
:10108000606840F4605060606068A96820F0F0001B
:10109000084360602878C00728D06868012810D00D
:1010A0002168022810D0890700292EDA616821F012
:1010B000030101436160FFF779FC804641F2883902
:1010C0000DE021688903EFE78901EDE7FFF76EFC8A
:1010D000A0EB0801494502D90320BDE8F08760680C
:1010E000696800F00C00B0EB810FEFD1306800F0C0
:1010F0000700B8420BD9306820F007003843306051
:10110000306800F00700B84201D00120E5E72878F8
:10111000400705D56068E96820F4E0600843606036
:101120002878000706D56068296920F4605040EAF5
:10113000C100606000F038F86168084AC1F303112B
:10114000515CC8400649086006480068FFF700FF88
:101150000020C2E70020024000100240BC28000826
:101160001000002008000020044805490068496874
:10117000044AC1F30221515CC840704710000020AE
:1011800000100240CC28000804480549006849685E
:10119000044AC1F3C221515CC840704710000020CE
:1011A00000100240CC28000812A185B00FC98DE8BC
:1011B0000F0014A0144A006804905168134801F00D
:1011C0000C03042B10D0082B0ED1C1F38343C903A9
:1011D0001DF803000AD5516804AAC1F34041515CCF
:1011E0000A4A5043B0FBF1F005B070470849484344
:1011F000FAE7000002030405060708090A0B0C0DB4
:101200000E0F1010010200000010024000127A00C0
:1012100000093D002DE9F84F040070D02078C04D42
:10122000C00749D06868C0F38100012807D068680A
:10123000C0F38100022809D16868C00306D5286878
:10124000800339D560680028E7D035E06068B0F5E4
:10125000803F0BD010B1B0F5A02F11D0286820F43A
:1012600080302860286820F4802002E0286840F45C
:1012700080302860606890B1FFF798FB06460AE06E
:10128000286840F480202860F0E700BFFFF78EFB5D
:10129000801B642873D828688003F7D50CE0FFF71B
:1012A00085FB064605E000BFFFF780FB801B642836
:1012B000F0D828688003F7D420789A4E80074FF042
:1012C00001094FF0000839D5686810F00C0F07D0FD
:1012D0006868C0F38100022809D16868C00306D499
:1012E0002868800714D52069012808D110E02069FA
:1012F000B0B1C6F80090FFF759FB074605E00AE1D8
:10130000FFF754FBC01B0228C4D828688007F7D514
:101310002868616920F0F80040EAC10028600DE00B
:10132000C6F80080FFF742FB074604E0FFF73EFBEC
:10133000C01B022823D828688007F7D4207800072C
:101340002CD57948A169D9B1C0F80090FFF72EFBE0
:10135000074604E0FFF72AFBC01B02280FD8686A83
:101360008007F7D571484FF4FA510068B0FBF1F0EF
:10137000009000BF0098411E0091FAD20EE080E07C
:10138000C0F80080FFF712FB074604E0FFF70EFBF2
:10139000C01B022875D8686A8007F7D420784007F8
:1013A00060D5E8690027C00008D4E86940F08050A3
:1013B000E861E869012700F0805000905C4801680E
:1013C000C90513D40168834641F480710160FFF7B9
:1013D000EDFA824606E000BFFFF7E8FAA0EB0A004C
:1013E00064284ED8DBF80000C005F5D5E068012878
:1013F0000AD008B1052813D0286A20F0010028621D
:10140000286A20F0040002E0286A40F00100286207
:10141000E06841F2883B98B1FFF7C8FA82460BE0DA
:10142000286A40F004002862EEE700BFFFF7BEFA2A
:10143000A0EB0A0159455AD8286A8007F6D50CE076
:10144000FFF7B4FA824605E0FFF7B0FAA0EB0A0115
:1014500059454CD8286A8007F6D41FB1E86920F0B6
:101460008050E861E06988B36968C1F381010229AD
:1014700044D00228C6F8608004D0FFF797FA0446EB
:1014800038E034E0FFF792FA074604E0FFF78EFAFF
:10149000C01B02282BD828688001F7D4206AB0F539
:1014A000803F05D16868A16820F400300843686077
:1014B000D4E908010843696821F47411084368609D
:1014C000C6F86090FFF772FA044606E025E000BF18
:1014D000FFF76CFA001B022809D828688001F7D5AD
:1014E0001BE000BFFFF762FA001B022802D90320AD
:1014F000BDE8F88F28688001F4D40EE00128F7D009
:101500006868226A00F48031914204D1616A00F473
:101510007010884201D00120EAE70020E8E70000CF
:1015200000100240000042428004424210000020AD
:101530000070004010B5401EB0F1807F01D3012043
:1015400010BD4FF0E02460610F21601701F011F928
:101550000020A06107202061002010BD70B590F828
:101560003C20012A26D0012480F83C40022280F849
:101570003D2003685A689D6822F070060A6832436D
:101580005A600D4B02689A4208D0B2F1804F05D0E4
:101590000A4B9A4202D00A4B9A4204D1496825F07C
:1015A00080031943916080F83D40002180F83C1091
:1015B000084670BD022070BD002C014000040040B0
:1015C0000008004010B5040003D094F83D0010B1AD
:1015D00007E0012010BD002084F83C00204600F008
:1015E0001FF8022084F83D00211D206800F0A4FEB1
:1015F000012084F8460084F83E0084F83F0084F817
:10160000400084F8410084F8420084F8430084F8E4
:10161000440084F8450084F83D00002010BD00001F
:1016200008B500680649884208D10648C16941F0FA
:101630000401C161C06900F00400009008BD000011
:10164000000800400010024070B5044690F83C00CD
:10165000012817D0012584F83C50022084F83D0071
:101660002068826822F0770222F47F428260086854
:10167000502830D00DDC20284DD005DC98B3102840
:101680003BD148E0022070BD302844D0402834D1FE
:1016900039E0602828D0702806D0B0F5805F2CD0C3
:1016A000B0F5005F29D10AE0CB68D1E901212068BB
:1016B00000F078FE2068816841F0770109E0CB688E
:1016C000D1E90121206800F06DFE2068816841F4B5
:1016D0008041816011E0CA684968206800F016FF07
:1016E0005021206807E016E0CA684968206800F0C9
:1016F0001EFF6021206800F05FFE84F83D5000204E
:1017000084F83C0070BDCA684968206800F0FEFE9D
:1017100040212068EFE7226801461046EBE7000011
:1017200000B585B0002100910191029103910068FC
:101730000B49884212D10B48816941F0080181614F
:101740008069694600F0080004904FF440700090F2
:101750000220019003900448FFF732F805B000BD65
:101760000008004000100240000C014070B5044623
:1017700090F83C000D4601280AD0012084F83C0076
:1017800042B1042A18D0082A2AD00C2A4DD139E0B7
:10179000022070BD206800F017FE2068816941F0CA
:1017A000080181612068816921F00401816120685C
:1017B00081692A69114311E0206800F02DFE20683C
:1017C000816941F4006181612068816921F480614F
:1017D0008161206881692A6941EA0221816124E0EE
:1017E000206800F045FE2068C16941F00801C16130
:1017F0002068C16921F00401C1612068C1692A69BA
:10180000114311E0206800F05FFE2068C16941F4D7
:101810000061C1612068C16921F48061C1612068F3
:10182000C1692A6941EA0221C161002084F83C00B3
:1018300070BD10B5040003D094F83D0010B107E06E
:10184000012010BD002084F83C00204600F01EF866
:10185000022084F83D00211D206800F06DFD01206C
:1018600084F8460084F83E0084F83F0084F8400085
:1018700084F8410084F8420084F8430084F844006E
:1018800084F8450084F83D00002010BD7047704783
:1018900070470000F8B5026804461068D1685369C3
:1018A00010F00F0F4FF0000553D003F0010601F4C4
:1018B000907737435FD0C20705D0CA0503D5226CA5
:1018C00042F001022264420705D5DA0703D0226CF8
:1018D00042F002022264820705D5DA0703D0226CA7
:1018E00042F004022264020707D501F020023243CD
:1018F00003D0226C42F008022264226C002A34D009
:10190000800604D5880602D5204600F042FE2068F5
:101910004069216CC0F38010090700D430B3204621
:1019200000F01FFE2068416949061BD5416921F07E
:1019300040014161A06BA8B158494163A06BFEF71B
:10194000FBFD002811D0A06B416B01B0BDE8F04059
:10195000084783060FD58B060DD52046BDE8F84015
:1019600000F017BE2046FFF793FFF8BD2046FFF7B3
:101970008FFF2564F8BD266B2023012E52D1C606A9
:1019800050D5CE064ED5106850680090506940067C
:101990002AD5A16B086840680004000CEAD0A68D27
:1019A0008642E7D9E0858869202818D0D06820F4DD
:1019B0008070D0602068416921F001014161206898
:1019C000416921F04001416184F83E30256320687F
:1019D000C16821F01001C160A06BFEF789FDA08DE8
:1019E000E18D401A81B219E0A08DE18D401A81B2DB
:1019F000E08D0028BED00029BCD0D06820F49070C3
:101A0000D0602068426922F00102426184F83E30D1
:101A100025632068C26822F01002C2602046FFF7EA
:101A200036FFF8BD05062BD50D0629D594F83D00E7
:101A30002128F6D1A068B0F5805F01D12069B0B14E
:101A4000206A411C2162216800784860E08C401EB9
:101A50000004000CE084E4D12068C16821F080011A
:101A6000C1602068C16841F04001C160F8BD206AD2
:101A70000088C0F308005060206A801C2062E5E7FF
:101A80004006F3D54806F1D5D168204621F0400143
:101A9000D16084F83D3000F002F9F8BD532500080C
:101AA00070B5040004D094F83D00002510B106E0A4
:101AB000012070BD84F83C50204600F023F824201B
:101AC00084F83D002068C16821F40051C1602046BF
:101AD00000F0BAFD2068016921F49041016120689D
:101AE000416921F02A0141612068C16841F4005137
:101AF000C1602564202084F83D0084F83E00002069
:101B000070BD00002DE9F04186B000240646009427
:101B100001940294039400682E49884256D12E48BD
:101B2000816941F480418161816901F480410491BE
:101B3000816941F0040181618069284D00F0040051
:101B400004904FF400700090022001900320039055
:101B500069462846FEF734FE2815CDE9000469469B
:101B600028460294FEF72CFE1E4D1D484FF08008BB
:101B700001C51020A5E81101070245F810491948D0
:101B80006C61C5E90647FEF7CDFD08B1FEF7AEFC76
:101B900075636E62134D124844351430C5E9000474
:101BA000C5E902482C616C61C5E906472846FEF785
:101BB000B9FD08B1FEF79AFCB56300221146252055
:101BC0006E62FFF709FA2520FFF7F8F906B0BDE8C5
:101BD000F081000000380140001002400008014080
:101BE00044000240F4000020704700002DE9F84353
:101BF000044690F83D001F4616460D4620284CD15D
:101C0000C5B1BEB194F83C00012846D0012084F84B
:101C10003C004FF00008C4F84080212084F83D00CB
:101C2000FEF7C4FEA6848146E684A068B0F5805F16
:101C300003D004E00120BDE8F883206928B12E46D6
:101C40005FF0000584F83C800EE00026FAE7802172
:101C5000204600F055FDA0B9AEB116F8010B216881
:101C60004860E08C401EE084E08C4B464FF0000260
:101C700000970028EBD14FF04001204600F040FDD6
:101C800030B10320D7E735F8020BC0F30800E6E7D0
:101C9000202084F83D000020CDE70220CBE77047EC
:101CA000FEE701684A69D24352050FD46FF480629F
:101CB0004A61002140F8301F20224273817302697B
:101CC00042F0040202610173012070470020704756
:101CD0002DE9F84F0446006889460B9D0168984637
:101CE000174641F4806101602068016841F4807109
:101CF000016000954FF0011B0022594620460A9BC7
:101D000000F0DEF84FF4007A40B120680068C005AA
:101D100001D5C4F840A00320BDE8F88F216809F080
:101D2000FE0008612B46284920460A9A00F0FCF87C
:101D3000F0BB20684169806900902A4620460A99D4
:101D400000F070F940B1206C04283AD12068016895
:101D500041F40071016034E0FEB2B8F1010F09D026
:101D60002168380A08612A4620460A9900F05AF983
:101D70000028E8D1206806612A4620460A9900F02A
:101D800051F90028DFD12068016841F480710160B9
:101D900000950022594620460A9B00F091F8002841
:101DA000B3D1216809F0FF0040F00100086100E0B4
:101DB00007E02B46044920460A9A00F0B5F80028AF
:101DC000AAD00120A8E70000020001002DE9F84395
:101DD000044600680D46DDE90897016898461646F6
:101DE00041F4807101604B4600224FF00111204602
:101DF000009700F065F848B120680068C00502D57A
:101E00004FF4007020640320BDE8F883216805F0DA
:101E1000FE0008613B464A461549204600F084F81A
:101E200088B920684169806900903A464946204651
:101E300000F0F8F848B1206C042804D1206801684B
:101E400041F4007101600120DEE7F5B2B8F1010F45
:101E500009D02168300A08613A464946204600F018
:101E6000E1F80028E7D1206805610020CCE70000F8
:101E70000200010070B516460D4604460DE02046EE
:101E8000FFF70FFF08B1012070BD681C05D0FEF7F9
:101E90008DFD801BA84207D835B120684069C0433A
:101EA0004007ECD4002070BD002044F8300F202102
:101EB0006173A073216941F0200121612073E2E781
:101EC0002DE9F0471E4690460D460446C1F30747EC
:101ED000DDF8209008E0701C06D0FEF767FDA0EB4F
:101EE0000900B0420FD876B12068012F18D0806960
:101EF00025EA00000004000C14D000214145EAD07E
:101F00000020BDE8F087002044F8300F20216173E5
:101F1000A073216941F02001216120730120F0E7C5
:101F20004069E5E70121E9E72DE9F0479A46914646
:101F30000E46044600254FF02008C1F3074725E070
:101F400020684069C043400514D42068016841F40A
:101F50000071016021686FF480604861256384F836
:101F60003D8084F83E50206C40F00400206484F8EA
:101F70003C501FE0B9F1FF3F08D0FEF717FDA0EB82
:101F80000A0149450CD8B9F1000F09D02068012F8A
:101F900013D0806926EA00000004000C0BD0CFE7C4
:101FA00044F8305F84F80D80A573206940F020006C
:101FB000206125730120BDE8F0874069EAE72DE93B
:101FC000F041002590460E460446202717E0406960
:101FD000C043C0060CD454F8301B6FF010004861A9
:101FE00044F810596777A577206A2062257717E0B3
:101FF000FEF7DCFCA0EB0800B04208D83EB1206838
:102000004169C9434906E2D40020BDE8F08144F8A3
:10201000305F6773A573206940F02000206125734D
:102020000120F2E770B516460D4604460DE0204645
:10203000FFF737FE08B1012070BD681C05D0FEF720
:10204000B5FC801BA84207D835B120684069C04361
:102050000006ECD4002070BD002044F8300F202191
:102060006173A073216941F0200121612073E2E7CF
:102070000D4808B5416941F0010141614069002204
:1020800000F00100009011460E20FEF7A5FF0E2083
:10209000FEF794FF002211460F20FEF79DFFBDE8DA
:1020A00008400F20FEF78ABF00100240F0B585B04F
:1020B000002432480094019402940394816941F011
:1020C00010018161816901F010010491816941F081
:1020D00020018161816901F020010491816941F051
:1020E00008018161816901F008010491816941F071
:1020F000040181618069224E00F004004FF4005514
:102100000490002229463046FEF74AFC0220CDE921
:10211000024000950125694601953046FEF750FBC7
:10212000184E4FF47040CDE90006174F69460295EE
:102130003846FEF745FB2802CDE9000669460295C0
:102140001248FEF73DFB2020CDE9000669460294C7
:102150003846FEF735FB002211461720FEF73CFFFC
:102160001720FEF72BFF002211462820FEF734FF30
:102170002820FEF723FF05B0F0BD0000001002404C
:102180000010014000002110000C01400008014037
:102190000D4810B50B4901600C49416000214FF416
:1021A00080428160C0E9031241618161C1610162C5
:1021B000FEF702FC002803D0BDE81040FEF796B9F8
:1021C00010BD00000054004014000020A086010053
:1021D00030B58DB000240794089409940A940B94A8
:1021E0001C2168460C94FEF771F8294D2748286099
:1021F000472068601020A8604FF47A70C5E9030496
:102200008020A8612846FFF7DDF908B1FEF76EF9D6
:102210004FF48050079007A91D48FFF715FA08B141
:10222000FEF764F91A48FFF704FB08B1FEF75EF900
:102230000B940BA916480C94FFF790F908B1FEF720
:1022400055F96020CDE90004022002900822694679
:1022500004940F48FFF78AFA08B1FEF747F9286897
:10226000C16921F00801C1610C2269460848FFF7E5
:102270007DFA08B1FEF73AF92868C16921F40061D6
:10228000C1610348FFF74CFA0DB030BD00080040B3
:10229000680000200C4810B50A4901604FF4E13194
:1022A0004160002181600C22C160C0E9041281619B
:1022B000C161FFF7F5FB002803D0BDE81040FEF731
:1022C00015B910BD00380140B0000020FEE7FEE760
:1022D00070477047FEF722BE30B58FB028216846A0
:1022E000FDF7F4FF14210AA8FDF7F0FF012108040F
:1022F000CDE900100024029402250491CDE9075095
:102300004FF4E01009906846FEF784FF08B172B6FA
:10231000FEE70F20CDE90A054FF48060CDE90C40BF
:1023200002210AA80E94FEF789FE002801D072B699
:10233000FEE70FB030BD7047F0B50268164B174C82
:10234000174D4FF08047984205D0B84203D0A042C5
:1023500001D0A84203D122F070064A683243984265
:1023600005D0B84203D0A04201D0A84203D122F444
:102370004074CA6822434C6922F080022243026002
:102380008A68C2620A688262984201D1096901635F
:1023900001214161F0BD0000002C0140000400401B
:1023A0000008004010B5846842EA032224F47F4408
:1023B0000A432243826010BD826822F070020A4301
:1023C00042F007018160704730B5026A22F00102D5
:1023D0000262026A4368846924F073050C682C4326
:1023E00022F002058A682A430A4DA8420BD122F046
:1023F0000805CA6823F440732A434D6922F0040299
:102400001D438B692B4343608461496841630262C9
:1024100030BD0000002C014030B5026A22F01002ED
:102420000262026A436884690D6824F4E64444EA5F
:1024300005248D6822F0200242EA05120B4DA842C5
:102440000ED1CD6822F0800242EA05124D6923F4D4
:10245000406343EA85038D6922F0400243EA850325
:102460004360846149688163026230BD002C014091
:1024700030B5026A22F480720262036A4268C4695B
:1024800023F4007324F073050C682C438D6843EA31
:1024900005230C4DA8420ED1CD6823F4006343EA16
:1024A00005234D6922F4405242EA05128D6923F456
:1024B000806342EA05124260C4614968C1630362F5
:1024C00030BD0000002C014030B5026A22F4805279
:1024D0000262046A4268C3690D6823F4E64343EA72
:1024E00005238D6824F4005444EA0534064DA842BF
:1024F00004D14D6922F4804242EA85124260C361F0
:1025000049680164046230BD002C014010B5036AC3
:10251000046A24F001040462846924F0F00444EAAB
:10252000021423F00A020A438461026210BD10B54E
:10253000036A23F0100303628369046A23F470437F
:1025400043EA023224F0A00343EA011182610162EE
:1025500010BD10B5406A0021C185C184FFF798F90C
:1025600010BD0168CA6822F49072CA6001684A69A5
:1025700022F001024A61016B012904D10168CA6895
:1025800022F01002CA60202180F83E100021016371
:10259000704708B590F83E10222901D0022008BDEE
:1025A00082684FF480539A4201D1016921B1816A56
:1025B0009A421BD04AB10AE00268816A5268C2F3AB
:1025C00008020A80816A891C08E0026972B1026807
:1025D000526802F07F020A70816A491C8162C18DD3
:1025E000491E0904090CC18503D019E0026852682C
:1025F000F1E70168CA6822F02002CA600168CA686F
:1026000022F48072CA6001684A6922F001024A61BC
:10261000202180F83E10016B012903D0FFF7E4FA76
:10262000002008BD002101630168CA6822F0100281
:10263000CA6001680A68D20602D50A684968009132
:10264000818DFFF724F9EBE770B504460068016956
:10265000E26821F44051114301612169A0680843F7
:10266000616908432168CA6841F20C639A430243D6
:10267000CA6020684169A26921F440711143416137
:102680001E492068884202D1FEF77EFD01E0FEF778
:102690006BFD00EBC00101EB00126068642180005B
:1026A000B2FBF0F3B3FBF1F36FF018067343B2FB28
:1026B000F0F5B2FBF0F605EB8305322303EB0515CD
:1026C000B5FBF1F5B6FBF1F605F0F00505EB0615E7
:1026D000B2FBF0F6B2FBF0F0B0FBF1F06FF01802D5
:1026E000504306EB800003EB0010B0FBF1F02168D3
:1026F00000F00F002844886070BD000000380140E1
:102700002DE9F041984617460E460446069D1DE009
:10271000681C1BD02DB1FEF749F9A0EB0800A842B8
:1027200014D92068C16821F4D071C1602068416962
:1027300021F001014161202084F83D0084F83E0031
:10274000002084F83C000320BDE8F0812068006888
:1027500036EA000004D00020B842D9D00020F3E7C8
:102760000120F9E70148FFF795B80000B00000200C
:10277000FEE70907090E002804DB00F1E02080F8DD
:102780000014704700F00F0000F1E02080F8141DE5
:10279000704770472DE9F0434FF48078ADF5057D23
:1027A0004446414643A8FDF791FD214603A8FDF7A5
:1027B0008DFD0020014643AE03AD30542954401C2A
:1027C000FF28FADD19A0FDF705FD00244FF47A7704
:1027D0004FF001093119CDE90019A2B20123029786
:1027E000A0211948FEF7D4FA0520FDF7C9FF641CA3
:1027F000FF2CEFDD15A0FDF7EDFC1420FDF7C0FF69
:10280000CDE9005801230022A1210F480297FEF7CD
:1028100097F9002413A0295DFDF7DCFC641CFF2C54
:10282000F8DD0DF5057DBDE8F08300007772697471
:10283000696E67206461746120746F2065657072D1
:102840006F6D2E2E2E0A0000140000207265616448
:102850002066726F6D20656570726F6D2E2E2E0A68
:10286000000000002564200013B54FF6FF7301221D
:1028700069460248FFF7BAF900981CBDB000002075
:10288000FEF754FBFFF728FDFFF710FCFFF7F0FB06
:10289000FFF79EFCFFF7FEFCFFF77AFC02A0FDF7B6
:1028A00099FCFFF777FFFEE7556172743120696E7E
:1028B0006974206973206F6B0A000000000000003B
:1028C00000000000010203040607080900000000E0
:1028D00001020304F4280008000000201400000096
:1028E000280100080829000814000020CC07000077
:1028F000440100080000000001000000100000007A
:08290000000000000024F400B7
:04000005080000ED02
:00000001FF
