Component: ARM Compiler 5.06 update 7 (build 960) Tool: armlink [4d3601]

==============================================================================

Section Cross References

    startup_stm32f103xb.o(STACK) refers (Special) to heapauxi.o(.text) for __use_two_region_memory
    startup_stm32f103xb.o(HEAP) refers (Special) to heapauxi.o(.text) for __use_two_region_memory
    startup_stm32f103xb.o(RESET) refers (Special) to heapauxi.o(.text) for __use_two_region_memory
    startup_stm32f103xb.o(RESET) refers to startup_stm32f103xb.o(STACK) for __initial_sp
    startup_stm32f103xb.o(RESET) refers to startup_stm32f103xb.o(.text) for Reset_Handler
    startup_stm32f103xb.o(RESET) refers to stm32f1xx_it.o(i.NMI_Handler) for NMI_Handler
    startup_stm32f103xb.o(RESET) refers to stm32f1xx_it.o(i.HardFault_Handler) for HardFault_Handler
    startup_stm32f103xb.o(RESET) refers to stm32f1xx_it.o(i.MemManage_Handler) for MemManage_Handler
    startup_stm32f103xb.o(RESET) refers to stm32f1xx_it.o(i.BusFault_Handler) for BusFault_Handler
    startup_stm32f103xb.o(RESET) refers to stm32f1xx_it.o(i.UsageFault_Handler) for UsageFault_Handler
    startup_stm32f103xb.o(RESET) refers to port.o(.emb_text) for SVC_Handler
    startup_stm32f103xb.o(RESET) refers to stm32f1xx_it.o(i.DebugMon_Handler) for DebugMon_Handler
    startup_stm32f103xb.o(RESET) refers to port.o(i.SysTick_Handler) for SysTick_Handler
    startup_stm32f103xb.o(RESET) refers to stm32f1xx_it.o(i.DMA1_Channel2_IRQHandler) for DMA1_Channel2_IRQHandler
    startup_stm32f103xb.o(RESET) refers to stm32f1xx_it.o(i.DMA1_Channel3_IRQHandler) for DMA1_Channel3_IRQHandler
    startup_stm32f103xb.o(RESET) refers to stm32f1xx_it.o(i.DMA1_Channel4_IRQHandler) for DMA1_Channel4_IRQHandler
    startup_stm32f103xb.o(RESET) refers to stm32f1xx_it.o(i.DMA1_Channel5_IRQHandler) for DMA1_Channel5_IRQHandler
    startup_stm32f103xb.o(RESET) refers to stm32f1xx_it.o(i.USB_LP_CAN1_RX0_IRQHandler) for USB_LP_CAN1_RX0_IRQHandler
==============================================================================

Removing Unused input sections from the image.

    Removing bh1750.o(.rev16_text), (4 bytes).
    Removing bh1750.o(.revsh_text), (4 bytes).
    Removing bh1750.o(.rrx_text), (6 bytes).
    Removing bh1750.o(i.BH1750_Test), (140 bytes).
    Removing bmp180.o(.rev16_text), (4 bytes).
    Removing bmp180.o(.revsh_text), (4 bytes).
    Removing bmp180.o(.rrx_text), (6 bytes).
    Removing bmp180.o(i.BMP180_Test), (384 bytes).
    Removing esp8266.o(.rev16_text), (4 bytes).
    Removing esp8266.o(.revsh_text), (4 bytes).
    Removing esp8266.o(.rrx_text), (6 bytes).
    Removing oled.o(.rev16_text), (4 bytes).
    Removing oled.o(.revsh_text), (4 bytes).
    Removing oled.o(.rrx_text), (6 bytes).
    Removing oled.o(i.OLED_DrawBMP), (62 bytes).
    Removing oled.o(i.OLED_OFF), (24 bytes).
    Removing oled.o(i.OLED_ON), (24 bytes).
    Removing oled.o(i.OLED_ShowCN), (72 bytes).
==============================================================================

Image Symbol Table

    Local Symbols

    Symbol Name                              Value     Ov Type        Size  Object(Section)

    ../Core/Src/adc.c                        0x00000000   Number         0  adc.o ABSOLUTE
    ../Core/Src/can.c                        0x00000000   Number         0  can.o ABSOLUTE
    ../Core/Src/dma.c                        0x00000000   Number         0  dma.o ABSOLUTE
    ../Core/Src/freertos.c                   0x00000000   Number         0  freertos.o ABSOLUTE
    ../Core/Src/gpio.c                       0x00000000   Number         0  gpio.o ABSOLUTE
    ../Core/Src/i2c.c                        0x00000000   Number         0  i2c.o ABSOLUTE
    ../Core/Src/main.c                       0x00000000   Number         0  main.o ABSOLUTE
    ../Core/Src/spi.c                        0x00000000   Number         0  spi.o ABSOLUTE
    ../Core/Src/stm32f1xx_hal_msp.c          0x00000000   Number         0  stm32f1xx_hal_msp.o ABSOLUTE
    ../Core/Src/stm32f1xx_hal_timebase_tim.c 0x00000000   Number         0  stm32f1xx_hal_timebase_tim.o ABSOLUTE
    ../Core/Src/stm32f1xx_it.c               0x00000000   Number         0  stm32f1xx_it.o ABSOLUTE
    ../Core/Src/system_stm32f1xx.c           0x00000000   Number         0  system_stm32f1xx.o ABSOLUTE
    ../Core/Src/tim.c                        0x00000000   Number         0  tim.o ABSOLUTE
    ../Core/Src/usart.c                      0x00000000   Number         0  usart.o ABSOLUTE
    ../Drivers/STM32F1xx_HAL_Driver/Src/stm32f1xx_hal.c 0x00000000   Number         0  stm32f1xx_hal.o ABSOLUTE
    ../Drivers/STM32F1xx_HAL_Driver/Src/stm32f1xx_hal_adc.c 0x00000000   Number         0  stm32f1xx_hal_adc.o ABSOLUTE
    ../Drivers/STM32F1xx_HAL_Driver/Src/stm32f1xx_hal_adc_ex.c 0x00000000   Number         0  stm32f1xx_hal_adc_ex.o ABSOLUTE
    ../Drivers/STM32F1xx_HAL_Driver/Src/stm32f1xx_hal_can.c 0x00000000   Number         0  stm32f1xx_hal_can.o ABSOLUTE
    ../Drivers/STM32F1xx_HAL_Driver/Src/stm32f1xx_hal_cortex.c 0x00000000   Number         0  stm32f1xx_hal_cortex.o ABSOLUTE
    ../Drivers/STM32F1xx_HAL_Driver/Src/stm32f1xx_hal_dma.c 0x00000000   Number         0  stm32f1xx_hal_dma.o ABSOLUTE
    ../Drivers/STM32F1xx_HAL_Driver/Src/stm32f1xx_hal_exti.c 0x00000000   Number         0  stm32f1xx_hal_exti.o ABSOLUTE
    ../Drivers/STM32F1xx_HAL_Driver/Src/stm32f1xx_hal_flash.c 0x00000000   Number         0  stm32f1xx_hal_flash.o ABSOLUTE
    ../Drivers/STM32F1xx_HAL_Driver/Src/stm32f1xx_hal_flash_ex.c 0x00000000   Number         0  stm32f1xx_hal_flash_ex.o ABSOLUTE
    ../Drivers/STM32F1xx_HAL_Driver/Src/stm32f1xx_hal_gpio.c 0x00000000   Number         0  stm32f1xx_hal_gpio.o ABSOLUTE
    ../Drivers/STM32F1xx_HAL_Driver/Src/stm32f1xx_hal_gpio_ex.c 0x00000000   Number         0  stm32f1xx_hal_gpio_ex.o ABSOLUTE
    ../Drivers/STM32F1xx_HAL_Driver/Src/stm32f1xx_hal_i2c.c 0x00000000   Number         0  stm32f1xx_hal_i2c.o ABSOLUTE
    ../Drivers/STM32F1xx_HAL_Driver/Src/stm32f1xx_hal_pwr.c 0x00000000   Number         0  stm32f1xx_hal_pwr.o ABSOLUTE
    ../Drivers/STM32F1xx_HAL_Driver/Src/stm32f1xx_hal_rcc.c 0x00000000   Number         0  stm32f1xx_hal_rcc.o ABSOLUTE
    ../Drivers/STM32F1xx_HAL_Driver/Src/stm32f1xx_hal_rcc_ex.c 0x00000000   Number         0  stm32f1xx_hal_rcc_ex.o ABSOLUTE
    ../Drivers/STM32F1xx_HAL_Driver/Src/stm32f1xx_hal_spi.c 0x00000000   Number         0  stm32f1xx_hal_spi.o ABSOLUTE
    ../Drivers/STM32F1xx_HAL_Driver/Src/stm32f1xx_hal_tim.c 0x00000000   Number         0  stm32f1xx_hal_tim.o ABSOLUTE
    ../Drivers/STM32F1xx_HAL_Driver/Src/stm32f1xx_hal_tim_ex.c 0x00000000   Number         0  stm32f1xx_hal_tim_ex.o ABSOLUTE
    ../Drivers/STM32F1xx_HAL_Driver/Src/stm32f1xx_hal_uart.c 0x00000000   Number         0  stm32f1xx_hal_uart.o ABSOLUTE
    ../Middlewares/Third_Party/FreeRTOS/Source/CMSIS_RTOS/cmsis_os.c 0x00000000   Number         0  cmsis_os.o ABSOLUTE
    ../Middlewares/Third_Party/FreeRTOS/Source/croutine.c 0x00000000   Number         0  croutine.o ABSOLUTE
    ../Middlewares/Third_Party/FreeRTOS/Source/event_groups.c 0x00000000   Number         0  event_groups.o ABSOLUTE
    ../Middlewares/Third_Party/FreeRTOS/Source/list.c 0x00000000   Number         0  list.o ABSOLUTE
    ../Middlewares/Third_Party/FreeRTOS/Source/portable/MemMang/heap_4.c 0x00000000   Number         0  heap_4.o ABSOLUTE
    ../Middlewares/Third_Party/FreeRTOS/Source/portable/RVDS/ARM_CM3/port.c 0x00000000   Number         0  port.o ABSOLUTE
    ../Middlewares/Third_Party/FreeRTOS/Source/queue.c 0x00000000   Number         0  queue.o ABSOLUTE
    ../Middlewares/Third_Party/FreeRTOS/Source/stream_buffer.c 0x00000000   Number         0  stream_buffer.o ABSOLUTE
    ../Middlewares/Third_Party/FreeRTOS/Source/tasks.c 0x00000000   Number         0  tasks.o ABSOLUTE
    ../Middlewares/Third_Party/FreeRTOS/Source/timers.c 0x00000000   Number         0  timers.o ABSOLUTE
    ../clib/angel/boardlib.s                 0x00000000   Number         0  boardshut.o ABSOLUTE
    ../clib/angel/boardlib.s                 0x00000000   Number         0  boardinit3.o ABSOLUTE
    ../clib/angel/boardlib.s                 0x00000000   Number         0  boardinit2.o ABSOLUTE
    ../clib/angel/boardlib.s                 0x00000000   Number         0  boardinit1.o ABSOLUTE
    ../clib/angel/handlers.s                 0x00000000   Number         0  __scatter_copy.o ABSOLUTE
    ../clib/angel/handlers.s                 0x00000000   Number         0  __scatter_zi.o ABSOLUTE
    ../clib/angel/kernel.s                   0x00000000   Number         0  rtexit2.o ABSOLUTE
    ../clib/angel/kernel.s                   0x00000000   Number         0  rtexit.o ABSOLUTE
    ../clib/angel/kernel.s                   0x00000000   Number         0  __rtentry.o ABSOLUTE
    ../clib/angel/kernel.s                   0x00000000   Number         0  __rtentry4.o ABSOLUTE
    ../clib/angel/kernel.s                   0x00000000   Number         0  __rtentry2.o ABSOLUTE
    ../clib/angel/rt.s                       0x00000000   Number         0  rt_raise.o ABSOLUTE
    ../clib/angel/rt.s                       0x00000000   Number         0  rt_heap_descriptor.o ABSOLUTE
    ../clib/angel/rt.s                       0x00000000   Number         0  rt_heap_descriptor_intlibspace.o ABSOLUTE
    ../clib/angel/rt.s                       0x00000000   Number         0  rt_errno_addr_intlibspace.o ABSOLUTE
    ../clib/angel/rt.s                       0x00000000   Number         0  rt_errno_addr.o ABSOLUTE
    ../clib/angel/rt.s                       0x00000000   Number         0  rt_locale_intlibspace.o ABSOLUTE
    ../clib/angel/rt.s                       0x00000000   Number         0  rt_locale.o ABSOLUTE
    ../clib/angel/scatter.s                  0x00000000   Number         0  __scatter.o ABSOLUTE
    ../clib/angel/startup.s                  0x00000000   Number         0  __main.o ABSOLUTE
    ../clib/angel/sys.s                      0x00000000   Number         0  use_no_semi.o ABSOLUTE
    ../clib/angel/sys.s                      0x00000000   Number         0  indicate_semi.o ABSOLUTE
    ../clib/angel/sys.s                      0x00000000   Number         0  libspace.o ABSOLUTE
    ../clib/angel/sys.s                      0x00000000   Number         0  sys_stackheap_outer.o ABSOLUTE
    ../clib/angel/sys.s                      0x00000000   Number         0  mutex_dummy.o ABSOLUTE
    ../clib/angel/sysapp.c                   0x00000000   Number         0  sys_wrch.o ABSOLUTE
    ../clib/angel/sysapp.c                   0x00000000   Number         0  sys_command.o ABSOLUTE
    ../clib/armsys.c                         0x00000000   Number         0  argv_veneer.o ABSOLUTE
    ../clib/armsys.c                         0x00000000   Number         0  _get_argv.o ABSOLUTE
    ../clib/armsys.c                         0x00000000   Number         0  argv_veneer.o ABSOLUTE
    ../clib/armsys.c                         0x00000000   Number         0  no_argv.o ABSOLUTE
    ../clib/armsys.c                         0x00000000   Number         0  _get_argv_nomalloc.o ABSOLUTE
    ../clib/bigflt.c                         0x00000000   Number         0  bigflt0.o ABSOLUTE
    ../clib/btod.s                           0x00000000   Number         0  btod.o ABSOLUTE
    ../clib/fenv.c                           0x00000000   Number         0  _rserrno.o ABSOLUTE
    ../clib/heap1.c                          0x00000000   Number         0  h1_alloc.o ABSOLUTE
    ../clib/heap1.c                          0x00000000   Number         0  h1_alloc_mt.o ABSOLUTE
    ../clib/heap1.c                          0x00000000   Number         0  h1_extend.o ABSOLUTE
    ../clib/heap1.c                          0x00000000   Number         0  h1_extend_mt.o ABSOLUTE
    ../clib/heap1.c                          0x00000000   Number         0  h1_free.o ABSOLUTE
    ../clib/heap1.c                          0x00000000   Number         0  h1_free_mt.o ABSOLUTE
    ../clib/heap1.c                          0x00000000   Number         0  h1_final_mt.o ABSOLUTE
    ../clib/heap1.c                          0x00000000   Number         0  h1_init.o ABSOLUTE
    ../clib/heap1.c                          0x00000000   Number         0  h1_final.o ABSOLUTE
    ../clib/heap1.c                          0x00000000   Number         0  h1_init_mt.o ABSOLUTE
    ../clib/heap2.c                          0x00000000   Number         0  heap2.o ABSOLUTE
    ../clib/heap2.c                          0x00000000   Number         0  fdtree.o ABSOLUTE
    ../clib/heap2.c                          0x00000000   Number         0  heap2mt.o ABSOLUTE
    ../clib/heapalloc.c                      0x00000000   Number         0  term_alloc.o ABSOLUTE
    ../clib/heapalloc.c                      0x00000000   Number         0  free.o ABSOLUTE
    ../clib/heapalloc.c                      0x00000000   Number         0  heapstubs.o ABSOLUTE
    ../clib/heapalloc.c                      0x00000000   Number         0  maybetermalloc1.o ABSOLUTE
    ../clib/heapalloc.c                      0x00000000   Number         0  hrguard.o ABSOLUTE
    ../clib/heapalloc.c                      0x00000000   Number         0  malloc.o ABSOLUTE
    ../clib/heapalloc.c                      0x00000000   Number         0  hguard.o ABSOLUTE
    ../clib/heapalloc.c                      0x00000000   Number         0  maybetermalloc2.o ABSOLUTE
    ../clib/heapalloc.c                      0x00000000   Number         0  maybetermalloc1.o ABSOLUTE
    ../clib/heapalloc.c                      0x00000000   Number         0  maybetermalloc2.o ABSOLUTE
    ../clib/heapalloc.c                      0x00000000   Number         0  init_alloc.o ABSOLUTE
    ../clib/heapaux.c                        0x00000000   Number         0  heapauxi.o ABSOLUTE
    ../clib/heapaux.c                        0x00000000   Number         0  heapauxa.o ABSOLUTE
    ../clib/libinit.s                        0x00000000   Number         0  libinit.o ABSOLUTE
    ../clib/libinit.s                        0x00000000   Number         0  libshutdown2.o ABSOLUTE
    ../clib/libinit.s                        0x00000000   Number         0  libshutdown.o ABSOLUTE
    ../clib/libinit.s                        0x00000000   Number         0  libinit2.o ABSOLUTE
    ../clib/locale.s                         0x00000000   Number         0  lc_numeric_c.o ABSOLUTE
    ../clib/longlong.s                       0x00000000   Number         0  lludiv10.o ABSOLUTE
    ../clib/longlong.s                       0x00000000   Number         0  llushr.o ABSOLUTE
    ../clib/memcpset.s                       0x00000000   Number         0  rt_memclr_w.o ABSOLUTE
    ../clib/memcpset.s                       0x00000000   Number         0  rt_memcpy_v6.o ABSOLUTE
    ../clib/memcpset.s                       0x00000000   Number         0  rt_memcpy_w.o ABSOLUTE
    ../clib/memcpset.s                       0x00000000   Number         0  rt_memclr.o ABSOLUTE
    ../clib/memcpset.s                       0x00000000   Number         0  strcmpv7m.o ABSOLUTE
    ../clib/memcpset.s                       0x00000000   Number         0  memset.o ABSOLUTE
    ../clib/misc.s                           0x00000000   Number         0  printf_stubs.o ABSOLUTE
    ../clib/printf.c                         0x00000000   Number         0  __printf_flags.o ABSOLUTE
    ../clib/printf.c                         0x00000000   Number         0  __2printf.o ABSOLUTE
    ../clib/printf.c                         0x00000000   Number         0  __2sprintf.o ABSOLUTE
    ../clib/printf.c                         0x00000000   Number         0  noretval__2printf.o ABSOLUTE
    ../clib/printf.c                         0x00000000   Number         0  _printf_intcommon.o ABSOLUTE
    ../clib/printf.c                         0x00000000   Number         0  _printf_fp_infnan.o ABSOLUTE
    ../clib/printf.c                         0x00000000   Number         0  _printf_dec.o ABSOLUTE
    ../clib/printf.c                         0x00000000   Number         0  __printf_ss.o ABSOLUTE
    ../clib/printf.c                         0x00000000   Number         0  _printf_hex_int_ll_ptr.o ABSOLUTE
    ../clib/printf.c                         0x00000000   Number         0  __printf.o ABSOLUTE
    ../clib/printf.c                         0x00000000   Number         0  _printf_hex_ll_ptr.o ABSOLUTE
    ../clib/printf.c                         0x00000000   Number         0  _printf_hex_int_ptr.o ABSOLUTE
    ../clib/printf.c                         0x00000000   Number         0  _printf_hex_ptr.o ABSOLUTE
    ../clib/printf.c                         0x00000000   Number         0  _printf_hex_int_ll.o ABSOLUTE
    ../clib/printf.c                         0x00000000   Number         0  _printf_hex_int.o ABSOLUTE
    ../clib/printf.c                         0x00000000   Number         0  _printf_hex_ll.o ABSOLUTE
    ../clib/printf.c                         0x00000000   Number         0  __printf_ss_wp.o ABSOLUTE
    ../clib/printf.c                         0x00000000   Number         0  __printf_flags_wp.o ABSOLUTE
    ../clib/printf.c                         0x00000000   Number         0  __printf_wp.o ABSOLUTE
    ../clib/printf.c                         0x00000000   Number         0  _printf_char_common.o ABSOLUTE
    ../clib/printf.c                         0x00000000   Number         0  _printf_pad.o ABSOLUTE
    ../clib/printf.c                         0x00000000   Number         0  __printf_nopercent.o ABSOLUTE
    ../clib/printf.c                         0x00000000   Number         0  __printf_flags_ss.o ABSOLUTE
    ../clib/printf.c                         0x00000000   Number         0  __printf_flags_ss_wp.o ABSOLUTE
    ../clib/printf.c                         0x00000000   Number         0  noretval__2sprintf.o ABSOLUTE
    ../clib/printf.c                         0x00000000   Number         0  _printf_char_file.o ABSOLUTE
    ../clib/printf.c                         0x00000000   Number         0  _sputc.o ABSOLUTE
    ../clib/printf.c                         0x00000000   Number         0  _printf_fp_dec.o ABSOLUTE
    ../clib/printf_percent.s                 0x00000000   Number         0  _printf_d.o ABSOLUTE
    ../clib/printf_percent.s                 0x00000000   Number         0  _printf_x.o ABSOLUTE
    ../clib/printf_percent.s                 0x00000000   Number         0  _printf_f.o ABSOLUTE
    ../clib/printf_percent.s                 0x00000000   Number         0  _printf_percent.o ABSOLUTE
    ../clib/printf_percent.s                 0x00000000   Number         0  _printf_percent_end.o ABSOLUTE
    ../clib/signal.c                         0x00000000   Number         0  defsig_rtmem_outer.o ABSOLUTE
    ../clib/signal.c                         0x00000000   Number         0  defsig_rtmem_formal.o ABSOLUTE
    ../clib/signal.c                         0x00000000   Number         0  defsig_abrt_inner.o ABSOLUTE
    ../clib/signal.c                         0x00000000   Number         0  defsig_fpe_inner.o ABSOLUTE
    ../clib/signal.c                         0x00000000   Number         0  defsig_rtred_inner.o ABSOLUTE
    ../clib/signal.c                         0x00000000   Number         0  defsig_stak_inner.o ABSOLUTE
    ../clib/signal.c                         0x00000000   Number         0  defsig_rtmem_inner.o ABSOLUTE
    ../clib/signal.c                         0x00000000   Number         0  defsig_cppl_inner.o ABSOLUTE
    ../clib/signal.c                         0x00000000   Number         0  defsig_segv_inner.o ABSOLUTE
    ../clib/signal.c                         0x00000000   Number         0  defsig_other.o ABSOLUTE
    ../clib/signal.c                         0x00000000   Number         0  defsig_exit.o ABSOLUTE
    ../clib/signal.c                         0x00000000   Number         0  __raise.o ABSOLUTE
    ../clib/signal.c                         0x00000000   Number         0  defsig_general.o ABSOLUTE
    ../clib/signal.c                         0x00000000   Number         0  defsig_pvfn_inner.o ABSOLUTE
    ../clib/signal.s                         0x00000000   Number         0  defsig.o ABSOLUTE
    ../clib/stdio.c                          0x00000000   Number         0  ferror_locked.o ABSOLUTE
    ../clib/stdio.c                          0x00000000   Number         0  ferror.o ABSOLUTE
    ../clib/stdlib.c                         0x00000000   Number         0  exit.o ABSOLUTE
    ../clib/string.c                         0x00000000   Number         0  strcpy.o ABSOLUTE
    ../clib/string.c                         0x00000000   Number         0  strlen.o ABSOLUTE
    ../fplib/d2f.s                           0x00000000   Number         0  d2f.o ABSOLUTE
    ../fplib/daddsub.s                       0x00000000   Number         0  daddsub_clz.o ABSOLUTE
    ../fplib/dcheck1.s                       0x00000000   Number         0  dcheck1.o ABSOLUTE
    ../fplib/dcmpi.s                         0x00000000   Number         0  dcmpi.o ABSOLUTE
    ../fplib/ddiv.s                          0x00000000   Number         0  ddiv.o ABSOLUTE
    ../fplib/dflt.s                          0x00000000   Number         0  dflt_clz.o ABSOLUTE
    ../fplib/dleqf.s                         0x00000000   Number         0  dleqf.o ABSOLUTE
    ../fplib/dmul.s                          0x00000000   Number         0  dmul.o ABSOLUTE
    ../fplib/dnaninf.s                       0x00000000   Number         0  dnaninf.o ABSOLUTE
    ../fplib/dretinf.s                       0x00000000   Number         0  dretinf.o ABSOLUTE
    ../fplib/drleqf.s                        0x00000000   Number         0  drleqf.o ABSOLUTE
    ../fplib/dsqrt.s                         0x00000000   Number         0  dsqrt_noumaal.o ABSOLUTE
    ../fplib/f2d.s                           0x00000000   Number         0  f2d.o ABSOLUTE
    ../fplib/fcheck1.s                       0x00000000   Number         0  fcheck1.o ABSOLUTE
    ../fplib/fdiv.s                          0x00000000   Number         0  fdiv.o ABSOLUTE
    ../fplib/fnaninf.s                       0x00000000   Number         0  fnaninf.o ABSOLUTE
    ../fplib/fpinit.s                        0x00000000   Number         0  fpinit.o ABSOLUTE
    ../fplib/fretinf.s                       0x00000000   Number         0  fretinf.o ABSOLUTE
    ../fplib/istatus.s                       0x00000000   Number         0  istatus.o ABSOLUTE
    ../fplib/printf1.s                       0x00000000   Number         0  printf1.o ABSOLUTE
    ../fplib/retnan.s                        0x00000000   Number         0  retnan.o ABSOLUTE
    ../fplib/scalbn.s                        0x00000000   Number         0  scalbn.o ABSOLUTE
    ../fplib/scalbnf.s                       0x00000000   Number         0  scalbnf.o ABSOLUTE
    ../fplib/trapv.s                         0x00000000   Number         0  trapv.o ABSOLUTE
    ../fplib/usenofp.s                       0x00000000   Number         0  usenofp.o ABSOLUTE
    ../mathlib/dunder.c                      0x00000000   Number         0  dunder.o ABSOLUTE
    ../mathlib/fpclassify.c                  0x00000000   Number         0  fpclassify.o ABSOLUTE
    ../mathlib/poly.c                        0x00000000   Number         0  poly.o ABSOLUTE
    ../mathlib/pow.c                         0x00000000   Number         0  pow_x.o ABSOLUTE
    ../mathlib/pow.c                         0x00000000   Number         0  pow.o ABSOLUTE
    ../mathlib/qnan.c                        0x00000000   Number         0  qnan.o ABSOLUTE
    ../mathlib/sqrt.c                        0x00000000   Number         0  sqrt.o ABSOLUTE
    ../mathlib/sqrt.c                        0x00000000   Number         0  sqrt_x.o ABSOLUTE
    ..\Core\Src\adc.c                        0x00000000   Number         0  adc.o ABSOLUTE
    ..\Core\Src\bh1750.c                     0x00000000   Number         0  bh1750.o ABSOLUTE
    ..\Core\Src\bmp180.c                     0x00000000   Number         0  bmp180.o ABSOLUTE
    ..\Core\Src\can.c                        0x00000000   Number         0  can.o ABSOLUTE
    ..\Core\Src\control.c                    0x00000000   Number         0  control.o ABSOLUTE
    ..\Core\Src\dht11.c                      0x00000000   Number         0  dht11.o ABSOLUTE
    ..\Core\Src\dma.c                        0x00000000   Number         0  dma.o ABSOLUTE
    ..\Core\Src\esp8266.c                    0x00000000   Number         0  esp8266.o ABSOLUTE
    ..\Core\Src\freertos.c                   0x00000000   Number         0  freertos.o ABSOLUTE
    ..\Core\Src\gpio.c                       0x00000000   Number         0  gpio.o ABSOLUTE
    ..\Core\Src\i2c.c                        0x00000000   Number         0  i2c.o ABSOLUTE
    ..\Core\Src\main.c                       0x00000000   Number         0  main.o ABSOLUTE
    ..\Core\Src\oled.c                       0x00000000   Number         0  oled.o ABSOLUTE
    ..\Core\Src\rc522.c                      0x00000000   Number         0  rc522.o ABSOLUTE
    ..\Core\Src\rs485.c                      0x00000000   Number         0  rs485.o ABSOLUTE
    ..\Core\Src\spi.c                        0x00000000   Number         0  spi.o ABSOLUTE
    ..\Core\Src\squeue.c                     0x00000000   Number         0  squeue.o ABSOLUTE
    ..\Core\Src\stm32f1xx_hal_msp.c          0x00000000   Number         0  stm32f1xx_hal_msp.o ABSOLUTE
    ..\Core\Src\stm32f1xx_hal_timebase_tim.c 0x00000000   Number         0  stm32f1xx_hal_timebase_tim.o ABSOLUTE
    ..\Core\Src\stm32f1xx_it.c               0x00000000   Number         0  stm32f1xx_it.o ABSOLUTE
    ..\Core\Src\system_stm32f1xx.c           0x00000000   Number         0  system_stm32f1xx.o ABSOLUTE
    ..\Core\Src\tim.c                        0x00000000   Number         0  tim.o ABSOLUTE
    ..\Core\Src\usart.c                      0x00000000   Number         0  usart.o ABSOLUTE
    ..\Drivers\STM32F1xx_HAL_Driver\Src\stm32f1xx_hal.c 0x00000000   Number         0  stm32f1xx_hal.o ABSOLUTE
    ..\Drivers\STM32F1xx_HAL_Driver\Src\stm32f1xx_hal_adc.c 0x00000000   Number         0  stm32f1xx_hal_adc.o ABSOLUTE
    ..\Drivers\STM32F1xx_HAL_Driver\Src\stm32f1xx_hal_adc_ex.c 0x00000000   Number         0  stm32f1xx_hal_adc_ex.o ABSOLUTE
    ..\Drivers\STM32F1xx_HAL_Driver\Src\stm32f1xx_hal_can.c 0x00000000   Number         0  stm32f1xx_hal_can.o ABSOLUTE
    ..\Drivers\STM32F1xx_HAL_Driver\Src\stm32f1xx_hal_cortex.c 0x00000000   Number         0  stm32f1xx_hal_cortex.o ABSOLUTE
    ..\Drivers\STM32F1xx_HAL_Driver\Src\stm32f1xx_hal_dma.c 0x00000000   Number         0  stm32f1xx_hal_dma.o ABSOLUTE
    ..\Drivers\STM32F1xx_HAL_Driver\Src\stm32f1xx_hal_exti.c 0x00000000   Number         0  stm32f1xx_hal_exti.o ABSOLUTE
    ..\Drivers\STM32F1xx_HAL_Driver\Src\stm32f1xx_hal_flash.c 0x00000000   Number         0  stm32f1xx_hal_flash.o ABSOLUTE
    ..\Drivers\STM32F1xx_HAL_Driver\Src\stm32f1xx_hal_flash_ex.c 0x00000000   Number         0  stm32f1xx_hal_flash_ex.o ABSOLUTE
    ..\Drivers\STM32F1xx_HAL_Driver\Src\stm32f1xx_hal_gpio.c 0x00000000   Number         0  stm32f1xx_hal_gpio.o ABSOLUTE
    ..\Drivers\STM32F1xx_HAL_Driver\Src\stm32f1xx_hal_gpio_ex.c 0x00000000   Number         0  stm32f1xx_hal_gpio_ex.o ABSOLUTE
    ..\Drivers\STM32F1xx_HAL_Driver\Src\stm32f1xx_hal_i2c.c 0x00000000   Number         0  stm32f1xx_hal_i2c.o ABSOLUTE
    ..\Drivers\STM32F1xx_HAL_Driver\Src\stm32f1xx_hal_pwr.c 0x00000000   Number         0  stm32f1xx_hal_pwr.o ABSOLUTE
    ..\Drivers\STM32F1xx_HAL_Driver\Src\stm32f1xx_hal_rcc.c 0x00000000   Number         0  stm32f1xx_hal_rcc.o ABSOLUTE
    ..\Drivers\STM32F1xx_HAL_Driver\Src\stm32f1xx_hal_rcc_ex.c 0x00000000   Number         0  stm32f1xx_hal_rcc_ex.o ABSOLUTE
    ..\Drivers\STM32F1xx_HAL_Driver\Src\stm32f1xx_hal_spi.c 0x00000000   Number         0  stm32f1xx_hal_spi.o ABSOLUTE
    ..\Drivers\STM32F1xx_HAL_Driver\Src\stm32f1xx_hal_tim.c 0x00000000   Number         0  stm32f1xx_hal_tim.o ABSOLUTE
    ..\Drivers\STM32F1xx_HAL_Driver\Src\stm32f1xx_hal_tim_ex.c 0x00000000   Number         0  stm32f1xx_hal_tim_ex.o ABSOLUTE
    ..\Drivers\STM32F1xx_HAL_Driver\Src\stm32f1xx_hal_uart.c 0x00000000   Number         0  stm32f1xx_hal_uart.o ABSOLUTE
    ..\Middlewares\Third_Party\FreeRTOS\Source\CMSIS_RTOS\cmsis_os.c 0x00000000   Number         0  cmsis_os.o ABSOLUTE
    ..\Middlewares\Third_Party\FreeRTOS\Source\portable\RVDS\ARM_CM3\port.c 0x00000000   Number         0  port.o ABSOLUTE
    ..\\Core\\Src\\bh1750.c                  0x00000000   Number         0  bh1750.o ABSOLUTE
    ..\\Core\\Src\\bmp180.c                  0x00000000   Number         0  bmp180.o ABSOLUTE
    ..\\Core\\Src\\control.c                 0x00000000   Number         0  control.o ABSOLUTE
    ..\\Core\\Src\\dht11.c                   0x00000000   Number         0  dht11.o ABSOLUTE
    ..\\Core\\Src\\esp8266.c                 0x00000000   Number         0  esp8266.o ABSOLUTE
    ..\\Core\\Src\\oled.c                    0x00000000   Number         0  oled.o ABSOLUTE
    ..\\Core\\Src\\rc522.c                   0x00000000   Number         0  rc522.o ABSOLUTE
    ..\\Core\\Src\\rs485.c                   0x00000000   Number         0  rs485.o ABSOLUTE
    dc.s                                     0x00000000   Number         0  dc.o ABSOLUTE
    startup_stm32f103xb.s                    0x00000000   Number         0  startup_stm32f103xb.o ABSOLUTE
    RESET                                    0x08000000   Section      236  startup_stm32f103xb.o(RESET)
    !!!main                                  0x080000ec   Section        8  __main.o(!!!main)
    !!!scatter                               0x080000f4   Section       52  __scatter.o(!!!scatter)
    !!handler_copy                           0x08000128   Section       26  __scatter_copy.o(!!handler_copy)
    !!handler_zi                             0x08000144   Section       28  __scatter_zi.o(!!handler_zi)
    .ARM.Collect$$_printf_percent$$00000000  0x08000160   Section        0  _printf_percent.o(.ARM.Collect$$_printf_percent$$00000000)
    .ARM.Collect$$_printf_percent$$00000003  0x08000160   Section        6  _printf_f.o(.ARM.Collect$$_printf_percent$$00000003)
    .ARM.Collect$$_printf_percent$$00000009  0x08000166   Section        6  _printf_d.o(.ARM.Collect$$_printf_percent$$00000009)
    .ARM.Collect$$_printf_percent$$0000000C  0x0800016c   Section        6  _printf_x.o(.ARM.Collect$$_printf_percent$$0000000C)
    .ARM.Collect$$_printf_percent$$00000017  0x08000172   Section        4  _printf_percent_end.o(.ARM.Collect$$_printf_percent$$00000017)
    .ARM.Collect$$libinit$$00000000          0x08000176   Section        2  libinit.o(.ARM.Collect$$libinit$$00000000)
    .ARM.Collect$$libinit$$00000002          0x08000178   Section        0  libinit2.o(.ARM.Collect$$libinit$$00000002)
    .ARM.Collect$$libinit$$00000004          0x08000178   Section        0  libinit2.o(.ARM.Collect$$libinit$$00000004)
    .ARM.Collect$$libinit$$00000005          0x08000178   Section        8  libinit2.o(.ARM.Collect$$libinit$$00000005)
    .ARM.Collect$$libinit$$0000000A          0x08000180   Section        0  libinit2.o(.ARM.Collect$$libinit$$0000000A)
    .ARM.Collect$$libinit$$0000000C          0x08000180   Section        0  libinit2.o(.ARM.Collect$$libinit$$0000000C)
    .ARM.Collect$$libinit$$0000000E          0x08000180   Section        0  libinit2.o(.ARM.Collect$$libinit$$0000000E)
    .ARM.Collect$$libinit$$0000000F          0x08000180   Section        6  libinit2.o(.ARM.Collect$$libinit$$0000000F)
    .ARM.Collect$$libinit$$00000011          0x08000186   Section        0  libinit2.o(.ARM.Collect$$libinit$$00000011)
    .ARM.Collect$$libinit$$00000013          0x08000186   Section        0  libinit2.o(.ARM.Collect$$libinit$$00000013)
    .ARM.Collect$$libinit$$00000015          0x08000186   Section        0  libinit2.o(.ARM.Collect$$libinit$$00000015)
    .ARM.Collect$$libinit$$00000016          0x08000186   Section       10  libinit2.o(.ARM.Collect$$libinit$$00000016)
    .ARM.Collect$$libinit$$00000017          0x08000190   Section        0  libinit2.o(.ARM.Collect$$libinit$$00000017)
    .ARM.Collect$$libinit$$00000019          0x08000190   Section        0  libinit2.o(.ARM.Collect$$libinit$$00000019)
    .ARM.Collect$$libinit$$0000001B          0x08000190   Section        0  libinit2.o(.ARM.Collect$$libinit$$0000001B)
    .ARM.Collect$$libinit$$0000001D          0x08000190   Section        0  libinit2.o(.ARM.Collect$$libinit$$0000001D)
    .ARM.Collect$$libinit$$0000001F          0x08000190   Section        0  libinit2.o(.ARM.Collect$$libinit$$0000001F)
    .ARM.Collect$$libinit$$00000021          0x08000190   Section        0  libinit2.o(.ARM.Collect$$libinit$$00000021)
    .ARM.Collect$$libinit$$00000023          0x08000190   Section        0  libinit2.o(.ARM.Collect$$libinit$$00000023)
    .ARM.Collect$$libinit$$00000025          0x08000190   Section        0  libinit2.o(.ARM.Collect$$libinit$$00000025)
    .ARM.Collect$$libinit$$0000002C          0x08000190   Section        0  libinit2.o(.ARM.Collect$$libinit$$0000002C)
    .ARM.Collect$$libinit$$0000002E          0x08000190   Section        0  libinit2.o(.ARM.Collect$$libinit$$0000002E)
    .ARM.Collect$$libinit$$00000030          0x08000190   Section        0  libinit2.o(.ARM.Collect$$libinit$$00000030)
    .ARM.Collect$$libinit$$00000032          0x08000190   Section        0  libinit2.o(.ARM.Collect$$libinit$$00000032)
    .ARM.Collect$$libinit$$00000033          0x08000190   Section        2  libinit2.o(.ARM.Collect$$libinit$$00000033)
    .ARM.Collect$$libshutdown$$00000000      0x08000192   Section        2  libshutdown.o(.ARM.Collect$$libshutdown$$00000000)
    .ARM.Collect$$libshutdown$$00000002      0x08000194   Section        0  libshutdown2.o(.ARM.Collect$$libshutdown$$00000002)
    .ARM.Collect$$libshutdown$$00000004      0x08000194   Section        0  libshutdown2.o(.ARM.Collect$$libshutdown$$00000004)
    .ARM.Collect$$libshutdown$$00000006      0x08000194   Section        0  libshutdown2.o(.ARM.Collect$$libshutdown$$00000006)
    .ARM.Collect$$libshutdown$$00000009      0x08000194   Section        0  libshutdown2.o(.ARM.Collect$$libshutdown$$00000009)
    .ARM.Collect$$libshutdown$$0000000C      0x08000194   Section        0  libshutdown2.o(.ARM.Collect$$libshutdown$$0000000C)
    .ARM.Collect$$libshutdown$$0000000E      0x08000194   Section        0  libshutdown2.o(.ARM.Collect$$libshutdown$$0000000E)
    .ARM.Collect$$libshutdown$$00000011      0x08000194   Section        0  libshutdown2.o(.ARM.Collect$$libshutdown$$00000011)
    .ARM.Collect$$libshutdown$$00000012      0x08000194   Section        2  libshutdown2.o(.ARM.Collect$$libshutdown$$00000012)
    .ARM.Collect$$rtentry$$00000000          0x08000196   Section        0  __rtentry.o(.ARM.Collect$$rtentry$$00000000)
    .ARM.Collect$$rtentry$$00000002          0x08000196   Section        0  __rtentry2.o(.ARM.Collect$$rtentry$$00000002)
    .ARM.Collect$$rtentry$$00000004          0x08000196   Section        6  __rtentry4.o(.ARM.Collect$$rtentry$$00000004)
    .ARM.Collect$$rtentry$$00000009          0x0800019c   Section        0  __rtentry2.o(.ARM.Collect$$rtentry$$00000009)
    .ARM.Collect$$rtentry$$0000000A          0x0800019c   Section        4  __rtentry2.o(.ARM.Collect$$rtentry$$0000000A)
    .ARM.Collect$$rtentry$$0000000C          0x080001a0   Section        0  __rtentry2.o(.ARM.Collect$$rtentry$$0000000C)
    .ARM.Collect$$rtentry$$0000000D          0x080001a0   Section        8  __rtentry2.o(.ARM.Collect$$rtentry$$0000000D)
    .ARM.Collect$$rtexit$$00000000           0x080001a8   Section        2  rtexit.o(.ARM.Collect$$rtexit$$00000000)
    .ARM.Collect$$rtexit$$00000002           0x080001aa   Section        0  rtexit2.o(.ARM.Collect$$rtexit$$00000002)
    .ARM.Collect$$rtexit$$00000003           0x080001aa   Section        4  rtexit2.o(.ARM.Collect$$rtexit$$00000003)
    .ARM.Collect$$rtexit$$00000004           0x080001ae   Section        6  rtexit2.o(.ARM.Collect$$rtexit$$00000004)
    .emb_text                                0x080001b4   Section      150  port.o(.emb_text)
    .emb_text                                0x0800024c   Section        0  maybetermalloc1.o(.emb_text)
    .text                                    0x0800024c   Section       64  startup_stm32f103xb.o(.text)
    .text                                    0x0800028c   Section        0  h1_alloc.o(.text)
    .text                                    0x080002ec   Section        0  noretval__2printf.o(.text)
    .text                                    0x08000304   Section        0  noretval__2sprintf.o(.text)
    .text                                    0x0800032c   Section        0  _printf_pad.o(.text)
    .text                                    0x0800037c   Section        0  _printf_dec.o(.text)
    .text                                    0x080003f4   Section        0  _printf_hex_int.o(.text)
    .text                                    0x0800044c   Section        0  __printf_flags_wp.o(.text)
    .text                                    0x08000584   Section        0  strcpy.o(.text)
    .text                                    0x080005cc   Section        0  strlen.o(.text)
    .text                                    0x0800060a   Section      138  rt_memcpy_v6.o(.text)
    .text                                    0x08000694   Section      100  rt_memcpy_w.o(.text)
    .text                                    0x080006f8   Section       78  rt_memclr_w.o(.text)
    .text                                    0x08000746   Section        0  heapauxi.o(.text)
    .text                                    0x0800074c   Section        8  rt_heap_descriptor_intlibspace.o(.text)
    .text                                    0x08000754   Section        0  hguard.o(.text)
    .text                                    0x08000758   Section        0  init_alloc.o(.text)
    .text                                    0x080007e2   Section        0  h1_init.o(.text)
    .text                                    0x080007f0   Section        0  h1_free.o(.text)
    .text                                    0x0800083e   Section        0  _printf_intcommon.o(.text)
    .text                                    0x080008f0   Section        0  _printf_fp_dec.o(.text)
    _fp_digits                               0x080008f3   Thumb Code   432  _printf_fp_dec.o(.text)
    .text                                    0x08000d10   Section        0  _printf_char_common.o(.text)
    _printf_input_char                       0x08000d11   Thumb Code    10  _printf_char_common.o(.text)
    .text                                    0x08000d40   Section        0  _sputc.o(.text)
    .text                                    0x08000d4c   Section        0  _printf_char_file.o(.text)
    .text                                    0x08000d70   Section        8  libspace.o(.text)
    .text                                    0x08000d78   Section        8  rt_locale_intlibspace.o(.text)
    .text                                    0x08000d80   Section        0  h1_extend.o(.text)
    .text                                    0x08000db4   Section      138  lludiv10.o(.text)
    .text                                    0x08000e40   Section        0  _printf_fp_infnan.o(.text)
    .text                                    0x08000ec0   Section        0  bigflt0.o(.text)
    .text                                    0x08000fa4   Section        0  ferror.o(.text)
    .text                                    0x08000fac   Section        0  defsig_rtmem_outer.o(.text)
    .text                                    0x08000fba   Section        2  use_no_semi.o(.text)
    .text                                    0x08000fbc   Section        0  indicate_semi.o(.text)
    .text                                    0x08000fbc   Section       74  sys_stackheap_outer.o(.text)
    .text                                    0x08001006   Section        0  exit.o(.text)
    .text                                    0x08001018   Section        0  defsig_exit.o(.text)
    .text                                    0x08001024   Section        0  defsig_rtmem_inner.o(.text)
    .text                                    0x08001074   Section      128  strcmpv7m.o(.text)
    .text                                    0x080010f4   Section        0  defsig_general.o(.text)
    .text                                    0x08001126   Section        0  sys_wrch.o(.text)
    CL$$btod_d2e                             0x08001134   Section       62  btod.o(CL$$btod_d2e)
    CL$$btod_d2e_denorm_low                  0x08001172   Section       70  btod.o(CL$$btod_d2e_denorm_low)
    CL$$btod_d2e_norm_op1                    0x080011b8   Section       96  btod.o(CL$$btod_d2e_norm_op1)
    CL$$btod_div_common                      0x08001218   Section      824  btod.o(CL$$btod_div_common)
    CL$$btod_e2e                             0x08001550   Section      220  btod.o(CL$$btod_e2e)
    CL$$btod_ediv                            0x0800162c   Section       42  btod.o(CL$$btod_ediv)
    CL$$btod_emul                            0x08001656   Section       42  btod.o(CL$$btod_emul)
    CL$$btod_mult_common                     0x08001680   Section      580  btod.o(CL$$btod_mult_common)
    i.ADC_ConversionStop_Disable             0x080018c4   Section        0  stm32f1xx_hal_adc.o(i.ADC_ConversionStop_Disable)
    i.ADC_Enable                             0x0800191c   Section        0  stm32f1xx_hal_adc.o(i.ADC_Enable)
    i.BH1750_Init                            0x08001998   Section        0  bh1750.o(i.BH1750_Init)
    i.BH1750_Read                            0x080019b8   Section        0  bh1750.o(i.BH1750_Read)
    i.BH1750_WriteByte                       0x080019e4   Section        0  bh1750.o(i.BH1750_WriteByte)
    i.BMP180_Convert                         0x08001a00   Section        0  bmp180.o(i.BMP180_Convert)
    i.BMP180_Init                            0x08001acc   Section        0  bmp180.o(i.BMP180_Init)
    i.BMP180_Read_Pressure                   0x08001b30   Section        0  bmp180.o(i.BMP180_Read_Pressure)
    i.BMP180_Read_Temperature                0x08001b9c   Section        0  bmp180.o(i.BMP180_Read_Temperature)
    i.BusFault_Handler                       0x08001bf8   Section        0  stm32f1xx_it.o(i.BusFault_Handler)
    i.ClearBitMask                           0x08001c18   Section        0  rc522.o(i.ClearBitMask)
    i.Create_Empty_Queue                     0x08001c30   Section        0  squeue.o(i.Create_Empty_Queue)
    i.DHT11_GPIO_Input                       0x08001c54   Section        0  dht11.o(i.DHT11_GPIO_Input)
    i.DHT11_GPIO_Output                      0x08001c74   Section        0  dht11.o(i.DHT11_GPIO_Output)
    i.DHT11_Read_Bit                         0x08001c94   Section        0  dht11.o(i.DHT11_Read_Bit)
    i.DHT11_Read_Byte                        0x08001cd0   Section        0  dht11.o(i.DHT11_Read_Byte)
    i.DHT11_Read_Data                        0x08001cf0   Section        0  dht11.o(i.DHT11_Read_Data)
    i.DHT11_Reset                            0x08001d78   Section        0  dht11.o(i.DHT11_Reset)
    i.DHT11_Scan                             0x08001dac   Section        0  dht11.o(i.DHT11_Scan)
    i.DMA1_Channel2_IRQHandler               0x08001db8   Section        0  stm32f1xx_it.o(i.DMA1_Channel2_IRQHandler)
    i.DMA1_Channel3_IRQHandler               0x08001dc4   Section        0  stm32f1xx_it.o(i.DMA1_Channel3_IRQHandler)
    i.DMA1_Channel4_IRQHandler               0x08001dd0   Section        0  stm32f1xx_it.o(i.DMA1_Channel4_IRQHandler)
    i.DMA1_Channel5_IRQHandler               0x08001ddc   Section        0  stm32f1xx_it.o(i.DMA1_Channel5_IRQHandler)
    i.DMA_SetConfig                          0x08001de8   Section        0  stm32f1xx_hal_dma.o(i.DMA_SetConfig)
    DMA_SetConfig                            0x08001de9   Thumb Code    42  stm32f1xx_hal_dma.o(i.DMA_SetConfig)
    i.DebugMon_Handler                       0x08001e12   Section        0  stm32f1xx_it.o(i.DebugMon_Handler)
    i.Delay_Us                               0x08001e14   Section        0  dht11.o(i.Delay_Us)
    i.Dequeue                                0x08001e44   Section        0  squeue.o(i.Dequeue)
    i.ESP8266OK_Status                       0x08001e74   Section        0  esp8266.o(i.ESP8266OK_Status)
    i.ESP8266_Connect_Server                 0x08001e9c   Section        0  esp8266.o(i.ESP8266_Connect_Server)
    i.ESP8266_Connect_WIFI                   0x080020a4   Section        0  esp8266.o(i.ESP8266_Connect_WIFI)
    i.ESP8266_Disconnect                     0x080021a4   Section        0  esp8266.o(i.ESP8266_Disconnect)
    i.ESP8266_Test                           0x08002298   Section        0  esp8266.o(i.ESP8266_Test)
    i.EXTI15_10_IRQHandler                   0x0800231c   Section        0  stm32f1xx_it.o(i.EXTI15_10_IRQHandler)
    i.EXTI9_5_IRQHandler                     0x08002342   Section        0  stm32f1xx_it.o(i.EXTI9_5_IRQHandler)
    i.Enqueue                                0x08002356   Section        0  squeue.o(i.Enqueue)
    i.Enqueue_Bytes                          0x08002384   Section        0  squeue.o(i.Enqueue_Bytes)
    i.Error_Handler                          0x080023b0   Section        0  main.o(i.Error_Handler)
    i.HAL_ADCEx_Calibration_Start            0x080023d4   Section        0  stm32f1xx_hal_adc_ex.o(i.HAL_ADCEx_Calibration_Start)
    i.HAL_ADC_ConfigChannel                  0x080024ac   Section        0  stm32f1xx_hal_adc.o(i.HAL_ADC_ConfigChannel)
    i.HAL_ADC_GetValue                       0x080025a8   Section        0  stm32f1xx_hal_adc.o(i.HAL_ADC_GetValue)
    i.HAL_ADC_Init                           0x080025b0   Section        0  stm32f1xx_hal_adc.o(i.HAL_ADC_Init)
    i.HAL_ADC_MspInit                        0x080026cc   Section        0  adc.o(i.HAL_ADC_MspInit)
    i.HAL_ADC_PollForConversion              0x08002724   Section        0  stm32f1xx_hal_adc.o(i.HAL_ADC_PollForConversion)
    i.HAL_ADC_Start                          0x08002860   Section        0  stm32f1xx_hal_adc.o(i.HAL_ADC_Start)
    i.HAL_CAN_ErrorCallback                  0x08002920   Section        0  stm32f1xx_hal_can.o(i.HAL_CAN_ErrorCallback)
    i.HAL_CAN_GetRxMessage                   0x08002922   Section        0  stm32f1xx_hal_can.o(i.HAL_CAN_GetRxMessage)
    i.HAL_CAN_IRQHandler                     0x08002a0a   Section        0  stm32f1xx_hal_can.o(i.HAL_CAN_IRQHandler)
    i.HAL_CAN_Init                           0x08002c06   Section        0  stm32f1xx_hal_can.o(i.HAL_CAN_Init)
    i.HAL_CAN_MspInit                        0x08002d20   Section        0  can.o(i.HAL_CAN_MspInit)
    i.HAL_CAN_RxFifo0FullCallback            0x08002d9c   Section        0  stm32f1xx_hal_can.o(i.HAL_CAN_RxFifo0FullCallback)
    i.HAL_CAN_RxFifo0MsgPendingCallback      0x08002d9e   Section        0  stm32f1xx_hal_can.o(i.HAL_CAN_RxFifo0MsgPendingCallback)
    i.HAL_CAN_RxFifo1FullCallback            0x08002da0   Section        0  stm32f1xx_hal_can.o(i.HAL_CAN_RxFifo1FullCallback)
    i.HAL_CAN_RxFifo1MsgPendingCallback      0x08002da4   Section        0  stm32f1xx_it.o(i.HAL_CAN_RxFifo1MsgPendingCallback)
    i.HAL_CAN_SleepCallback                  0x08002df0   Section        0  stm32f1xx_hal_can.o(i.HAL_CAN_SleepCallback)
    i.HAL_CAN_TxMailbox0AbortCallback        0x08002df2   Section        0  stm32f1xx_hal_can.o(i.HAL_CAN_TxMailbox0AbortCallback)
    i.HAL_CAN_TxMailbox0CompleteCallback     0x08002df4   Section        0  stm32f1xx_hal_can.o(i.HAL_CAN_TxMailbox0CompleteCallback)
    i.HAL_CAN_TxMailbox1AbortCallback        0x08002df6   Section        0  stm32f1xx_hal_can.o(i.HAL_CAN_TxMailbox1AbortCallback)
    i.HAL_CAN_TxMailbox1CompleteCallback     0x08002df8   Section        0  stm32f1xx_hal_can.o(i.HAL_CAN_TxMailbox1CompleteCallback)
    i.HAL_CAN_TxMailbox2AbortCallback        0x08002dfa   Section        0  stm32f1xx_hal_can.o(i.HAL_CAN_TxMailbox2AbortCallback)
    i.HAL_CAN_TxMailbox2CompleteCallback     0x08002dfc   Section        0  stm32f1xx_hal_can.o(i.HAL_CAN_TxMailbox2CompleteCallback)
    i.HAL_CAN_WakeUpFromRxMsgCallback        0x08002dfe   Section        0  stm32f1xx_hal_can.o(i.HAL_CAN_WakeUpFromRxMsgCallback)
    i.HAL_DMA_Abort                          0x08002e00   Section        0  stm32f1xx_hal_dma.o(i.HAL_DMA_Abort)
    i.HAL_DMA_Abort_IT                       0x08002e48   Section        0  stm32f1xx_hal_dma.o(i.HAL_DMA_Abort_IT)
    i.HAL_DMA_IRQHandler                     0x08002ee0   Section        0  stm32f1xx_hal_dma.o(i.HAL_DMA_IRQHandler)
    i.HAL_DMA_Init                           0x08003034   Section        0  stm32f1xx_hal_dma.o(i.HAL_DMA_Init)
    i.HAL_DMA_Start_IT                       0x08003090   Section        0  stm32f1xx_hal_dma.o(i.HAL_DMA_Start_IT)
    i.HAL_Delay                              0x08003100   Section        0  stm32f1xx_hal.o(i.HAL_Delay)
    i.HAL_GPIO_EXTI_Callback                 0x08003124   Section        0  stm32f1xx_it.o(i.HAL_GPIO_EXTI_Callback)
    i.HAL_GPIO_EXTI_IRQHandler               0x08003168   Section        0  stm32f1xx_hal_gpio.o(i.HAL_GPIO_EXTI_IRQHandler)
    i.HAL_GPIO_Init                          0x08003180   Section        0  stm32f1xx_hal_gpio.o(i.HAL_GPIO_Init)
    i.HAL_GPIO_ReadPin                       0x08003360   Section        0  stm32f1xx_hal_gpio.o(i.HAL_GPIO_ReadPin)
    i.HAL_GPIO_WritePin                      0x0800336a   Section        0  stm32f1xx_hal_gpio.o(i.HAL_GPIO_WritePin)
    i.HAL_GetTick                            0x08003374   Section        0  stm32f1xx_hal.o(i.HAL_GetTick)
    i.HAL_I2C_Init                           0x08003380   Section        0  stm32f1xx_hal_i2c.o(i.HAL_I2C_Init)
    i.HAL_I2C_Master_Receive                 0x08003508   Section        0  stm32f1xx_hal_i2c.o(i.HAL_I2C_Master_Receive)
    i.HAL_I2C_Master_Transmit                0x0800374c   Section        0  stm32f1xx_hal_i2c.o(i.HAL_I2C_Master_Transmit)
    i.HAL_I2C_MspInit                        0x08003878   Section        0  i2c.o(i.HAL_I2C_MspInit)
    i.HAL_IncTick                            0x080038d4   Section        0  stm32f1xx_hal.o(i.HAL_IncTick)
    i.HAL_Init                               0x080038e4   Section        0  stm32f1xx_hal.o(i.HAL_Init)
    i.HAL_InitTick                           0x08003908   Section        0  stm32f1xx_hal_timebase_tim.o(i.HAL_InitTick)
    i.HAL_MspInit                            0x08003994   Section        0  stm32f1xx_hal_msp.o(i.HAL_MspInit)
    i.HAL_NVIC_EnableIRQ                     0x080039c8   Section        0  stm32f1xx_hal_cortex.o(i.HAL_NVIC_EnableIRQ)
    i.HAL_NVIC_SetPriority                   0x080039e4   Section        0  stm32f1xx_hal_cortex.o(i.HAL_NVIC_SetPriority)
    i.HAL_NVIC_SetPriorityGrouping           0x08003a24   Section        0  stm32f1xx_hal_cortex.o(i.HAL_NVIC_SetPriorityGrouping)
    i.HAL_RCCEx_GetPeriphCLKFreq             0x08003a48   Section        0  stm32f1xx_hal_rcc_ex.o(i.HAL_RCCEx_GetPeriphCLKFreq)
    i.HAL_RCCEx_PeriphCLKConfig              0x08003b10   Section        0  stm32f1xx_hal_rcc_ex.o(i.HAL_RCCEx_PeriphCLKConfig)
    i.HAL_RCC_ClockConfig                    0x08003bfc   Section        0  stm32f1xx_hal_rcc.o(i.HAL_RCC_ClockConfig)
    i.HAL_RCC_GetClockConfig                 0x08003d28   Section        0  stm32f1xx_hal_rcc.o(i.HAL_RCC_GetClockConfig)
    i.HAL_RCC_GetPCLK1Freq                   0x08003d68   Section        0  stm32f1xx_hal_rcc.o(i.HAL_RCC_GetPCLK1Freq)
    i.HAL_RCC_GetPCLK2Freq                   0x08003d88   Section        0  stm32f1xx_hal_rcc.o(i.HAL_RCC_GetPCLK2Freq)
    i.HAL_RCC_GetSysClockFreq                0x08003da8   Section        0  stm32f1xx_hal_rcc.o(i.HAL_RCC_GetSysClockFreq)
    i.HAL_RCC_OscConfig                      0x08003e14   Section        0  stm32f1xx_hal_rcc.o(i.HAL_RCC_OscConfig)
    i.HAL_SPI_Init                           0x08004134   Section        0  stm32f1xx_hal_spi.o(i.HAL_SPI_Init)
    i.HAL_SPI_MspInit                        0x080041e8   Section        0  spi.o(i.HAL_SPI_MspInit)
    i.HAL_SPI_TransmitReceive                0x08004258   Section        0  stm32f1xx_hal_spi.o(i.HAL_SPI_TransmitReceive)
    i.HAL_TIMEx_BreakCallback                0x0800443a   Section        0  stm32f1xx_hal_tim_ex.o(i.HAL_TIMEx_BreakCallback)
    i.HAL_TIMEx_CommutCallback               0x0800443c   Section        0  stm32f1xx_hal_tim_ex.o(i.HAL_TIMEx_CommutCallback)
    i.HAL_TIMEx_MasterConfigSynchronization  0x08004440   Section        0  stm32f1xx_hal_tim_ex.o(i.HAL_TIMEx_MasterConfigSynchronization)
    i.HAL_TIM_Base_Init                      0x080044a8   Section        0  stm32f1xx_hal_tim.o(i.HAL_TIM_Base_Init)
    i.HAL_TIM_Base_MspInit                   0x08004504   Section        0  tim.o(i.HAL_TIM_Base_MspInit)
    i.HAL_TIM_Base_Start                     0x0800452c   Section        0  stm32f1xx_hal_tim.o(i.HAL_TIM_Base_Start)
    i.HAL_TIM_Base_Start_IT                  0x0800457c   Section        0  stm32f1xx_hal_tim.o(i.HAL_TIM_Base_Start_IT)
    i.HAL_TIM_Base_Stop                      0x080045d4   Section        0  stm32f1xx_hal_tim.o(i.HAL_TIM_Base_Stop)
    i.HAL_TIM_ConfigClockSource              0x080045fa   Section        0  stm32f1xx_hal_tim.o(i.HAL_TIM_ConfigClockSource)
    i.HAL_TIM_IC_CaptureCallback             0x080046d0   Section        0  stm32f1xx_hal_tim.o(i.HAL_TIM_IC_CaptureCallback)
    i.HAL_TIM_IRQHandler                     0x080046d2   Section        0  stm32f1xx_hal_tim.o(i.HAL_TIM_IRQHandler)
    i.HAL_TIM_OC_DelayElapsedCallback        0x08004838   Section        0  stm32f1xx_hal_tim.o(i.HAL_TIM_OC_DelayElapsedCallback)
    i.HAL_TIM_PWM_PulseFinishedCallback      0x0800483a   Section        0  stm32f1xx_hal_tim.o(i.HAL_TIM_PWM_PulseFinishedCallback)
    i.HAL_TIM_PeriodElapsedCallback          0x0800483c   Section        0  main.o(i.HAL_TIM_PeriodElapsedCallback)
    i.HAL_TIM_TriggerCallback                0x08004904   Section        0  stm32f1xx_hal_tim.o(i.HAL_TIM_TriggerCallback)
    i.HAL_UARTEx_RxEventCallback             0x08004906   Section        0  stm32f1xx_hal_uart.o(i.HAL_UARTEx_RxEventCallback)
    i.HAL_UART_ErrorCallback                 0x08004908   Section        0  stm32f1xx_hal_uart.o(i.HAL_UART_ErrorCallback)
    i.HAL_UART_IRQHandler                    0x0800490c   Section        0  stm32f1xx_hal_uart.o(i.HAL_UART_IRQHandler)
    i.HAL_UART_Init                          0x08004b18   Section        0  stm32f1xx_hal_uart.o(i.HAL_UART_Init)
    i.HAL_UART_MspInit                       0x08004b7c   Section        0  usart.o(i.HAL_UART_MspInit)
    i.HAL_UART_Receive_DMA                   0x08004d70   Section        0  stm32f1xx_hal_uart.o(i.HAL_UART_Receive_DMA)
    i.HAL_UART_RxCpltCallback                0x08004d9c   Section        0  stm32f1xx_it.o(i.HAL_UART_RxCpltCallback)
    i.HAL_UART_RxHalfCpltCallback            0x08004e04   Section        0  stm32f1xx_it.o(i.HAL_UART_RxHalfCpltCallback)
    i.HAL_UART_Transmit                      0x08004e68   Section        0  stm32f1xx_hal_uart.o(i.HAL_UART_Transmit)
    i.HAL_UART_TxCpltCallback                0x08004f1a   Section        0  stm32f1xx_hal_uart.o(i.HAL_UART_TxCpltCallback)
    i.HardFault_Handler                      0x08004f1c   Section        0  stm32f1xx_it.o(i.HardFault_Handler)
    i.I2C_IsAcknowledgeFailed                0x08004f40   Section        0  stm32f1xx_hal_i2c.o(i.I2C_IsAcknowledgeFailed)
    I2C_IsAcknowledgeFailed                  0x08004f41   Thumb Code    46  stm32f1xx_hal_i2c.o(i.I2C_IsAcknowledgeFailed)
    i.I2C_MasterRequestRead                  0x08004f70   Section        0  stm32f1xx_hal_i2c.o(i.I2C_MasterRequestRead)
    I2C_MasterRequestRead                    0x08004f71   Thumb Code   230  stm32f1xx_hal_i2c.o(i.I2C_MasterRequestRead)
    i.I2C_MasterRequestWrite                 0x0800505c   Section        0  stm32f1xx_hal_i2c.o(i.I2C_MasterRequestWrite)
    I2C_MasterRequestWrite                   0x0800505d   Thumb Code   150  stm32f1xx_hal_i2c.o(i.I2C_MasterRequestWrite)
    i.I2C_WaitOnBTFFlagUntilTimeout          0x080050f8   Section        0  stm32f1xx_hal_i2c.o(i.I2C_WaitOnBTFFlagUntilTimeout)
    I2C_WaitOnBTFFlagUntilTimeout            0x080050f9   Thumb Code    76  stm32f1xx_hal_i2c.o(i.I2C_WaitOnBTFFlagUntilTimeout)
    i.I2C_WaitOnFlagUntilTimeout             0x08005144   Section        0  stm32f1xx_hal_i2c.o(i.I2C_WaitOnFlagUntilTimeout)
    I2C_WaitOnFlagUntilTimeout               0x08005145   Thumb Code   104  stm32f1xx_hal_i2c.o(i.I2C_WaitOnFlagUntilTimeout)
    i.I2C_WaitOnMasterAddressFlagUntilTimeout 0x080051ac   Section        0  stm32f1xx_hal_i2c.o(i.I2C_WaitOnMasterAddressFlagUntilTimeout)
    I2C_WaitOnMasterAddressFlagUntilTimeout  0x080051ad   Thumb Code   150  stm32f1xx_hal_i2c.o(i.I2C_WaitOnMasterAddressFlagUntilTimeout)
    i.I2C_WaitOnRXNEFlagUntilTimeout         0x08005242   Section        0  stm32f1xx_hal_i2c.o(i.I2C_WaitOnRXNEFlagUntilTimeout)
    I2C_WaitOnRXNEFlagUntilTimeout           0x08005243   Thumb Code   102  stm32f1xx_hal_i2c.o(i.I2C_WaitOnRXNEFlagUntilTimeout)
    i.I2C_WaitOnTXEFlagUntilTimeout          0x080052a8   Section        0  stm32f1xx_hal_i2c.o(i.I2C_WaitOnTXEFlagUntilTimeout)
    I2C_WaitOnTXEFlagUntilTimeout            0x080052a9   Thumb Code    76  stm32f1xx_hal_i2c.o(i.I2C_WaitOnTXEFlagUntilTimeout)
    i.M500PcdConfigISOType                   0x080052f4   Section        0  rc522.o(i.M500PcdConfigISOType)
    i.MX_ADC1_Init                           0x0800534c   Section        0  adc.o(i.MX_ADC1_Init)
    i.MX_CAN_Init                            0x0800539c   Section        0  can.o(i.MX_CAN_Init)
    i.MX_DMA_Init                            0x080053e4   Section        0  dma.o(i.MX_DMA_Init)
    i.MX_FREERTOS_Init                       0x08005440   Section        0  freertos.o(i.MX_FREERTOS_Init)
    i.MX_GPIO_Init                           0x080054b8   Section        0  gpio.o(i.MX_GPIO_Init)
    i.MX_I2C1_Init                           0x080055d8   Section        0  i2c.o(i.MX_I2C1_Init)
    i.MX_SPI1_Init                           0x08005618   Section        0  spi.o(i.MX_SPI1_Init)
    i.MX_TIM3_Init                           0x08005660   Section        0  tim.o(i.MX_TIM3_Init)
    i.MX_USART1_UART_Init                    0x080056c8   Section        0  usart.o(i.MX_USART1_UART_Init)
    i.MX_USART2_UART_Init                    0x08005700   Section        0  usart.o(i.MX_USART2_UART_Init)
    i.MX_USART3_UART_Init                    0x08005738   Section        0  usart.o(i.MX_USART3_UART_Init)
    i.MemManage_Handler                      0x08005770   Section        0  stm32f1xx_it.o(i.MemManage_Handler)
    i.NMI_Handler                            0x08005794   Section        0  stm32f1xx_it.o(i.NMI_Handler)
    i.OLED_CLS                               0x080057b0   Section        0  oled.o(i.OLED_CLS)
    i.OLED_Fill                              0x080057b8   Section        0  oled.o(i.OLED_Fill)
    i.OLED_Init                              0x080057f0   Section        0  oled.o(i.OLED_Init)
    i.OLED_SetPos                            0x080058a4   Section        0  oled.o(i.OLED_SetPos)
    i.OLED_ShowStr                           0x080058cc   Section        0  oled.o(i.OLED_ShowStr)
    i.PcdAntennaOff                          0x080059a4   Section        0  rc522.o(i.PcdAntennaOff)
    i.PcdAntennaOn                           0x080059ac   Section        0  rc522.o(i.PcdAntennaOn)
    i.PcdAnticoll                            0x080059c6   Section        0  rc522.o(i.PcdAnticoll)
    i.PcdComMF522                            0x08005a30   Section        0  rc522.o(i.PcdComMF522)
    i.PcdRequest                             0x08005b50   Section        0  rc522.o(i.PcdRequest)
    i.PcdReset                               0x08005ba4   Section        0  rc522.o(i.PcdReset)
    i.Queue_Is_Empty                         0x08005c28   Section        0  squeue.o(i.Queue_Is_Empty)
    i.Queue_Is_Full                          0x08005c38   Section        0  squeue.o(i.Queue_Is_Full)
    i.RC522_Init                             0x08005c5a   Section        0  rc522.o(i.RC522_Init)
    i.ReadRawRC                              0x08005c78   Section        0  rc522.o(i.ReadRawRC)
    i.SPIWriteByte                           0x08005cb0   Section        0  rc522.o(i.SPIWriteByte)
    i.SPI_EndRxTxTransaction                 0x08005cd0   Section        0  stm32f1xx_hal_spi.o(i.SPI_EndRxTxTransaction)
    SPI_EndRxTxTransaction                   0x08005cd1   Thumb Code    32  stm32f1xx_hal_spi.o(i.SPI_EndRxTxTransaction)
    i.SPI_WaitFlagStateUntilTimeout          0x08005cf0   Section        0  stm32f1xx_hal_spi.o(i.SPI_WaitFlagStateUntilTimeout)
    SPI_WaitFlagStateUntilTimeout            0x08005cf1   Thumb Code   180  stm32f1xx_hal_spi.o(i.SPI_WaitFlagStateUntilTimeout)
    i.STM32_Control                          0x08005da8   Section        0  control.o(i.STM32_Control)
    i.SetBitMask                             0x080063e8   Section        0  rc522.o(i.SetBitMask)
    i.StartDefaultTask                       0x08006400   Section        0  freertos.o(i.StartDefaultTask)
    i.StartTaskEsp8266                       0x0800640c   Section        0  freertos.o(i.StartTaskEsp8266)
    i.StartTaskUart1                         0x08006454   Section        0  freertos.o(i.StartTaskUart1)
    i.StartTaskUart3                         0x080064a8   Section        0  freertos.o(i.StartTaskUart3)
    i.SysTick_Handler                        0x080064fc   Section        0  port.o(i.SysTick_Handler)
    i.SystemClock_Config                     0x08006528   Section        0  main.o(i.SystemClock_Config)
    i.SystemInit                             0x08006594   Section        0  system_stm32f1xx.o(i.SystemInit)
    i.TIM1_UP_IRQHandler                     0x08006598   Section        0  stm32f1xx_it.o(i.TIM1_UP_IRQHandler)
    i.TIM_Base_SetConfig                     0x080065a4   Section        0  stm32f1xx_hal_tim.o(i.TIM_Base_SetConfig)
    i.TIM_ETR_SetConfig                      0x08006610   Section        0  stm32f1xx_hal_tim.o(i.TIM_ETR_SetConfig)
    i.TIM_ITRx_SetConfig                     0x08006624   Section        0  stm32f1xx_hal_tim.o(i.TIM_ITRx_SetConfig)
    TIM_ITRx_SetConfig                       0x08006625   Thumb Code    16  stm32f1xx_hal_tim.o(i.TIM_ITRx_SetConfig)
    i.TIM_TI1_ConfigInputStage               0x08006634   Section        0  stm32f1xx_hal_tim.o(i.TIM_TI1_ConfigInputStage)
    TIM_TI1_ConfigInputStage                 0x08006635   Thumb Code    34  stm32f1xx_hal_tim.o(i.TIM_TI1_ConfigInputStage)
    i.TIM_TI2_ConfigInputStage               0x08006656   Section        0  stm32f1xx_hal_tim.o(i.TIM_TI2_ConfigInputStage)
    TIM_TI2_ConfigInputStage                 0x08006657   Thumb Code    36  stm32f1xx_hal_tim.o(i.TIM_TI2_ConfigInputStage)
    i.UART_DMAAbortOnError                   0x0800667a   Section        0  stm32f1xx_hal_uart.o(i.UART_DMAAbortOnError)
    UART_DMAAbortOnError                     0x0800667b   Thumb Code    16  stm32f1xx_hal_uart.o(i.UART_DMAAbortOnError)
    i.UART_DMAError                          0x0800668a   Section        0  stm32f1xx_hal_uart.o(i.UART_DMAError)
    UART_DMAError                            0x0800668b   Thumb Code    74  stm32f1xx_hal_uart.o(i.UART_DMAError)
    i.UART_DMAReceiveCplt                    0x080066d4   Section        0  stm32f1xx_hal_uart.o(i.UART_DMAReceiveCplt)
    UART_DMAReceiveCplt                      0x080066d5   Thumb Code    90  stm32f1xx_hal_uart.o(i.UART_DMAReceiveCplt)
    i.UART_DMARxHalfCplt                     0x0800672e   Section        0  stm32f1xx_hal_uart.o(i.UART_DMARxHalfCplt)
    UART_DMARxHalfCplt                       0x0800672f   Thumb Code    26  stm32f1xx_hal_uart.o(i.UART_DMARxHalfCplt)
    i.UART_EndRxTransfer                     0x08006748   Section        0  stm32f1xx_hal_uart.o(i.UART_EndRxTransfer)
    UART_EndRxTransfer                       0x08006749   Thumb Code    48  stm32f1xx_hal_uart.o(i.UART_EndRxTransfer)
    i.UART_EndTxTransfer                     0x08006778   Section        0  stm32f1xx_hal_uart.o(i.UART_EndTxTransfer)
    UART_EndTxTransfer                       0x08006779   Thumb Code    18  stm32f1xx_hal_uart.o(i.UART_EndTxTransfer)
    i.UART_Receive_IT                        0x0800678a   Section        0  stm32f1xx_hal_uart.o(i.UART_Receive_IT)
    UART_Receive_IT                          0x0800678b   Thumb Code   182  stm32f1xx_hal_uart.o(i.UART_Receive_IT)
    i.UART_SetConfig                         0x08006840   Section        0  stm32f1xx_hal_uart.o(i.UART_SetConfig)
    UART_SetConfig                           0x08006841   Thumb Code   178  stm32f1xx_hal_uart.o(i.UART_SetConfig)
    i.UART_Start_Receive_DMA                 0x080068f8   Section        0  stm32f1xx_hal_uart.o(i.UART_Start_Receive_DMA)
    i.UART_WaitOnFlagUntilTimeout            0x08006968   Section        0  stm32f1xx_hal_uart.o(i.UART_WaitOnFlagUntilTimeout)
    UART_WaitOnFlagUntilTimeout              0x08006969   Thumb Code   100  stm32f1xx_hal_uart.o(i.UART_WaitOnFlagUntilTimeout)
    i.USART1_IRQHandler                      0x080069cc   Section        0  stm32f1xx_it.o(i.USART1_IRQHandler)
    i.USART2_IRQHandler                      0x080069e4   Section        0  stm32f1xx_it.o(i.USART2_IRQHandler)
    i.USART3_IRQHandler                      0x080069f0   Section        0  stm32f1xx_it.o(i.USART3_IRQHandler)
    i.USB_LP_CAN1_RX0_IRQHandler             0x08006a08   Section        0  stm32f1xx_it.o(i.USB_LP_CAN1_RX0_IRQHandler)
    i.USER_UART_IRQHandler                   0x08006a14   Section        0  stm32f1xx_it.o(i.USER_UART_IRQHandler)
    i.UsageFault_Handler                     0x08006abc   Section        0  stm32f1xx_it.o(i.UsageFault_Handler)
    i.WriteCmd                               0x08006ae0   Section        0  oled.o(i.WriteCmd)
    i.WriteDat                               0x08006b04   Section        0  oled.o(i.WriteDat)
    i.WriteRawRC                             0x08006b28   Section        0  rc522.o(i.WriteRawRC)
    i.__ARM_fpclassify                       0x08006b5c   Section        0  fpclassify.o(i.__ARM_fpclassify)
    i.__NVIC_SetPriority                     0x08006b84   Section        0  stm32f1xx_hal_cortex.o(i.__NVIC_SetPriority)
    __NVIC_SetPriority                       0x08006b85   Thumb Code    32  stm32f1xx_hal_cortex.o(i.__NVIC_SetPriority)
    i._is_digit                              0x08006ba4   Section        0  __printf_wp.o(i._is_digit)
    i._sys_exit                              0x08006bb2   Section        0  usart.o(i._sys_exit)
    i.bmp180_read_byte                       0x08006bb4   Section        0  bmp180.o(i.bmp180_read_byte)
    i.fputc                                  0x08006bec   Section        0  usart.o(i.fputc)
    i.inHandlerMode                          0x08006c04   Section        0  cmsis_os.o(i.inHandlerMode)
    inHandlerMode                            0x08006c05   Thumb Code    12  cmsis_os.o(i.inHandlerMode)
    i.main                                   0x08006c10   Section        0  main.o(i.main)
    i.makeFreeRtosPriority                   0x08006d0c   Section        0  cmsis_os.o(i.makeFreeRtosPriority)
    makeFreeRtosPriority                     0x08006d0d   Thumb Code    12  cmsis_os.o(i.makeFreeRtosPriority)
    i.osDelay                                0x08006d18   Section        0  cmsis_os.o(i.osDelay)
    i.osKernelStart                          0x08006d26   Section        0  cmsis_os.o(i.osKernelStart)
    i.osMutexCreate                          0x08006d30   Section        0  cmsis_os.o(i.osMutexCreate)
    i.osMutexRelease                         0x08006d40   Section        0  cmsis_os.o(i.osMutexRelease)
    i.osMutexWait                            0x08006d90   Section        0  cmsis_os.o(i.osMutexWait)
    i.osThreadCreate                         0x08006df4   Section        0  cmsis_os.o(i.osThreadCreate)
    i.prvAddCurrentTaskToDelayedList         0x08006e48   Section        0  tasks.o(i.prvAddCurrentTaskToDelayedList)
    prvAddCurrentTaskToDelayedList           0x08006e49   Thumb Code   102  tasks.o(i.prvAddCurrentTaskToDelayedList)
    i.prvAddNewTaskToReadyList               0x08006eb8   Section        0  tasks.o(i.prvAddNewTaskToReadyList)
    prvAddNewTaskToReadyList                 0x08006eb9   Thumb Code   194  tasks.o(i.prvAddNewTaskToReadyList)
    i.prvCopyDataFromQueue                   0x08006f88   Section        0  queue.o(i.prvCopyDataFromQueue)
    prvCopyDataFromQueue                     0x08006f89   Thumb Code    38  queue.o(i.prvCopyDataFromQueue)
    i.prvCopyDataToQueue                     0x08006fae   Section        0  queue.o(i.prvCopyDataToQueue)
    prvCopyDataToQueue                       0x08006faf   Thumb Code   108  queue.o(i.prvCopyDataToQueue)
    i.prvDeleteTCB                           0x0800701a   Section        0  tasks.o(i.prvDeleteTCB)
    prvDeleteTCB                             0x0800701b   Thumb Code    52  tasks.o(i.prvDeleteTCB)
    i.prvHeapInit                            0x08007050   Section        0  heap_4.o(i.prvHeapInit)
    prvHeapInit                              0x08007051   Thumb Code    66  heap_4.o(i.prvHeapInit)
    i.prvIdleTask                            0x0800709c   Section        0  tasks.o(i.prvIdleTask)
    prvIdleTask                              0x0800709d   Thumb Code    82  tasks.o(i.prvIdleTask)
    i.prvInitialiseMutex                     0x080070fc   Section        0  queue.o(i.prvInitialiseMutex)
    prvInitialiseMutex                       0x080070fd   Thumb Code    22  queue.o(i.prvInitialiseMutex)
    i.prvInitialiseNewQueue                  0x08007112   Section        0  queue.o(i.prvInitialiseNewQueue)
    prvInitialiseNewQueue                    0x08007113   Thumb Code    22  queue.o(i.prvInitialiseNewQueue)
    i.prvInitialiseNewTask                   0x08007128   Section        0  tasks.o(i.prvInitialiseNewTask)
    prvInitialiseNewTask                     0x08007129   Thumb Code   144  tasks.o(i.prvInitialiseNewTask)
    i.prvInsertBlockIntoFreeList             0x080071b8   Section        0  heap_4.o(i.prvInsertBlockIntoFreeList)
    prvInsertBlockIntoFreeList               0x080071b9   Thumb Code    72  heap_4.o(i.prvInsertBlockIntoFreeList)
    i.prvIsQueueEmpty                        0x08007204   Section        0  queue.o(i.prvIsQueueEmpty)
    prvIsQueueEmpty                          0x08007205   Thumb Code    28  queue.o(i.prvIsQueueEmpty)
    i.prvResetNextTaskUnblockTime            0x08007220   Section        0  tasks.o(i.prvResetNextTaskUnblockTime)
    prvResetNextTaskUnblockTime              0x08007221   Thumb Code    26  tasks.o(i.prvResetNextTaskUnblockTime)
    i.prvTaskExitError                       0x08007240   Section        0  port.o(i.prvTaskExitError)
    prvTaskExitError                         0x08007241   Thumb Code    36  port.o(i.prvTaskExitError)
    i.prvUnlockQueue                         0x08007268   Section        0  queue.o(i.prvUnlockQueue)
    prvUnlockQueue                           0x08007269   Thumb Code   106  queue.o(i.prvUnlockQueue)
    i.pvPortMalloc                           0x080072d4   Section        0  heap_4.o(i.pvPortMalloc)
    i.pvTaskIncrementMutexHeldCount          0x080073ac   Section        0  tasks.o(i.pvTaskIncrementMutexHeldCount)
    i.pxPortInitialiseStack                  0x080073c4   Section        0  port.o(i.pxPortInitialiseStack)
    i.uxListRemove                           0x080073e8   Section        0  list.o(i.uxListRemove)
    i.vApplicationGetIdleTaskMemory          0x08007410   Section        0  freertos.o(i.vApplicationGetIdleTaskMemory)
    i.vListInitialise                        0x08007424   Section        0  list.o(i.vListInitialise)
    i.vListInitialiseItem                    0x0800743a   Section        0  list.o(i.vListInitialiseItem)
    i.vListInsert                            0x08007440   Section        0  list.o(i.vListInsert)
    i.vListInsertEnd                         0x08007470   Section        0  list.o(i.vListInsertEnd)
    i.vPortEnterCritical                     0x08007488   Section        0  port.o(i.vPortEnterCritical)
    i.vPortExitCritical                      0x080074c8   Section        0  port.o(i.vPortExitCritical)
    i.vPortFree                              0x080074f0   Section        0  heap_4.o(i.vPortFree)
    i.vPortSetupTimerInterrupt               0x0800754c   Section        0  port.o(i.vPortSetupTimerInterrupt)
    i.vPortValidateInterruptPriority         0x08007570   Section        0  port.o(i.vPortValidateInterruptPriority)
    i.vTaskDelay                             0x080075c4   Section        0  tasks.o(i.vTaskDelay)
    i.vTaskInternalSetTimeOutState           0x08007610   Section        0  tasks.o(i.vTaskInternalSetTimeOutState)
    i.vTaskMissedYield                       0x08007620   Section        0  tasks.o(i.vTaskMissedYield)
    i.vTaskPlaceOnEventList                  0x0800762c   Section        0  tasks.o(i.vTaskPlaceOnEventList)
    i.vTaskPriorityDisinheritAfterTimeout    0x0800765c   Section        0  tasks.o(i.vTaskPriorityDisinheritAfterTimeout)
    i.vTaskStartScheduler                    0x08007708   Section        0  tasks.o(i.vTaskStartScheduler)
    i.vTaskSuspendAll                        0x08007774   Section        0  tasks.o(i.vTaskSuspendAll)
    i.vTaskSwitchContext                     0x08007784   Section        0  tasks.o(i.vTaskSwitchContext)
    i.xPortStartScheduler                    0x080077e0   Section        0  port.o(i.xPortStartScheduler)
    i.xQueueCreateMutex                      0x08007888   Section        0  queue.o(i.xQueueCreateMutex)
    i.xQueueCreateMutexStatic                0x0800789e   Section        0  queue.o(i.xQueueCreateMutexStatic)
    i.xQueueGenericCreate                    0x080078b8   Section        0  queue.o(i.xQueueGenericCreate)
    i.xQueueGenericCreateStatic              0x08007900   Section        0  queue.o(i.xQueueGenericCreateStatic)
    i.xQueueGenericReset                     0x08007968   Section        0  queue.o(i.xQueueGenericReset)
    i.xQueueGenericSend                      0x080079f0   Section        0  queue.o(i.xQueueGenericSend)
    i.xQueueGiveFromISR                      0x08007b50   Section        0  queue.o(i.xQueueGiveFromISR)
    i.xQueueReceiveFromISR                   0x08007bec   Section        0  queue.o(i.xQueueReceiveFromISR)
    i.xQueueSemaphoreTake                    0x08007c88   Section        0  queue.o(i.xQueueSemaphoreTake)
    i.xTaskCheckForTimeOut                   0x08007e00   Section        0  tasks.o(i.xTaskCheckForTimeOut)
    i.xTaskCreate                            0x08007e74   Section        0  tasks.o(i.xTaskCreate)
    i.xTaskCreateStatic                      0x08007ece   Section        0  tasks.o(i.xTaskCreateStatic)
    i.xTaskGetSchedulerState                 0x08007f24   Section        0  tasks.o(i.xTaskGetSchedulerState)
    i.xTaskIncrementTick                     0x08007f40   Section        0  tasks.o(i.xTaskIncrementTick)
    i.xTaskPriorityDisinherit                0x08008008   Section        0  tasks.o(i.xTaskPriorityDisinherit)
    i.xTaskPriorityInherit                   0x080080a8   Section        0  tasks.o(i.xTaskPriorityInherit)
    i.xTaskRemoveFromEventList               0x0800813c   Section        0  tasks.o(i.xTaskRemoveFromEventList)
    i.xTaskResumeAll                         0x080081b0   Section        0  tasks.o(i.xTaskResumeAll)
    locale$$code                             0x08008274   Section       44  lc_numeric_c.o(locale$$code)
    x$fpl$d2f                                0x080082a0   Section       98  d2f.o(x$fpl$d2f)
    x$fpl$dadd                               0x08008304   Section      336  daddsub_clz.o(x$fpl$dadd)
    _dadd1                                   0x08008315   Thumb Code     0  daddsub_clz.o(x$fpl$dadd)
    x$fpl$ddiv                               0x08008454   Section      688  ddiv.o(x$fpl$ddiv)
    ddiv_entry                               0x0800845b   Thumb Code     0  ddiv.o(x$fpl$ddiv)
    x$fpl$dflt                               0x08008704   Section       46  dflt_clz.o(x$fpl$dflt)
    x$fpl$dfltu                              0x08008732   Section       38  dflt_clz.o(x$fpl$dfltu)
    x$fpl$dmul                               0x08008758   Section      340  dmul.o(x$fpl$dmul)
    x$fpl$dnaninf                            0x080088ac   Section      156  dnaninf.o(x$fpl$dnaninf)
    x$fpl$dretinf                            0x08008948   Section       12  dretinf.o(x$fpl$dretinf)
    x$fpl$drsb                               0x08008954   Section       22  daddsub_clz.o(x$fpl$drsb)
    x$fpl$dsub                               0x0800896c   Section      468  daddsub_clz.o(x$fpl$dsub)
    _dsub1                                   0x0800897d   Thumb Code     0  daddsub_clz.o(x$fpl$dsub)
    x$fpl$f2d                                0x08008b40   Section       86  f2d.o(x$fpl$f2d)
    x$fpl$fcheck1                            0x08008b98   Section       12  fcheck1.o(x$fpl$fcheck1)
    x$fpl$fnaninf                            0x08008ba4   Section      140  fnaninf.o(x$fpl$fnaninf)
    x$fpl$fretinf                            0x08008c30   Section       10  fretinf.o(x$fpl$fretinf)
    x$fpl$printf1                            0x08008c3a   Section        4  printf1.o(x$fpl$printf1)
    x$fpl$retnan                             0x08008c3e   Section      100  retnan.o(x$fpl$retnan)
    x$fpl$scalbnf                            0x08008ca2   Section       76  scalbnf.o(x$fpl$scalbnf)
    x$fpl$trapveneer                         0x08008cee   Section       48  trapv.o(x$fpl$trapveneer)
    .constdata                               0x08008d1e   Section     2072  oled.o(.constdata)
    x$fpl$usenofp                            0x08008d1e   Section        0  usenofp.o(x$fpl$usenofp)
    .constdata                               0x08009538   Section      112  freertos.o(.constdata)
    .constdata                               0x080095a8   Section       16  system_stm32f1xx.o(.constdata)
    .constdata                               0x080095b8   Section        8  system_stm32f1xx.o(.constdata)
    .constdata                               0x080095c0   Section       40  _printf_hex_int.o(.constdata)
    uc_hextab                                0x080095c0   Data          20  _printf_hex_int.o(.constdata)
    lc_hextab                                0x080095d4   Data          20  _printf_hex_int.o(.constdata)
    .constdata                               0x080095e8   Section       17  __printf_flags_wp.o(.constdata)
    maptable                                 0x080095e8   Data          17  __printf_flags_wp.o(.constdata)
    .constdata                               0x080095fc   Section      148  bigflt0.o(.constdata)
    tenpwrs_x                                0x080095fc   Data          60  bigflt0.o(.constdata)
    tenpwrs_i                                0x08009638   Data          64  bigflt0.o(.constdata)
    .conststring                             0x08009690   Section       52  freertos.o(.conststring)
    locale$$data                             0x080096e4   Section       28  lc_numeric_c.o(locale$$data)
    __lcnum_c_name                           0x080096e8   Data           2  lc_numeric_c.o(locale$$data)
    __lcnum_c_start                          0x080096f0   Data           0  lc_numeric_c.o(locale$$data)
    __lcnum_c_point                          0x080096fc   Data           0  lc_numeric_c.o(locale$$data)
    __lcnum_c_thousands                      0x080096fe   Data           0  lc_numeric_c.o(locale$$data)
    __lcnum_c_grouping                       0x080096ff   Data           0  lc_numeric_c.o(locale$$data)
    __lcnum_c_end                            0x08009700   Data           0  lc_numeric_c.o(locale$$data)
    .data                                    0x20000000   Section       48  bmp180.o(.data)
    .data                                    0x20000030   Section       12  esp8266.o(.data)
    .data                                    0x2000003c   Section        4  squeue.o(.data)
    .data                                    0x20000040   Section        4  squeue.o(.data)
    .data                                    0x20000044   Section        1  main.o(.data)
    .data                                    0x20000045   Section        1  main.o(.data)
    .data                                    0x20000048   Section        4  main.o(.data)
    Count                                    0x20000048   Data           4  main.o(.data)
    .data                                    0x2000004c   Section       20  freertos.o(.data)
    .data                                    0x20000060   Section        4  usart.o(.data)
    .data                                    0x20000064   Section        9  stm32f1xx_it.o(.data)
    .data                                    0x20000070   Section       12  stm32f1xx_hal.o(.data)
    .data                                    0x2000007c   Section        4  system_stm32f1xx.o(.data)
    .data                                    0x20000080   Section       60  tasks.o(.data)
    pxDelayedTaskList                        0x20000084   Data           4  tasks.o(.data)
    pxOverflowDelayedTaskList                0x20000088   Data           4  tasks.o(.data)
    uxDeletedTasksWaitingCleanUp             0x2000008c   Data           4  tasks.o(.data)
    uxCurrentNumberOfTasks                   0x20000090   Data           4  tasks.o(.data)
    xTickCount                               0x20000094   Data           4  tasks.o(.data)
    uxTopReadyPriority                       0x20000098   Data           4  tasks.o(.data)
    xSchedulerRunning                        0x2000009c   Data           4  tasks.o(.data)
    uxPendedTicks                            0x200000a0   Data           4  tasks.o(.data)
    xYieldPending                            0x200000a4   Data           4  tasks.o(.data)
    xNumOfOverflows                          0x200000a8   Data           4  tasks.o(.data)
    uxTaskNumber                             0x200000ac   Data           4  tasks.o(.data)
    xNextTaskUnblockTime                     0x200000b0   Data           4  tasks.o(.data)
    xIdleTaskHandle                          0x200000b4   Data           4  tasks.o(.data)
    uxSchedulerSuspended                     0x200000b8   Data           4  tasks.o(.data)
    .data                                    0x200000bc   Section       24  heap_4.o(.data)
    pxEnd                                    0x200000bc   Data           4  heap_4.o(.data)
    xFreeBytesRemaining                      0x200000c0   Data           4  heap_4.o(.data)
    xMinimumEverFreeBytesRemaining           0x200000c4   Data           4  heap_4.o(.data)
    xBlockAllocatedBit                       0x200000c8   Data           4  heap_4.o(.data)
    xStart                                   0x200000cc   Data           8  heap_4.o(.data)
    .data                                    0x200000d4   Section       12  port.o(.data)
    ucMaxSysCallPriority                     0x200000d4   Data           1  port.o(.data)
    uxCriticalNesting                        0x200000d8   Data           4  port.o(.data)
    ulMaxPRIGROUPValue                       0x200000dc   Data           4  port.o(.data)
    .bss                                     0x200000e0   Section      512  main.o(.bss)
    .bss                                     0x200002e0   Section      708  freertos.o(.bss)
    xIdleTaskTCBBuffer                       0x200002e0   Data         196  freertos.o(.bss)
    xIdleStack                               0x200003a4   Data         512  freertos.o(.bss)
    .bss                                     0x200005a4   Section       48  adc.o(.bss)
    .bss                                     0x200005d4   Section       40  can.o(.bss)
    .bss                                     0x200005fc   Section       84  i2c.o(.bss)
    .bss                                     0x20000650   Section       88  spi.o(.bss)
    .bss                                     0x200006a8   Section       72  tim.o(.bss)
    .bss                                     0x200006f0   Section      476  usart.o(.bss)
    .bss                                     0x200008cc   Section       28  stm32f1xx_it.o(.bss)
    .bss                                     0x200008e8   Section       72  stm32f1xx_hal_timebase_tim.o(.bss)
    .bss                                     0x20000930   Section      240  tasks.o(.bss)
    pxReadyTasksLists                        0x20000930   Data         140  tasks.o(.bss)
    xDelayedTaskList1                        0x200009bc   Data          20  tasks.o(.bss)
    xDelayedTaskList2                        0x200009d0   Data          20  tasks.o(.bss)
    xPendingReadyList                        0x200009e4   Data          20  tasks.o(.bss)
    xTasksWaitingTermination                 0x200009f8   Data          20  tasks.o(.bss)
    xSuspendedTaskList                       0x20000a0c   Data          20  tasks.o(.bss)
    .bss                                     0x20000a20   Section     4096  heap_4.o(.bss)
    ucHeap                                   0x20000a20   Data        4096  heap_4.o(.bss)
    .bss                                     0x20001a20   Section       96  libspace.o(.bss)
    HEAP                                     0x20001a80   Section     2048  startup_stm32f103xb.o(HEAP)
    Heap_Mem                                 0x20001a80   Data        2048  startup_stm32f103xb.o(HEAP)
    STACK                                    0x20002280   Section     2048  startup_stm32f103xb.o(STACK)
    Stack_Mem                                0x20002280   Data        2048  startup_stm32f103xb.o(STACK)
    __initial_sp                             0x20002a80   Data           0  startup_stm32f103xb.o(STACK)

    Global Symbols

    Symbol Name                              Value     Ov Type        Size  Object(Section)

    BuildAttributes$$THM_ISAv4$P$D$K$B$S$PE$A:L22UL41UL21$X:L11$S22US41US21$IEEE1$IW$USESV6$~STKCKD$USESV7$~SHL$OTIME$ROPI$IEEEX$EBA8$UX$STANDARDLIB$REQ8$PRES8$EABIv2 0x00000000   Number         0  anon$$obj.o ABSOLUTE
    __ARM_use_no_argv                        0x00000000   Number         0  main.o ABSOLUTE
    _printf_flags                            0x00000000   Number         0  printf_stubs.o ABSOLUTE
    _printf_return_value                     0x00000000   Number         0  printf_stubs.o ABSOLUTE
    _printf_sizespec                         0x00000000   Number         0  printf_stubs.o ABSOLUTE
    _printf_widthprec                        0x00000000   Number         0  printf_stubs.o ABSOLUTE
    __ARM_exceptions_init                     - Undefined Weak Reference
    __alloca_initialize                       - Undefined Weak Reference
    __arm_fini_                               - Undefined Weak Reference
    __arm_preinit_                            - Undefined Weak Reference
    __cpp_initialize__aeabi_                  - Undefined Weak Reference
    __cxa_finalize                            - Undefined Weak Reference
    __sigvec_lookup                           - Undefined Weak Reference
    __user_heap_extent                        - Undefined Weak Reference
    _atexit_init                              - Undefined Weak Reference
    _call_atexit_fns                          - Undefined Weak Reference
    _clock_init                               - Undefined Weak Reference
    _fp_trap_init                             - Undefined Weak Reference
    _fp_trap_shutdown                         - Undefined Weak Reference
    _get_lc_collate                           - Undefined Weak Reference
    _get_lc_ctype                             - Undefined Weak Reference
    _get_lc_monetary                          - Undefined Weak Reference
    _get_lc_time                              - Undefined Weak Reference
    _getenv_init                              - Undefined Weak Reference
    _handle_redirection                       - Undefined Weak Reference
    _initio                                   - Undefined Weak Reference
    _mutex_acquire                            - Undefined Weak Reference
    _mutex_free                               - Undefined Weak Reference
    _mutex_release                            - Undefined Weak Reference
    _printf_truncate_signed                   - Undefined Weak Reference
    _printf_truncate_unsigned                 - Undefined Weak Reference
    _rand_init                                - Undefined Weak Reference
    _signal_finish                            - Undefined Weak Reference
    _signal_init                              - Undefined Weak Reference
    _terminateio                              - Undefined Weak Reference
    __Vectors_Size                           0x000000ec   Number         0  startup_stm32f103xb.o ABSOLUTE
    __Vectors                                0x08000000   Data           4  startup_stm32f103xb.o(RESET)
    __Vectors_End                            0x080000ec   Data           0  startup_stm32f103xb.o(RESET)
    __main                                   0x080000ed   Thumb Code     8  __main.o(!!!main)
    __scatterload                            0x080000f5   Thumb Code     0  __scatter.o(!!!scatter)
    __scatterload_rt2                        0x080000f5   Thumb Code    44  __scatter.o(!!!scatter)
    __scatterload_rt2_thumb_only             0x080000f5   Thumb Code     0  __scatter.o(!!!scatter)
    __scatterload_null                       0x08000103   Thumb Code     0  __scatter.o(!!!scatter)
    __scatterload_copy                       0x08000129   Thumb Code    26  __scatter_copy.o(!!handler_copy)
    __scatterload_zeroinit                   0x08000145   Thumb Code    28  __scatter_zi.o(!!handler_zi)
    _printf_f                                0x08000161   Thumb Code     0  _printf_f.o(.ARM.Collect$$_printf_percent$$00000003)
    _printf_percent                          0x08000161   Thumb Code     0  _printf_percent.o(.ARM.Collect$$_printf_percent$$00000000)
    _printf_d                                0x08000167   Thumb Code     0  _printf_d.o(.ARM.Collect$$_printf_percent$$00000009)
    _printf_x                                0x0800016d   Thumb Code     0  _printf_x.o(.ARM.Collect$$_printf_percent$$0000000C)
    _printf_percent_end                      0x08000173   Thumb Code     0  _printf_percent_end.o(.ARM.Collect$$_printf_percent$$00000017)
    __rt_lib_init                            0x08000177   Thumb Code     0  libinit.o(.ARM.Collect$$libinit$$00000000)
    __rt_lib_init_fp_1                       0x08000179   Thumb Code     0  libinit2.o(.ARM.Collect$$libinit$$00000002)
    __rt_lib_init_heap_2                     0x08000179   Thumb Code     0  libinit2.o(.ARM.Collect$$libinit$$00000005)
    __rt_lib_init_preinit_1                  0x08000179   Thumb Code     0  libinit2.o(.ARM.Collect$$libinit$$00000004)
    __rt_lib_init_heap_1                     0x08000181   Thumb Code     0  libinit2.o(.ARM.Collect$$libinit$$0000000A)
    __rt_lib_init_lc_common                  0x08000181   Thumb Code     0  libinit2.o(.ARM.Collect$$libinit$$0000000F)
    __rt_lib_init_rand_1                     0x08000181   Thumb Code     0  libinit2.o(.ARM.Collect$$libinit$$0000000E)
    __rt_lib_init_user_alloc_1               0x08000181   Thumb Code     0  libinit2.o(.ARM.Collect$$libinit$$0000000C)
    __rt_lib_init_lc_collate_1               0x08000187   Thumb Code     0  libinit2.o(.ARM.Collect$$libinit$$00000011)
    __rt_lib_init_lc_ctype_1                 0x08000187   Thumb Code     0  libinit2.o(.ARM.Collect$$libinit$$00000013)
    __rt_lib_init_lc_monetary_1              0x08000187   Thumb Code     0  libinit2.o(.ARM.Collect$$libinit$$00000015)
    __rt_lib_init_lc_numeric_2               0x08000187   Thumb Code     0  libinit2.o(.ARM.Collect$$libinit$$00000016)
    __rt_lib_init_alloca_1                   0x08000191   Thumb Code     0  libinit2.o(.ARM.Collect$$libinit$$0000002E)
    __rt_lib_init_argv_1                     0x08000191   Thumb Code     0  libinit2.o(.ARM.Collect$$libinit$$0000002C)
    __rt_lib_init_atexit_1                   0x08000191   Thumb Code     0  libinit2.o(.ARM.Collect$$libinit$$0000001B)
    __rt_lib_init_clock_1                    0x08000191   Thumb Code     0  libinit2.o(.ARM.Collect$$libinit$$00000021)
    __rt_lib_init_cpp_1                      0x08000191   Thumb Code     0  libinit2.o(.ARM.Collect$$libinit$$00000032)
    __rt_lib_init_exceptions_1               0x08000191   Thumb Code     0  libinit2.o(.ARM.Collect$$libinit$$00000030)
    __rt_lib_init_fp_trap_1                  0x08000191   Thumb Code     0  libinit2.o(.ARM.Collect$$libinit$$0000001F)
    __rt_lib_init_getenv_1                   0x08000191   Thumb Code     0  libinit2.o(.ARM.Collect$$libinit$$00000023)
    __rt_lib_init_lc_numeric_1               0x08000191   Thumb Code     0  libinit2.o(.ARM.Collect$$libinit$$00000017)
    __rt_lib_init_lc_time_1                  0x08000191   Thumb Code     0  libinit2.o(.ARM.Collect$$libinit$$00000019)
    __rt_lib_init_return                     0x08000191   Thumb Code     0  libinit2.o(.ARM.Collect$$libinit$$00000033)
    __rt_lib_init_signal_1                   0x08000191   Thumb Code     0  libinit2.o(.ARM.Collect$$libinit$$0000001D)
    __rt_lib_init_stdio_1                    0x08000191   Thumb Code     0  libinit2.o(.ARM.Collect$$libinit$$00000025)
    __rt_lib_shutdown                        0x08000193   Thumb Code     0  libshutdown.o(.ARM.Collect$$libshutdown$$00000000)
    __rt_lib_shutdown_cpp_1                  0x08000195   Thumb Code     0  libshutdown2.o(.ARM.Collect$$libshutdown$$00000004)
    __rt_lib_shutdown_fini_1                 0x08000195   Thumb Code     0  libshutdown2.o(.ARM.Collect$$libshutdown$$00000002)
    __rt_lib_shutdown_fp_trap_1              0x08000195   Thumb Code     0  libshutdown2.o(.ARM.Collect$$libshutdown$$00000009)
    __rt_lib_shutdown_heap_1                 0x08000195   Thumb Code     0  libshutdown2.o(.ARM.Collect$$libshutdown$$00000011)
    __rt_lib_shutdown_return                 0x08000195   Thumb Code     0  libshutdown2.o(.ARM.Collect$$libshutdown$$00000012)
    __rt_lib_shutdown_signal_1               0x08000195   Thumb Code     0  libshutdown2.o(.ARM.Collect$$libshutdown$$0000000C)
    __rt_lib_shutdown_stdio_1                0x08000195   Thumb Code     0  libshutdown2.o(.ARM.Collect$$libshutdown$$00000006)
    __rt_lib_shutdown_user_alloc_1           0x08000195   Thumb Code     0  libshutdown2.o(.ARM.Collect$$libshutdown$$0000000E)
    __rt_entry                               0x08000197   Thumb Code     0  __rtentry.o(.ARM.Collect$$rtentry$$00000000)
    __rt_entry_presh_1                       0x08000197   Thumb Code     0  __rtentry2.o(.ARM.Collect$$rtentry$$00000002)
    __rt_entry_sh                            0x08000197   Thumb Code     0  __rtentry4.o(.ARM.Collect$$rtentry$$00000004)
    __rt_entry_li                            0x0800019d   Thumb Code     0  __rtentry2.o(.ARM.Collect$$rtentry$$0000000A)
    __rt_entry_postsh_1                      0x0800019d   Thumb Code     0  __rtentry2.o(.ARM.Collect$$rtentry$$00000009)
    __rt_entry_main                          0x080001a1   Thumb Code     0  __rtentry2.o(.ARM.Collect$$rtentry$$0000000D)
    __rt_entry_postli_1                      0x080001a1   Thumb Code     0  __rtentry2.o(.ARM.Collect$$rtentry$$0000000C)
    __rt_exit                                0x080001a9   Thumb Code     0  rtexit.o(.ARM.Collect$$rtexit$$00000000)
    __rt_exit_ls                             0x080001ab   Thumb Code     0  rtexit2.o(.ARM.Collect$$rtexit$$00000003)
    __rt_exit_prels_1                        0x080001ab   Thumb Code     0  rtexit2.o(.ARM.Collect$$rtexit$$00000002)
    __rt_exit_exit                           0x080001af   Thumb Code     0  rtexit2.o(.ARM.Collect$$rtexit$$00000004)
    SVC_Handler                              0x080001b5   Thumb Code    32  port.o(.emb_text)
    __asm___6_port_c_39a90d8d__prvStartFirstTask 0x080001d9   Thumb Code    28  port.o(.emb_text)
    PendSV_Handler                           0x080001f9   Thumb Code    72  port.o(.emb_text)
    vPortGetIPSR                             0x08000245   Thumb Code     6  port.o(.emb_text)
    Reset_Handler                            0x0800024d   Thumb Code     8  startup_stm32f103xb.o(.text)
    _maybe_terminate_alloc                   0x0800024d   Thumb Code     0  maybetermalloc1.o(.emb_text)
    ADC1_2_IRQHandler                        0x08000267   Thumb Code     0  startup_stm32f103xb.o(.text)
    CAN1_RX1_IRQHandler                      0x08000267   Thumb Code     0  startup_stm32f103xb.o(.text)
    CAN1_SCE_IRQHandler                      0x08000267   Thumb Code     0  startup_stm32f103xb.o(.text)
    DMA1_Channel1_IRQHandler                 0x08000267   Thumb Code     0  startup_stm32f103xb.o(.text)
    DMA1_Channel6_IRQHandler                 0x08000267   Thumb Code     0  startup_stm32f103xb.o(.text)
    DMA1_Channel7_IRQHandler                 0x08000267   Thumb Code     0  startup_stm32f103xb.o(.text)
    EXTI0_IRQHandler                         0x08000267   Thumb Code     0  startup_stm32f103xb.o(.text)
    EXTI1_IRQHandler                         0x08000267   Thumb Code     0  startup_stm32f103xb.o(.text)
    EXTI2_IRQHandler                         0x08000267   Thumb Code     0  startup_stm32f103xb.o(.text)
    EXTI3_IRQHandler                         0x08000267   Thumb Code     0  startup_stm32f103xb.o(.text)
    EXTI4_IRQHandler                         0x08000267   Thumb Code     0  startup_stm32f103xb.o(.text)
    FLASH_IRQHandler                         0x08000267   Thumb Code     0  startup_stm32f103xb.o(.text)
    I2C1_ER_IRQHandler                       0x08000267   Thumb Code     0  startup_stm32f103xb.o(.text)
    I2C1_EV_IRQHandler                       0x08000267   Thumb Code     0  startup_stm32f103xb.o(.text)
    I2C2_ER_IRQHandler                       0x08000267   Thumb Code     0  startup_stm32f103xb.o(.text)
    I2C2_EV_IRQHandler                       0x08000267   Thumb Code     0  startup_stm32f103xb.o(.text)
    PVD_IRQHandler                           0x08000267   Thumb Code     0  startup_stm32f103xb.o(.text)
    RCC_IRQHandler                           0x08000267   Thumb Code     0  startup_stm32f103xb.o(.text)
    RTC_Alarm_IRQHandler                     0x08000267   Thumb Code     0  startup_stm32f103xb.o(.text)
    RTC_IRQHandler                           0x08000267   Thumb Code     0  startup_stm32f103xb.o(.text)
    SPI1_IRQHandler                          0x08000267   Thumb Code     0  startup_stm32f103xb.o(.text)
    SPI2_IRQHandler                          0x08000267   Thumb Code     0  startup_stm32f103xb.o(.text)
    TAMPER_IRQHandler                        0x08000267   Thumb Code     0  startup_stm32f103xb.o(.text)
    TIM1_BRK_IRQHandler                      0x08000267   Thumb Code     0  startup_stm32f103xb.o(.text)
    TIM1_CC_IRQHandler                       0x08000267   Thumb Code     0  startup_stm32f103xb.o(.text)
    TIM1_TRG_COM_IRQHandler                  0x08000267   Thumb Code     0  startup_stm32f103xb.o(.text)
    TIM2_IRQHandler                          0x08000267   Thumb Code     0  startup_stm32f103xb.o(.text)
    TIM3_IRQHandler                          0x08000267   Thumb Code     0  startup_stm32f103xb.o(.text)
    TIM4_IRQHandler                          0x08000267   Thumb Code     0  startup_stm32f103xb.o(.text)
    USBWakeUp_IRQHandler                     0x08000267   Thumb Code     0  startup_stm32f103xb.o(.text)
    USB_HP_CAN1_TX_IRQHandler                0x08000267   Thumb Code     0  startup_stm32f103xb.o(.text)
    WWDG_IRQHandler                          0x08000267   Thumb Code     0  startup_stm32f103xb.o(.text)
    __user_initial_stackheap                 0x08000269   Thumb Code     0  startup_stm32f103xb.o(.text)
    malloc                                   0x0800028d   Thumb Code    94  h1_alloc.o(.text)
    __2printf                                0x080002ed   Thumb Code    20  noretval__2printf.o(.text)
    __2sprintf                               0x08000305   Thumb Code    34  noretval__2sprintf.o(.text)
    _printf_pre_padding                      0x0800032d   Thumb Code    44  _printf_pad.o(.text)
    _printf_post_padding                     0x08000359   Thumb Code    34  _printf_pad.o(.text)
    _printf_int_dec                          0x0800037d   Thumb Code   104  _printf_dec.o(.text)
    _printf_int_hex                          0x080003f5   Thumb Code    84  _printf_hex_int.o(.text)
    _printf_longlong_hex                     0x080003f5   Thumb Code     0  _printf_hex_int.o(.text)
    __printf                                 0x0800044d   Thumb Code   308  __printf_flags_wp.o(.text)
    strcpy                                   0x08000585   Thumb Code    72  strcpy.o(.text)
    strlen                                   0x080005cd   Thumb Code    62  strlen.o(.text)
    __aeabi_memcpy                           0x0800060b   Thumb Code     0  rt_memcpy_v6.o(.text)
    __rt_memcpy                              0x0800060b   Thumb Code   138  rt_memcpy_v6.o(.text)
    _memcpy_lastbytes                        0x08000671   Thumb Code     0  rt_memcpy_v6.o(.text)
    __aeabi_memcpy4                          0x08000695   Thumb Code     0  rt_memcpy_w.o(.text)
    __aeabi_memcpy8                          0x08000695   Thumb Code     0  rt_memcpy_w.o(.text)
    __rt_memcpy_w                            0x08000695   Thumb Code   100  rt_memcpy_w.o(.text)
    _memcpy_lastbytes_aligned                0x080006dd   Thumb Code     0  rt_memcpy_w.o(.text)
    __aeabi_memclr4                          0x080006f9   Thumb Code     0  rt_memclr_w.o(.text)
    __aeabi_memclr8                          0x080006f9   Thumb Code     0  rt_memclr_w.o(.text)
    __rt_memclr_w                            0x080006f9   Thumb Code    78  rt_memclr_w.o(.text)
    _memset_w                                0x080006fd   Thumb Code     0  rt_memclr_w.o(.text)
    __use_two_region_memory                  0x08000747   Thumb Code     2  heapauxi.o(.text)
    __rt_heap_escrow                         0x08000749   Thumb Code     2  heapauxi.o(.text)
    __rt_heap_expand                         0x0800074b   Thumb Code     2  heapauxi.o(.text)
    __rt_heap_descriptor                     0x0800074d   Thumb Code     8  rt_heap_descriptor_intlibspace.o(.text)
    __use_no_heap                            0x08000755   Thumb Code     2  hguard.o(.text)
    __heap$guard                             0x08000757   Thumb Code     2  hguard.o(.text)
    _terminate_user_alloc                    0x08000759   Thumb Code     2  init_alloc.o(.text)
    _init_user_alloc                         0x0800075b   Thumb Code     2  init_alloc.o(.text)
    __Heap_Full                              0x0800075d   Thumb Code    34  init_alloc.o(.text)
    __Heap_Broken                            0x0800077f   Thumb Code     6  init_alloc.o(.text)
    _init_alloc                              0x08000785   Thumb Code    94  init_alloc.o(.text)
    __Heap_Initialize                        0x080007e3   Thumb Code    10  h1_init.o(.text)
    __Heap_DescSize                          0x080007ed   Thumb Code     4  h1_init.o(.text)
    free                                     0x080007f1   Thumb Code    78  h1_free.o(.text)
    _printf_int_common                       0x0800083f   Thumb Code   178  _printf_intcommon.o(.text)
    __lib_sel_fp_printf                      0x080008f1   Thumb Code     2  _printf_fp_dec.o(.text)
    _printf_fp_dec_real                      0x08000aa3   Thumb Code   620  _printf_fp_dec.o(.text)
    _printf_char_common                      0x08000d1b   Thumb Code    32  _printf_char_common.o(.text)
    _sputc                                   0x08000d41   Thumb Code    10  _sputc.o(.text)
    _printf_char_file                        0x08000d4d   Thumb Code    32  _printf_char_file.o(.text)
    __user_libspace                          0x08000d71   Thumb Code     8  libspace.o(.text)
    __user_perproc_libspace                  0x08000d71   Thumb Code     0  libspace.o(.text)
    __user_perthread_libspace                0x08000d71   Thumb Code     0  libspace.o(.text)
    __rt_locale                              0x08000d79   Thumb Code     8  rt_locale_intlibspace.o(.text)
    __Heap_ProvideMemory                     0x08000d81   Thumb Code    52  h1_extend.o(.text)
    _ll_udiv10                               0x08000db5   Thumb Code   138  lludiv10.o(.text)
    _printf_fp_infnan                        0x08000e41   Thumb Code   112  _printf_fp_infnan.o(.text)
    _btod_etento                             0x08000ec1   Thumb Code   224  bigflt0.o(.text)
    ferror                                   0x08000fa5   Thumb Code     8  ferror.o(.text)
    __rt_SIGRTMEM                            0x08000fad   Thumb Code    14  defsig_rtmem_outer.o(.text)
    __I$use$semihosting                      0x08000fbb   Thumb Code     0  use_no_semi.o(.text)
    __use_no_semihosting_swi                 0x08000fbb   Thumb Code     2  use_no_semi.o(.text)
    __semihosting_library_function           0x08000fbd   Thumb Code     0  indicate_semi.o(.text)
    __user_setup_stackheap                   0x08000fbd   Thumb Code    74  sys_stackheap_outer.o(.text)
    exit                                     0x08001007   Thumb Code    18  exit.o(.text)
    __sig_exit                               0x08001019   Thumb Code    10  defsig_exit.o(.text)
    __rt_SIGRTMEM_inner                      0x08001025   Thumb Code    22  defsig_rtmem_inner.o(.text)
    strcmp                                   0x08001075   Thumb Code   128  strcmpv7m.o(.text)
    __default_signal_display                 0x080010f5   Thumb Code    50  defsig_general.o(.text)
    _ttywrch                                 0x08001127   Thumb Code    14  sys_wrch.o(.text)
    _btod_d2e                                0x08001135   Thumb Code    62  btod.o(CL$$btod_d2e)
    _d2e_denorm_low                          0x08001173   Thumb Code    70  btod.o(CL$$btod_d2e_denorm_low)
    _d2e_norm_op1                            0x080011b9   Thumb Code    96  btod.o(CL$$btod_d2e_norm_op1)
    __btod_div_common                        0x08001219   Thumb Code   696  btod.o(CL$$btod_div_common)
    _e2e                                     0x08001551   Thumb Code   220  btod.o(CL$$btod_e2e)
    _btod_ediv                               0x0800162d   Thumb Code    42  btod.o(CL$$btod_ediv)
    _btod_emul                               0x08001657   Thumb Code    42  btod.o(CL$$btod_emul)
    __btod_mult_common                       0x08001681   Thumb Code   580  btod.o(CL$$btod_mult_common)
    ADC_ConversionStop_Disable               0x080018c5   Thumb Code    86  stm32f1xx_hal_adc.o(i.ADC_ConversionStop_Disable)
    ADC_Enable                               0x0800191d   Thumb Code   114  stm32f1xx_hal_adc.o(i.ADC_Enable)
    BH1750_Init                              0x08001999   Thumb Code    30  bh1750.o(i.BH1750_Init)
    BH1750_Read                              0x080019b9   Thumb Code    40  bh1750.o(i.BH1750_Read)
    BH1750_WriteByte                         0x080019e5   Thumb Code    24  bh1750.o(i.BH1750_WriteByte)
    BMP180_Convert                           0x08001a01   Thumb Code   196  bmp180.o(i.BMP180_Convert)
    BMP180_Init                              0x08001acd   Thumb Code    94  bmp180.o(i.BMP180_Init)
    BMP180_Read_Pressure                     0x08001b31   Thumb Code   102  bmp180.o(i.BMP180_Read_Pressure)
    BMP180_Read_Temperature                  0x08001b9d   Thumb Code    86  bmp180.o(i.BMP180_Read_Temperature)
    BusFault_Handler                         0x08001bf9   Thumb Code     8  stm32f1xx_it.o(i.BusFault_Handler)
    ClearBitMask                             0x08001c19   Thumb Code    24  rc522.o(i.ClearBitMask)
    Create_Empty_Queue                       0x08001c31   Thumb Code    34  squeue.o(i.Create_Empty_Queue)
    DHT11_GPIO_Input                         0x08001c55   Thumb Code    26  dht11.o(i.DHT11_GPIO_Input)
    DHT11_GPIO_Output                        0x08001c75   Thumb Code    26  dht11.o(i.DHT11_GPIO_Output)
    DHT11_Read_Bit                           0x08001c95   Thumb Code    54  dht11.o(i.DHT11_Read_Bit)
    DHT11_Read_Byte                          0x08001cd1   Thumb Code    32  dht11.o(i.DHT11_Read_Byte)
    DHT11_Read_Data                          0x08001cf1   Thumb Code   128  dht11.o(i.DHT11_Read_Data)
    DHT11_Reset                              0x08001d79   Thumb Code    48  dht11.o(i.DHT11_Reset)
    DHT11_Scan                               0x08001dad   Thumb Code     8  dht11.o(i.DHT11_Scan)
    DMA1_Channel2_IRQHandler                 0x08001db9   Thumb Code     6  stm32f1xx_it.o(i.DMA1_Channel2_IRQHandler)
    DMA1_Channel3_IRQHandler                 0x08001dc5   Thumb Code     6  stm32f1xx_it.o(i.DMA1_Channel3_IRQHandler)
    DMA1_Channel4_IRQHandler                 0x08001dd1   Thumb Code     6  stm32f1xx_it.o(i.DMA1_Channel4_IRQHandler)
    DMA1_Channel5_IRQHandler                 0x08001ddd   Thumb Code     6  stm32f1xx_it.o(i.DMA1_Channel5_IRQHandler)
    DebugMon_Handler                         0x08001e13   Thumb Code     2  stm32f1xx_it.o(i.DebugMon_Handler)
    Delay_Us                                 0x08001e15   Thumb Code    44  dht11.o(i.Delay_Us)
    Dequeue                                  0x08001e45   Thumb Code    48  squeue.o(i.Dequeue)
    ESP8266OK_Status                         0x08001e75   Thumb Code    36  esp8266.o(i.ESP8266OK_Status)
    ESP8266_Connect_Server                   0x08001e9d   Thumb Code   324  esp8266.o(i.ESP8266_Connect_Server)
    ESP8266_Connect_WIFI                     0x080020a5   Thumb Code   156  esp8266.o(i.ESP8266_Connect_WIFI)
    ESP8266_Disconnect                       0x080021a5   Thumb Code   140  esp8266.o(i.ESP8266_Disconnect)
    ESP8266_Test                             0x08002299   Thumb Code    72  esp8266.o(i.ESP8266_Test)
    EXTI15_10_IRQHandler                     0x0800231d   Thumb Code    38  stm32f1xx_it.o(i.EXTI15_10_IRQHandler)
    EXTI9_5_IRQHandler                       0x08002343   Thumb Code    20  stm32f1xx_it.o(i.EXTI9_5_IRQHandler)
    Enqueue                                  0x08002357   Thumb Code    46  squeue.o(i.Enqueue)
    Enqueue_Bytes                            0x08002385   Thumb Code    42  squeue.o(i.Enqueue_Bytes)
    Error_Handler                            0x080023b1   Thumb Code    10  main.o(i.Error_Handler)
    HAL_ADCEx_Calibration_Start              0x080023d5   Thumb Code   210  stm32f1xx_hal_adc_ex.o(i.HAL_ADCEx_Calibration_Start)
    HAL_ADC_ConfigChannel                    0x080024ad   Thumb Code   240  stm32f1xx_hal_adc.o(i.HAL_ADC_ConfigChannel)
    HAL_ADC_GetValue                         0x080025a9   Thumb Code     6  stm32f1xx_hal_adc.o(i.HAL_ADC_GetValue)
    HAL_ADC_Init                             0x080025b1   Thumb Code   272  stm32f1xx_hal_adc.o(i.HAL_ADC_Init)
    HAL_ADC_MspInit                          0x080026cd   Thumb Code    74  adc.o(i.HAL_ADC_MspInit)
    HAL_ADC_PollForConversion                0x08002725   Thumb Code   304  stm32f1xx_hal_adc.o(i.HAL_ADC_PollForConversion)
    HAL_ADC_Start                            0x08002861   Thumb Code   184  stm32f1xx_hal_adc.o(i.HAL_ADC_Start)
    HAL_CAN_ErrorCallback                    0x08002921   Thumb Code     2  stm32f1xx_hal_can.o(i.HAL_CAN_ErrorCallback)
    HAL_CAN_GetRxMessage                     0x08002923   Thumb Code   232  stm32f1xx_hal_can.o(i.HAL_CAN_GetRxMessage)
    HAL_CAN_IRQHandler                       0x08002a0b   Thumb Code   508  stm32f1xx_hal_can.o(i.HAL_CAN_IRQHandler)
    HAL_CAN_Init                             0x08002c07   Thumb Code   282  stm32f1xx_hal_can.o(i.HAL_CAN_Init)
    HAL_CAN_MspInit                          0x08002d21   Thumb Code   112  can.o(i.HAL_CAN_MspInit)
    HAL_CAN_RxFifo0FullCallback              0x08002d9d   Thumb Code     2  stm32f1xx_hal_can.o(i.HAL_CAN_RxFifo0FullCallback)
    HAL_CAN_RxFifo0MsgPendingCallback        0x08002d9f   Thumb Code     2  stm32f1xx_hal_can.o(i.HAL_CAN_RxFifo0MsgPendingCallback)
    HAL_CAN_RxFifo1FullCallback              0x08002da1   Thumb Code     2  stm32f1xx_hal_can.o(i.HAL_CAN_RxFifo1FullCallback)
    HAL_CAN_RxFifo1MsgPendingCallback        0x08002da5   Thumb Code    44  stm32f1xx_it.o(i.HAL_CAN_RxFifo1MsgPendingCallback)
    HAL_CAN_SleepCallback                    0x08002df1   Thumb Code     2  stm32f1xx_hal_can.o(i.HAL_CAN_SleepCallback)
    HAL_CAN_TxMailbox0AbortCallback          0x08002df3   Thumb Code     2  stm32f1xx_hal_can.o(i.HAL_CAN_TxMailbox0AbortCallback)
    HAL_CAN_TxMailbox0CompleteCallback       0x08002df5   Thumb Code     2  stm32f1xx_hal_can.o(i.HAL_CAN_TxMailbox0CompleteCallback)
    HAL_CAN_TxMailbox1AbortCallback          0x08002df7   Thumb Code     2  stm32f1xx_hal_can.o(i.HAL_CAN_TxMailbox1AbortCallback)
    HAL_CAN_TxMailbox1CompleteCallback       0x08002df9   Thumb Code     2  stm32f1xx_hal_can.o(i.HAL_CAN_TxMailbox1CompleteCallback)
    HAL_CAN_TxMailbox2AbortCallback          0x08002dfb   Thumb Code     2  stm32f1xx_hal_can.o(i.HAL_CAN_TxMailbox2AbortCallback)
    HAL_CAN_TxMailbox2CompleteCallback       0x08002dfd   Thumb Code     2  stm32f1xx_hal_can.o(i.HAL_CAN_TxMailbox2CompleteCallback)
    HAL_CAN_WakeUpFromRxMsgCallback          0x08002dff   Thumb Code     2  stm32f1xx_hal_can.o(i.HAL_CAN_WakeUpFromRxMsgCallback)
    HAL_DMA_Abort                            0x08002e01   Thumb Code    70  stm32f1xx_hal_dma.o(i.HAL_DMA_Abort)
    HAL_DMA_Abort_IT                         0x08002e49   Thumb Code   148  stm32f1xx_hal_dma.o(i.HAL_DMA_Abort_IT)
    HAL_DMA_IRQHandler                       0x08002ee1   Thumb Code   316  stm32f1xx_hal_dma.o(i.HAL_DMA_IRQHandler)
    HAL_DMA_Init                             0x08003035   Thumb Code    84  stm32f1xx_hal_dma.o(i.HAL_DMA_Init)
    HAL_DMA_Start_IT                         0x08003091   Thumb Code   112  stm32f1xx_hal_dma.o(i.HAL_DMA_Start_IT)
    HAL_Delay                                0x08003101   Thumb Code    32  stm32f1xx_hal.o(i.HAL_Delay)
    HAL_GPIO_EXTI_Callback                   0x08003125   Thumb Code    62  stm32f1xx_it.o(i.HAL_GPIO_EXTI_Callback)
    HAL_GPIO_EXTI_IRQHandler                 0x08003169   Thumb Code    18  stm32f1xx_hal_gpio.o(i.HAL_GPIO_EXTI_IRQHandler)
    HAL_GPIO_Init                            0x08003181   Thumb Code   446  stm32f1xx_hal_gpio.o(i.HAL_GPIO_Init)
    HAL_GPIO_ReadPin                         0x08003361   Thumb Code    10  stm32f1xx_hal_gpio.o(i.HAL_GPIO_ReadPin)
    HAL_GPIO_WritePin                        0x0800336b   Thumb Code    10  stm32f1xx_hal_gpio.o(i.HAL_GPIO_WritePin)
    HAL_GetTick                              0x08003375   Thumb Code     6  stm32f1xx_hal.o(i.HAL_GetTick)
    HAL_I2C_Init                             0x08003381   Thumb Code   376  stm32f1xx_hal_i2c.o(i.HAL_I2C_Init)
    HAL_I2C_Master_Receive                   0x08003509   Thumb Code   564  stm32f1xx_hal_i2c.o(i.HAL_I2C_Master_Receive)
    HAL_I2C_Master_Transmit                  0x0800374d   Thumb Code   290  stm32f1xx_hal_i2c.o(i.HAL_I2C_Master_Transmit)
    HAL_I2C_MspInit                          0x08003879   Thumb Code    80  i2c.o(i.HAL_I2C_MspInit)
    HAL_IncTick                              0x080038d5   Thumb Code    12  stm32f1xx_hal.o(i.HAL_IncTick)
    HAL_Init                                 0x080038e5   Thumb Code    32  stm32f1xx_hal.o(i.HAL_Init)
    HAL_InitTick                             0x08003909   Thumb Code   118  stm32f1xx_hal_timebase_tim.o(i.HAL_InitTick)
    HAL_MspInit                              0x08003995   Thumb Code    48  stm32f1xx_hal_msp.o(i.HAL_MspInit)
    HAL_NVIC_EnableIRQ                       0x080039c9   Thumb Code    26  stm32f1xx_hal_cortex.o(i.HAL_NVIC_EnableIRQ)
    HAL_NVIC_SetPriority                     0x080039e5   Thumb Code    60  stm32f1xx_hal_cortex.o(i.HAL_NVIC_SetPriority)
    HAL_NVIC_SetPriorityGrouping             0x08003a25   Thumb Code    26  stm32f1xx_hal_cortex.o(i.HAL_NVIC_SetPriorityGrouping)
    HAL_RCCEx_GetPeriphCLKFreq               0x08003a49   Thumb Code   166  stm32f1xx_hal_rcc_ex.o(i.HAL_RCCEx_GetPeriphCLKFreq)
    HAL_RCCEx_PeriphCLKConfig                0x08003b11   Thumb Code   224  stm32f1xx_hal_rcc_ex.o(i.HAL_RCCEx_PeriphCLKConfig)
    HAL_RCC_ClockConfig                      0x08003bfd   Thumb Code   280  stm32f1xx_hal_rcc.o(i.HAL_RCC_ClockConfig)
    HAL_RCC_GetClockConfig                   0x08003d29   Thumb Code    54  stm32f1xx_hal_rcc.o(i.HAL_RCC_GetClockConfig)
    HAL_RCC_GetPCLK1Freq                     0x08003d69   Thumb Code    20  stm32f1xx_hal_rcc.o(i.HAL_RCC_GetPCLK1Freq)
    HAL_RCC_GetPCLK2Freq                     0x08003d89   Thumb Code    20  stm32f1xx_hal_rcc.o(i.HAL_RCC_GetPCLK2Freq)
    HAL_RCC_GetSysClockFreq                  0x08003da9   Thumb Code    74  stm32f1xx_hal_rcc.o(i.HAL_RCC_GetSysClockFreq)
    HAL_RCC_OscConfig                        0x08003e15   Thumb Code   778  stm32f1xx_hal_rcc.o(i.HAL_RCC_OscConfig)
    HAL_SPI_Init                             0x08004135   Thumb Code   178  stm32f1xx_hal_spi.o(i.HAL_SPI_Init)
    HAL_SPI_MspInit                          0x080041e9   Thumb Code    98  spi.o(i.HAL_SPI_MspInit)
    HAL_SPI_TransmitReceive                  0x08004259   Thumb Code   482  stm32f1xx_hal_spi.o(i.HAL_SPI_TransmitReceive)
    HAL_TIMEx_BreakCallback                  0x0800443b   Thumb Code     2  stm32f1xx_hal_tim_ex.o(i.HAL_TIMEx_BreakCallback)
    HAL_TIMEx_CommutCallback                 0x0800443d   Thumb Code     2  stm32f1xx_hal_tim_ex.o(i.HAL_TIMEx_CommutCallback)
    HAL_TIMEx_MasterConfigSynchronization    0x08004441   Thumb Code    92  stm32f1xx_hal_tim_ex.o(i.HAL_TIMEx_MasterConfigSynchronization)
    HAL_TIM_Base_Init                        0x080044a9   Thumb Code    90  stm32f1xx_hal_tim.o(i.HAL_TIM_Base_Init)
    HAL_TIM_Base_MspInit                     0x08004505   Thumb Code    30  tim.o(i.HAL_TIM_Base_MspInit)
    HAL_TIM_Base_Start                       0x0800452d   Thumb Code    66  stm32f1xx_hal_tim.o(i.HAL_TIM_Base_Start)
    HAL_TIM_Base_Start_IT                    0x0800457d   Thumb Code    76  stm32f1xx_hal_tim.o(i.HAL_TIM_Base_Start_IT)
    HAL_TIM_Base_Stop                        0x080045d5   Thumb Code    38  stm32f1xx_hal_tim.o(i.HAL_TIM_Base_Stop)
    HAL_TIM_ConfigClockSource                0x080045fb   Thumb Code   214  stm32f1xx_hal_tim.o(i.HAL_TIM_ConfigClockSource)
    HAL_TIM_IC_CaptureCallback               0x080046d1   Thumb Code     2  stm32f1xx_hal_tim.o(i.HAL_TIM_IC_CaptureCallback)
    HAL_TIM_IRQHandler                       0x080046d3   Thumb Code   358  stm32f1xx_hal_tim.o(i.HAL_TIM_IRQHandler)
    HAL_TIM_OC_DelayElapsedCallback          0x08004839   Thumb Code     2  stm32f1xx_hal_tim.o(i.HAL_TIM_OC_DelayElapsedCallback)
    HAL_TIM_PWM_PulseFinishedCallback        0x0800483b   Thumb Code     2  stm32f1xx_hal_tim.o(i.HAL_TIM_PWM_PulseFinishedCallback)
    HAL_TIM_PeriodElapsedCallback            0x0800483d   Thumb Code   156  main.o(i.HAL_TIM_PeriodElapsedCallback)
    HAL_TIM_TriggerCallback                  0x08004905   Thumb Code     2  stm32f1xx_hal_tim.o(i.HAL_TIM_TriggerCallback)
    HAL_UARTEx_RxEventCallback               0x08004907   Thumb Code     2  stm32f1xx_hal_uart.o(i.HAL_UARTEx_RxEventCallback)
    HAL_UART_ErrorCallback                   0x08004909   Thumb Code     2  stm32f1xx_hal_uart.o(i.HAL_UART_ErrorCallback)
    HAL_UART_IRQHandler                      0x0800490d   Thumb Code   520  stm32f1xx_hal_uart.o(i.HAL_UART_IRQHandler)
    HAL_UART_Init                            0x08004b19   Thumb Code    98  stm32f1xx_hal_uart.o(i.HAL_UART_Init)
    HAL_UART_MspInit                         0x08004b7d   Thumb Code   468  usart.o(i.HAL_UART_MspInit)
    HAL_UART_Receive_DMA                     0x08004d71   Thumb Code    42  stm32f1xx_hal_uart.o(i.HAL_UART_Receive_DMA)
    HAL_UART_RxCpltCallback                  0x08004d9d   Thumb Code    68  stm32f1xx_it.o(i.HAL_UART_RxCpltCallback)
    HAL_UART_RxHalfCpltCallback              0x08004e05   Thumb Code    68  stm32f1xx_it.o(i.HAL_UART_RxHalfCpltCallback)
    HAL_UART_Transmit                        0x08004e69   Thumb Code   178  stm32f1xx_hal_uart.o(i.HAL_UART_Transmit)
    HAL_UART_TxCpltCallback                  0x08004f1b   Thumb Code     2  stm32f1xx_hal_uart.o(i.HAL_UART_TxCpltCallback)
    HardFault_Handler                        0x08004f1d   Thumb Code     8  stm32f1xx_it.o(i.HardFault_Handler)
    M500PcdConfigISOType                     0x080052f5   Thumb Code    88  rc522.o(i.M500PcdConfigISOType)
    MX_ADC1_Init                             0x0800534d   Thumb Code    70  adc.o(i.MX_ADC1_Init)
    MX_CAN_Init                              0x0800539d   Thumb Code    62  can.o(i.MX_CAN_Init)
    MX_DMA_Init                              0x080053e5   Thumb Code    88  dma.o(i.MX_DMA_Init)
    MX_FREERTOS_Init                         0x08005441   Thumb Code   110  freertos.o(i.MX_FREERTOS_Init)
    MX_GPIO_Init                             0x080054b9   Thumb Code   268  gpio.o(i.MX_GPIO_Init)
    MX_I2C1_Init                             0x080055d9   Thumb Code    50  i2c.o(i.MX_I2C1_Init)
    MX_SPI1_Init                             0x08005619   Thumb Code    62  spi.o(i.MX_SPI1_Init)
    MX_TIM3_Init                             0x08005661   Thumb Code    94  tim.o(i.MX_TIM3_Init)
    MX_USART1_UART_Init                      0x080056c9   Thumb Code    48  usart.o(i.MX_USART1_UART_Init)
    MX_USART2_UART_Init                      0x08005701   Thumb Code    48  usart.o(i.MX_USART2_UART_Init)
    MX_USART3_UART_Init                      0x08005739   Thumb Code    48  usart.o(i.MX_USART3_UART_Init)
    MemManage_Handler                        0x08005771   Thumb Code     8  stm32f1xx_it.o(i.MemManage_Handler)
    NMI_Handler                              0x08005795   Thumb Code     8  stm32f1xx_it.o(i.NMI_Handler)
    OLED_CLS                                 0x080057b1   Thumb Code     6  oled.o(i.OLED_CLS)
    OLED_Fill                                0x080057b9   Thumb Code    56  oled.o(i.OLED_Fill)
    OLED_Init                                0x080057f1   Thumb Code   180  oled.o(i.OLED_Init)
    OLED_SetPos                              0x080058a5   Thumb Code    38  oled.o(i.OLED_SetPos)
    OLED_ShowStr                             0x080058cd   Thumb Code   208  oled.o(i.OLED_ShowStr)
    PcdAntennaOff                            0x080059a5   Thumb Code     8  rc522.o(i.PcdAntennaOff)
    PcdAntennaOn                             0x080059ad   Thumb Code    26  rc522.o(i.PcdAntennaOn)
    PcdAnticoll                              0x080059c7   Thumb Code   106  rc522.o(i.PcdAnticoll)
    PcdComMF522                              0x08005a31   Thumb Code   288  rc522.o(i.PcdComMF522)
    PcdRequest                               0x08005b51   Thumb Code    82  rc522.o(i.PcdRequest)
    PcdReset                                 0x08005ba5   Thumb Code   126  rc522.o(i.PcdReset)
    Queue_Is_Empty                           0x08005c29   Thumb Code    16  squeue.o(i.Queue_Is_Empty)
    Queue_Is_Full                            0x08005c39   Thumb Code    34  squeue.o(i.Queue_Is_Full)
    RC522_Init                               0x08005c5b   Thumb Code    30  rc522.o(i.RC522_Init)
    ReadRawRC                                0x08005c79   Thumb Code    52  rc522.o(i.ReadRawRC)
    SPIWriteByte                             0x08005cb1   Thumb Code    28  rc522.o(i.SPIWriteByte)
    STM32_Control                            0x08005da9   Thumb Code  1540  control.o(i.STM32_Control)
    SetBitMask                               0x080063e9   Thumb Code    24  rc522.o(i.SetBitMask)
    StartDefaultTask                         0x08006401   Thumb Code    12  freertos.o(i.StartDefaultTask)
    StartTaskEsp8266                         0x0800640d   Thumb Code    38  freertos.o(i.StartTaskEsp8266)
    StartTaskUart1                           0x08006455   Thumb Code    44  freertos.o(i.StartTaskUart1)
    StartTaskUart3                           0x080064a9   Thumb Code    44  freertos.o(i.StartTaskUart3)
    SysTick_Handler                          0x080064fd   Thumb Code    38  port.o(i.SysTick_Handler)
    SystemClock_Config                       0x08006529   Thumb Code   108  main.o(i.SystemClock_Config)
    SystemInit                               0x08006595   Thumb Code     2  system_stm32f1xx.o(i.SystemInit)
    TIM1_UP_IRQHandler                       0x08006599   Thumb Code     6  stm32f1xx_it.o(i.TIM1_UP_IRQHandler)
    TIM_Base_SetConfig                       0x080065a5   Thumb Code    94  stm32f1xx_hal_tim.o(i.TIM_Base_SetConfig)
    TIM_ETR_SetConfig                        0x08006611   Thumb Code    20  stm32f1xx_hal_tim.o(i.TIM_ETR_SetConfig)
    UART_Start_Receive_DMA                   0x080068f9   Thumb Code    98  stm32f1xx_hal_uart.o(i.UART_Start_Receive_DMA)
    USART1_IRQHandler                        0x080069cd   Thumb Code    18  stm32f1xx_it.o(i.USART1_IRQHandler)
    USART2_IRQHandler                        0x080069e5   Thumb Code     6  stm32f1xx_it.o(i.USART2_IRQHandler)
    USART3_IRQHandler                        0x080069f1   Thumb Code    18  stm32f1xx_it.o(i.USART3_IRQHandler)
    USB_LP_CAN1_RX0_IRQHandler               0x08006a09   Thumb Code     6  stm32f1xx_it.o(i.USB_LP_CAN1_RX0_IRQHandler)
    USER_UART_IRQHandler                     0x08006a15   Thumb Code   120  stm32f1xx_it.o(i.USER_UART_IRQHandler)
    UsageFault_Handler                       0x08006abd   Thumb Code     8  stm32f1xx_it.o(i.UsageFault_Handler)
    WriteCmd                                 0x08006ae1   Thumb Code    32  oled.o(i.WriteCmd)
    WriteDat                                 0x08006b05   Thumb Code    32  oled.o(i.WriteDat)
    WriteRawRC                               0x08006b29   Thumb Code    48  rc522.o(i.WriteRawRC)
    __ARM_fpclassify                         0x08006b5d   Thumb Code    40  fpclassify.o(i.__ARM_fpclassify)
    _is_digit                                0x08006ba5   Thumb Code    14  __printf_wp.o(i._is_digit)
    _sys_exit                                0x08006bb3   Thumb Code     2  usart.o(i._sys_exit)
    bmp180_read_byte                         0x08006bb5   Thumb Code    50  bmp180.o(i.bmp180_read_byte)
    fputc                                    0x08006bed   Thumb Code    20  usart.o(i.fputc)
    main                                     0x08006c11   Thumb Code   172  main.o(i.main)
    osDelay                                  0x08006d19   Thumb Code    14  cmsis_os.o(i.osDelay)
    osKernelStart                            0x08006d27   Thumb Code    10  cmsis_os.o(i.osKernelStart)
    osMutexCreate                            0x08006d31   Thumb Code    16  cmsis_os.o(i.osMutexCreate)
    osMutexRelease                           0x08006d41   Thumb Code    74  cmsis_os.o(i.osMutexRelease)
    osMutexWait                              0x08006d91   Thumb Code    96  cmsis_os.o(i.osMutexWait)
    osThreadCreate                           0x08006df5   Thumb Code    84  cmsis_os.o(i.osThreadCreate)
    pvPortMalloc                             0x080072d5   Thumb Code   210  heap_4.o(i.pvPortMalloc)
    pvTaskIncrementMutexHeldCount            0x080073ad   Thumb Code    20  tasks.o(i.pvTaskIncrementMutexHeldCount)
    pxPortInitialiseStack                    0x080073c5   Thumb Code    32  port.o(i.pxPortInitialiseStack)
    uxListRemove                             0x080073e9   Thumb Code    38  list.o(i.uxListRemove)
    vApplicationGetIdleTaskMemory            0x08007411   Thumb Code    16  freertos.o(i.vApplicationGetIdleTaskMemory)
    vListInitialise                          0x08007425   Thumb Code    22  list.o(i.vListInitialise)
    vListInitialiseItem                      0x0800743b   Thumb Code     6  list.o(i.vListInitialiseItem)
    vListInsert                              0x08007441   Thumb Code    48  list.o(i.vListInsert)
    vListInsertEnd                           0x08007471   Thumb Code    24  list.o(i.vListInsertEnd)
    vPortEnterCritical                       0x08007489   Thumb Code    54  port.o(i.vPortEnterCritical)
    vPortExitCritical                        0x080074c9   Thumb Code    34  port.o(i.vPortExitCritical)
    vPortFree                                0x080074f1   Thumb Code    88  heap_4.o(i.vPortFree)
    vPortSetupTimerInterrupt                 0x0800754d   Thumb Code    32  port.o(i.vPortSetupTimerInterrupt)
    vPortValidateInterruptPriority           0x08007571   Thumb Code    74  port.o(i.vPortValidateInterruptPriority)
    vTaskDelay                               0x080075c5   Thumb Code    66  tasks.o(i.vTaskDelay)
    vTaskInternalSetTimeOutState             0x08007611   Thumb Code    12  tasks.o(i.vTaskInternalSetTimeOutState)
    vTaskMissedYield                         0x08007621   Thumb Code     8  tasks.o(i.vTaskMissedYield)
    vTaskPlaceOnEventList                    0x0800762d   Thumb Code    44  tasks.o(i.vTaskPlaceOnEventList)
    vTaskPriorityDisinheritAfterTimeout      0x0800765d   Thumb Code   164  tasks.o(i.vTaskPriorityDisinheritAfterTimeout)
    vTaskStartScheduler                      0x08007709   Thumb Code    90  tasks.o(i.vTaskStartScheduler)
    vTaskSuspendAll                          0x08007775   Thumb Code    10  tasks.o(i.vTaskSuspendAll)
    vTaskSwitchContext                       0x08007785   Thumb Code    82  tasks.o(i.vTaskSwitchContext)
    xPortStartScheduler                      0x080077e1   Thumb Code   154  port.o(i.xPortStartScheduler)
    xQueueCreateMutex                        0x08007889   Thumb Code    22  queue.o(i.xQueueCreateMutex)
    xQueueCreateMutexStatic                  0x0800789f   Thumb Code    26  queue.o(i.xQueueCreateMutexStatic)
    xQueueGenericCreate                      0x080078b9   Thumb Code    72  queue.o(i.xQueueGenericCreate)
    xQueueGenericCreateStatic                0x08007901   Thumb Code   102  queue.o(i.xQueueGenericCreateStatic)
    xQueueGenericReset                       0x08007969   Thumb Code   132  queue.o(i.xQueueGenericReset)
    xQueueGenericSend                        0x080079f1   Thumb Code   346  queue.o(i.xQueueGenericSend)
    xQueueGiveFromISR                        0x08007b51   Thumb Code   156  queue.o(i.xQueueGiveFromISR)
    xQueueReceiveFromISR                     0x08007bed   Thumb Code   154  queue.o(i.xQueueReceiveFromISR)
    xQueueSemaphoreTake                      0x08007c89   Thumb Code   372  queue.o(i.xQueueSemaphoreTake)
    xTaskCheckForTimeOut                     0x08007e01   Thumb Code   112  tasks.o(i.xTaskCheckForTimeOut)
    xTaskCreate                              0x08007e75   Thumb Code    90  tasks.o(i.xTaskCreate)
    xTaskCreateStatic                        0x08007ecf   Thumb Code    86  tasks.o(i.xTaskCreateStatic)
    xTaskGetSchedulerState                   0x08007f25   Thumb Code    22  tasks.o(i.xTaskGetSchedulerState)
    xTaskIncrementTick                       0x08007f41   Thumb Code   192  tasks.o(i.xTaskIncrementTick)
    xTaskPriorityDisinherit                  0x08008009   Thumb Code   152  tasks.o(i.xTaskPriorityDisinherit)
    xTaskPriorityInherit                     0x080080a9   Thumb Code   140  tasks.o(i.xTaskPriorityInherit)
    xTaskRemoveFromEventList                 0x0800813d   Thumb Code   108  tasks.o(i.xTaskRemoveFromEventList)
    xTaskResumeAll                           0x080081b1   Thumb Code   182  tasks.o(i.xTaskResumeAll)
    _get_lc_numeric                          0x08008275   Thumb Code    44  lc_numeric_c.o(locale$$code)
    __aeabi_d2f                              0x080082a1   Thumb Code     0  d2f.o(x$fpl$d2f)
    _d2f                                     0x080082a1   Thumb Code    98  d2f.o(x$fpl$d2f)
    __aeabi_dadd                             0x08008305   Thumb Code     0  daddsub_clz.o(x$fpl$dadd)
    _dadd                                    0x08008305   Thumb Code   332  daddsub_clz.o(x$fpl$dadd)
    __aeabi_ddiv                             0x08008455   Thumb Code     0  ddiv.o(x$fpl$ddiv)
    _ddiv                                    0x08008455   Thumb Code   552  ddiv.o(x$fpl$ddiv)
    __aeabi_i2d                              0x08008705   Thumb Code     0  dflt_clz.o(x$fpl$dflt)
    _dflt                                    0x08008705   Thumb Code    46  dflt_clz.o(x$fpl$dflt)
    __aeabi_ui2d                             0x08008733   Thumb Code     0  dflt_clz.o(x$fpl$dfltu)
    _dfltu                                   0x08008733   Thumb Code    38  dflt_clz.o(x$fpl$dfltu)
    __aeabi_dmul                             0x08008759   Thumb Code     0  dmul.o(x$fpl$dmul)
    _dmul                                    0x08008759   Thumb Code   332  dmul.o(x$fpl$dmul)
    __fpl_dnaninf                            0x080088ad   Thumb Code   156  dnaninf.o(x$fpl$dnaninf)
    __fpl_dretinf                            0x08008949   Thumb Code    12  dretinf.o(x$fpl$dretinf)
    __aeabi_drsub                            0x08008955   Thumb Code     0  daddsub_clz.o(x$fpl$drsb)
    _drsb                                    0x08008955   Thumb Code    22  daddsub_clz.o(x$fpl$drsb)
    __aeabi_dsub                             0x0800896d   Thumb Code     0  daddsub_clz.o(x$fpl$dsub)
    _dsub                                    0x0800896d   Thumb Code   464  daddsub_clz.o(x$fpl$dsub)
    __aeabi_f2d                              0x08008b41   Thumb Code     0  f2d.o(x$fpl$f2d)
    _f2d                                     0x08008b41   Thumb Code    86  f2d.o(x$fpl$f2d)
    __fpl_fcheck_NaN1                        0x08008b99   Thumb Code     6  fcheck1.o(x$fpl$fcheck1)
    __fpl_fnaninf                            0x08008ba5   Thumb Code   140  fnaninf.o(x$fpl$fnaninf)
    __fpl_fretinf                            0x08008c31   Thumb Code    10  fretinf.o(x$fpl$fretinf)
    _printf_fp_dec                           0x08008c3b   Thumb Code     4  printf1.o(x$fpl$printf1)
    __fpl_return_NaN                         0x08008c3f   Thumb Code   100  retnan.o(x$fpl$retnan)
    __ARM_scalbnf                            0x08008ca3   Thumb Code    76  scalbnf.o(x$fpl$scalbnf)
    __fpl_cmpreturn                          0x08008cef   Thumb Code    48  trapv.o(x$fpl$trapveneer)
    F6x8                                     0x08008d1e   Data         552  oled.o(.constdata)
    __I$use$fp                               0x08008d1e   Number         0  usenofp.o(x$fpl$usenofp)
    F8X16                                    0x08008f46   Data        1520  oled.o(.constdata)
    AHBPrescTable                            0x080095a8   Data          16  system_stm32f1xx.o(.constdata)
    APBPrescTable                            0x080095b8   Data           8  system_stm32f1xx.o(.constdata)
    Region$$Table$$Base                      0x080096c4   Number         0  anon$$obj.o(Region$$Table)
    Region$$Table$$Limit                     0x080096e4   Number         0  anon$$obj.o(Region$$Table)
    ac1                                      0x20000000   Data           2  bmp180.o(.data)
    ac2                                      0x20000002   Data           2  bmp180.o(.data)
    ac3                                      0x20000004   Data           2  bmp180.o(.data)
    ac4                                      0x20000006   Data           2  bmp180.o(.data)
    ac5                                      0x20000008   Data           2  bmp180.o(.data)
    ac6                                      0x2000000a   Data           2  bmp180.o(.data)
    b1                                       0x2000000c   Data           2  bmp180.o(.data)
    b2                                       0x2000000e   Data           2  bmp180.o(.data)
    mb                                       0x20000010   Data           2  bmp180.o(.data)
    mc                                       0x20000012   Data           2  bmp180.o(.data)
    md                                       0x20000014   Data           2  bmp180.o(.data)
    result_UT                                0x20000018   Data           8  bmp180.o(.data)
    result_UP                                0x20000020   Data           8  bmp180.o(.data)
    altitude                                 0x20000028   Data           8  bmp180.o(.data)
    ESP8266_OK_Flag                          0x20000030   Data           4  esp8266.o(.data)
    ESP8266_Flag                             0x20000034   Data           4  esp8266.o(.data)
    ESP8266_TouChuan_Flag                    0x20000038   Data           4  esp8266.o(.data)
    QUART1                                   0x2000003c   Data           4  squeue.o(.data)
    QUART3                                   0x20000040   Data           4  squeue.o(.data)
    RX1_Offset                               0x20000044   Data           1  main.o(.data)
    RX3_Offset                               0x20000045   Data           1  main.o(.data)
    defaultTaskHandle                        0x2000004c   Data           4  freertos.o(.data)
    myTaskUart1Handle                        0x20000050   Data           4  freertos.o(.data)
    myTaskEsp8266Handle                      0x20000054   Data           4  freertos.o(.data)
    myTaskUart3Handle                        0x20000058   Data           4  freertos.o(.data)
    myMutex1Handle                           0x2000005c   Data           4  freertos.o(.data)
    __stdout                                 0x20000060   Data           4  usart.o(.data)
    Key_Value                                0x20000064   Data           1  stm32f1xx_it.o(.data)
    RX_Message                               0x20000065   Data           8  stm32f1xx_it.o(.data)
    uwTickFreq                               0x20000070   Data           1  stm32f1xx_hal.o(.data)
    uwTickPrio                               0x20000074   Data           4  stm32f1xx_hal.o(.data)
    uwTick                                   0x20000078   Data           4  stm32f1xx_hal.o(.data)
    SystemCoreClock                          0x2000007c   Data           4  system_stm32f1xx.o(.data)
    pxCurrentTCB                             0x20000080   Data           4  tasks.o(.data)
    RX1_Buf                                  0x200000e0   Data         256  main.o(.bss)
    RX3_Buf                                  0x200001e0   Data         256  main.o(.bss)
    hadc1                                    0x200005a4   Data          48  adc.o(.bss)
    hcan                                     0x200005d4   Data          40  can.o(.bss)
    hi2c1                                    0x200005fc   Data          84  i2c.o(.bss)
    hspi1                                    0x20000650   Data          88  spi.o(.bss)
    htim3                                    0x200006a8   Data          72  tim.o(.bss)
    huart1                                   0x200006f0   Data          68  usart.o(.bss)
    huart2                                   0x20000734   Data          68  usart.o(.bss)
    huart3                                   0x20000778   Data          68  usart.o(.bss)
    hdma_usart1_tx                           0x200007bc   Data          68  usart.o(.bss)
    hdma_usart1_rx                           0x20000800   Data          68  usart.o(.bss)
    hdma_usart3_rx                           0x20000844   Data          68  usart.o(.bss)
    hdma_usart3_tx                           0x20000888   Data          68  usart.o(.bss)
    RXHeader                                 0x200008cc   Data          28  stm32f1xx_it.o(.bss)
    htim1                                    0x200008e8   Data          72  stm32f1xx_hal_timebase_tim.o(.bss)
    __libspace_start                         0x20001a20   Data          96  libspace.o(.bss)
    __temporary_stack_top$libspace           0x20001a80   Data           0  libspace.o(.bss)



==============================================================================

Memory Map of the image

  Image Entry point : 0x080000ed

  Load Region LR_IROM1 (Base: 0x08000000, Size: 0x000097e0, Max: 0x00010000, ABSOLUTE)

    Execution Region ER_IROM1 (Exec base: 0x08000000, Load base: 0x08000000, Size: 0x00009700, Max: 0x00010000, ABSOLUTE)

    Exec Addr    Load Addr    Size         Type   Attr      Idx    E Section Name        Object

    0x08000000   0x08000000   0x000000ec   Data   RO            3    RESET               startup_stm32f103xb.o
    0x080000ec   0x080000ec   0x00000008   Code   RO         6602  * !!!main             c_w.l(__main.o)
    0x080000f4   0x080000f4   0x00000034   Code   RO         6970    !!!scatter          c_w.l(__scatter.o)
    0x08000128   0x08000128   0x0000001a   Code   RO         6972    !!handler_copy      c_w.l(__scatter_copy.o)
    0x08000142   0x08000142   0x00000002   PAD
    0x08000144   0x08000144   0x0000001c   Code   RO         6974    !!handler_zi        c_w.l(__scatter_zi.o)
    0x08000160   0x08000160   0x00000000   Code   RO         6587    .ARM.Collect$$_printf_percent$$00000000  c_w.l(_printf_percent.o)
    0x08000160   0x08000160   0x00000006   Code   RO         6586    .ARM.Collect$$_printf_percent$$00000003  c_w.l(_printf_f.o)
    0x08000166   0x08000166   0x00000006   Code   RO         6585    .ARM.Collect$$_printf_percent$$00000009  c_w.l(_printf_d.o)
    0x0800016c   0x0800016c   0x00000006   Code   RO         6584    .ARM.Collect$$_printf_percent$$0000000C  c_w.l(_printf_x.o)
    0x08000172   0x08000172   0x00000004   Code   RO         6690    .ARM.Collect$$_printf_percent$$00000017  c_w.l(_printf_percent_end.o)
    0x08000176   0x08000176   0x00000002   Code   RO         6905    .ARM.Collect$$libinit$$00000000  c_w.l(libinit.o)
    0x08000178   0x08000178   0x00000000   Code   RO         6696    .ARM.Collect$$libinit$$00000002  c_w.l(libinit2.o)
    0x08000178   0x08000178   0x00000000   Code   RO         6698    .ARM.Collect$$libinit$$00000004  c_w.l(libinit2.o)
    0x08000178   0x08000178   0x00000008   Code   RO         6699    .ARM.Collect$$libinit$$00000005  c_w.l(libinit2.o)
    0x08000180   0x08000180   0x00000000   Code   RO         6701    .ARM.Collect$$libinit$$0000000A  c_w.l(libinit2.o)
    0x08000180   0x08000180   0x00000000   Code   RO         6703    .ARM.Collect$$libinit$$0000000C  c_w.l(libinit2.o)
    0x08000180   0x08000180   0x00000000   Code   RO         6705    .ARM.Collect$$libinit$$0000000E  c_w.l(libinit2.o)
    0x08000180   0x08000180   0x00000006   Code   RO         6706    .ARM.Collect$$libinit$$0000000F  c_w.l(libinit2.o)
    0x08000186   0x08000186   0x00000000   Code   RO         6708    .ARM.Collect$$libinit$$00000011  c_w.l(libinit2.o)
    0x08000186   0x08000186   0x00000000   Code   RO         6710    .ARM.Collect$$libinit$$00000013  c_w.l(libinit2.o)
    0x08000186   0x08000186   0x00000000   Code   RO         6712    .ARM.Collect$$libinit$$00000015  c_w.l(libinit2.o)
    0x08000186   0x08000186   0x0000000a   Code   RO         6713    .ARM.Collect$$libinit$$00000016  c_w.l(libinit2.o)
    0x08000190   0x08000190   0x00000000   Code   RO         6714    .ARM.Collect$$libinit$$00000017  c_w.l(libinit2.o)
    0x08000190   0x08000190   0x00000000   Code   RO         6716    .ARM.Collect$$libinit$$00000019  c_w.l(libinit2.o)
    0x08000190   0x08000190   0x00000000   Code   RO         6718    .ARM.Collect$$libinit$$0000001B  c_w.l(libinit2.o)
    0x08000190   0x08000190   0x00000000   Code   RO         6720    .ARM.Collect$$libinit$$0000001D  c_w.l(libinit2.o)
    0x08000190   0x08000190   0x00000000   Code   RO         6722    .ARM.Collect$$libinit$$0000001F  c_w.l(libinit2.o)
    0x08000190   0x08000190   0x00000000   Code   RO         6724    .ARM.Collect$$libinit$$00000021  c_w.l(libinit2.o)
    0x08000190   0x08000190   0x00000000   Code   RO         6726    .ARM.Collect$$libinit$$00000023  c_w.l(libinit2.o)
    0x08000190   0x08000190   0x00000000   Code   RO         6728    .ARM.Collect$$libinit$$00000025  c_w.l(libinit2.o)
    0x08000190   0x08000190   0x00000000   Code   RO         6732    .ARM.Collect$$libinit$$0000002C  c_w.l(libinit2.o)
    0x08000190   0x08000190   0x00000000   Code   RO         6734    .ARM.Collect$$libinit$$0000002E  c_w.l(libinit2.o)
    0x08000190   0x08000190   0x00000000   Code   RO         6736    .ARM.Collect$$libinit$$00000030  c_w.l(libinit2.o)
    0x08000190   0x08000190   0x00000000   Code   RO         6738    .ARM.Collect$$libinit$$00000032  c_w.l(libinit2.o)
    0x08000190   0x08000190   0x00000002   Code   RO         6739    .ARM.Collect$$libinit$$00000033  c_w.l(libinit2.o)
    0x08000192   0x08000192   0x00000002   Code   RO         6967    .ARM.Collect$$libshutdown$$00000000  c_w.l(libshutdown.o)
    0x08000194   0x08000194   0x00000000   Code   RO         6921    .ARM.Collect$$libshutdown$$00000002  c_w.l(libshutdown2.o)
    0x08000194   0x08000194   0x00000000   Code   RO         6923    .ARM.Collect$$libshutdown$$00000004  c_w.l(libshutdown2.o)
    0x08000194   0x08000194   0x00000000   Code   RO         6925    .ARM.Collect$$libshutdown$$00000006  c_w.l(libshutdown2.o)
    0x08000194   0x08000194   0x00000000   Code   RO         6928    .ARM.Collect$$libshutdown$$00000009  c_w.l(libshutdown2.o)
    0x08000194   0x08000194   0x00000000   Code   RO         6931    .ARM.Collect$$libshutdown$$0000000C  c_w.l(libshutdown2.o)
    0x08000194   0x08000194   0x00000000   Code   RO         6933    .ARM.Collect$$libshutdown$$0000000E  c_w.l(libshutdown2.o)
    0x08000194   0x08000194   0x00000000   Code   RO         6936    .ARM.Collect$$libshutdown$$00000011  c_w.l(libshutdown2.o)
    0x08000194   0x08000194   0x00000002   Code   RO         6937    .ARM.Collect$$libshutdown$$00000012  c_w.l(libshutdown2.o)
    0x08000196   0x08000196   0x00000000   Code   RO         6646    .ARM.Collect$$rtentry$$00000000  c_w.l(__rtentry.o)
    0x08000196   0x08000196   0x00000000   Code   RO         6788    .ARM.Collect$$rtentry$$00000002  c_w.l(__rtentry2.o)
    0x08000196   0x08000196   0x00000006   Code   RO         6800    .ARM.Collect$$rtentry$$00000004  c_w.l(__rtentry4.o)
    0x0800019c   0x0800019c   0x00000000   Code   RO         6790    .ARM.Collect$$rtentry$$00000009  c_w.l(__rtentry2.o)
    0x0800019c   0x0800019c   0x00000004   Code   RO         6791    .ARM.Collect$$rtentry$$0000000A  c_w.l(__rtentry2.o)
    0x080001a0   0x080001a0   0x00000000   Code   RO         6793    .ARM.Collect$$rtentry$$0000000C  c_w.l(__rtentry2.o)
    0x080001a0   0x080001a0   0x00000008   Code   RO         6794    .ARM.Collect$$rtentry$$0000000D  c_w.l(__rtentry2.o)
    0x080001a8   0x080001a8   0x00000002   Code   RO         6910    .ARM.Collect$$rtexit$$00000000  c_w.l(rtexit.o)
    0x080001aa   0x080001aa   0x00000000   Code   RO         6941    .ARM.Collect$$rtexit$$00000002  c_w.l(rtexit2.o)
    0x080001aa   0x080001aa   0x00000004   Code   RO         6942    .ARM.Collect$$rtexit$$00000003  c_w.l(rtexit2.o)
    0x080001ae   0x080001ae   0x00000006   Code   RO         6943    .ARM.Collect$$rtexit$$00000004  c_w.l(rtexit2.o)
    0x080001b4   0x080001b4   0x00000096   Code   RO         6392    .emb_text           port.o
    0x0800024a   0x0800024a   0x00000002   PAD
    0x0800024c   0x0800024c   0x00000000   Code   RO         6814    .emb_text           c_w.l(maybetermalloc1.o)
    0x0800024c   0x0800024c   0x00000040   Code   RO            4    .text               startup_stm32f103xb.o
    0x0800028c   0x0800028c   0x0000005e   Code   RO         6473    .text               c_w.l(h1_alloc.o)
    0x080002ea   0x080002ea   0x00000002   PAD
    0x080002ec   0x080002ec   0x00000018   Code   RO         6533    .text               c_w.l(noretval__2printf.o)
    0x08000304   0x08000304   0x00000028   Code   RO         6535    .text               c_w.l(noretval__2sprintf.o)
    0x0800032c   0x0800032c   0x0000004e   Code   RO         6539    .text               c_w.l(_printf_pad.o)
    0x0800037a   0x0800037a   0x00000002   PAD
    0x0800037c   0x0800037c   0x00000078   Code   RO         6541    .text               c_w.l(_printf_dec.o)
    0x080003f4   0x080003f4   0x00000058   Code   RO         6546    .text               c_w.l(_printf_hex_int.o)
    0x0800044c   0x0800044c   0x00000138   Code   RO         6576    .text               c_w.l(__printf_flags_wp.o)
    0x08000584   0x08000584   0x00000048   Code   RO         6588    .text               c_w.l(strcpy.o)
    0x080005cc   0x080005cc   0x0000003e   Code   RO         6590    .text               c_w.l(strlen.o)
    0x0800060a   0x0800060a   0x0000008a   Code   RO         6592    .text               c_w.l(rt_memcpy_v6.o)
    0x08000694   0x08000694   0x00000064   Code   RO         6594    .text               c_w.l(rt_memcpy_w.o)
    0x080006f8   0x080006f8   0x0000004e   Code   RO         6598    .text               c_w.l(rt_memclr_w.o)
    0x08000746   0x08000746   0x00000006   Code   RO         6600    .text               c_w.l(heapauxi.o)
    0x0800074c   0x0800074c   0x00000008   Code   RO         6650    .text               c_w.l(rt_heap_descriptor_intlibspace.o)
    0x08000754   0x08000754   0x00000004   Code   RO         6652    .text               c_w.l(hguard.o)
    0x08000758   0x08000758   0x0000008a   Code   RO         6654    .text               c_w.l(init_alloc.o)
    0x080007e2   0x080007e2   0x0000000e   Code   RO         6660    .text               c_w.l(h1_init.o)
    0x080007f0   0x080007f0   0x0000004e   Code   RO         6662    .text               c_w.l(h1_free.o)
    0x0800083e   0x0800083e   0x000000b2   Code   RO         6680    .text               c_w.l(_printf_intcommon.o)
    0x080008f0   0x080008f0   0x0000041e   Code   RO         6682    .text               c_w.l(_printf_fp_dec.o)
    0x08000d0e   0x08000d0e   0x00000002   PAD
    0x08000d10   0x08000d10   0x00000030   Code   RO         6684    .text               c_w.l(_printf_char_common.o)
    0x08000d40   0x08000d40   0x0000000a   Code   RO         6686    .text               c_w.l(_sputc.o)
    0x08000d4a   0x08000d4a   0x00000002   PAD
    0x08000d4c   0x08000d4c   0x00000024   Code   RO         6688    .text               c_w.l(_printf_char_file.o)
    0x08000d70   0x08000d70   0x00000008   Code   RO         6784    .text               c_w.l(libspace.o)
    0x08000d78   0x08000d78   0x00000008   Code   RO         6805    .text               c_w.l(rt_locale_intlibspace.o)
    0x08000d80   0x08000d80   0x00000034   Code   RO         6816    .text               c_w.l(h1_extend.o)
    0x08000db4   0x08000db4   0x0000008a   Code   RO         6820    .text               c_w.l(lludiv10.o)
    0x08000e3e   0x08000e3e   0x00000002   PAD
    0x08000e40   0x08000e40   0x00000080   Code   RO         6822    .text               c_w.l(_printf_fp_infnan.o)
    0x08000ec0   0x08000ec0   0x000000e4   Code   RO         6826    .text               c_w.l(bigflt0.o)
    0x08000fa4   0x08000fa4   0x00000008   Code   RO         6851    .text               c_w.l(ferror.o)
    0x08000fac   0x08000fac   0x0000000e   Code   RO         6858    .text               c_w.l(defsig_rtmem_outer.o)
    0x08000fba   0x08000fba   0x00000002   Code   RO         6879    .text               c_w.l(use_no_semi.o)
    0x08000fbc   0x08000fbc   0x00000000   Code   RO         6881    .text               c_w.l(indicate_semi.o)
    0x08000fbc   0x08000fbc   0x0000004a   Code   RO         6882    .text               c_w.l(sys_stackheap_outer.o)
    0x08001006   0x08001006   0x00000012   Code   RO         6888    .text               c_w.l(exit.o)
    0x08001018   0x08001018   0x0000000a   Code   RO         6890    .text               c_w.l(defsig_exit.o)
    0x08001022   0x08001022   0x00000002   PAD
    0x08001024   0x08001024   0x00000050   Code   RO         6892    .text               c_w.l(defsig_rtmem_inner.o)
    0x08001074   0x08001074   0x00000080   Code   RO         6894    .text               c_w.l(strcmpv7m.o)
    0x080010f4   0x080010f4   0x00000032   Code   RO         6918    .text               c_w.l(defsig_general.o)
    0x08001126   0x08001126   0x0000000e   Code   RO         6938    .text               c_w.l(sys_wrch.o)
    0x08001134   0x08001134   0x0000003e   Code   RO         6829    CL$$btod_d2e        c_w.l(btod.o)
    0x08001172   0x08001172   0x00000046   Code   RO         6831    CL$$btod_d2e_denorm_low  c_w.l(btod.o)
    0x080011b8   0x080011b8   0x00000060   Code   RO         6830    CL$$btod_d2e_norm_op1  c_w.l(btod.o)
    0x08001218   0x08001218   0x00000338   Code   RO         6839    CL$$btod_div_common  c_w.l(btod.o)
    0x08001550   0x08001550   0x000000dc   Code   RO         6836    CL$$btod_e2e        c_w.l(btod.o)
    0x0800162c   0x0800162c   0x0000002a   Code   RO         6833    CL$$btod_ediv       c_w.l(btod.o)
    0x08001656   0x08001656   0x0000002a   Code   RO         6832    CL$$btod_emul       c_w.l(btod.o)
    0x08001680   0x08001680   0x00000244   Code   RO         6838    CL$$btod_mult_common  c_w.l(btod.o)
    0x080018c4   0x080018c4   0x00000056   Code   RO         1616    i.ADC_ConversionStop_Disable  stm32f1xx_hal_adc.o
    0x0800191a   0x0800191a   0x00000002   PAD
    0x0800191c   0x0800191c   0x0000007c   Code   RO         1620    i.ADC_Enable        stm32f1xx_hal_adc.o
    0x08001998   0x08001998   0x0000001e   Code   RO           13    i.BH1750_Init       bh1750.o
    0x080019b6   0x080019b6   0x00000002   PAD
    0x080019b8   0x080019b8   0x0000002c   Code   RO           14    i.BH1750_Read       bh1750.o
    0x080019e4   0x080019e4   0x0000001c   Code   RO           16    i.BH1750_WriteByte  bh1750.o
    0x08001a00   0x08001a00   0x000000cc   Code   RO          182    i.BMP180_Convert    bmp180.o
    0x08001acc   0x08001acc   0x00000064   Code   RO          183    i.BMP180_Init       bmp180.o
    0x08001b30   0x08001b30   0x0000006c   Code   RO          184    i.BMP180_Read_Pressure  bmp180.o
    0x08001b9c   0x08001b9c   0x0000005c   Code   RO          185    i.BMP180_Read_Temperature  bmp180.o
    0x08001bf8   0x08001bf8   0x00000020   Code   RO         1355    i.BusFault_Handler  stm32f1xx_it.o
    0x08001c18   0x08001c18   0x00000018   Code   RO          423    i.ClearBitMask      rc522.o
    0x08001c30   0x08001c30   0x00000022   Code   RO          791    i.Create_Empty_Queue  squeue.o
    0x08001c52   0x08001c52   0x00000002   PAD
    0x08001c54   0x08001c54   0x00000020   Code   RO          698    i.DHT11_GPIO_Input  dht11.o
    0x08001c74   0x08001c74   0x00000020   Code   RO          699    i.DHT11_GPIO_Output  dht11.o
    0x08001c94   0x08001c94   0x0000003c   Code   RO          700    i.DHT11_Read_Bit    dht11.o
    0x08001cd0   0x08001cd0   0x00000020   Code   RO          701    i.DHT11_Read_Byte   dht11.o
    0x08001cf0   0x08001cf0   0x00000088   Code   RO          702    i.DHT11_Read_Data   dht11.o
    0x08001d78   0x08001d78   0x00000034   Code   RO          703    i.DHT11_Reset       dht11.o
    0x08001dac   0x08001dac   0x0000000c   Code   RO          704    i.DHT11_Scan        dht11.o
    0x08001db8   0x08001db8   0x0000000c   Code   RO         1356    i.DMA1_Channel2_IRQHandler  stm32f1xx_it.o
    0x08001dc4   0x08001dc4   0x0000000c   Code   RO         1357    i.DMA1_Channel3_IRQHandler  stm32f1xx_it.o
    0x08001dd0   0x08001dd0   0x0000000c   Code   RO         1358    i.DMA1_Channel4_IRQHandler  stm32f1xx_it.o
    0x08001ddc   0x08001ddc   0x0000000c   Code   RO         1359    i.DMA1_Channel5_IRQHandler  stm32f1xx_it.o
    0x08001de8   0x08001de8   0x0000002a   Code   RO         2270    i.DMA_SetConfig     stm32f1xx_hal_dma.o
    0x08001e12   0x08001e12   0x00000002   Code   RO         1360    i.DebugMon_Handler  stm32f1xx_it.o
    0x08001e14   0x08001e14   0x00000030   Code   RO          706    i.Delay_Us          dht11.o
    0x08001e44   0x08001e44   0x00000030   Code   RO          792    i.Dequeue           squeue.o
    0x08001e74   0x08001e74   0x00000028   Code   RO          259    i.ESP8266OK_Status  esp8266.o
    0x08001e9c   0x08001e9c   0x00000208   Code   RO          260    i.ESP8266_Connect_Server  esp8266.o
    0x080020a4   0x080020a4   0x00000100   Code   RO          261    i.ESP8266_Connect_WIFI  esp8266.o
    0x080021a4   0x080021a4   0x000000f4   Code   RO          262    i.ESP8266_Disconnect  esp8266.o
    0x08002298   0x08002298   0x00000084   Code   RO          263    i.ESP8266_Test      esp8266.o
    0x0800231c   0x0800231c   0x00000026   Code   RO         1361    i.EXTI15_10_IRQHandler  stm32f1xx_it.o
    0x08002342   0x08002342   0x00000014   Code   RO         1362    i.EXTI9_5_IRQHandler  stm32f1xx_it.o
    0x08002356   0x08002356   0x0000002e   Code   RO          793    i.Enqueue           squeue.o
    0x08002384   0x08002384   0x0000002a   Code   RO          794    i.Enqueue_Bytes     squeue.o
    0x080023ae   0x080023ae   0x00000002   PAD
    0x080023b0   0x080023b0   0x00000024   Code   RO          847    i.Error_Handler     main.o
    0x080023d4   0x080023d4   0x000000d8   Code   RO         1796    i.HAL_ADCEx_Calibration_Start  stm32f1xx_hal_adc_ex.o
    0x080024ac   0x080024ac   0x000000fc   Code   RO         1622    i.HAL_ADC_ConfigChannel  stm32f1xx_hal_adc.o
    0x080025a8   0x080025a8   0x00000006   Code   RO         1629    i.HAL_ADC_GetValue  stm32f1xx_hal_adc.o
    0x080025ae   0x080025ae   0x00000002   PAD
    0x080025b0   0x080025b0   0x0000011c   Code   RO         1631    i.HAL_ADC_Init      stm32f1xx_hal_adc.o
    0x080026cc   0x080026cc   0x00000058   Code   RO         1018    i.HAL_ADC_MspInit   adc.o
    0x08002724   0x08002724   0x0000013c   Code   RO         1635    i.HAL_ADC_PollForConversion  stm32f1xx_hal_adc.o
    0x08002860   0x08002860   0x000000c0   Code   RO         1637    i.HAL_ADC_Start     stm32f1xx_hal_adc.o
    0x08002920   0x08002920   0x00000002   Code   RO         2873    i.HAL_CAN_ErrorCallback  stm32f1xx_hal_can.o
    0x08002922   0x08002922   0x000000e8   Code   RO         2876    i.HAL_CAN_GetRxMessage  stm32f1xx_hal_can.o
    0x08002a0a   0x08002a0a   0x000001fc   Code   RO         2880    i.HAL_CAN_IRQHandler  stm32f1xx_hal_can.o
    0x08002c06   0x08002c06   0x0000011a   Code   RO         2881    i.HAL_CAN_Init      stm32f1xx_hal_can.o
    0x08002d20   0x08002d20   0x0000007c   Code   RO         1077    i.HAL_CAN_MspInit   can.o
    0x08002d9c   0x08002d9c   0x00000002   Code   RO         2888    i.HAL_CAN_RxFifo0FullCallback  stm32f1xx_hal_can.o
    0x08002d9e   0x08002d9e   0x00000002   Code   RO         2889    i.HAL_CAN_RxFifo0MsgPendingCallback  stm32f1xx_hal_can.o
    0x08002da0   0x08002da0   0x00000002   Code   RO         2890    i.HAL_CAN_RxFifo1FullCallback  stm32f1xx_hal_can.o
    0x08002da2   0x08002da2   0x00000002   PAD
    0x08002da4   0x08002da4   0x0000004c   Code   RO         1363    i.HAL_CAN_RxFifo1MsgPendingCallback  stm32f1xx_it.o
    0x08002df0   0x08002df0   0x00000002   Code   RO         2892    i.HAL_CAN_SleepCallback  stm32f1xx_hal_can.o
    0x08002df2   0x08002df2   0x00000002   Code   RO         2895    i.HAL_CAN_TxMailbox0AbortCallback  stm32f1xx_hal_can.o
    0x08002df4   0x08002df4   0x00000002   Code   RO         2896    i.HAL_CAN_TxMailbox0CompleteCallback  stm32f1xx_hal_can.o
    0x08002df6   0x08002df6   0x00000002   Code   RO         2897    i.HAL_CAN_TxMailbox1AbortCallback  stm32f1xx_hal_can.o
    0x08002df8   0x08002df8   0x00000002   Code   RO         2898    i.HAL_CAN_TxMailbox1CompleteCallback  stm32f1xx_hal_can.o
    0x08002dfa   0x08002dfa   0x00000002   Code   RO         2899    i.HAL_CAN_TxMailbox2AbortCallback  stm32f1xx_hal_can.o
    0x08002dfc   0x08002dfc   0x00000002   Code   RO         2900    i.HAL_CAN_TxMailbox2CompleteCallback  stm32f1xx_hal_can.o
    0x08002dfe   0x08002dfe   0x00000002   Code   RO         2902    i.HAL_CAN_WakeUpFromRxMsgCallback  stm32f1xx_hal_can.o
    0x08002e00   0x08002e00   0x00000046   Code   RO         2271    i.HAL_DMA_Abort     stm32f1xx_hal_dma.o
    0x08002e46   0x08002e46   0x00000002   PAD
    0x08002e48   0x08002e48   0x00000098   Code   RO         2272    i.HAL_DMA_Abort_IT  stm32f1xx_hal_dma.o
    0x08002ee0   0x08002ee0   0x00000154   Code   RO         2276    i.HAL_DMA_IRQHandler  stm32f1xx_hal_dma.o
    0x08003034   0x08003034   0x0000005c   Code   RO         2277    i.HAL_DMA_Init      stm32f1xx_hal_dma.o
    0x08003090   0x08003090   0x00000070   Code   RO         2281    i.HAL_DMA_Start_IT  stm32f1xx_hal_dma.o
    0x08003100   0x08003100   0x00000024   Code   RO         1899    i.HAL_Delay         stm32f1xx_hal.o
    0x08003124   0x08003124   0x00000044   Code   RO         1364    i.HAL_GPIO_EXTI_Callback  stm32f1xx_it.o
    0x08003168   0x08003168   0x00000018   Code   RO         2206    i.HAL_GPIO_EXTI_IRQHandler  stm32f1xx_hal_gpio.o
    0x08003180   0x08003180   0x000001e0   Code   RO         2207    i.HAL_GPIO_Init     stm32f1xx_hal_gpio.o
    0x08003360   0x08003360   0x0000000a   Code   RO         2209    i.HAL_GPIO_ReadPin  stm32f1xx_hal_gpio.o
    0x0800336a   0x0800336a   0x0000000a   Code   RO         2211    i.HAL_GPIO_WritePin  stm32f1xx_hal_gpio.o
    0x08003374   0x08003374   0x0000000c   Code   RO         1903    i.HAL_GetTick       stm32f1xx_hal.o
    0x08003380   0x08003380   0x00000188   Code   RO         3112    i.HAL_I2C_Init      stm32f1xx_hal_i2c.o
    0x08003508   0x08003508   0x00000244   Code   RO         3118    i.HAL_I2C_Master_Receive  stm32f1xx_hal_i2c.o
    0x0800374c   0x0800374c   0x0000012c   Code   RO         3125    i.HAL_I2C_Master_Transmit  stm32f1xx_hal_i2c.o
    0x08003878   0x08003878   0x0000005c   Code   RO         1153    i.HAL_I2C_MspInit   i2c.o
    0x080038d4   0x080038d4   0x00000010   Code   RO         1909    i.HAL_IncTick       stm32f1xx_hal.o
    0x080038e4   0x080038e4   0x00000024   Code   RO         1910    i.HAL_Init          stm32f1xx_hal.o
    0x08003908   0x08003908   0x0000008c   Code   RO         1541    i.HAL_InitTick      stm32f1xx_hal_timebase_tim.o
    0x08003994   0x08003994   0x00000034   Code   RO         1517    i.HAL_MspInit       stm32f1xx_hal_msp.o
    0x080039c8   0x080039c8   0x0000001a   Code   RO         2367    i.HAL_NVIC_EnableIRQ  stm32f1xx_hal_cortex.o
    0x080039e2   0x080039e2   0x00000002   PAD
    0x080039e4   0x080039e4   0x00000040   Code   RO         2373    i.HAL_NVIC_SetPriority  stm32f1xx_hal_cortex.o
    0x08003a24   0x08003a24   0x00000024   Code   RO         2374    i.HAL_NVIC_SetPriorityGrouping  stm32f1xx_hal_cortex.o
    0x08003a48   0x08003a48   0x000000c8   Code   RO         2169    i.HAL_RCCEx_GetPeriphCLKFreq  stm32f1xx_hal_rcc_ex.o
    0x08003b10   0x08003b10   0x000000ec   Code   RO         2170    i.HAL_RCCEx_PeriphCLKConfig  stm32f1xx_hal_rcc_ex.o
    0x08003bfc   0x08003bfc   0x0000012c   Code   RO         2067    i.HAL_RCC_ClockConfig  stm32f1xx_hal_rcc.o
    0x08003d28   0x08003d28   0x00000040   Code   RO         2071    i.HAL_RCC_GetClockConfig  stm32f1xx_hal_rcc.o
    0x08003d68   0x08003d68   0x00000020   Code   RO         2074    i.HAL_RCC_GetPCLK1Freq  stm32f1xx_hal_rcc.o
    0x08003d88   0x08003d88   0x00000020   Code   RO         2075    i.HAL_RCC_GetPCLK2Freq  stm32f1xx_hal_rcc.o
    0x08003da8   0x08003da8   0x0000006c   Code   RO         2076    i.HAL_RCC_GetSysClockFreq  stm32f1xx_hal_rcc.o
    0x08003e14   0x08003e14   0x00000320   Code   RO         2079    i.HAL_RCC_OscConfig  stm32f1xx_hal_rcc.o
    0x08004134   0x08004134   0x000000b2   Code   RO         3544    i.HAL_SPI_Init      stm32f1xx_hal_spi.o
    0x080041e6   0x080041e6   0x00000002   PAD
    0x080041e8   0x080041e8   0x00000070   Code   RO         1201    i.HAL_SPI_MspInit   spi.o
    0x08004258   0x08004258   0x000001e2   Code   RO         3553    i.HAL_SPI_TransmitReceive  stm32f1xx_hal_spi.o
    0x0800443a   0x0800443a   0x00000002   Code   RO         4561    i.HAL_TIMEx_BreakCallback  stm32f1xx_hal_tim_ex.o
    0x0800443c   0x0800443c   0x00000002   Code   RO         4562    i.HAL_TIMEx_CommutCallback  stm32f1xx_hal_tim_ex.o
    0x0800443e   0x0800443e   0x00000002   PAD
    0x08004440   0x08004440   0x00000068   Code   RO         4580    i.HAL_TIMEx_MasterConfigSynchronization  stm32f1xx_hal_tim_ex.o
    0x080044a8   0x080044a8   0x0000005a   Code   RO         3857    i.HAL_TIM_Base_Init  stm32f1xx_hal_tim.o
    0x08004502   0x08004502   0x00000002   PAD
    0x08004504   0x08004504   0x00000028   Code   RO         1243    i.HAL_TIM_Base_MspInit  tim.o
    0x0800452c   0x0800452c   0x00000050   Code   RO         3860    i.HAL_TIM_Base_Start  stm32f1xx_hal_tim.o
    0x0800457c   0x0800457c   0x00000058   Code   RO         3862    i.HAL_TIM_Base_Start_IT  stm32f1xx_hal_tim.o
    0x080045d4   0x080045d4   0x00000026   Code   RO         3863    i.HAL_TIM_Base_Stop  stm32f1xx_hal_tim.o
    0x080045fa   0x080045fa   0x000000d6   Code   RO         3866    i.HAL_TIM_ConfigClockSource  stm32f1xx_hal_tim.o
    0x080046d0   0x080046d0   0x00000002   Code   RO         3891    i.HAL_TIM_IC_CaptureCallback  stm32f1xx_hal_tim.o
    0x080046d2   0x080046d2   0x00000166   Code   RO         3905    i.HAL_TIM_IRQHandler  stm32f1xx_hal_tim.o
    0x08004838   0x08004838   0x00000002   Code   RO         3908    i.HAL_TIM_OC_DelayElapsedCallback  stm32f1xx_hal_tim.o
    0x0800483a   0x0800483a   0x00000002   Code   RO         3935    i.HAL_TIM_PWM_PulseFinishedCallback  stm32f1xx_hal_tim.o
    0x0800483c   0x0800483c   0x000000c8   Code   RO          848    i.HAL_TIM_PeriodElapsedCallback  main.o
    0x08004904   0x08004904   0x00000002   Code   RO         3948    i.HAL_TIM_TriggerCallback  stm32f1xx_hal_tim.o
    0x08004906   0x08004906   0x00000002   Code   RO         4839    i.HAL_UARTEx_RxEventCallback  stm32f1xx_hal_uart.o
    0x08004908   0x08004908   0x00000002   Code   RO         4853    i.HAL_UART_ErrorCallback  stm32f1xx_hal_uart.o
    0x0800490a   0x0800490a   0x00000002   PAD
    0x0800490c   0x0800490c   0x0000020c   Code   RO         4856    i.HAL_UART_IRQHandler  stm32f1xx_hal_uart.o
    0x08004b18   0x08004b18   0x00000062   Code   RO         4857    i.HAL_UART_Init     stm32f1xx_hal_uart.o
    0x08004b7a   0x08004b7a   0x00000002   PAD
    0x08004b7c   0x08004b7c   0x000001f4   Code   RO         1285    i.HAL_UART_MspInit  usart.o
    0x08004d70   0x08004d70   0x0000002a   Code   RO         4861    i.HAL_UART_Receive_DMA  stm32f1xx_hal_uart.o
    0x08004d9a   0x08004d9a   0x00000002   PAD
    0x08004d9c   0x08004d9c   0x00000068   Code   RO         1365    i.HAL_UART_RxCpltCallback  stm32f1xx_it.o
    0x08004e04   0x08004e04   0x00000064   Code   RO         1366    i.HAL_UART_RxHalfCpltCallback  stm32f1xx_it.o
    0x08004e68   0x08004e68   0x000000b2   Code   RO         4865    i.HAL_UART_Transmit  stm32f1xx_hal_uart.o
    0x08004f1a   0x08004f1a   0x00000002   Code   RO         4868    i.HAL_UART_TxCpltCallback  stm32f1xx_hal_uart.o
    0x08004f1c   0x08004f1c   0x00000024   Code   RO         1367    i.HardFault_Handler  stm32f1xx_it.o
    0x08004f40   0x08004f40   0x0000002e   Code   RO         3154    i.I2C_IsAcknowledgeFailed  stm32f1xx_hal_i2c.o
    0x08004f6e   0x08004f6e   0x00000002   PAD
    0x08004f70   0x08004f70   0x000000ec   Code   RO         3157    i.I2C_MasterRequestRead  stm32f1xx_hal_i2c.o
    0x0800505c   0x0800505c   0x0000009c   Code   RO         3158    i.I2C_MasterRequestWrite  stm32f1xx_hal_i2c.o
    0x080050f8   0x080050f8   0x0000004c   Code   RO         3169    i.I2C_WaitOnBTFFlagUntilTimeout  stm32f1xx_hal_i2c.o
    0x08005144   0x08005144   0x00000068   Code   RO         3170    i.I2C_WaitOnFlagUntilTimeout  stm32f1xx_hal_i2c.o
    0x080051ac   0x080051ac   0x00000096   Code   RO         3171    i.I2C_WaitOnMasterAddressFlagUntilTimeout  stm32f1xx_hal_i2c.o
    0x08005242   0x08005242   0x00000066   Code   RO         3172    i.I2C_WaitOnRXNEFlagUntilTimeout  stm32f1xx_hal_i2c.o
    0x080052a8   0x080052a8   0x0000004c   Code   RO         3173    i.I2C_WaitOnTXEFlagUntilTimeout  stm32f1xx_hal_i2c.o
    0x080052f4   0x080052f4   0x00000058   Code   RO          424    i.M500PcdConfigISOType  rc522.o
    0x0800534c   0x0800534c   0x00000050   Code   RO         1019    i.MX_ADC1_Init      adc.o
    0x0800539c   0x0800539c   0x00000048   Code   RO         1078    i.MX_CAN_Init       can.o
    0x080053e4   0x080053e4   0x0000005c   Code   RO         1128    i.MX_DMA_Init       dma.o
    0x08005440   0x08005440   0x00000078   Code   RO          946    i.MX_FREERTOS_Init  freertos.o
    0x080054b8   0x080054b8   0x00000120   Code   RO          922    i.MX_GPIO_Init      gpio.o
    0x080055d8   0x080055d8   0x00000040   Code   RO         1154    i.MX_I2C1_Init      i2c.o
    0x08005618   0x08005618   0x00000048   Code   RO         1202    i.MX_SPI1_Init      spi.o
    0x08005660   0x08005660   0x00000068   Code   RO         1244    i.MX_TIM3_Init      tim.o
    0x080056c8   0x080056c8   0x00000038   Code   RO         1286    i.MX_USART1_UART_Init  usart.o
    0x08005700   0x08005700   0x00000038   Code   RO         1287    i.MX_USART2_UART_Init  usart.o
    0x08005738   0x08005738   0x00000038   Code   RO         1288    i.MX_USART3_UART_Init  usart.o
    0x08005770   0x08005770   0x00000024   Code   RO         1368    i.MemManage_Handler  stm32f1xx_it.o
    0x08005794   0x08005794   0x0000001c   Code   RO         1369    i.NMI_Handler       stm32f1xx_it.o
    0x080057b0   0x080057b0   0x00000006   Code   RO          330    i.OLED_CLS          oled.o
    0x080057b6   0x080057b6   0x00000002   PAD
    0x080057b8   0x080057b8   0x00000038   Code   RO          332    i.OLED_Fill         oled.o
    0x080057f0   0x080057f0   0x000000b4   Code   RO          333    i.OLED_Init         oled.o
    0x080058a4   0x080058a4   0x00000026   Code   RO          336    i.OLED_SetPos       oled.o
    0x080058ca   0x080058ca   0x00000002   PAD
    0x080058cc   0x080058cc   0x000000d8   Code   RO          338    i.OLED_ShowStr      oled.o
    0x080059a4   0x080059a4   0x00000008   Code   RO          425    i.PcdAntennaOff     rc522.o
    0x080059ac   0x080059ac   0x0000001a   Code   RO          426    i.PcdAntennaOn      rc522.o
    0x080059c6   0x080059c6   0x0000006a   Code   RO          427    i.PcdAnticoll       rc522.o
    0x08005a30   0x08005a30   0x00000120   Code   RO          429    i.PcdComMF522       rc522.o
    0x08005b50   0x08005b50   0x00000052   Code   RO          432    i.PcdRequest        rc522.o
    0x08005ba2   0x08005ba2   0x00000002   PAD
    0x08005ba4   0x08005ba4   0x00000084   Code   RO          433    i.PcdReset          rc522.o
    0x08005c28   0x08005c28   0x00000010   Code   RO          795    i.Queue_Is_Empty    squeue.o
    0x08005c38   0x08005c38   0x00000022   Code   RO          796    i.Queue_Is_Full     squeue.o
    0x08005c5a   0x08005c5a   0x0000001e   Code   RO          436    i.RC522_Init        rc522.o
    0x08005c78   0x08005c78   0x00000038   Code   RO          438    i.ReadRawRC         rc522.o
    0x08005cb0   0x08005cb0   0x00000020   Code   RO          440    i.SPIWriteByte      rc522.o
    0x08005cd0   0x08005cd0   0x00000020   Code   RO         3582    i.SPI_EndRxTxTransaction  stm32f1xx_hal_spi.o
    0x08005cf0   0x08005cf0   0x000000b8   Code   RO         3587    i.SPI_WaitFlagStateUntilTimeout  stm32f1xx_hal_spi.o
    0x08005da8   0x08005da8   0x00000640   Code   RO          605    i.STM32_Control     control.o
    0x080063e8   0x080063e8   0x00000018   Code   RO          441    i.SetBitMask        rc522.o
    0x08006400   0x08006400   0x0000000c   Code   RO          947    i.StartDefaultTask  freertos.o
    0x0800640c   0x0800640c   0x00000048   Code   RO          948    i.StartTaskEsp8266  freertos.o
    0x08006454   0x08006454   0x00000054   Code   RO          949    i.StartTaskUart1    freertos.o
    0x080064a8   0x080064a8   0x00000054   Code   RO          950    i.StartTaskUart3    freertos.o
    0x080064fc   0x080064fc   0x0000002c   Code   RO         6393    i.SysTick_Handler   port.o
    0x08006528   0x08006528   0x0000006c   Code   RO          849    i.SystemClock_Config  main.o
    0x08006594   0x08006594   0x00000002   Code   RO         5186    i.SystemInit        system_stm32f1xx.o
    0x08006596   0x08006596   0x00000002   PAD
    0x08006598   0x08006598   0x0000000c   Code   RO         1370    i.TIM1_UP_IRQHandler  stm32f1xx_it.o
    0x080065a4   0x080065a4   0x0000006c   Code   RO         3950    i.TIM_Base_SetConfig  stm32f1xx_hal_tim.o
    0x08006610   0x08006610   0x00000014   Code   RO         3961    i.TIM_ETR_SetConfig  stm32f1xx_hal_tim.o
    0x08006624   0x08006624   0x00000010   Code   RO         3962    i.TIM_ITRx_SetConfig  stm32f1xx_hal_tim.o
    0x08006634   0x08006634   0x00000022   Code   RO         3968    i.TIM_TI1_ConfigInputStage  stm32f1xx_hal_tim.o
    0x08006656   0x08006656   0x00000024   Code   RO         3970    i.TIM_TI2_ConfigInputStage  stm32f1xx_hal_tim.o
    0x0800667a   0x0800667a   0x00000010   Code   RO         4870    i.UART_DMAAbortOnError  stm32f1xx_hal_uart.o
    0x0800668a   0x0800668a   0x0000004a   Code   RO         4871    i.UART_DMAError     stm32f1xx_hal_uart.o
    0x080066d4   0x080066d4   0x0000005a   Code   RO         4872    i.UART_DMAReceiveCplt  stm32f1xx_hal_uart.o
    0x0800672e   0x0800672e   0x0000001a   Code   RO         4874    i.UART_DMARxHalfCplt  stm32f1xx_hal_uart.o
    0x08006748   0x08006748   0x00000030   Code   RO         4880    i.UART_EndRxTransfer  stm32f1xx_hal_uart.o
    0x08006778   0x08006778   0x00000012   Code   RO         4881    i.UART_EndTxTransfer  stm32f1xx_hal_uart.o
    0x0800678a   0x0800678a   0x000000b6   Code   RO         4882    i.UART_Receive_IT   stm32f1xx_hal_uart.o
    0x08006840   0x08006840   0x000000b8   Code   RO         4883    i.UART_SetConfig    stm32f1xx_hal_uart.o
    0x080068f8   0x080068f8   0x00000070   Code   RO         4884    i.UART_Start_Receive_DMA  stm32f1xx_hal_uart.o
    0x08006968   0x08006968   0x00000064   Code   RO         4886    i.UART_WaitOnFlagUntilTimeout  stm32f1xx_hal_uart.o
    0x080069cc   0x080069cc   0x00000018   Code   RO         1371    i.USART1_IRQHandler  stm32f1xx_it.o
    0x080069e4   0x080069e4   0x0000000c   Code   RO         1372    i.USART2_IRQHandler  stm32f1xx_it.o
    0x080069f0   0x080069f0   0x00000018   Code   RO         1373    i.USART3_IRQHandler  stm32f1xx_it.o
    0x08006a08   0x08006a08   0x0000000c   Code   RO         1374    i.USB_LP_CAN1_RX0_IRQHandler  stm32f1xx_it.o
    0x08006a14   0x08006a14   0x000000a8   Code   RO         1375    i.USER_UART_IRQHandler  stm32f1xx_it.o
    0x08006abc   0x08006abc   0x00000024   Code   RO         1376    i.UsageFault_Handler  stm32f1xx_it.o
    0x08006ae0   0x08006ae0   0x00000024   Code   RO          340    i.WriteCmd          oled.o
    0x08006b04   0x08006b04   0x00000024   Code   RO          341    i.WriteDat          oled.o
    0x08006b28   0x08006b28   0x00000034   Code   RO          442    i.WriteRawRC        rc522.o
    0x08006b5c   0x08006b5c   0x00000028   Code   RO         6769    i.__ARM_fpclassify  m_ws.l(fpclassify.o)
    0x08006b84   0x08006b84   0x00000020   Code   RO         2380    i.__NVIC_SetPriority  stm32f1xx_hal_cortex.o
    0x08006ba4   0x08006ba4   0x0000000e   Code   RO         6574    i._is_digit         c_w.l(__printf_wp.o)
    0x08006bb2   0x08006bb2   0x00000002   Code   RO         1289    i._sys_exit         usart.o
    0x08006bb4   0x08006bb4   0x00000038   Code   RO          187    i.bmp180_read_byte  bmp180.o
    0x08006bec   0x08006bec   0x00000018   Code   RO         1290    i.fputc             usart.o
    0x08006c04   0x08006c04   0x0000000c   Code   RO         5962    i.inHandlerMode     cmsis_os.o
    0x08006c10   0x08006c10   0x000000fc   Code   RO          850    i.main              main.o
    0x08006d0c   0x08006d0c   0x0000000c   Code   RO         5964    i.makeFreeRtosPriority  cmsis_os.o
    0x08006d18   0x08006d18   0x0000000e   Code   RO         5966    i.osDelay           cmsis_os.o
    0x08006d26   0x08006d26   0x0000000a   Code   RO         5969    i.osKernelStart     cmsis_os.o
    0x08006d30   0x08006d30   0x00000010   Code   RO         5984    i.osMutexCreate     cmsis_os.o
    0x08006d40   0x08006d40   0x00000050   Code   RO         5986    i.osMutexRelease    cmsis_os.o
    0x08006d90   0x08006d90   0x00000064   Code   RO         5987    i.osMutexWait       cmsis_os.o
    0x08006df4   0x08006df4   0x00000054   Code   RO         6003    i.osThreadCreate    cmsis_os.o
    0x08006e48   0x08006e48   0x00000070   Code   RO         5661    i.prvAddCurrentTaskToDelayedList  tasks.o
    0x08006eb8   0x08006eb8   0x000000d0   Code   RO         5662    i.prvAddNewTaskToReadyList  tasks.o
    0x08006f88   0x08006f88   0x00000026   Code   RO         5358    i.prvCopyDataFromQueue  queue.o
    0x08006fae   0x08006fae   0x0000006c   Code   RO         5359    i.prvCopyDataToQueue  queue.o
    0x0800701a   0x0800701a   0x00000034   Code   RO         5663    i.prvDeleteTCB      tasks.o
    0x0800704e   0x0800704e   0x00000002   PAD
    0x08007050   0x08007050   0x0000004c   Code   RO         6331    i.prvHeapInit       heap_4.o
    0x0800709c   0x0800709c   0x00000060   Code   RO         5664    i.prvIdleTask       tasks.o
    0x080070fc   0x080070fc   0x00000016   Code   RO         5360    i.prvInitialiseMutex  queue.o
    0x08007112   0x08007112   0x00000016   Code   RO         5361    i.prvInitialiseNewQueue  queue.o
    0x08007128   0x08007128   0x00000090   Code   RO         5665    i.prvInitialiseNewTask  tasks.o
    0x080071b8   0x080071b8   0x0000004c   Code   RO         6332    i.prvInsertBlockIntoFreeList  heap_4.o
    0x08007204   0x08007204   0x0000001c   Code   RO         5362    i.prvIsQueueEmpty   queue.o
    0x08007220   0x08007220   0x00000020   Code   RO         5666    i.prvResetNextTaskUnblockTime  tasks.o
    0x08007240   0x08007240   0x00000028   Code   RO         6394    i.prvTaskExitError  port.o
    0x08007268   0x08007268   0x0000006a   Code   RO         5363    i.prvUnlockQueue    queue.o
    0x080072d2   0x080072d2   0x00000002   PAD
    0x080072d4   0x080072d4   0x000000d8   Code   RO         6333    i.pvPortMalloc      heap_4.o
    0x080073ac   0x080073ac   0x00000018   Code   RO         5668    i.pvTaskIncrementMutexHeldCount  tasks.o
    0x080073c4   0x080073c4   0x00000024   Code   RO         6395    i.pxPortInitialiseStack  port.o
    0x080073e8   0x080073e8   0x00000026   Code   RO         5318    i.uxListRemove      list.o
    0x0800740e   0x0800740e   0x00000002   PAD
    0x08007410   0x08007410   0x00000014   Code   RO          951    i.vApplicationGetIdleTaskMemory  freertos.o
    0x08007424   0x08007424   0x00000016   Code   RO         5319    i.vListInitialise   list.o
    0x0800743a   0x0800743a   0x00000006   Code   RO         5320    i.vListInitialiseItem  list.o
    0x08007440   0x08007440   0x00000030   Code   RO         5321    i.vListInsert       list.o
    0x08007470   0x08007470   0x00000018   Code   RO         5322    i.vListInsertEnd    list.o
    0x08007488   0x08007488   0x00000040   Code   RO         6397    i.vPortEnterCritical  port.o
    0x080074c8   0x080074c8   0x00000028   Code   RO         6398    i.vPortExitCritical  port.o
    0x080074f0   0x080074f0   0x0000005c   Code   RO         6334    i.vPortFree         heap_4.o
    0x0800754c   0x0800754c   0x00000024   Code   RO         6399    i.vPortSetupTimerInterrupt  port.o
    0x08007570   0x08007570   0x00000054   Code   RO         6400    i.vPortValidateInterruptPriority  port.o
    0x080075c4   0x080075c4   0x0000004c   Code   RO         5674    i.vTaskDelay        tasks.o
    0x08007610   0x08007610   0x00000010   Code   RO         5677    i.vTaskInternalSetTimeOutState  tasks.o
    0x08007620   0x08007620   0x0000000c   Code   RO         5678    i.vTaskMissedYield  tasks.o
    0x0800762c   0x0800762c   0x00000030   Code   RO         5680    i.vTaskPlaceOnEventList  tasks.o
    0x0800765c   0x0800765c   0x000000ac   Code   RO         5682    i.vTaskPriorityDisinheritAfterTimeout  tasks.o
    0x08007708   0x08007708   0x0000006c   Code   RO         5687    i.vTaskStartScheduler  tasks.o
    0x08007774   0x08007774   0x00000010   Code   RO         5689    i.vTaskSuspendAll   tasks.o
    0x08007784   0x08007784   0x0000005c   Code   RO         5690    i.vTaskSwitchContext  tasks.o
    0x080077e0   0x080077e0   0x000000a8   Code   RO         6401    i.xPortStartScheduler  port.o
    0x08007888   0x08007888   0x00000016   Code   RO         5370    i.xQueueCreateMutex  queue.o
    0x0800789e   0x0800789e   0x0000001a   Code   RO         5371    i.xQueueCreateMutexStatic  queue.o
    0x080078b8   0x080078b8   0x00000048   Code   RO         5372    i.xQueueGenericCreate  queue.o
    0x08007900   0x08007900   0x00000066   Code   RO         5373    i.xQueueGenericCreateStatic  queue.o
    0x08007966   0x08007966   0x00000002   PAD
    0x08007968   0x08007968   0x00000088   Code   RO         5374    i.xQueueGenericReset  queue.o
    0x080079f0   0x080079f0   0x00000160   Code   RO         5375    i.xQueueGenericSend  queue.o
    0x08007b50   0x08007b50   0x0000009c   Code   RO         5377    i.xQueueGiveFromISR  queue.o
    0x08007bec   0x08007bec   0x0000009a   Code   RO         5383    i.xQueueReceiveFromISR  queue.o
    0x08007c86   0x08007c86   0x00000002   PAD
    0x08007c88   0x08007c88   0x00000178   Code   RO         5384    i.xQueueSemaphoreTake  queue.o
    0x08007e00   0x08007e00   0x00000074   Code   RO         5691    i.xTaskCheckForTimeOut  tasks.o
    0x08007e74   0x08007e74   0x0000005a   Code   RO         5692    i.xTaskCreate       tasks.o
    0x08007ece   0x08007ece   0x00000056   Code   RO         5693    i.xTaskCreateStatic  tasks.o
    0x08007f24   0x08007f24   0x0000001c   Code   RO         5697    i.xTaskGetSchedulerState  tasks.o
    0x08007f40   0x08007f40   0x000000c8   Code   RO         5700    i.xTaskIncrementTick  tasks.o
    0x08008008   0x08008008   0x000000a0   Code   RO         5703    i.xTaskPriorityDisinherit  tasks.o
    0x080080a8   0x080080a8   0x00000094   Code   RO         5704    i.xTaskPriorityInherit  tasks.o
    0x0800813c   0x0800813c   0x00000074   Code   RO         5705    i.xTaskRemoveFromEventList  tasks.o
    0x080081b0   0x080081b0   0x000000c4   Code   RO         5706    i.xTaskResumeAll    tasks.o
    0x08008274   0x08008274   0x0000002c   Code   RO         6856    locale$$code        c_w.l(lc_numeric_c.o)
    0x080082a0   0x080082a0   0x00000062   Code   RO         6604    x$fpl$d2f           fz_ws.l(d2f.o)
    0x08008302   0x08008302   0x00000002   PAD
    0x08008304   0x08008304   0x00000150   Code   RO         6606    x$fpl$dadd          fz_ws.l(daddsub_clz.o)
    0x08008454   0x08008454   0x000002b0   Code   RO         6613    x$fpl$ddiv          fz_ws.l(ddiv.o)
    0x08008704   0x08008704   0x0000002e   Code   RO         6617    x$fpl$dflt          fz_ws.l(dflt_clz.o)
    0x08008732   0x08008732   0x00000026   Code   RO         6616    x$fpl$dfltu         fz_ws.l(dflt_clz.o)
    0x08008758   0x08008758   0x00000154   Code   RO         6622    x$fpl$dmul          fz_ws.l(dmul.o)
    0x080088ac   0x080088ac   0x0000009c   Code   RO         6740    x$fpl$dnaninf       fz_ws.l(dnaninf.o)
    0x08008948   0x08008948   0x0000000c   Code   RO         6742    x$fpl$dretinf       fz_ws.l(dretinf.o)
    0x08008954   0x08008954   0x00000016   Code   RO         6607    x$fpl$drsb          fz_ws.l(daddsub_clz.o)
    0x0800896a   0x0800896a   0x00000002   PAD
    0x0800896c   0x0800896c   0x000001d4   Code   RO         6608    x$fpl$dsub          fz_ws.l(daddsub_clz.o)
    0x08008b40   0x08008b40   0x00000056   Code   RO         6624    x$fpl$f2d           fz_ws.l(f2d.o)
    0x08008b96   0x08008b96   0x00000002   PAD
    0x08008b98   0x08008b98   0x0000000c   Code   RO         6746    x$fpl$fcheck1       fz_ws.l(fcheck1.o)
    0x08008ba4   0x08008ba4   0x0000008c   Code   RO         6748    x$fpl$fnaninf       fz_ws.l(fnaninf.o)
    0x08008c30   0x08008c30   0x0000000a   Code   RO         6750    x$fpl$fretinf       fz_ws.l(fretinf.o)
    0x08008c3a   0x08008c3a   0x00000004   Code   RO         6630    x$fpl$printf1       fz_ws.l(printf1.o)
    0x08008c3e   0x08008c3e   0x00000064   Code   RO         6877    x$fpl$retnan        fz_ws.l(retnan.o)
    0x08008ca2   0x08008ca2   0x0000004c   Code   RO         6632    x$fpl$scalbnf       fz_ws.l(scalbnf.o)
    0x08008cee   0x08008cee   0x00000030   Code   RO         6908    x$fpl$trapveneer    fz_ws.l(trapv.o)
    0x08008d1e   0x08008d1e   0x00000000   Code   RO         6754    x$fpl$usenofp       fz_ws.l(usenofp.o)
    0x08008d1e   0x08008d1e   0x00000818   Data   RO          342    .constdata          oled.o
    0x08009536   0x08009536   0x00000002   PAD
    0x08009538   0x08009538   0x00000070   Data   RO          953    .constdata          freertos.o
    0x080095a8   0x080095a8   0x00000010   Data   RO         5187    .constdata          system_stm32f1xx.o
    0x080095b8   0x080095b8   0x00000008   Data   RO         5188    .constdata          system_stm32f1xx.o
    0x080095c0   0x080095c0   0x00000028   Data   RO         6547    .constdata          c_w.l(_printf_hex_int.o)
    0x080095e8   0x080095e8   0x00000011   Data   RO         6577    .constdata          c_w.l(__printf_flags_wp.o)
    0x080095f9   0x080095f9   0x00000003   PAD
    0x080095fc   0x080095fc   0x00000094   Data   RO         6827    .constdata          c_w.l(bigflt0.o)
    0x08009690   0x08009690   0x00000034   Data   RO          954    .conststring        freertos.o
    0x080096c4   0x080096c4   0x00000020   Data   RO         6968    Region$$Table       anon$$obj.o
    0x080096e4   0x080096e4   0x0000001c   Data   RO         6855    locale$$data        c_w.l(lc_numeric_c.o)


    Execution Region RW_IRAM1 (Exec base: 0x20000000, Load base: 0x08009700, Size: 0x00002a80, Max: 0x00005000, ABSOLUTE)

    Exec Addr    Load Addr    Size         Type   Attr      Idx    E Section Name        Object

    0x20000000   0x08009700   0x00000030   Data   RW          188    .data               bmp180.o
    0x20000030   0x08009730   0x0000000c   Data   RW          264    .data               esp8266.o
    0x2000003c   0x0800973c   0x00000004   Data   RW          798    .data               squeue.o
    0x20000040   0x08009740   0x00000004   Data   RW          799    .data               squeue.o
    0x20000044   0x08009744   0x00000001   Data   RW          852    .data               main.o
    0x20000045   0x08009745   0x00000001   Data   RW          853    .data               main.o
    0x20000046   0x08009746   0x00000002   PAD
    0x20000048   0x08009748   0x00000004   Data   RW          854    .data               main.o
    0x2000004c   0x0800974c   0x00000014   Data   RW          955    .data               freertos.o
    0x20000060   0x08009760   0x00000004   Data   RW         1292    .data               usart.o
    0x20000064   0x08009764   0x00000009   Data   RW         1378    .data               stm32f1xx_it.o
    0x2000006d   0x0800976d   0x00000003   PAD
    0x20000070   0x08009770   0x0000000c   Data   RW         1917    .data               stm32f1xx_hal.o
    0x2000007c   0x0800977c   0x00000004   Data   RW         5189    .data               system_stm32f1xx.o
    0x20000080   0x08009780   0x0000003c   Data   RW         5709    .data               tasks.o
    0x200000bc   0x080097bc   0x00000018   Data   RW         6339    .data               heap_4.o
    0x200000d4   0x080097d4   0x0000000c   Data   RW         6402    .data               port.o
    0x200000e0        -       0x00000200   Zero   RW          851    .bss                main.o
    0x200002e0        -       0x000002c4   Zero   RW          952    .bss                freertos.o
    0x200005a4        -       0x00000030   Zero   RW         1020    .bss                adc.o
    0x200005d4        -       0x00000028   Zero   RW         1079    .bss                can.o
    0x200005fc        -       0x00000054   Zero   RW         1156    .bss                i2c.o
    0x20000650        -       0x00000058   Zero   RW         1203    .bss                spi.o
    0x200006a8        -       0x00000048   Zero   RW         1245    .bss                tim.o
    0x200006f0        -       0x000001dc   Zero   RW         1291    .bss                usart.o
    0x200008cc        -       0x0000001c   Zero   RW         1377    .bss                stm32f1xx_it.o
    0x200008e8        -       0x00000048   Zero   RW         1544    .bss                stm32f1xx_hal_timebase_tim.o
    0x20000930        -       0x000000f0   Zero   RW         5708    .bss                tasks.o
    0x20000a20        -       0x00001000   Zero   RW         6338    .bss                heap_4.o
    0x20001a20        -       0x00000060   Zero   RW         6785    .bss                c_w.l(libspace.o)
    0x20001a80        -       0x00000800   Zero   RW            2    HEAP                startup_stm32f103xb.o
    0x20002280        -       0x00000800   Zero   RW            1    STACK               startup_stm32f103xb.o


==============================================================================

Image component sizes


      Code (inc. data)   RO Data    RW Data    ZI Data      Debug   Object Name

       168         24          0          0         48       1905   adc.o
       102          8          0          0          0     475121   bh1750.o
       560         32          0         48          0       3649   bmp180.o
       196         22          0          0         40       1962   can.o
       328         10          0          0          0      29280   cmsis_os.o
      1600        318          0          0          0      20864   control.o
       404         38          0          0          0       5628   dht11.o
        92          4          0          0          0        870   dma.o
      1192        464          0         12          0       5408   esp8266.o
         0          0          0          0          0      16908   event_groups.o
       392        128        164         20        708       4622   freertos.o
       288         20          0          0          0       1107   gpio.o
       460         24          0         24       4096       7547   heap_4.o
       156         26          0          0         84       1929   i2c.o
       138          0          0          0          0       3662   list.o
       596        150          0          6        512      16868   main.o
       568         16       2072          0          0       5418   oled.o
       662         70          0         12          0      11689   port.o
      1720         14          0          0          0      17694   queue.o
       948         18          0          0          0       9165   rc522.o
       184         24          0          0         88       1829   spi.o
       220          0          0          8          0       4918   squeue.o
        64         26        236          0       4096        856   startup_stm32f103xb.o
       100         18          0         12          0       5550   stm32f1xx_hal.o
      1260         54          0          0          0       6876   stm32f1xx_hal_adc.o
       216          6          0          0          0       1514   stm32f1xx_hal_adc_ex.o
      1046          0          0          0          0      10818   stm32f1xx_hal_can.o
       158         14          0          0          0      28410   stm32f1xx_hal_cortex.o
       808         36          0          0          0       5294   stm32f1xx_hal_dma.o
       524         40          0          0          0       4334   stm32f1xx_hal_gpio.o
      2218         54          0          0          0      12858   stm32f1xx_hal_i2c.o
        52          4          0          0          0        934   stm32f1xx_hal_msp.o
      1336        110          0          0          0       6121   stm32f1xx_hal_rcc.o
       436         46          0          0          0       2661   stm32f1xx_hal_rcc_ex.o
       876          4          0          0          0       4917   stm32f1xx_hal_spi.o
      1090         40          0          0          0      11594   stm32f1xx_hal_tim.o
       108         12          0          0          0       2545   stm32f1xx_hal_tim_ex.o
       140         22          0          0         72       1551   stm32f1xx_hal_timebase_tim.o
      1698         24          0          0          0      13726   stm32f1xx_hal_uart.o
       876        336          0          9         28      12969   stm32f1xx_it.o
         2          0         24          4          0       1251   system_stm32f1xx.o
      2348        168          0         60        240      25191   tasks.o
       144         20          0          0         72       1802   tim.o
       694         60          0          4        476       6048   usart.o

    ----------------------------------------------------------------------
     27218       2504       2530        224      10560     815863   Object Totals
         0          0         32          0          0          0   (incl. Generated)
        50          0          2          5          0          0   (incl. Padding)

    ----------------------------------------------------------------------

      Code (inc. data)   RO Data    RW Data    ZI Data      Debug   Library Member Name

         8          0          0          0          0         68   __main.o
       312          4         17          0          0         92   __printf_flags_wp.o
        14          0          0          0          0         68   __printf_wp.o
         0          0          0          0          0          0   __rtentry.o
        12          0          0          0          0          0   __rtentry2.o
         6          0          0          0          0          0   __rtentry4.o
        52          8          0          0          0          0   __scatter.o
        26          0          0          0          0          0   __scatter_copy.o
        28          0          0          0          0          0   __scatter_zi.o
        48          6          0          0          0         96   _printf_char_common.o
        36          4          0          0          0         80   _printf_char_file.o
         6          0          0          0          0          0   _printf_d.o
       120         16          0          0          0         92   _printf_dec.o
         6          0          0          0          0          0   _printf_f.o
      1054          0          0          0          0        216   _printf_fp_dec.o
       128         16          0          0          0         84   _printf_fp_infnan.o
        88          4         40          0          0         88   _printf_hex_int.o
       178          0          0          0          0         88   _printf_intcommon.o
        78          0          0          0          0        108   _printf_pad.o
         0          0          0          0          0          0   _printf_percent.o
         4          0          0          0          0          0   _printf_percent_end.o
         6          0          0          0          0          0   _printf_x.o
        10          0          0          0          0         68   _sputc.o
       228          4        148          0          0         96   bigflt0.o
      1936        128          0          0          0        672   btod.o
        10          0          0          0          0         68   defsig_exit.o
        50          0          0          0          0         88   defsig_general.o
        80         58          0          0          0         76   defsig_rtmem_inner.o
        14          0          0          0          0         80   defsig_rtmem_outer.o
        18          0          0          0          0         80   exit.o
         8          0          0          0          0         68   ferror.o
        94          0          0          0          0         80   h1_alloc.o
        52          0          0          0          0         68   h1_extend.o
        78          0          0          0          0         80   h1_free.o
        14          0          0          0          0         84   h1_init.o
         6          0          0          0          0        152   heapauxi.o
         4          0          0          0          0        136   hguard.o
         0          0          0          0          0          0   indicate_semi.o
       138          0          0          0          0        168   init_alloc.o
        44         10         28          0          0         76   lc_numeric_c.o
         2          0          0          0          0          0   libinit.o
        26          0          0          0          0          0   libinit2.o
         2          0          0          0          0          0   libshutdown.o
         2          0          0          0          0          0   libshutdown2.o
         8          4          0          0         96         68   libspace.o
       138          0          0          0          0         80   lludiv10.o
         0          0          0          0          0          0   maybetermalloc1.o
        24          4          0          0          0         84   noretval__2printf.o
