:020000040800F2
:10000000700800208D0100088F240008B71D00082B
:100010008D240008AD040008252A00080000000017
:10002000000000000000000000000000872500081C
:10003000C904000800000000852500088925000883
:10004000292A0008A7010008A7010008A701000845
:10005000A7010008A7010008A7010008A7010008E0
:10006000A7010008A7010008A7010008A7010008D0
:10007000A7010008A7010008B1040008BD0400089A
:10008000A7010008A7010008A7010008A7010008B0
:10009000A7010008A7010008A7010008F104000853
:1000A000A7010008A7010008A7010008A701000890
:1000B000A7010008A7010008A7010008A701000880
:1000C000A7010008A7010008A7010008A701000870
:1000D000A7010008192A0008A7010008A7010008C5
:1000E000CB040008A7010008A701000800F002F8EF
:1000F00000F03CF80AA090E8000C82448344AAF186
:100100000107DA4501D100F031F8AFF2090EBAE883
:100110000F0013F0010F18BFFB1A43F0010318473B
:10012000582A0000782A0000103A24BF78C878C105
:10013000FAD8520724BF30C830C144BF04680C60ED
:10014000704700000023002400250026103A28BF35
:1001500078C1FBD8520728BF30C148BF0B60704739
:10016000002070471FB51FBD10B510BD00F020F96D
:100170001146FFF7F7FF02F0C1FC00F03EF903B4AF
:10018000FFF7F2FF03BC02F090FC00000948804733
:1001900009480047FEE7FEE7FEE7FEE7FEE7FEE769
:1001A000FEE7FEE7FEE7FEE704480549054A064B81
:1001B00070470000EB250008ED00000870020020E9
:1001C00070080020700400207004002070470000B8
:1001D0000FB4044910B503AA029800F0CFF810BC80
:1001E0005DF814FB300000202DE9F0474FF0000AC5
:1001F00089460446C0F820A02046E16888470028C8
:1002000076D0252806D0D4E901219047206A401CE9
:100210002062F1E7E168204600258847C4F81CA069
:1002200006460027C4F818A02A2E09D0304602F04E
:1002300035FC38B304EB8708303EC8F8186019E085
:1002400059F8041B204604EB87029161E168884756
:10025000012F064618D1E069002820DA25F0200594
:100260001DE0D8F8180000EB800006EB40003038A5
:10027000C8F818002046E1688847064602F00EFCE0
:100280000028EED1012F0AD02E2E08D12046E16899
:1002900088477F1C0646022F45F02005C4DBA06975
:1002A000002803DA404245F00105A061E80701D0CB
:1002B00025F01005B6B1A6F14100192802D8203664
:1002C00045F400654A463146204625604D46FFF715
:1002D00047FF58B1012806D0ED1D25F0070000F1B9
:1002E000080989E704E005F1040985E730468AE753
:1002F000206ABDE8F0874FF0000200B5134694462F
:100300009646203922BFA0E80C50A0E80C50B1F16D
:100310002001BFF4F7AF090728BFA0E80C5048BF81
:100320000CC05DF804EB890028BF40F8042B08BF1F
:10033000704748BF20F8022B11F0804F18BF00F81B
:10034000012B7047704770477047704701694A1C1E
:1003500002610878704700B58FB0CDE90131002106
:10036000059105497944CDE9031011466846FFF728
:100370003BFF0FB000BD0000E5FFFFFF074B70B56E
:100380000D467B44FFF7E7FF0446284600F008F8D7
:1003900010B14FF0FF3070BD204670BD5F270000E8
:1003A000007B00F08000704700487047100200207A
:1003B0007546FFF7F9FFAE4605006946534620F043
:1003C0000700854618B020B5FFF7EEFEBDE82040D7
:1003D0004FF000064FF000074FF000084FF0000B01
:1003E00021F00701AC46ACE8C009ACE8C009ACE8B4
:1003F000C009ACE8C0098D46704710B50446AFF39C
:1004000000802046BDE81040FFF7B9BE10B50120BE
:1004100000F00CF8072000F009F8102000F006F8B2
:10042000BDE81040822000F0B7B9000001B582B0ED
:100430004FF47A700090012302AA4621014800F08F
:10044000CDFC0EBD4C00002010B5AA2002F02EFB02
:10045000154C2080AC2002F029FB6080AE2002F019
:1004600025FBA080B02002F021FBE080B22002F04A
:100470001DFB2081B42002F019FB6081B62002F040
:1004800015FBA081B82002F011FBE081BA2002F038
:100490000DFB2082BC2002F009FB6082BE2002F02E
:1004A00005FBA08210BD000000000020FEE7000058
:1004B000014800F099B8000074010020014800F0E4
:1004C00093B80000B8010020704710B54FF4805079
:1004D00000F096F94FF4005000F092F94FF480408C
:1004E00000F08EF9BDE810404FF4004000F088B9EC
:1004F00010B5202000F084F9BDE810404FF4807062
:1005000000F07EB972B6FEE710B590F82110002217
:10051000022905D00421816380F82020012010BD2C
:1005200001680B6823F00E030B6001680B6823F071
:1005300001030B6090F84030C46B012101FA03F312
:10054000636080F8211080F82020104610BD000064
:1005500010B590F821100024022903D004218163F2
:1005600001243DE001680A6822F00E020A60016879
:100570000A6822F001020A601A4A0168914201D118
:10058000012121E0174A1432914201D110211BE0D0
:10059000144A2832914201D1891515E0114A3C32A2
:1005A000914201D189140FE00E4A5032914202D19A
:1005B0004FF4803108E00B4A6432914202D14FF48B
:1005C000801101E04FF08071064A083A5160012124
:1005D00080F82110002180F82010416B01B188477C
:1005E000204610BD080002402DE9F05FC16B0C6889
:1005F00001680B68D0F840C0042202FA0CF2494DA1
:10060000DFF824A1494E4A4FDFF828B1DFF828E18E
:1006100022422CD05A072AD50A68920603D40A68C7
:1006200022F004020A600168A94201D1042219E003
:10063000514501D1402215E0B14202D14FF4806210
:1006400010E0B94202D14FF480420BE0594502D18B
:100650004FF4802206E0714502D14FF4800201E0A0
:100660004FF080622F4908394A60C16A3BE04FF081
:10067000020808FA0CF818EA040F4FF000094FF0CE
:10068000010235D05FEA837832D50B689B0605D42A
:100690000B6823F00A030B6080F821200168A9424F
:1006A00001D1022219E0514501D1202215E0B142C9
:1006B00002D14FF4007210E0B94202D14FF400525F
:1006C0000BE0594502D14FF4003206E0714502D1EA
:1006D0004FF4001201E04FF00072124908394A60ED
:1006E00080F82090816A00291AD0BDE8F05F0847A1
:1006F000082505FA0CF5254212D01B0710D50B680A
:1007000023F00E030B6090F84010C36B02FA01F166
:100710005960826380F8212080F82090016BE2E725
:10072000BDE8F09F080002401C000240300002407B
:1007300044000240580002406C00024030B528B32B
:1007400008C8134914221944B1FBF2F18900C163AE
:1007500010498163022141771A6843F6F0718A4398
:10076000D0E900142143D0E902452C432143046918
:1007700021434469214384692143114319600021C5
:100780004163012242770177084630BD012030BD28
:10079000F8FFFDBF0000024070B5044600F032F9DA
:1007A0000546601C02D004480078044400F02AF991
:1007B000401BA042FAD370BD3C0000200F49B0F5A9
:1007C000005F10D0B0F5804F0FD020280FD0B0F5CB
:1007D000004F0ED0B0F5805F0DD0B0F5807F01D115
:1007E0000620087070470120FBE70220F9E703208C
:1007F000F7E70420F5E70520F3E7000034000020C8
:10080000044910B50A68024202D00860FFF7D6FF1B
:1008100010BD0000140401402DE9F84FDFF8B89135
:10082000002409F1040A0AF1040B23460F270BF1F7
:10083000040EC9E00125A5402A40AA427DD1674E99
:10084000D1F804C0ACEB0608B44532D014DCBCF1DE
:10085000030F3AD009DCBCF1000F2AD0BCF1010F24
:100860001CD0BCF1020F31D11DE0BCF1110F17D02B
:10087000BCF1120F2AD119E0B8F5881F19D006DC97
:10088000B8F5803F15D0B8F5801F1FD111E0B8F53D
:10089000001F0ED0B8F5041F18D10AE0CB6815E090
:1008A000CB681B1D12E0CB6808330FE0CB680C331C
:1008B0000CE08B682BB1012B4FF0080303D045618E
:1008C00004E0042302E0056100E00023FF2A01D8D0
:1008D000064601E000F104064FEA840501D9A5F1BE
:1008E0002005D6F8008007FA05FC28EA0C0803FA70
:1008F00005F548EA0508C6F800804D68ED0062D5A8
:10090000374DAE6946F00106AE61AD6924F00306CD
:1009100005F001050095334D06EB050CDCF8085099
:10092000A607360F07FA06F825EA0805DFF8B880AB
:10093000404503D14FF0000817E044E0DFF8AC80F9
:10094000404502D14FF001080FE0DFF8A480404598
:1009500002D14FF0020808E0DFF89880404502D14C
:100960004FF0030801E04FF0040808FA06F848EADF
:100970000508CCF808804D68D9F80060ED034D46B5
:1009800001D5164300E096432E604D68DAF800600A
:10099000AD03554601D5164300E096432E604D68E1
:1009A000DBF80060ED025D4601D5164300E096439A
:1009B0002E604D68DEF80060AD02754601D5164325
:1009C00000E096432E60641C0D682A46E5407FF4E3
:1009D00031AFBDE8F88F00000004014000001110A5
:1009E000001002400000014000080140000C0140DE
:1009F00000100140001401400AB101617047090470
:100A0000FBE7000001488068704700003C000020C0
:100A100070B5040025D094F83D00002520B984F875
:100A20003C50204600F070FA242084F83D002068F5
:100A3000016821F0010101602068016841F4004172
:100A400001602068016821F40041016000F0B0FB02
:100A50004D4A6168914201D84C4900E04C498842B6
:100A600001D2012070BD4B492368B0FBF1F15E68F3
:100A700026F03F060E435E606368934206D94FF44A
:100A8000967359434FF47A73B1FBF3F12368491C11
:100A90001E6A26F03F06314319626168914210D800
:100AA0004900401EB0FBF1F2521CC2F30B02042AB3
:100AB00001D2042022E0B0FBF1F0401CC0F30B0097
:100AC0001CE0A268F2B301EBC10303EB0116431E65
:100AD000B3FBF6F35B1C43F480431B0549D092B390
:100AE00001EBC10202EB0111401EB0FBF1F0401C12
:100AF000C0F30B0040F4804040F400402168CA6914
:100B00004CF6FF739A431043C861D4E907100143C0
:100B10002068026822F0C00211430160D4E9030199
:100B200001432068826848F2FF339A431143816091
:100B3000D4E9050108432168CA6822F0FF02104386
:100B4000C86001E00EE016E02068016841F0010194
:100B500001602564202084F83D00256384F83E5020
:100B6000002070BD01EB4106431EB3FBF6F35B1C96
:100B7000B3E70120C2E701EB4101401EB0FBF1F0F9
:100B8000401CC0F30B00B7E7A086010080841E0064
:100B900000093D0040420F002DE9F84F0025DDF827
:100BA0002890984617468A4604460095FFF72AFF84
:100BB000064694F83D0020287AD119230122834962
:100BC0002046009601F0FAF90028F5D194F83C008F
:100BD00001286DD0012084F83C0020680168C90715
:100BE00003D1016841F0010101602068016821F42E
:100BF00000610160222084F83D00102084F83E004E
:100C000025646762A4F82A80608D20857048E062C0
:100C100033464A465146204601F0E6F800287DD189
:100C2000208DDFF8B081202768B1012814D0022878
:100C3000206801681ED041F480610160206841692C
:100C400080690090B5E02068416981690091016880
:100C500041F400710160ACE02068016821F480611A
:100C6000016072B62068416981690091016841F4B0
:100C700000710AE041F40061016072B620684169C8
:100C800081690091016821F48061016062B690E0A1
:100C9000032868D801280CD002284B464FF00002E8
:100CA0004146204600960FD001F088F9B0BB10E015
:100CB0008AE032464946204601F0FFF970BB2068C1
:100CC0000069616A08706BE001F078F930BB72B6B8
:100CD00034E02068016821F48061016072B6206808
:100CE0000069616A0870606A401C6062208D401E65
:100CF0002085608D401E6085374846F2A811006847
:100D0000B0FBF1F0C0EBC00000EB80000090401E93
:100D1000009008D020684069C04300E029E0400707
:100D20000CD50098F3E744F8305F6773A57320692A
:100D300040F02000206162B625731AE02068016847
:100D400041F40071016020680069616A0870606A9E
:100D5000401C6062218D491E2185618D491E61857F
:100D600062B621681AE032464946204601F0A5F9EC
:100D700010B10120BDE8F88F20680069616A087031
:100D8000606A401C6062218D491E2185618D491E6B
:100D9000618521684A69D24352070AD40969017002
:100DA000606A401C6062208D401E2085608D401E60
:100DB0006085208D00287FF46BAF84F83D7084F847
:100DC0003E5084F83C50D5E70220D3E702001000E3
:100DD0000000FFFF04000100480000202DE9F84F4B
:100DE0001F4690468A460446DDF82890FFF70AFE23
:100DF000054694F83D0020287FD11923012240495F
:100E00002046009501F0DAF8002876D194F83C00ED
:100E1000012872D0012084F83C0020680168C907CD
:100E200003D1016841F0010101602068016821F4EB
:100E300000610160212084F83D00102084F83E000C
:100E400000262664C4F824806785608D20852D489F
:100E5000E0622B464A465146204601F03BF890B9E5
:100E6000206841698069009036E02A46494620465C
:100E700001F056F950B1206C042804D120680168B3
:100E800041F4007101600120BDE8F88F606A2168BB
:100E900000780861606A401C6062618D491E61854E
:100EA000218D491E89B2218522685369DB435B0786
:100EB0000BD451B100781061606A401C6062608D93
:100EC000401E6085208D401E20852A4649462046CA
:100ED00001F04EF80028CED1208D0028C5D154F85D
:100EE0003D0B016841F400710160202004F81E09E7
:100EF000E67766770020C7E7FFE70220C4E7000037
:100F0000020010000000FFFF10B586B00021009124
:100F100001910291039100680F4988421AD10F4C48
:100F2000A06940F00800A061A069694600F00800CF
:100F30000490C020009012200190032003900848E4
:100F4000FFF76AFCE06940F40010E061E06900F43A
:100F50000010049006B010BD005400400010024084
:100F6000000C01400248816802781144816070479A
:100F70003C000020074810B5016841F010010160F5
:100F8000032000F06DF80F2000F006F800F024F8C0
:100F9000002010BD0020024070B50D4D04464FF4F6
:100FA0007A712878B1FBF0F00A490968B1FBF0F0DA
:100FB00000F0E4FA48B9102C07D200222146501E56
:100FC00000F02EF800206C6070BD012070BD0000A4
:100FD0003C00002048000020094808B5816941F024
:100FE00001018161816901F001010091C16941F054
:100FF0008051C161C06900F08050009008BD0000C0
:1010000000100240002809DB00F01F02012191407E
:101010004009800000F1E020C0F800117047000096
:10102000F0B40E4B1B680C46C3F30223C3F1070553
:10103000042D00D90425191D072901D2002300E041
:10104000DB1E012606FA05F1491E214099409E400B
:10105000761E16403143F0BC01F010BD0CED00E0EF
:10106000064900F0070208684FF6FF03184040EAFF
:101070000220034A10430860704700000CED00E0B6
:101080000000FA052DE9F0470F46050061D0434EF8
:10109000306800F00700B84209D2306820F007003D
:1010A00038433060306800F00700B84251D12868FA
:1010B0003B4C810712D5400703D5606840F4E060DF
:1010C00060602878000703D5606840F46050606075
:1010D0006068A96820F0F000084360602878C007C5
:1010E00028D06868012810D02168022810D089070C
:1010F00000292EDA616821F0030101436160FFF7E6
:1011000081FC804641F288390DE021688903EFE7D0
:101110008901EDE7FFF776FCA0EB0801494502D90C
:101120000320BDE8F0876068696800F00C00B0EB50
:10113000810FEFD1306800F00700B8420BD930685A
:1011400020F0070038433060306800F00700B842F4
:1011500001D00120E5E72878400705D56068E968F7
:1011600020F4E060084360602878000706D56068D6
:10117000296920F4605040EAC100606000F038F84E
:101180006168084AC1F30311515CC8400649086010
:1011900006480068FFF700FF0020C2E70020024079
:1011A00000100240602B0008480000204000002092
:1011B0000448054900684968044AC1F30221515CAA
:1011C000C84070474800002000100240702B000803
:1011D0000448054900684968044AC1F3C221515CCA
:1011E000C84070474800002000100240702B0008E3
:1011F00012A185B00FC98DE80F0014A0144A006831
:1012000004905168134801F00C03042B10D0082BF4
:101210000ED1C1F38343C9031DF803000AD55168F9
:1012200004AAC1F34041515C0A4A5043B0FBF1F0BB
:1012300005B0704708494843FAE700000203040577
:10124000060708090A0B0C0D0E0F10100102000012
:101250000010024000127A0000093D002DE9F84F0D
:10126000040070D02078C04DC00749D06868C0F332
:101270008100012807D06868C0F38100022809D1E5
:101280006868C00306D52868800339D560680028DF
:10129000E7D035E06068B0F5803F0BD010B1B0F515
:1012A000A02F11D0286820F480302860286820F40E
:1012B000802002E0286840F480302860606890B1A7
:1012C000FFF7A0FB06460AE0286840F4802028606B
:1012D000F0E700BFFFF796FB801B642873D82868EF
:1012E0008003F7D50CE0FFF78DFB064605E000BF55
:1012F000FFF788FB801B6428F0D828688003F7D4A8
:1013000020789A4E80074FF001094FF0000839D538
:10131000686810F00C0F07D06868C0F381000228DD
:1013200009D16868C00306D42868800714D52069ED
:10133000012808D110E02069B0B1C6F80090FFF78D
:1013400061FB074605E00AE1FFF75CFBC01B0228D2
:10135000C4D828688007F7D52868616920F0F800AC
:1013600040EAC10028600DE0C6F80080FFF74AFBA4
:10137000074604E0FFF746FBC01B022823D8286875
:101380008007F7D4207800072CD57948A169D9B116
:10139000C0F80090FFF736FB074604E0FFF732FB8A
:1013A000C01B02280FD8686A8007F7D571484FF430
:1013B000FA510068B0FBF1F0009000BF0098411EA8
:1013C0000091FAD20EE080E0C0F80080FFF71AFB2F
:1013D000074604E0FFF716FBC01B022875D8686AB1
:1013E0008007F7D42078400760D5E8690027C0005F
:1013F00008D4E86940F08050E861E869012700F00E
:10140000805000905C480168C90513D40168834688
:1014100041F480710160FFF7F5FA824606E000BFF3
:10142000FFF7F0FAA0EB0A0064284ED8DBF80000C2
:10143000C005F5D5E06801280AD008B1052813D009
:10144000286A20F001002862286A20F0040002E0E7
:10145000286A40F001002862E06841F2883B98B1B8
:10146000FFF7D0FA82460BE0286A40F004002862B9
:10147000EEE700BFFFF7C6FAA0EB0A0159455AD8BC
:10148000286A8007F6D50CE0FFF7BCFA824605E033
:10149000FFF7B8FAA0EB0A0159454CD8286A800733
:1014A000F6D41FB1E86920F08050E861E06988B3A4
:1014B0006968C1F38101022944D00228C6F860801E
:1014C00004D0FFF79FFA044638E034E0FFF79AFAB9
:1014D000074604E0FFF796FAC01B02282BD82868BD
:1014E0008001F7D4206AB0F5803F05D16868A16813
:1014F00020F4003008436860D4E9080108436968B3
:1015000021F4741108436860C6F86090FFF77AFA16
:10151000044606E025E000BFFFF774FA001B02282E
:1015200009D828688001F7D51BE000BFFFF76AFAE9
:10153000001B022802D90320BDE8F88F286880012B
:10154000F4D40EE00128F7D06868226A00F48031F4
:10155000914204D1616A00F47010884201D00120E8
:10156000EAE70020E8E700000010024000004242E5
:1015700080044242480000200070004010B5401E28
:10158000B0F1807F01D3012010BD4FF0E0246061F5
:101590000F21601701F072FA0020A061072020617E
:1015A000002010BD70B590F83C20012A26D00124FF
:1015B00080F83C40022280F83D2003685A689D680C
:1015C00022F070060A6832435A600D4B02689A4254
:1015D00008D0B2F1804F05D00A4B9A4202D00A4B94
:1015E0009A4204D1496825F080031943916080F83C
:1015F0003D40002180F83C10084670BD022070BDBF
:10160000002C0140000400400008004010B5040018
:1016100003D094F83D0010B107E0012010BD002078
:1016200084F83C00204600F01FF8022084F83D00BA
:10163000211D206800F0DAFF012084F8460084F8BC
:101640003E0084F83F0084F8400084F8410084F8AC
:10165000420084F8430084F8440084F8450084F88C
:101660003D00002010BD000008B50C4A01680C4880
:10167000914207D1C16941F00201C161C06900F026
:10168000020009E0074A914207D1C16941F0040113
:10169000C161C06900F00400009008BD0004004072
:1016A000001002400008004070B5044690F83C006D
:1016B000012817D0012584F83C50022084F83D0011
:1016C0002068826822F0770222F47F4282600868F4
:1016D000502830D00DDC20284DD005DC98B31028E0
:1016E0003BD148E0022070BD302844D0402834D19E
:1016F00039E0602828D0702806D0B0F5805F2CD063
:10170000B0F5005F29D10AE0CB68D1E9012120685A
:1017100000F0A2FF2068816841F0770109E0CB6802
:10172000D1E90121206800F097FF2068816841F429
:101730008041816011E0CA684968206801F040F882
:101740005021206807E016E0CA684968206801F067
:1017500048F86021206800F089FF84F83D5000209F
:1017600084F83C0070BDCA684968206801F028F818
:1017700040212068EFE7226801461046EBE70000B1
:1017800000B585B00021009101910291039100689C
:101790000B49884212D10B48816941F008018161EF
:1017A0008069694600F0080004904FF44070009092
:1017B0000220019003900448FFF72EF805B000BD09
:1017C0000008004000100240000C014070B50446C3
:1017D00090F83C000D4601280AD0012084F83C0016
:1017E00042B1042A18D0082A2AD00C2A4DD139E057
:1017F000022070BD206800F041FF2068816941F03F
:10180000080181612068816921F0040181612068FB
:1018100081692A69114311E0206800F057FF2068B0
:10182000816941F4006181612068816921F48061EE
:101830008161206881692A6941EA0221816124E08D
:10184000206800F06FFF2068C16941F00801C161A4
:101850002068C16921F00401C1612068C1692A6959
:10186000114311E0206800F089FF2068C16941F44C
:101870000061C1612068C16921F48061C161206893
:10188000C1692A6941EA0221C161002084F83C0053
:1018900070BD10B5040003D094F83D0010B107E00E
:1018A000012010BD002084F83C00204600F01EF806
:1018B000022084F83D00211D206800F097FE0120E1
:1018C00084F8460084F83E0084F83F0084F8400025
:1018D00084F8410084F8420084F8430084F844000E
:1018E00084F8450084F83D00002010BD7047704723
:1018F00070470000F8B5026804461068D168536963
:1019000010F00F0F4FF0000553D003F0010601F463
:10191000907737435FD0C20705D0CA0503D5226C44
:1019200042F001022264420705D5DA0703D0226C97
:1019300042F002022264820705D5DA0703D0226C46
:1019400042F004022264020707D501F0200232436C
:1019500003D0226C42F008022264226C002A34D0A8
:10196000800604D5880602D5204600F06CFF20686A
:101970004069216CC0F38010090700D430B32046C1
:1019800000F049FF2068416949061BD5416921F0F3
:1019900040014161A06BA8B158494163A06BFEF7BB
:1019A000D7FD002811D0A06B416B01B0BDE8F0401D
:1019B000084783060FD58B060DD52046BDE8F840B5
:1019C00000F041BF2046FFF793FFF8BD2046FFF728
:1019D0008FFF2564F8BD266B2023012E52D1C60649
:1019E00050D5CE064ED5106850680090506940061C
:1019F0002AD5A16B086840680004000CEAD0A68DC7
:101A00008642E7D9E0858869202818D0D06820F47C
:101A10008070D0602068416921F001014161206837
:101A2000416921F04001416184F83E30256320681E
:101A3000C16821F01001C160A06BFEF765FDA08DAB
:101A4000E18D401A81B219E0A08DE18D401A81B27A
:101A5000E08D0028BED00029BCD0D06820F4907062
:101A6000D0602068426922F00102426184F83E3071
:101A700025632068C26822F01002C2602046FFF78A
:101A800036FFF8BD05062BD50D0629D594F83D0087
:101A90002128F6D1A068B0F5805F01D12069B0B1EE
:101AA000206A411C2162216800784860E08C401E59
:101AB0000004000CE084E4D12068C16821F08001BA
:101AC000C1602068C16841F04001C160F8BD206A72
:101AD0000088C0F308005060206A801C2062E5E79F
:101AE0004006F3D54806F1D5D168204621F04001E3
:101AF000D16084F83D3000F002F9F8BD07280008F5
:101B000070B5040004D094F83D00002510B106E043
:101B1000012070BD84F83C50204600F023F82420BA
:101B200084F83D002068C16821F40051C16020465E
:101B300000F0E4FE2068016921F490410161206811
:101B4000416921F02A0141612068C16841F40051D6
:101B5000C1602564202084F83D0084F83E00002008
:101B600070BD00002DE9F04186B0002406460094C7
:101B700001940294039400682E49884256D12E485D
:101B8000816941F480418161816901F4804104915E
:101B9000816941F0040181618069284D00F00400F1
:101BA00004904FF4007000900220019003200390F5
:101BB00069462846FEF730FE2815CDE9000469463F
:101BC00028460294FEF728FE1E4D1D484FF080085F
:101BD00001C51020A5E81101070245F81049194870
:101BE0006C61C5E90647FEF7A9FD08B1FEF78AFC5E
:101BF00075636E62134D124844351430C5E9000414
:101C0000C5E902482C616C61C5E906472846FEF724
:101C100095FD08B1FEF776FCB5630022114625203C
:101C20006E62FFF7FDF92520FFF7ECF906B0BDE87D
:101C3000F08100000038014000100240000801401F
:101C40004400024074010020704700002DE9F84371
:101C5000044690F83D001F4616460D4620284CD1FC
:101C6000C5B1BEB194F83C00012846D0012084F8EB
:101C70003C004FF00008C4F84080212084F83D006B
:101C8000FEF7C0FEA6848146E684A068B0F5805FBA
:101C900003D004E00120BDE8F883206928B12E4676
:101CA0005FF0000584F83C800EE00026FAE7802112
:101CB000204600F07FFEA0B9AEB116F8010B2168F6
:101CC0004860E08C401EE084E08C4B464FF0000200
:101CD00000970028EBD14FF04001204600F06AFE4B
:101CE00030B10320D7E735F8020BC0F30800E6E770
:101CF000202084F83D000020CDE70220CBE770478C
:101D000008494A68521C4A600B78052B04D0282ADF
:101D100006D800BF00F04AB800220A704A60F9E70E
:101D2000704700003400002010B501684A68D243B3
:101D3000920507D48A68D243D20703D1921E8A60E3
:101D4000FFF7DEFF10BD10B504000FD000F010F853
:101D5000E068216840F080000860616820690843FD
:101D6000A168084321684860002010BD012010BD13
:101D700008B500680B49884212D10B48C16941F48B
:101D80000061C161C069002200F40060009011464A
:101D90001046FFF745F9BDE808400020FFF732B9CB
:101DA00008BD0000002C004000100240C16800681F
:101DB000016000207047FEE701684A69D24352057E
:101DC0000FD46FF480624A61002140F8301F202256
:101DD00042738173026942F00402026101730120BF
:101DE00070470020704700002DE9F84F0446C06A94
:101DF0001E4693460D4621680A6842F480620A60D6
:101E0000082807D0012805D010F5803F02D0206BAC
:101E1000112804D12068016841F4807101604FF0FD
:101E200001195B46002249462046009600F0C6F89C
:101E30004FF4007840B120680068C00501D5C4F8AF
:101E400040800320BDE8F88F2069DFF884A0B0F55A
:101E5000804F0FD00620216800EAD51747F0F00028
:101E6000086133465A460AF10601204600F0DAF8C6
:101E700058BB03E0E8B240F001001CE02168E8B282
:101E8000086133465A465146204600F0CBF8E0B987
:101E90002068416981690091016841F480710160A5
:101EA0005B46002249462046009600F087F800284D
:101EB000C1D147F0F1002168086133465A465146C6
:101EC000204600F0AFF80028BCD00120BAE700009F
:101ED00002000100F8B50446C06A1E460D461746CA
:101EE000082807D0012805D010F5803F02D0206BCC
:101EF000122804D12068016841F480710160134602
:101F000000224FF001112046009600F057F840B132
:101F100020680068C00502D54FF4007020640320DB
:101F2000F8BD2069B0F5804F0ED00620216800EA88
:101F3000D51040F0F000086133463A460B49204680
:101F400000F070F878B902E005F0FE0000E0E8B2B9
:101F500021680861054933463A46891F204600F04A
:101F600061F80028DCD00120F8BD00000800010065
:101F700070B516460D4604460DE02046FFF71CFFDF
:101F800008B1012070BD681C05D0FEF73BFD801B29
:101F9000A84207D835B120684069C0434007ECD457
:101FA000002070BD002044F8300F20216173A07321
:101FB000216941F0200121612073E2E72DE9F0471A
:101FC0001E4690460D460446C1F30747DDF82090B3
:101FD00008E0701C06D0FEF715FDA0EB0900B0422A
:101FE0000FD876B12068012F18D0806925EA00004B
:101FF0000004000C14D000214145EAD00020BDE8C7
:10200000F087002044F8300F20216173A07321690C
:1020100041F02001216120730120F0E74069E5E7EC
:102020000121E9E72DE9F0479A4691460E4604461C
:1020300000254FF02008C1F3074725E020684069DC
:10204000C043400514D42068016841F40071016068
:1020500021686FF480604861256384F83D8084F8CE
:102060003E50206C40F00400206484F83C501FE097
:10207000B9F1FF3F08D0FEF7C5FCA0EB0A014945C6
:102080000CD8B9F1000F09D02068012F13D0806956
:1020900026EA00000004000C0BD0CFE744F8305FC4
:1020A00084F80D80A573206940F02000206125731D
:1020B0000120BDE8F0874069EAE72DE9F0410025FD
:1020C00090460E460446202717E04069C043C006EC
:1020D0000CD454F8301B6FF01000486144F81059CC
:1020E0006777A577206A2062257717E0FEF78AFCDC
:1020F000A0EB0800B04208D83EB120684169C9434E
:102100004906E2D40020BDE8F08144F8305F6773EF
:10211000A573206940F02000206125730120F2E7BB
:1021200070B516460D4604460DE02046FFF744FE06
:1021300008B1012070BD681C05D0FEF763FC801B50
:10214000A84207D835B120684069C0430006ECD4E6
:10215000002070BD002044F8300F20216173A0736F
:10216000216941F0200121612073E2E70D4808B5A3
:10217000416941F0010141614069002200F0010024
:10218000009011460E20FEF74BFF0E20FEF73AFF9F
:10219000002211460F20FEF743FFBDE808400F2044
:1021A000FEF730BF001002402DE9F04186B0002458
:1021B0003A480094019402940394816941F010011B
:1021C0008161816901F010010491816941F0200170
:1021D0008161816901F020010491816941F004016C
:1021E0008161816901F004010491816941F0080174
:1021F000816180692A4E00F008004FF40055049078
:10220000002229463046FEF7F7FB0220CDE90240C6
:1022100000950125694601953046FEF7FDFA10202C
:102220008DE831001F4F69463846FEF7F5FA1E4E1D
:102230004FF47040CDE90006DFF8708069460295E2
:102240004046FEF7E9FA2802CDE900066946029504
:102250003846FEF7E1FAE802CDE90004694638465F
:102260000294FEF7D9FA2020CDE9000669460294CF
:102270004046FEF7D1FA002211461720FEF7D0FEA5
:102280001720FEF7BFFE002211462820FEF7C8FEE9
:102290002820FEF7B7FE06B0BDE8F081001002402E
:1022A000001001400008014000002110000C014016
:1022B0000D4810B50B4901600C49416000214FF4F5
:1022C00080428160C0E9031241618161C1610162A4
:1022D000FEF79EFB002803D0BDE81040FEF712B9C0
:1022E00010BD0000005400404C000020A0860100FA
:1022F00010B586B00024174800940194029403940A
:1023000004941349059401604721C0E901144FF674
:10231000FF71C0E903148461FFF778F908B1FEF793
:10232000F1F84FF48050009069460A48FFF7BCF975
:1023300008B1FEF7E7F8049404A906480594FFF7EE
:1023400031F9002801D0FEF7DDF806B010BD00001D
:1023500000040040A000002030B58DB00024079498
:10236000089409940A940B941C2168460C94FDF778
:10237000C2FF294D27482860472068601020A860C8
:102380004FF47A70C5E903048020A8612846FFF75E
:102390003DF908B1FEF7B6F84FF48050079007A951
:1023A0001D48FFF781F908B1FEF7ACF81A48FFF7AE
:1023B00070FA08B1FEF7A6F80B940BA916480C9416
:1023C000FFF7F0F808B1FEF79DF86020CDE90004B2
:1023D000022002900822694604940F48FFF7F6F99C
:1023E00008B1FEF78FF82868C16921F00801C161C2
:1023F0000C2269460848FFF7E9F908B1FEF782F8B0
:102400002868C16921F40061C1610348FFF7B8F988
:102410000DB030BD00080040E80000200C4810B5A9
:102420000A4901604FF4E1314160002181600C22D2
:10243000C160C0E904128161C161FFF761FB00283E
:1024400003D0BDE81040FEF75DB810BD0038014074
:10245000300100200C4810B50A4901604FF4C071EA
:1024600041605F2181607621C1604FF4007101619C
:10247000FFF769FC002803D0BDE81040FEF742B822
:1024800010BD0000002C0040FC010020FEE7FEE72C
:10249000002000F001B8000070B506465FF00004AF
:1024A00004F1B000C0B200F0C5FA002000F0C2FA9A
:1024B000102000F0BFFA0025304600F0CDFA6D1C68
:1024C000EDB2802DF8D3641CE4B2082CE8D370BDC3
:1024D00010B56420FEF760F9AE2000F0ABFA2020C2
:1024E00000F0A8FA102000F0A5FAB02000F0A2FA3F
:1024F000C82000F09FFA002000F09CFA102000F0A5
:1025000099FA402000F096FA812000F093FAFF201B
:1025100000F090FAA12000F08DFAA62000F08AFACF
:10252000A82000F087FA3F2000F084FAA42000F0F1
:1025300081FAD32000F07EFA002000F07BFAD5204B
:1025400000F078FAF02000F075FAD92000F072FA65
:10255000222000F06FFADA2000F06CFA122000F06E
:1025600069FADB2000F066FA202000F063FA8D2083
:1025700000F060FA142000F05DFABDE81040AF20D2
:1025800000F058BA70477047FEF7ECBC30B58FB01A
:1025900028216846FDF7AFFE14210AA8FDF7ABFE1F
:1025A00001210804CDE900100024029402250491C1
:1025B000CDE907504FF4E01009906846FEF74EFE53
:1025C00008B172B6FEE70F20CDE90A054FF480602E
:1025D000CDE90C4002210AA80E94FEF753FD002815
:1025E00001D072B6FEE70FB030BD7047F0B502689B
:1025F000164B174C174D4FF08047984205D0B84204
:1026000003D0A04201D0A84203D122F070064A684C
:102610003243984205D0B84203D0A04201D0A8422C
:1026200003D122F44074CA6822434C6922F080022C
:10263000224302608A68C2620A688262984201D1BB
:102640000969016301214161F0BD0000002C0140D6
:10265000000400400008004010B5846842EA0322EC
:1026600024F47F440A432243826010BD826822F032
:1026700070020A4342F007018160704730B5026A78
:1026800022F001020262026A4368846924F0730541
:102690000C682C4322F002058A682A430A4DA8429E
:1026A0000BD122F00805CA6823F440732A434D6910
:1026B00022F004021D438B692B4343608461496807
:1026C0004163026230BD0000002C014030B5026A57
:1026D00022F010020262026A436884690D6824F4E1
:1026E000E64444EA05248D6822F0200242EA0512FD
:1026F0000B4DA8420ED1CD6822F0800242EA0512AD
:102700004D6923F4406343EA85038D6922F040025A
:1027100043EA85034360846149688163026230BD96
:10272000002C014030B5026A22F480720262036A12
:102730004268C46923F4007324F073050C682C43C9
:102740008D6843EA05230C4DA8420ED1CD6823F4D1
:10275000006343EA05234D6922F4405242EA051220
:102760008D6923F4806342EA05124260C4614968BE
:10277000C163036230BD0000002C014030B5026A25
:1027800022F480520262046A4268C3690D6823F42D
:10279000E64343EA05238D6824F4005444EA0534F3
:1027A000064DA84204D14D6922F4804242EA8512C6
:1027B0004260C36149680164046230BD002C01407D
:1027C00010B5036A046A24F001040462846924F0E9
:1027D000F00444EA021423F00A020A43846102620C
:1027E00010BD10B5036A23F0100303628369046A05
:1027F00023F4704343EA023224F0A00343EA0111B8
:102800008261016210BD10B5406A0021C185C1849A
:10281000FFF76EF810BD0168CA6822F49072CA60B2
:1028200001684A6922F001024A61016B012904D161
:102830000168CA6822F01002CA60202180F83E10A8
:1028400000210163704708B590F83E10222901D09D
:10285000022008BD82684FF480539A4201D1016979
:1028600021B1816A9A421BD04AB10AE00268816AAA
:102870005268C2F308020A80816A891C08E0026972
:1028800072B10268526802F07F020A70816A491CC4
:102890008162C18D491E0904090CC18503D019E06C
:1028A00002685268F1E70168CA6822F02002CA6033
:1028B0000168CA6822F48072CA6001684A6922F01D
:1028C00001024A61202180F83E10016B012903D0EA
:1028D000FFF7BAF9002008BD002101630168CA684A
:1028E00022F01002CA6001680A68D20602D50A689E
:1028F00049680091818DFEF7FAFFEBE770B5044659
:1029000000680169E26821F44051114301612169C5
:10291000A0680843616908432168CA6841F20C63F2
:102920009A430243CA6020684169A26921F4407158
:10293000114341611E492068884202D1FEF748FCDC
:1029400001E0FEF735FC00EBC00101EB001260680E
:1029500064218000B2FBF0F3B3FBF1F36FF01806D3
:102960007343B2FBF0F5B2FBF0F605EB83053223BF
:1029700003EB0515B5FBF1F5B6FBF1F605F0F00537
:1029800005EB0615B2FBF0F6B2FBF0F0B0FBF1F090
:102990006FF01802504306EB800003EB0010B0FB11
:1029A000F1F0216800F00F002844886070BD00003D
:1029B000003801402DE9F041984617460E4604467E
:1029C000069D1DE0681C1BD02DB1FEF71BF8A0EB87
:1029D0000800A84214D92068C16821F4D071C160F0
:1029E0002068416921F001014161202084F83D0007
:1029F00084F83E00002084F83C000320BDE8F0810C
:102A00002068006836EA000004D00020B842D9D01F
:102A10000020F3E70120F9E70148FEF76BBF000053
:102A200030010020FEE700000148FFF77DB90000FB
:102A3000FC0100201CB500218DF804108DF8050064
:102A40004FF47A700090022301AA78210148FEF722
:102A5000C5F91CBD4C0000201CB540218DF80410A8
:102A60008DF805004FF47A700090022301AA7821B6
:102A70000148FEF7B3F91CBD4C0000200907090E00
:102A8000002804DB00F1E02080F80014704700F01B
:102A90000F0000F1E02080F8141D704730380A283C
:102AA00001D20120704700207047704711B583B0F4
:102AB00000204FF47A74CDE90040012303AAEE21EF
:102AC0000748FEF78BF9022301AAEE21044800947F
:102AD000FEF762F8BDF8040004B040BA10BD000073
:102AE0004C00002013B54FF6FF73012269460248DF
:102AF000FFF7ACF800981CBD30010020FEF73AFA51
:102B0000FFF744FDFFF750FBFFF730FBFFF724FC16
:102B1000FFF784FCFFF7CCFBFFF7EAFBFFF79AFC1B
:102B200007A0FDF755FB0BA0FDF752FBFFF7D0FC0C
:102B3000FFF7AEFCFDF788FCFDF768FCFEE7000040
:102B4000556172743120696E6974206973206F6BEE
:102B50000A0000005757444720546573740A000068
:102B6000000000000000000001020304060708093D
:102B70000000000001020304982B00080000002060
:102B80004C00000028010008E42B00084C00002045
:102B900024080000440100080000000000000000BC
:102BA0000000000000000000000000000000000025
:102BB0000000000000000000000000000000000015
:102BC0000000000000000000000000000000000005
:102BD00000000000010000001000000000000000E4
:042BE0000024F400D9
:04000005080000ED02
:00000001FF
